{
  "contractName": "MyNFT",
  "abi": [
    {
      "inputs": [],
      "stateMutability": "nonpayable",
      "type": "constructor"
    },
    {
      "anonymous": false,
      "inputs": [
        {
          "indexed": true,
          "internalType": "address",
          "name": "owner",
          "type": "address"
        },
        {
          "indexed": true,
          "internalType": "address",
          "name": "approved",
          "type": "address"
        },
        {
          "indexed": true,
          "internalType": "uint256",
          "name": "tokenId",
          "type": "uint256"
        }
      ],
      "name": "Approval",
      "type": "event"
    },
    {
      "anonymous": false,
      "inputs": [
        {
          "indexed": true,
          "internalType": "address",
          "name": "owner",
          "type": "address"
        },
        {
          "indexed": true,
          "internalType": "address",
          "name": "operator",
          "type": "address"
        },
        {
          "indexed": false,
          "internalType": "bool",
          "name": "approved",
          "type": "bool"
        }
      ],
      "name": "ApprovalForAll",
      "type": "event"
    },
    {
      "anonymous": false,
      "inputs": [
        {
          "indexed": false,
          "internalType": "uint256",
          "name": "id",
          "type": "uint256"
        },
        {
          "indexed": false,
          "internalType": "string",
          "name": "name",
          "type": "string"
        },
        {
          "indexed": false,
          "internalType": "string",
          "name": "description",
          "type": "string"
        },
        {
          "indexed": false,
          "internalType": "string",
          "name": "uri",
          "type": "string"
        },
        {
          "indexed": false,
          "internalType": "uint256",
          "name": "cost",
          "type": "uint256"
        },
        {
          "indexed": false,
          "internalType": "bool",
          "name": "isForSale",
          "type": "bool"
        },
        {
          "indexed": false,
          "internalType": "address",
          "name": "owner",
          "type": "address"
        }
      ],
      "name": "NFTMinted",
      "type": "event"
    },
    {
      "anonymous": false,
      "inputs": [
        {
          "indexed": false,
          "internalType": "uint256",
          "name": "id",
          "type": "uint256"
        },
        {
          "indexed": false,
          "internalType": "address",
          "name": "buyer",
          "type": "address"
        },
        {
          "indexed": false,
          "internalType": "address",
          "name": "seller",
          "type": "address"
        },
        {
          "indexed": false,
          "internalType": "uint256",
          "name": "price",
          "type": "uint256"
        }
      ],
      "name": "NFTSold",
      "type": "event"
    },
    {
      "anonymous": false,
      "inputs": [
        {
          "indexed": false,
          "internalType": "address",
          "name": "sender",
          "type": "address"
        },
        {
          "indexed": false,
          "internalType": "uint256",
          "name": "amount",
          "type": "uint256"
        }
      ],
      "name": "ReceivedEth",
      "type": "event"
    },
    {
      "anonymous": false,
      "inputs": [
        {
          "indexed": true,
          "internalType": "address",
          "name": "from",
          "type": "address"
        },
        {
          "indexed": true,
          "internalType": "address",
          "name": "to",
          "type": "address"
        },
        {
          "indexed": true,
          "internalType": "uint256",
          "name": "tokenId",
          "type": "uint256"
        }
      ],
      "name": "Transfer",
      "type": "event"
    },
    {
      "anonymous": false,
      "inputs": [
        {
          "indexed": false,
          "internalType": "uint256",
          "name": "amount",
          "type": "uint256"
        },
        {
          "indexed": false,
          "internalType": "uint256",
          "name": "required",
          "type": "uint256"
        }
      ],
      "name": "test",
      "type": "event"
    },
    {
      "stateMutability": "payable",
      "type": "fallback",
      "payable": true
    },
    {
      "inputs": [
        {
          "internalType": "uint256",
          "name": "",
          "type": "uint256"
        }
      ],
      "name": "allNFTs",
      "outputs": [
        {
          "internalType": "uint256",
          "name": "id",
          "type": "uint256"
        },
        {
          "internalType": "string",
          "name": "name",
          "type": "string"
        },
        {
          "internalType": "string",
          "name": "description",
          "type": "string"
        },
        {
          "internalType": "string",
          "name": "uri",
          "type": "string"
        },
        {
          "internalType": "uint256",
          "name": "cost",
          "type": "uint256"
        },
        {
          "internalType": "bool",
          "name": "isForSale",
          "type": "bool"
        },
        {
          "internalType": "address",
          "name": "owner",
          "type": "address"
        }
      ],
      "stateMutability": "view",
      "type": "function",
      "constant": true
    },
    {
      "inputs": [
        {
          "internalType": "address",
          "name": "to",
          "type": "address"
        },
        {
          "internalType": "uint256",
          "name": "tokenId",
          "type": "uint256"
        }
      ],
      "name": "approve",
      "outputs": [],
      "stateMutability": "nonpayable",
      "type": "function"
    },
    {
      "inputs": [
        {
          "internalType": "address",
          "name": "owner",
          "type": "address"
        }
      ],
      "name": "balanceOf",
      "outputs": [
        {
          "internalType": "uint256",
          "name": "",
          "type": "uint256"
        }
      ],
      "stateMutability": "view",
      "type": "function",
      "constant": true
    },
    {
      "inputs": [
        {
          "internalType": "uint256",
          "name": "tokenId",
          "type": "uint256"
        }
      ],
      "name": "getApproved",
      "outputs": [
        {
          "internalType": "address",
          "name": "",
          "type": "address"
        }
      ],
      "stateMutability": "view",
      "type": "function",
      "constant": true
    },
    {
      "inputs": [
        {
          "internalType": "address",
          "name": "owner",
          "type": "address"
        },
        {
          "internalType": "address",
          "name": "operator",
          "type": "address"
        }
      ],
      "name": "isApprovedForAll",
      "outputs": [
        {
          "internalType": "bool",
          "name": "",
          "type": "bool"
        }
      ],
      "stateMutability": "view",
      "type": "function",
      "constant": true
    },
    {
      "inputs": [],
      "name": "name",
      "outputs": [
        {
          "internalType": "string",
          "name": "",
          "type": "string"
        }
      ],
      "stateMutability": "view",
      "type": "function",
      "constant": true
    },
    {
      "inputs": [
        {
          "internalType": "uint256",
          "name": "tokenId",
          "type": "uint256"
        }
      ],
      "name": "ownerOf",
      "outputs": [
        {
          "internalType": "address",
          "name": "",
          "type": "address"
        }
      ],
      "stateMutability": "view",
      "type": "function",
      "constant": true
    },
    {
      "inputs": [
        {
          "internalType": "address",
          "name": "from",
          "type": "address"
        },
        {
          "internalType": "address",
          "name": "to",
          "type": "address"
        },
        {
          "internalType": "uint256",
          "name": "tokenId",
          "type": "uint256"
        }
      ],
      "name": "safeTransferFrom",
      "outputs": [],
      "stateMutability": "nonpayable",
      "type": "function"
    },
    {
      "inputs": [
        {
          "internalType": "address",
          "name": "from",
          "type": "address"
        },
        {
          "internalType": "address",
          "name": "to",
          "type": "address"
        },
        {
          "internalType": "uint256",
          "name": "tokenId",
          "type": "uint256"
        },
        {
          "internalType": "bytes",
          "name": "data",
          "type": "bytes"
        }
      ],
      "name": "safeTransferFrom",
      "outputs": [],
      "stateMutability": "nonpayable",
      "type": "function"
    },
    {
      "inputs": [
        {
          "internalType": "address",
          "name": "operator",
          "type": "address"
        },
        {
          "internalType": "bool",
          "name": "approved",
          "type": "bool"
        }
      ],
      "name": "setApprovalForAll",
      "outputs": [],
      "stateMutability": "nonpayable",
      "type": "function"
    },
    {
      "inputs": [
        {
          "internalType": "bytes4",
          "name": "interfaceId",
          "type": "bytes4"
        }
      ],
      "name": "supportsInterface",
      "outputs": [
        {
          "internalType": "bool",
          "name": "",
          "type": "bool"
        }
      ],
      "stateMutability": "view",
      "type": "function",
      "constant": true
    },
    {
      "inputs": [],
      "name": "symbol",
      "outputs": [
        {
          "internalType": "string",
          "name": "",
          "type": "string"
        }
      ],
      "stateMutability": "view",
      "type": "function",
      "constant": true
    },
    {
      "inputs": [],
      "name": "tokenCounter",
      "outputs": [
        {
          "internalType": "uint256",
          "name": "",
          "type": "uint256"
        }
      ],
      "stateMutability": "view",
      "type": "function",
      "constant": true
    },
    {
      "inputs": [
        {
          "internalType": "uint256",
          "name": "tokenId",
          "type": "uint256"
        }
      ],
      "name": "tokenURI",
      "outputs": [
        {
          "internalType": "string",
          "name": "",
          "type": "string"
        }
      ],
      "stateMutability": "view",
      "type": "function",
      "constant": true
    },
    {
      "inputs": [
        {
          "internalType": "address",
          "name": "from",
          "type": "address"
        },
        {
          "internalType": "address",
          "name": "to",
          "type": "address"
        },
        {
          "internalType": "uint256",
          "name": "tokenId",
          "type": "uint256"
        }
      ],
      "name": "transferFrom",
      "outputs": [],
      "stateMutability": "nonpayable",
      "type": "function"
    },
    {
      "stateMutability": "payable",
      "type": "receive",
      "payable": true
    },
    {
      "inputs": [
        {
          "internalType": "uint256",
          "name": "_id",
          "type": "uint256"
        },
        {
          "internalType": "string",
          "name": "_tokenURI",
          "type": "string"
        },
        {
          "internalType": "address",
          "name": "_owner",
          "type": "address"
        }
      ],
      "name": "mintNFT",
      "outputs": [],
      "stateMutability": "nonpayable",
      "type": "function"
    },
    {
      "inputs": [
        {
          "internalType": "uint256",
          "name": "_tokenId",
          "type": "uint256"
        },
        {
          "internalType": "address",
          "name": "_newOwner",
          "type": "address"
        },
        {
          "internalType": "address",
          "name": "_previousOwner",
          "type": "address"
        }
      ],
      "name": "transferNFT",
      "outputs": [],
      "stateMutability": "nonpayable",
      "type": "function"
    }
  ],
  "bytecode": "0x60806040523480156200001157600080fd5b506040518060400160405280600d81526020017f546865417765736f6d654e4654000000000000000000000000000000000000008152506040518060400160405280600581526020017f54414e465400000000000000000000000000000000000000000000000000000081525081600090816200008f91906200036d565b508060019081620000a191906200036d565b50505033600760006101000a81548173ffffffffffffffffffffffffffffffffffffffff021916908373ffffffffffffffffffffffffffffffffffffffff160217905550600060088190555062000454565b600081519050919050565b7f4e487b7100000000000000000000000000000000000000000000000000000000600052604160045260246000fd5b7f4e487b7100000000000000000000000000000000000000000000000000000000600052602260045260246000fd5b600060028204905060018216806200017557607f821691505b6020821081036200018b576200018a6200012d565b5b50919050565b60008190508160005260206000209050919050565b60006020601f8301049050919050565b600082821b905092915050565b600060088302620001f57fffffffffffffffffffffffffffffffffffffffffffffffffffffffffffffffff82620001b6565b620002018683620001b6565b95508019841693508086168417925050509392505050565b6000819050919050565b6000819050919050565b60006200024e62000248620002428462000219565b62000223565b62000219565b9050919050565b6000819050919050565b6200026a836200022d565b62000282620002798262000255565b848454620001c3565b825550505050565b600090565b620002996200028a565b620002a68184846200025f565b505050565b5b81811015620002ce57620002c26000826200028f565b600181019050620002ac565b5050565b601f8211156200031d57620002e78162000191565b620002f284620001a6565b8101602085101562000302578190505b6200031a6200031185620001a6565b830182620002ab565b50505b505050565b600082821c905092915050565b6000620003426000198460080262000322565b1980831691505092915050565b60006200035d83836200032f565b9150826002028217905092915050565b6200037882620000f3565b67ffffffffffffffff811115620003945762000393620000fe565b5b620003a082546200015c565b620003ad828285620002d2565b600060209050601f831160018114620003e55760008415620003d0578287015190505b620003dc85826200034f565b8655506200044c565b601f198416620003f58662000191565b60005b828110156200041f57848901518255600182019150602085019450602081019050620003f8565b868310156200043f57848901516200043b601f8916826200032f565b8355505b6001600288020188555050505b505050505050565b612f0c80620004646000396000f3fe6080604052600436106101025760003560e01c806365d98cd611610095578063b88d4fde11610064578063b88d4fde146103bd578063bf162d67146103e6578063c87b56dd14610429578063d082e38114610466578063e985e9c51461049157610142565b806365d98cd61461030357806370a082311461032c57806395d89b4114610369578063a22cb4651461039457610142565b806323b872dd116100d157806323b872dd1461024b5780632aafe1321461027457806342842e0e1461029d5780636352211e146102c657610142565b806301ffc9a71461017d57806306fdde03146101ba578063081812fc146101e5578063095ea7b31461022257610142565b36610142577f52a6cdf67c40ce333b3d846e4e143db87f71dd7935612a4cafcf6ba76047ca1f3334604051610138929190611cd6565b60405180910390a1005b7f52a6cdf67c40ce333b3d846e4e143db87f71dd7935612a4cafcf6ba76047ca1f3334604051610173929190611cd6565b60405180910390a1005b34801561018957600080fd5b506101a4600480360381019061019f9190611d6b565b6104ce565b6040516101b19190611db3565b60405180910390f35b3480156101c657600080fd5b506101cf6105b0565b6040516101dc9190611e5e565b60405180910390f35b3480156101f157600080fd5b5061020c60048036038101906102079190611eac565b610642565b6040516102199190611ed9565b60405180910390f35b34801561022e57600080fd5b5061024960048036038101906102449190611f20565b610688565b005b34801561025757600080fd5b50610272600480360381019061026d9190611f60565b61079f565b005b34801561028057600080fd5b5061029b60048036038101906102969190611fb3565b6107ff565b005b3480156102a957600080fd5b506102c460048036038101906102bf9190611f60565b61080f565b005b3480156102d257600080fd5b506102ed60048036038101906102e89190611eac565b61082f565b6040516102fa9190611ed9565b60405180910390f35b34801561030f57600080fd5b5061032a6004803603810190610325919061213b565b6108b5565b005b34801561033857600080fd5b50610353600480360381019061034e91906121aa565b6108ce565b60405161036091906121d7565b60405180910390f35b34801561037557600080fd5b5061037e610985565b60405161038b9190611e5e565b60405180910390f35b3480156103a057600080fd5b506103bb60048036038101906103b6919061221e565b610a17565b005b3480156103c957600080fd5b506103e460048036038101906103df91906122ff565b610a2d565b005b3480156103f257600080fd5b5061040d60048036038101906104089190611eac565b610a8f565b6040516104209796959493929190612382565b60405180910390f35b34801561043557600080fd5b50610450600480360381019061044b9190611eac565b610ca6565b60405161045d9190611e5e565b60405180910390f35b34801561047257600080fd5b5061047b610db8565b60405161048891906121d7565b60405180910390f35b34801561049d57600080fd5b506104b860048036038101906104b39190612406565b610dbe565b6040516104c59190611db3565b60405180910390f35b60007f80ac58cd000000000000000000000000000000000000000000000000000000007bffffffffffffffffffffffffffffffffffffffffffffffffffffffff1916827bffffffffffffffffffffffffffffffffffffffffffffffffffffffff1916148061059957507f5b5e139f000000000000000000000000000000000000000000000000000000007bffffffffffffffffffffffffffffffffffffffffffffffffffffffff1916827bffffffffffffffffffffffffffffffffffffffffffffffffffffffff1916145b806105a957506105a882610e52565b5b9050919050565b6060600080546105bf90612475565b80601f01602080910402602001604051908101604052809291908181526020018280546105eb90612475565b80156106385780601f1061060d57610100808354040283529160200191610638565b820191906000526020600020905b81548152906001019060200180831161061b57829003601f168201915b5050505050905090565b600061064d82610ebc565b6004600083815260200190815260200160002060009054906101000a900473ffffffffffffffffffffffffffffffffffffffff169050919050565b60006106938261082f565b90508073ffffffffffffffffffffffffffffffffffffffff168373ffffffffffffffffffffffffffffffffffffffff1603610703576040517f08c379a00000000000000000000000000000000000000000000000000000000081526004016106fa90612518565b60405180910390fd5b8073ffffffffffffffffffffffffffffffffffffffff16610722610f07565b73ffffffffffffffffffffffffffffffffffffffff16148061075157506107508161074b610f07565b610dbe565b5b610790576040517f08c379a0000000000000000000000000000000000000000000000000000000008152600401610787906125aa565b60405180910390fd5b61079a8383610f0f565b505050565b6107b06107aa610f07565b82610fc8565b6107ef576040517f08c379a00000000000000000000000000000000000000000000000000000000081526004016107e69061263c565b60405180910390fd5b6107fa83838361105d565b505050565b61080a81838561105d565b505050565b61082a83838360405180602001604052806000815250610a2d565b505050565b60008061083b83611356565b9050600073ffffffffffffffffffffffffffffffffffffffff168173ffffffffffffffffffffffffffffffffffffffff16036108ac576040517f08c379a00000000000000000000000000000000000000000000000000000000081526004016108a3906126a8565b60405180910390fd5b80915050919050565b6108bf8184611393565b6108c983836115b0565b505050565b60008073ffffffffffffffffffffffffffffffffffffffff168273ffffffffffffffffffffffffffffffffffffffff160361093e576040517f08c379a00000000000000000000000000000000000000000000000000000000081526004016109359061273a565b60405180910390fd5b600360008373ffffffffffffffffffffffffffffffffffffffff1673ffffffffffffffffffffffffffffffffffffffff168152602001908152602001600020549050919050565b60606001805461099490612475565b80601f01602080910402602001604051908101604052809291908181526020018280546109c090612475565b8015610a0d5780601f106109e257610100808354040283529160200191610a0d565b820191906000526020600020905b8154815290600101906020018083116109f057829003601f168201915b5050505050905090565b610a29610a22610f07565b838361161d565b5050565b610a3e610a38610f07565b83610fc8565b610a7d576040517f08c379a0000000000000000000000000000000000000000000000000000000008152600401610a749061263c565b60405180910390fd5b610a8984848484611789565b50505050565b60098181548110610a9f57600080fd5b9060005260206000209060060201600091509050806000015490806001018054610ac890612475565b80601f0160208091040260200160405190810160405280929190818152602001828054610af490612475565b8015610b415780601f10610b1657610100808354040283529160200191610b41565b820191906000526020600020905b815481529060010190602001808311610b2457829003601f168201915b505050505090806002018054610b5690612475565b80601f0160208091040260200160405190810160405280929190818152602001828054610b8290612475565b8015610bcf5780601f10610ba457610100808354040283529160200191610bcf565b820191906000526020600020905b815481529060010190602001808311610bb257829003601f168201915b505050505090806003018054610be490612475565b80601f0160208091040260200160405190810160405280929190818152602001828054610c1090612475565b8015610c5d5780601f10610c3257610100808354040283529160200191610c5d565b820191906000526020600020905b815481529060010190602001808311610c4057829003601f168201915b5050505050908060040154908060050160009054906101000a900460ff16908060050160019054906101000a900473ffffffffffffffffffffffffffffffffffffffff16905087565b6060610cb182610ebc565b6000600660008481526020019081526020016000208054610cd190612475565b80601f0160208091040260200160405190810160405280929190818152602001828054610cfd90612475565b8015610d4a5780601f10610d1f57610100808354040283529160200191610d4a565b820191906000526020600020905b815481529060010190602001808311610d2d57829003601f168201915b505050505090506000610d5b6117e5565b90506000815103610d70578192505050610db3565b600082511115610da5578082604051602001610d8d929190612796565b60405160208183030381529060405292505050610db3565b610dae846117fc565b925050505b919050565b60085481565b6000600560008473ffffffffffffffffffffffffffffffffffffffff1673ffffffffffffffffffffffffffffffffffffffff16815260200190815260200160002060008373ffffffffffffffffffffffffffffffffffffffff1673ffffffffffffffffffffffffffffffffffffffff16815260200190815260200160002060009054906101000a900460ff16905092915050565b60007f01ffc9a7000000000000000000000000000000000000000000000000000000007bffffffffffffffffffffffffffffffffffffffffffffffffffffffff1916827bffffffffffffffffffffffffffffffffffffffffffffffffffffffff1916149050919050565b610ec581611864565b610f04576040517f08c379a0000000000000000000000000000000000000000000000000000000008152600401610efb906126a8565b60405180910390fd5b50565b600033905090565b816004600083815260200190815260200160002060006101000a81548173ffffffffffffffffffffffffffffffffffffffff021916908373ffffffffffffffffffffffffffffffffffffffff160217905550808273ffffffffffffffffffffffffffffffffffffffff16610f828361082f565b73ffffffffffffffffffffffffffffffffffffffff167f8c5be1e5ebec7d5bd14f71427d1e84f3dd0314c0f7b2291e5b200ac8c7c3b92560405160405180910390a45050565b600080610fd48361082f565b90508073ffffffffffffffffffffffffffffffffffffffff168473ffffffffffffffffffffffffffffffffffffffff16148061101657506110158185610dbe565b5b8061105457508373ffffffffffffffffffffffffffffffffffffffff1661103c84610642565b73ffffffffffffffffffffffffffffffffffffffff16145b91505092915050565b8273ffffffffffffffffffffffffffffffffffffffff1661107d8261082f565b73ffffffffffffffffffffffffffffffffffffffff16146110d3576040517f08c379a00000000000000000000000000000000000000000000000000000000081526004016110ca9061282c565b60405180910390fd5b600073ffffffffffffffffffffffffffffffffffffffff168273ffffffffffffffffffffffffffffffffffffffff1603611142576040517f08c379a0000000000000000000000000000000000000000000000000000000008152600401611139906128be565b60405180910390fd5b61114f83838360016118a5565b8273ffffffffffffffffffffffffffffffffffffffff1661116f8261082f565b73ffffffffffffffffffffffffffffffffffffffff16146111c5576040517f08c379a00000000000000000000000000000000000000000000000000000000081526004016111bc9061282c565b60405180910390fd5b6004600082815260200190815260200160002060006101000a81549073ffffffffffffffffffffffffffffffffffffffff02191690556001600360008573ffffffffffffffffffffffffffffffffffffffff1673ffffffffffffffffffffffffffffffffffffffff168152602001908152602001600020600082825403925050819055506001600360008473ffffffffffffffffffffffffffffffffffffffff1673ffffffffffffffffffffffffffffffffffffffff16815260200190815260200160002060008282540192505081905550816002600083815260200190815260200160002060006101000a81548173ffffffffffffffffffffffffffffffffffffffff021916908373ffffffffffffffffffffffffffffffffffffffff160217905550808273ffffffffffffffffffffffffffffffffffffffff168473ffffffffffffffffffffffffffffffffffffffff167fddf252ad1be2c89b69c2b068fc378daa952ba7f163c4a11628f55a4df523b3ef60405160405180910390a461135183838360016118ab565b505050565b60006002600083815260200190815260200160002060009054906101000a900473ffffffffffffffffffffffffffffffffffffffff169050919050565b600073ffffffffffffffffffffffffffffffffffffffff168273ffffffffffffffffffffffffffffffffffffffff1603611402576040517f08c379a00000000000000000000000000000000000000000000000000000000081526004016113f99061292a565b60405180910390fd5b61140b81611864565b1561144b576040517f08c379a000000000000000000000000000000000000000000000000000000000815260040161144290612996565b60405180910390fd5b6114596000838360016118a5565b61146281611864565b156114a2576040517f08c379a000000000000000000000000000000000000000000000000000000000815260040161149990612996565b60405180910390fd5b6001600360008473ffffffffffffffffffffffffffffffffffffffff1673ffffffffffffffffffffffffffffffffffffffff16815260200190815260200160002060008282540192505081905550816002600083815260200190815260200160002060006101000a81548173ffffffffffffffffffffffffffffffffffffffff021916908373ffffffffffffffffffffffffffffffffffffffff160217905550808273ffffffffffffffffffffffffffffffffffffffff16600073ffffffffffffffffffffffffffffffffffffffff167fddf252ad1be2c89b69c2b068fc378daa952ba7f163c4a11628f55a4df523b3ef60405160405180910390a46115ac6000838360016118ab565b5050565b6115b982611864565b6115f8576040517f08c379a00000000000000000000000000000000000000000000000000000000081526004016115ef90612a28565b60405180910390fd5b806006600084815260200190815260200160002090816116189190612bf4565b505050565b8173ffffffffffffffffffffffffffffffffffffffff168373ffffffffffffffffffffffffffffffffffffffff160361168b576040517f08c379a000000000000000000000000000000000000000000000000000000000815260040161168290612d12565b60405180910390fd5b80600560008573ffffffffffffffffffffffffffffffffffffffff1673ffffffffffffffffffffffffffffffffffffffff16815260200190815260200160002060008473ffffffffffffffffffffffffffffffffffffffff1673ffffffffffffffffffffffffffffffffffffffff16815260200190815260200160002060006101000a81548160ff0219169083151502179055508173ffffffffffffffffffffffffffffffffffffffff168373ffffffffffffffffffffffffffffffffffffffff167f17307eab39ab6107e8899845ad3d59bd9653f200f220920489ca2b5937696c318360405161177c9190611db3565b60405180910390a3505050565b61179484848461105d565b6117a0848484846118b1565b6117df576040517f08c379a00000000000000000000000000000000000000000000000000000000081526004016117d690612da4565b60405180910390fd5b50505050565b606060405180602001604052806000815250905090565b606061180782610ebc565b60006118116117e5565b90506000815111611831576040518060200160405280600081525061185c565b8061183b84611a38565b60405160200161184c929190612796565b6040516020818303038152906040525b915050919050565b60008073ffffffffffffffffffffffffffffffffffffffff1661188683611356565b73ffffffffffffffffffffffffffffffffffffffff1614159050919050565b50505050565b50505050565b60006118d28473ffffffffffffffffffffffffffffffffffffffff16611b06565b15611a2b578373ffffffffffffffffffffffffffffffffffffffff1663150b7a026118fb610f07565b8786866040518563ffffffff1660e01b815260040161191d9493929190612e19565b6020604051808303816000875af192505050801561195957506040513d601f19601f820116820180604052508101906119569190612e7a565b60015b6119db573d8060008114611989576040519150601f19603f3d011682016040523d82523d6000602084013e61198e565b606091505b5060008151036119d3576040517f08c379a00000000000000000000000000000000000000000000000000000000081526004016119ca90612da4565b60405180910390fd5b805181602001fd5b63150b7a0260e01b7bffffffffffffffffffffffffffffffffffffffffffffffffffffffff1916817bffffffffffffffffffffffffffffffffffffffffffffffffffffffff191614915050611a30565b600190505b949350505050565b606060006001611a4784611b29565b01905060008167ffffffffffffffff811115611a6657611a65612010565b5b6040519080825280601f01601f191660200182016040528015611a985781602001600182028036833780820191505090505b509050600082602001820190505b600115611afb578080600190039150507f3031323334353637383961626364656600000000000000000000000000000000600a86061a8153600a8581611aef57611aee612ea7565b5b04945060008503611aa6575b819350505050919050565b6000808273ffffffffffffffffffffffffffffffffffffffff163b119050919050565b600080600090507a184f03e93ff9f4daa797ed6e38ed64bf6a1f0100000000000000008310611b87577a184f03e93ff9f4daa797ed6e38ed64bf6a1f0100000000000000008381611b7d57611b7c612ea7565b5b0492506040810190505b6d04ee2d6d415b85acef81000000008310611bc4576d04ee2d6d415b85acef81000000008381611bba57611bb9612ea7565b5b0492506020810190505b662386f26fc100008310611bf357662386f26fc100008381611be957611be8612ea7565b5b0492506010810190505b6305f5e1008310611c1c576305f5e1008381611c1257611c11612ea7565b5b0492506008810190505b6127108310611c41576127108381611c3757611c36612ea7565b5b0492506004810190505b60648310611c645760648381611c5a57611c59612ea7565b5b0492506002810190505b600a8310611c73576001810190505b80915050919050565b600073ffffffffffffffffffffffffffffffffffffffff82169050919050565b6000611ca782611c7c565b9050919050565b611cb781611c9c565b82525050565b6000819050919050565b611cd081611cbd565b82525050565b6000604082019050611ceb6000830185611cae565b611cf86020830184611cc7565b9392505050565b6000604051905090565b600080fd5b600080fd5b60007fffffffff0000000000000000000000000000000000000000000000000000000082169050919050565b611d4881611d13565b8114611d5357600080fd5b50565b600081359050611d6581611d3f565b92915050565b600060208284031215611d8157611d80611d09565b5b6000611d8f84828501611d56565b91505092915050565b60008115159050919050565b611dad81611d98565b82525050565b6000602082019050611dc86000830184611da4565b92915050565b600081519050919050565b600082825260208201905092915050565b60005b83811015611e08578082015181840152602081019050611ded565b60008484015250505050565b6000601f19601f8301169050919050565b6000611e3082611dce565b611e3a8185611dd9565b9350611e4a818560208601611dea565b611e5381611e14565b840191505092915050565b60006020820190508181036000830152611e788184611e25565b905092915050565b611e8981611cbd565b8114611e9457600080fd5b50565b600081359050611ea681611e80565b92915050565b600060208284031215611ec257611ec1611d09565b5b6000611ed084828501611e97565b91505092915050565b6000602082019050611eee6000830184611cae565b92915050565b611efd81611c9c565b8114611f0857600080fd5b50565b600081359050611f1a81611ef4565b92915050565b60008060408385031215611f3757611f36611d09565b5b6000611f4585828601611f0b565b9250506020611f5685828601611e97565b9150509250929050565b600080600060608486031215611f7957611f78611d09565b5b6000611f8786828701611f0b565b9350506020611f9886828701611f0b565b9250506040611fa986828701611e97565b9150509250925092565b600080600060608486031215611fcc57611fcb611d09565b5b6000611fda86828701611e97565b9350506020611feb86828701611f0b565b9250506040611ffc86828701611f0b565b9150509250925092565b600080fd5b600080fd5b7f4e487b7100000000000000000000000000000000000000000000000000000000600052604160045260246000fd5b61204882611e14565b810181811067ffffffffffffffff8211171561206757612066612010565b5b80604052505050565b600061207a611cff565b9050612086828261203f565b919050565b600067ffffffffffffffff8211156120a6576120a5612010565b5b6120af82611e14565b9050602081019050919050565b82818337600083830152505050565b60006120de6120d98461208b565b612070565b9050828152602081018484840111156120fa576120f961200b565b5b6121058482856120bc565b509392505050565b600082601f83011261212257612121612006565b5b81356121328482602086016120cb565b91505092915050565b60008060006060848603121561215457612153611d09565b5b600061216286828701611e97565b935050602084013567ffffffffffffffff81111561218357612182611d0e565b5b61218f8682870161210d565b92505060406121a086828701611f0b565b9150509250925092565b6000602082840312156121c0576121bf611d09565b5b60006121ce84828501611f0b565b91505092915050565b60006020820190506121ec6000830184611cc7565b92915050565b6121fb81611d98565b811461220657600080fd5b50565b600081359050612218816121f2565b92915050565b6000806040838503121561223557612234611d09565b5b600061224385828601611f0b565b925050602061225485828601612209565b9150509250929050565b600067ffffffffffffffff82111561227957612278612010565b5b61228282611e14565b9050602081019050919050565b60006122a261229d8461225e565b612070565b9050828152602081018484840111156122be576122bd61200b565b5b6122c98482856120bc565b509392505050565b600082601f8301126122e6576122e5612006565b5b81356122f684826020860161228f565b91505092915050565b6000806000806080858703121561231957612318611d09565b5b600061232787828801611f0b565b945050602061233887828801611f0b565b935050604061234987828801611e97565b925050606085013567ffffffffffffffff81111561236a57612369611d0e565b5b612376878288016122d1565b91505092959194509250565b600060e082019050612397600083018a611cc7565b81810360208301526123a98189611e25565b905081810360408301526123bd8188611e25565b905081810360608301526123d18187611e25565b90506123e06080830186611cc7565b6123ed60a0830185611da4565b6123fa60c0830184611cae565b98975050505050505050565b6000806040838503121561241d5761241c611d09565b5b600061242b85828601611f0b565b925050602061243c85828601611f0b565b9150509250929050565b7f4e487b7100000000000000000000000000000000000000000000000000000000600052602260045260246000fd5b6000600282049050600182168061248d57607f821691505b6020821081036124a05761249f612446565b5b50919050565b7f4552433732313a20617070726f76616c20746f2063757272656e74206f776e6560008201527f7200000000000000000000000000000000000000000000000000000000000000602082015250565b6000612502602183611dd9565b915061250d826124a6565b604082019050919050565b60006020820190508181036000830152612531816124f5565b9050919050565b7f4552433732313a20617070726f76652063616c6c6572206973206e6f7420746f60008201527f6b656e206f776e6572206f7220617070726f76656420666f7220616c6c000000602082015250565b6000612594603d83611dd9565b915061259f82612538565b604082019050919050565b600060208201905081810360008301526125c381612587565b9050919050565b7f4552433732313a2063616c6c6572206973206e6f7420746f6b656e206f776e6560008201527f72206f7220617070726f76656400000000000000000000000000000000000000602082015250565b6000612626602d83611dd9565b9150612631826125ca565b604082019050919050565b6000602082019050818103600083015261265581612619565b9050919050565b7f4552433732313a20696e76616c696420746f6b656e2049440000000000000000600082015250565b6000612692601883611dd9565b915061269d8261265c565b602082019050919050565b600060208201905081810360008301526126c181612685565b9050919050565b7f4552433732313a2061646472657373207a65726f206973206e6f74206120766160008201527f6c6964206f776e65720000000000000000000000000000000000000000000000602082015250565b6000612724602983611dd9565b915061272f826126c8565b604082019050919050565b6000602082019050818103600083015261275381612717565b9050919050565b600081905092915050565b600061277082611dce565b61277a818561275a565b935061278a818560208601611dea565b80840191505092915050565b60006127a28285612765565b91506127ae8284612765565b91508190509392505050565b7f4552433732313a207472616e736665722066726f6d20696e636f72726563742060008201527f6f776e6572000000000000000000000000000000000000000000000000000000602082015250565b6000612816602583611dd9565b9150612821826127ba565b604082019050919050565b6000602082019050818103600083015261284581612809565b9050919050565b7f4552433732313a207472616e7366657220746f20746865207a65726f2061646460008201527f7265737300000000000000000000000000000000000000000000000000000000602082015250565b60006128a8602483611dd9565b91506128b38261284c565b604082019050919050565b600060208201905081810360008301526128d78161289b565b9050919050565b7f4552433732313a206d696e7420746f20746865207a65726f2061646472657373600082015250565b6000612914602083611dd9565b915061291f826128de565b602082019050919050565b6000602082019050818103600083015261294381612907565b9050919050565b7f4552433732313a20746f6b656e20616c7265616479206d696e74656400000000600082015250565b6000612980601c83611dd9565b915061298b8261294a565b602082019050919050565b600060208201905081810360008301526129af81612973565b9050919050565b7f45524337323155524953746f726167653a2055524920736574206f66206e6f6e60008201527f6578697374656e7420746f6b656e000000000000000000000000000000000000602082015250565b6000612a12602e83611dd9565b9150612a1d826129b6565b604082019050919050565b60006020820190508181036000830152612a4181612a05565b9050919050565b60008190508160005260206000209050919050565b60006020601f8301049050919050565b600082821b905092915050565b600060088302612aaa7fffffffffffffffffffffffffffffffffffffffffffffffffffffffffffffffff82612a6d565b612ab48683612a6d565b95508019841693508086168417925050509392505050565b6000819050919050565b6000612af1612aec612ae784611cbd565b612acc565b611cbd565b9050919050565b6000819050919050565b612b0b83612ad6565b612b1f612b1782612af8565b848454612a7a565b825550505050565b600090565b612b34612b27565b612b3f818484612b02565b505050565b5b81811015612b6357612b58600082612b2c565b600181019050612b45565b5050565b601f821115612ba857612b7981612a48565b612b8284612a5d565b81016020851015612b91578190505b612ba5612b9d85612a5d565b830182612b44565b50505b505050565b600082821c905092915050565b6000612bcb60001984600802612bad565b1980831691505092915050565b6000612be48383612bba565b9150826002028217905092915050565b612bfd82611dce565b67ffffffffffffffff811115612c1657612c15612010565b5b612c208254612475565b612c2b828285612b67565b600060209050601f831160018114612c5e5760008415612c4c578287015190505b612c568582612bd8565b865550612cbe565b601f198416612c6c86612a48565b60005b82811015612c9457848901518255600182019150602085019450602081019050612c6f565b86831015612cb15784890151612cad601f891682612bba565b8355505b6001600288020188555050505b505050505050565b7f4552433732313a20617070726f766520746f2063616c6c657200000000000000600082015250565b6000612cfc601983611dd9565b9150612d0782612cc6565b602082019050919050565b60006020820190508181036000830152612d2b81612cef565b9050919050565b7f4552433732313a207472616e7366657220746f206e6f6e20455243373231526560008201527f63656976657220696d706c656d656e7465720000000000000000000000000000602082015250565b6000612d8e603283611dd9565b9150612d9982612d32565b604082019050919050565b60006020820190508181036000830152612dbd81612d81565b9050919050565b600081519050919050565b600082825260208201905092915050565b6000612deb82612dc4565b612df58185612dcf565b9350612e05818560208601611dea565b612e0e81611e14565b840191505092915050565b6000608082019050612e2e6000830187611cae565b612e3b6020830186611cae565b612e486040830185611cc7565b8181036060830152612e5a8184612de0565b905095945050505050565b600081519050612e7481611d3f565b92915050565b600060208284031215612e9057612e8f611d09565b5b6000612e9e84828501612e65565b91505092915050565b7f4e487b7100000000000000000000000000000000000000000000000000000000600052601260045260246000fdfea2646970667358221220813ea9f6641adb6b8da1edcd4c667214662591597308625d3306c07e70e1385964736f6c63430008130033",
  "immutableReferences": {},
  "source": "// SPDX-License-Identifier: MIT\r\n//TODO: ad setters for nft attributes and add events\r\npragma solidity ^0.8.0;\r\n\r\nimport \"@openzeppelin/contracts/token/ERC721/ERC721.sol\";\r\nimport \"@openzeppelin/contracts/token/ERC721/extensions/ERC721URIStorage.sol\";\r\nimport \"./ZCoin.sol\";\r\n\r\ncontract MyNFT is ERC721URIStorage {\r\n    address payable owner;\r\n    uint256 public tokenCounter;\r\n    struct NFTData {\r\n        uint256 id;\r\n        string name;\r\n        string description;\r\n        string uri;\r\n        uint256 cost;\r\n        bool isForSale;\r\n        address owner;\r\n    }\r\n    event NFTMinted(\r\n        uint256 id,\r\n        string name,\r\n        string description,\r\n        string uri,\r\n        uint256 cost,\r\n        bool isForSale,\r\n        address owner\r\n    );\r\n    event test(uint256 amount , uint256 required);\r\n    event NFTSold(uint256 id, address buyer, address seller, uint256 price);\r\n    event ReceivedEth(address sender, uint256 amount);\r\n    NFTData[] public allNFTs;\r\n    constructor() ERC721(\"TheAwesomeNFT\", \"TANFT\") {\r\n        owner = payable (msg.sender);\r\n        tokenCounter = 0;\r\n    }\r\n    fallback() external payable {\r\n        emit ReceivedEth(msg.sender, msg.value);\r\n    }\r\n\r\n    receive() external payable {\r\n        emit ReceivedEth(msg.sender, msg.value);\r\n    }\r\n    function mintNFT(\r\n        uint256 _id,\r\n        string memory _tokenURI,\r\n        address _owner\r\n    ) public {\r\n        _mint(_owner, _id);\r\n        _setTokenURI(_id, _tokenURI);\r\n    }\r\n    function transferNFT(uint256 _tokenId, address _newOwner,address _previousOwner) public {\r\n        _transfer(_previousOwner, _newOwner, _tokenId);\r\n    }\r\n}",
  "sourcePath": "C:\\Users\\firas\\WebstormProjects\\z-wallet\\contracts\\MyNFT.sol",
  "compiler": {
    "name": "solc",
    "version": "0.8.19+commit.7dd6d404.Emscripten.clang"
  },
  "schemaVersion": "3.4.16",
  "updatedAt": "2024-12-04T15:20:58.646Z",
  "networkType": "ethereum",
  "devdoc": {
    "events": {
      "Approval(address,address,uint256)": {
        "details": "Emitted when `owner` enables `approved` to manage the `tokenId` token."
      },
      "ApprovalForAll(address,address,bool)": {
        "details": "Emitted when `owner` enables or disables (`approved`) `operator` to manage all of its assets."
      },
      "Transfer(address,address,uint256)": {
        "details": "Emitted when `tokenId` token is transferred from `from` to `to`."
      }
    },
    "kind": "dev",
    "methods": {
      "approve(address,uint256)": {
        "details": "See {IERC721-approve}."
      },
      "balanceOf(address)": {
        "details": "See {IERC721-balanceOf}."
      },
      "getApproved(uint256)": {
        "details": "See {IERC721-getApproved}."
      },
      "isApprovedForAll(address,address)": {
        "details": "See {IERC721-isApprovedForAll}."
      },
      "name()": {
        "details": "See {IERC721Metadata-name}."
      },
      "ownerOf(uint256)": {
        "details": "See {IERC721-ownerOf}."
      },
      "safeTransferFrom(address,address,uint256)": {
        "details": "See {IERC721-safeTransferFrom}."
      },
      "safeTransferFrom(address,address,uint256,bytes)": {
        "details": "See {IERC721-safeTransferFrom}."
      },
      "setApprovalForAll(address,bool)": {
        "details": "See {IERC721-setApprovalForAll}."
      },
      "supportsInterface(bytes4)": {
        "details": "See {IERC165-supportsInterface}."
      },
      "symbol()": {
        "details": "See {IERC721Metadata-symbol}."
      },
      "tokenURI(uint256)": {
        "details": "See {IERC721Metadata-tokenURI}."
      },
      "transferFrom(address,address,uint256)": {
        "details": "See {IERC721-transferFrom}."
      }
    },
    "version": 1
  },
  "userdoc": {
    "kind": "user",
    "methods": {},
    "version": 1
  }
}