{
  "contractName": "ZWallet",
  "abi": [
    {
      "inputs": [
        {
          "internalType": "address payable",
          "name": "_zCoinAddress",
          "type": "address"
        },
        {
          "internalType": "address payable",
          "name": "_nftContractAddress",
          "type": "address"
        },
        {
          "internalType": "uint256",
          "name": "_nftMintCostInWei",
          "type": "uint256"
        },
        {
          "internalType": "uint256",
          "name": "_nftMintCostInZTK",
          "type": "uint256"
        }
      ],
      "stateMutability": "nonpayable",
      "type": "constructor"
    },
    {
      "anonymous": false,
      "inputs": [
        {
          "indexed": false,
          "internalType": "uint256",
          "name": "id",
          "type": "uint256"
        },
        {
          "indexed": false,
          "internalType": "string",
          "name": "name",
          "type": "string"
        },
        {
          "indexed": false,
          "internalType": "string",
          "name": "description",
          "type": "string"
        },
        {
          "indexed": false,
          "internalType": "string",
          "name": "uri",
          "type": "string"
        },
        {
          "indexed": false,
          "internalType": "uint256",
          "name": "cost",
          "type": "uint256"
        },
        {
          "indexed": false,
          "internalType": "bool",
          "name": "isForSale",
          "type": "bool"
        },
        {
          "indexed": false,
          "internalType": "address",
          "name": "owner",
          "type": "address"
        }
      ],
      "name": "NFTMinted",
      "type": "event"
    },
    {
      "anonymous": false,
      "inputs": [
        {
          "indexed": false,
          "internalType": "uint256",
          "name": "id",
          "type": "uint256"
        },
        {
          "indexed": false,
          "internalType": "address",
          "name": "buyer",
          "type": "address"
        },
        {
          "indexed": false,
          "internalType": "address",
          "name": "seller",
          "type": "address"
        },
        {
          "indexed": false,
          "internalType": "uint256",
          "name": "price",
          "type": "uint256"
        }
      ],
      "name": "NFTSold",
      "type": "event"
    },
    {
      "anonymous": false,
      "inputs": [
        {
          "indexed": false,
          "internalType": "address",
          "name": "sender",
          "type": "address"
        },
        {
          "indexed": false,
          "internalType": "uint256",
          "name": "amount",
          "type": "uint256"
        }
      ],
      "name": "ReceivedEth",
      "type": "event"
    },
    {
      "anonymous": false,
      "inputs": [
        {
          "indexed": false,
          "internalType": "address",
          "name": "seller",
          "type": "address"
        },
        {
          "indexed": false,
          "internalType": "uint256",
          "name": "amount",
          "type": "uint256"
        }
      ],
      "name": "ZCoinSold",
      "type": "event"
    },
    {
      "inputs": [
        {
          "internalType": "uint256",
          "name": "",
          "type": "uint256"
        }
      ],
      "name": "allNFTs",
      "outputs": [
        {
          "internalType": "uint256",
          "name": "id",
          "type": "uint256"
        },
        {
          "internalType": "string",
          "name": "name",
          "type": "string"
        },
        {
          "internalType": "string",
          "name": "description",
          "type": "string"
        },
        {
          "internalType": "string",
          "name": "uri",
          "type": "string"
        },
        {
          "internalType": "uint256",
          "name": "cost",
          "type": "uint256"
        },
        {
          "internalType": "bool",
          "name": "isForSale",
          "type": "bool"
        },
        {
          "internalType": "address",
          "name": "owner",
          "type": "address"
        }
      ],
      "stateMutability": "view",
      "type": "function",
      "constant": true
    },
    {
      "inputs": [],
      "name": "nftMintCostInWei",
      "outputs": [
        {
          "internalType": "uint256",
          "name": "",
          "type": "uint256"
        }
      ],
      "stateMutability": "view",
      "type": "function",
      "constant": true
    },
    {
      "inputs": [],
      "name": "nftMintCostInZTK",
      "outputs": [
        {
          "internalType": "uint256",
          "name": "",
          "type": "uint256"
        }
      ],
      "stateMutability": "view",
      "type": "function",
      "constant": true
    },
    {
      "inputs": [],
      "name": "tokenCounter",
      "outputs": [
        {
          "internalType": "uint256",
          "name": "",
          "type": "uint256"
        }
      ],
      "stateMutability": "view",
      "type": "function",
      "constant": true
    },
    {
      "inputs": [],
      "name": "buyZCoin",
      "outputs": [],
      "stateMutability": "payable",
      "type": "function",
      "payable": true
    },
    {
      "inputs": [
        {
          "internalType": "string",
          "name": "_tokenURI",
          "type": "string"
        },
        {
          "internalType": "string",
          "name": "_name",
          "type": "string"
        },
        {
          "internalType": "string",
          "name": "_description",
          "type": "string"
        },
        {
          "internalType": "uint256",
          "name": "_cost",
          "type": "uint256"
        },
        {
          "internalType": "bool",
          "name": "_isForSale",
          "type": "bool"
        }
      ],
      "name": "mintNFTWithEth",
      "outputs": [],
      "stateMutability": "payable",
      "type": "function",
      "payable": true
    },
    {
      "inputs": [
        {
          "internalType": "string",
          "name": "_tokenURI",
          "type": "string"
        },
        {
          "internalType": "string",
          "name": "_name",
          "type": "string"
        },
        {
          "internalType": "string",
          "name": "_description",
          "type": "string"
        },
        {
          "internalType": "uint256",
          "name": "_cost",
          "type": "uint256"
        },
        {
          "internalType": "bool",
          "name": "_isForSale",
          "type": "bool"
        }
      ],
      "name": "mintNFTWithZToken",
      "outputs": [],
      "stateMutability": "nonpayable",
      "type": "function"
    },
    {
      "inputs": [
        {
          "internalType": "uint256",
          "name": "_tokenId",
          "type": "uint256"
        }
      ],
      "name": "transferNFT",
      "outputs": [],
      "stateMutability": "nonpayable",
      "type": "function"
    },
    {
      "inputs": [
        {
          "internalType": "uint256",
          "name": "_id",
          "type": "uint256"
        },
        {
          "internalType": "string",
          "name": "_name",
          "type": "string"
        }
      ],
      "name": "setNFTName",
      "outputs": [],
      "stateMutability": "nonpayable",
      "type": "function"
    },
    {
      "inputs": [
        {
          "internalType": "uint256",
          "name": "_id",
          "type": "uint256"
        },
        {
          "internalType": "string",
          "name": "_description",
          "type": "string"
        }
      ],
      "name": "setNFTDescription",
      "outputs": [],
      "stateMutability": "nonpayable",
      "type": "function"
    },
    {
      "inputs": [
        {
          "internalType": "uint256",
          "name": "_id",
          "type": "uint256"
        },
        {
          "internalType": "bool",
          "name": "_isForSale",
          "type": "bool"
        }
      ],
      "name": "setNFTIsForSale",
      "outputs": [],
      "stateMutability": "nonpayable",
      "type": "function"
    },
    {
      "inputs": [
        {
          "internalType": "uint256",
          "name": "_id",
          "type": "uint256"
        },
        {
          "internalType": "uint256",
          "name": "_cost",
          "type": "uint256"
        }
      ],
      "name": "setNFTIsCost",
      "outputs": [],
      "stateMutability": "nonpayable",
      "type": "function"
    }
  ],
  "bytecode": "0x608060405260006006553480156200001657600080fd5b50604051620029b5380380620029b583398181016040528101906200003c9190620001fc565b83600160006101000a81548173ffffffffffffffffffffffffffffffffffffffff021916908373ffffffffffffffffffffffffffffffffffffffff160217905550836000806101000a81548173ffffffffffffffffffffffffffffffffffffffff021916908373ffffffffffffffffffffffffffffffffffffffff16021790555082600360006101000a81548173ffffffffffffffffffffffffffffffffffffffff021916908373ffffffffffffffffffffffffffffffffffffffff16021790555082600260006101000a81548173ffffffffffffffffffffffffffffffffffffffff021916908373ffffffffffffffffffffffffffffffffffffffff1602179055508160048190555080600581905550505050506200026e565b600080fd5b600073ffffffffffffffffffffffffffffffffffffffff82169050919050565b600062000189826200015c565b9050919050565b6200019b816200017c565b8114620001a757600080fd5b50565b600081519050620001bb8162000190565b92915050565b6000819050919050565b620001d681620001c1565b8114620001e257600080fd5b50565b600081519050620001f681620001cb565b92915050565b6000806000806080858703121562000219576200021862000157565b5b60006200022987828801620001aa565b94505060206200023c87828801620001aa565b93505060406200024f87828801620001e5565b92505060606200026287828801620001e5565b91505092959194509250565b612737806200027e6000396000f3fe6080604052600436106100a75760003560e01c8063c3f679ca11610064578063c3f679ca1461019d578063cc39bc9f146101c8578063d082e381146101f1578063d22327cb1461021c578063df6e991114610238578063fc9f696d14610261576100a7565b8063249e10c5146100ac57806376f548ac146100d55780638d2e963d146100fe57806397a1ce3314610108578063afb5936714610131578063bf162d671461015a575b600080fd5b3480156100b857600080fd5b506100d360048036038101906100ce9190611822565b61028c565b005b3480156100e157600080fd5b506100fc60048036038101906100f79190611887565b61064d565b005b610106610723565b005b34801561011457600080fd5b5061012f600480360381019061012a9190611a0d565b610a94565b005b34801561013d57600080fd5b5061015860048036038101906101539190611a69565b610b60565b005b34801561016657600080fd5b50610181600480360381019061017c9190611822565b61104c565b6040516101949796959493929190611c16565b60405180910390f35b3480156101a957600080fd5b506101b2611253565b6040516101bf9190611c9a565b60405180910390f35b3480156101d457600080fd5b506101ef60048036038101906101ea9190611cb5565b611259565b005b3480156101fd57600080fd5b5061020661131c565b6040516102139190611c9a565b60405180910390f35b61023660048036038101906102319190611a69565b611322565b005b34801561024457600080fd5b5061025f600480360381019061025a9190611a0d565b6116b1565b005b34801561026d57600080fd5b5061027661177d565b6040516102839190611c9a565b60405180910390f35b60006007600083815260200190815260200160002090508060050160009054906101000a900460ff166102f4576040517f08c379a00000000000000000000000000000000000000000000000000000000081526004016102eb90611d41565b60405180910390fd5b8060050160019054906101000a900473ffffffffffffffffffffffffffffffffffffffff1673ffffffffffffffffffffffffffffffffffffffff163373ffffffffffffffffffffffffffffffffffffffff1603610386576040517f08c379a000000000000000000000000000000000000000000000000000000000815260040161037d90611dad565b60405180910390fd5b806004015460008054906101000a900473ffffffffffffffffffffffffffffffffffffffff1673ffffffffffffffffffffffffffffffffffffffff1663f8b2cb4f336040518263ffffffff1660e01b81526004016103e49190611dcd565b602060405180830381865afa158015610401573d6000803e3d6000fd5b505050506040513d601f19601f820116820180604052508101906104259190611dfd565b11610465576040517f08c379a000000000000000000000000000000000000000000000000000000000815260040161045c90611e9c565b60405180910390fd5b60008160050160019054906101000a900473ffffffffffffffffffffffffffffffffffffffff169050338260050160016101000a81548173ffffffffffffffffffffffffffffffffffffffff021916908373ffffffffffffffffffffffffffffffffffffffff160217905550600260009054906101000a900473ffffffffffffffffffffffffffffffffffffffff1673ffffffffffffffffffffffffffffffffffffffff16632aafe1328433846040518463ffffffff1660e01b815260040161053093929190611ebc565b600060405180830381600087803b15801561054a57600080fd5b505af115801561055e573d6000803e3d6000fd5b5050505060008054906101000a900473ffffffffffffffffffffffffffffffffffffffff1673ffffffffffffffffffffffffffffffffffffffff166394ef0b35338385600401546040518463ffffffff1660e01b81526004016105c393929190611ef3565b6020604051808303816000875af11580156105e2573d6000803e3d6000fd5b505050506040513d601f19601f820116820180604052508101906106069190611f3f565b507f8562eb94748e30bb0071e932744ce902b460c683474fcb3bfd567ffa16b1afb283823385600401546040516106409493929190611f6c565b60405180910390a1505050565b3373ffffffffffffffffffffffffffffffffffffffff166007600084815260200190815260200160002060050160019054906101000a900473ffffffffffffffffffffffffffffffffffffffff1673ffffffffffffffffffffffffffffffffffffffff16146106f1576040517f08c379a00000000000000000000000000000000000000000000000000000000081526004016106e890612023565b60405180910390fd5b806007600084815260200190815260200160002060050160006101000a81548160ff0219169083151502179055505050565b60008060009054906101000a900473ffffffffffffffffffffffffffffffffffffffff1673ffffffffffffffffffffffffffffffffffffffff16637ff9b5966040518163ffffffff1660e01b8152600401602060405180830381865afa158015610791573d6000803e3d6000fd5b505050506040513d601f19601f820116820180604052508101906107b59190611dfd565b346107c09190612072565b90508060008054906101000a900473ffffffffffffffffffffffffffffffffffffffff1673ffffffffffffffffffffffffffffffffffffffff1663f8b2cb4f600160009054906101000a900473ffffffffffffffffffffffffffffffffffffffff166040518263ffffffff1660e01b815260040161083e9190612113565b602060405180830381865afa15801561085b573d6000803e3d6000fd5b505050506040513d601f19601f8201168201806040525081019061087f9190611dfd565b10156108c0576040517f08c379a00000000000000000000000000000000000000000000000000000000081526004016108b79061217a565b60405180910390fd5b6000600160009054906101000a900473ffffffffffffffffffffffffffffffffffffffff1673ffffffffffffffffffffffffffffffffffffffff1634620f42409060405161090d906121cb565b600060405180830381858888f193505050503d806000811461094b576040519150601f19603f3d011682016040523d82523d6000602084013e610950565b606091505b5050905080610994576040517f08c379a000000000000000000000000000000000000000000000000000000000815260040161098b9061222c565b60405180910390fd5b60008054906101000a900473ffffffffffffffffffffffffffffffffffffffff1673ffffffffffffffffffffffffffffffffffffffff166394ef0b35600160009054906101000a900473ffffffffffffffffffffffffffffffffffffffff1633856040518463ffffffff1660e01b8152600401610a139392919061224c565b6020604051808303816000875af1158015610a32573d6000803e3d6000fd5b505050506040513d601f19601f82011682018060405250810190610a569190611f3f565b507f10c1ae801e87966f1c81cc31fb7b4be3b6267c5a99840408188405b943a618b73383604051610a88929190612283565b60405180910390a15050565b3373ffffffffffffffffffffffffffffffffffffffff166007600084815260200190815260200160002060050160019054906101000a900473ffffffffffffffffffffffffffffffffffffffff1673ffffffffffffffffffffffffffffffffffffffff1614610b38576040517f08c379a0000000000000000000000000000000000000000000000000000000008152600401610b2f90612023565b60405180910390fd5b80600760008481526020019081526020016000206002019081610b5b91906124ae565b505050565b60055460008054906101000a900473ffffffffffffffffffffffffffffffffffffffff1673ffffffffffffffffffffffffffffffffffffffff1663f8b2cb4f336040518263ffffffff1660e01b8152600401610bbc9190611dcd565b602060405180830381865afa158015610bd9573d6000803e3d6000fd5b505050506040513d601f19601f82011682018060405250810190610bfd9190611dfd565b1015610c3e576040517f08c379a0000000000000000000000000000000000000000000000000000000008152600401610c35906125cc565b60405180910390fd5b610c46611783565b60065481600001818152505084816020018190525083816040018190525085816060018190525082816080018181525050818160a0019015159081151581525050338160c0019073ffffffffffffffffffffffffffffffffffffffff16908173ffffffffffffffffffffffffffffffffffffffff168152505080600760006006548152602001908152602001600020600082015181600001556020820151816001019081610cf491906124ae565b506040820151816002019081610d0a91906124ae565b506060820151816003019081610d2091906124ae565b506080820151816004015560a08201518160050160006101000a81548160ff02191690831515021790555060c08201518160050160016101000a81548173ffffffffffffffffffffffffffffffffffffffff021916908373ffffffffffffffffffffffffffffffffffffffff160217905550905050600160066000828254610da891906125ec565b92505081905550806007600083600001518152602001908152602001600020600082015181600001556020820151816001019081610de691906124ae565b506040820151816002019081610dfc91906124ae565b506060820151816003019081610e1291906124ae565b506080820151816004015560a08201518160050160006101000a81548160ff02191690831515021790555060c08201518160050160016101000a81548173ffffffffffffffffffffffffffffffffffffffff021916908373ffffffffffffffffffffffffffffffffffffffff160217905550905050600260009054906101000a900473ffffffffffffffffffffffffffffffffffffffff1673ffffffffffffffffffffffffffffffffffffffff166365d98cd682600001518360600151336040518463ffffffff1660e01b8152600401610eee93929190612620565b600060405180830381600087803b158015610f0857600080fd5b505af1158015610f1c573d6000803e3d6000fd5b505050507f156e8777c61016226bf9880fe734c6079cbe46f8ba6bbd64da92ed4fa3a6b3e9816000015182602001518360400151846060015185608001518660a001518760c00151604051610f779796959493929190611c16565b60405180910390a160008054906101000a900473ffffffffffffffffffffffffffffffffffffffff1673ffffffffffffffffffffffffffffffffffffffff166394ef0b3533600360009054906101000a900473ffffffffffffffffffffffffffffffffffffffff166005546040518463ffffffff1660e01b81526004016110009392919061265e565b6020604051808303816000875af115801561101f573d6000803e3d6000fd5b505050506040513d601f19601f820116820180604052508101906110439190611f3f565b50505050505050565b6007602052806000526040600020600091509050806000015490806001018054611075906122db565b80601f01602080910402602001604051908101604052809291908181526020018280546110a1906122db565b80156110ee5780601f106110c3576101008083540402835291602001916110ee565b820191906000526020600020905b8154815290600101906020018083116110d157829003601f168201915b505050505090806002018054611103906122db565b80601f016020809104026020016040519081016040528092919081815260200182805461112f906122db565b801561117c5780601f106111515761010080835404028352916020019161117c565b820191906000526020600020905b81548152906001019060200180831161115f57829003601f168201915b505050505090806003018054611191906122db565b80601f01602080910402602001604051908101604052809291908181526020018280546111bd906122db565b801561120a5780601f106111df5761010080835404028352916020019161120a565b820191906000526020600020905b8154815290600101906020018083116111ed57829003601f168201915b5050505050908060040154908060050160009054906101000a900460ff16908060050160019054906101000a900473ffffffffffffffffffffffffffffffffffffffff16905087565b60055481565b3373ffffffffffffffffffffffffffffffffffffffff166007600084815260200190815260200160002060050160019054906101000a900473ffffffffffffffffffffffffffffffffffffffff1673ffffffffffffffffffffffffffffffffffffffff16146112fd576040517f08c379a00000000000000000000000000000000000000000000000000000000081526004016112f490612023565b60405180910390fd5b8060076000848152602001908152602001600020600401819055505050565b60065481565b600454341015611367576040517f08c379a000000000000000000000000000000000000000000000000000000000815260040161135e906126e1565b60405180910390fd5b61136f611783565b60065481600001818152505060016006600082825461138e91906125ec565b9250508190555084816020018190525083816040018190525085816060018190525082816080018181525050818160a0019015159081151581525050338160c0019073ffffffffffffffffffffffffffffffffffffffff16908173ffffffffffffffffffffffffffffffffffffffff168152505080600760008360000151815260200190815260200160002060008201518160000155602082015181600101908161143991906124ae565b50604082015181600201908161144f91906124ae565b50606082015181600301908161146591906124ae565b506080820151816004015560a08201518160050160006101000a81548160ff02191690831515021790555060c08201518160050160016101000a81548173ffffffffffffffffffffffffffffffffffffffff021916908373ffffffffffffffffffffffffffffffffffffffff160217905550905050600260009054906101000a900473ffffffffffffffffffffffffffffffffffffffff1673ffffffffffffffffffffffffffffffffffffffff166365d98cd682600001518360600151336040518463ffffffff1660e01b815260040161154193929190612620565b600060405180830381600087803b15801561155b57600080fd5b505af115801561156f573d6000803e3d6000fd5b505050507f156e8777c61016226bf9880fe734c6079cbe46f8ba6bbd64da92ed4fa3a6b3e9816000015182602001518360400151846060015185608001518660a001518760c001516040516115ca9796959493929190611c16565b60405180910390a16000600360009054906101000a900473ffffffffffffffffffffffffffffffffffffffff1673ffffffffffffffffffffffffffffffffffffffff16600454620f424090604051611621906121cb565b600060405180830381858888f193505050503d806000811461165f576040519150601f19603f3d011682016040523d82523d6000602084013e611664565b606091505b50509050806116a8576040517f08c379a000000000000000000000000000000000000000000000000000000000815260040161169f9061222c565b60405180910390fd5b50505050505050565b3373ffffffffffffffffffffffffffffffffffffffff166007600084815260200190815260200160002060050160019054906101000a900473ffffffffffffffffffffffffffffffffffffffff1673ffffffffffffffffffffffffffffffffffffffff1614611755576040517f08c379a000000000000000000000000000000000000000000000000000000000815260040161174c90612023565b60405180910390fd5b8060076000848152602001908152602001600020600101908161177891906124ae565b505050565b60045481565b6040518060e001604052806000815260200160608152602001606081526020016060815260200160008152602001600015158152602001600073ffffffffffffffffffffffffffffffffffffffff1681525090565b6000604051905090565b600080fd5b600080fd5b6000819050919050565b6117ff816117ec565b811461180a57600080fd5b50565b60008135905061181c816117f6565b92915050565b600060208284031215611838576118376117e2565b5b60006118468482850161180d565b91505092915050565b60008115159050919050565b6118648161184f565b811461186f57600080fd5b50565b6000813590506118818161185b565b92915050565b6000806040838503121561189e5761189d6117e2565b5b60006118ac8582860161180d565b92505060206118bd85828601611872565b9150509250929050565b600080fd5b600080fd5b6000601f19601f8301169050919050565b7f4e487b7100000000000000000000000000000000000000000000000000000000600052604160045260246000fd5b61191a826118d1565b810181811067ffffffffffffffff82111715611939576119386118e2565b5b80604052505050565b600061194c6117d8565b90506119588282611911565b919050565b600067ffffffffffffffff821115611978576119776118e2565b5b611981826118d1565b9050602081019050919050565b82818337600083830152505050565b60006119b06119ab8461195d565b611942565b9050828152602081018484840111156119cc576119cb6118cc565b5b6119d784828561198e565b509392505050565b600082601f8301126119f4576119f36118c7565b5b8135611a0484826020860161199d565b91505092915050565b60008060408385031215611a2457611a236117e2565b5b6000611a328582860161180d565b925050602083013567ffffffffffffffff811115611a5357611a526117e7565b5b611a5f858286016119df565b9150509250929050565b600080600080600060a08688031215611a8557611a846117e2565b5b600086013567ffffffffffffffff811115611aa357611aa26117e7565b5b611aaf888289016119df565b955050602086013567ffffffffffffffff811115611ad057611acf6117e7565b5b611adc888289016119df565b945050604086013567ffffffffffffffff811115611afd57611afc6117e7565b5b611b09888289016119df565b9350506060611b1a8882890161180d565b9250506080611b2b88828901611872565b9150509295509295909350565b611b41816117ec565b82525050565b600081519050919050565b600082825260208201905092915050565b60005b83811015611b81578082015181840152602081019050611b66565b60008484015250505050565b6000611b9882611b47565b611ba28185611b52565b9350611bb2818560208601611b63565b611bbb816118d1565b840191505092915050565b611bcf8161184f565b82525050565b600073ffffffffffffffffffffffffffffffffffffffff82169050919050565b6000611c0082611bd5565b9050919050565b611c1081611bf5565b82525050565b600060e082019050611c2b600083018a611b38565b8181036020830152611c3d8189611b8d565b90508181036040830152611c518188611b8d565b90508181036060830152611c658187611b8d565b9050611c746080830186611b38565b611c8160a0830185611bc6565b611c8e60c0830184611c07565b98975050505050505050565b6000602082019050611caf6000830184611b38565b92915050565b60008060408385031215611ccc57611ccb6117e2565b5b6000611cda8582860161180d565b9250506020611ceb8582860161180d565b9150509250929050565b7f4e4654206973206e6f7420666f722073616c6500000000000000000000000000600082015250565b6000611d2b601383611b52565b9150611d3682611cf5565b602082019050919050565b60006020820190508181036000830152611d5a81611d1e565b9050919050565b7f596f752061726520746865206f776e6572206f662074686973204e4654000000600082015250565b6000611d97601d83611b52565b9150611da282611d61565b602082019050919050565b60006020820190508181036000830152611dc681611d8a565b9050919050565b6000602082019050611de26000830184611c07565b92915050565b600081519050611df7816117f6565b92915050565b600060208284031215611e1357611e126117e2565b5b6000611e2184828501611de8565b91505092915050565b7f596f7520646f6e2774206861766520656e6f7567687420636f696e7320746f6260008201527f75792074686973206e6674000000000000000000000000000000000000000000602082015250565b6000611e86602b83611b52565b9150611e9182611e2a565b604082019050919050565b60006020820190508181036000830152611eb581611e79565b9050919050565b6000606082019050611ed16000830186611b38565b611ede6020830185611c07565b611eeb6040830184611c07565b949350505050565b6000606082019050611f086000830186611c07565b611f156020830185611c07565b611f226040830184611b38565b949350505050565b600081519050611f398161185b565b92915050565b600060208284031215611f5557611f546117e2565b5b6000611f6384828501611f2a565b91505092915050565b6000608082019050611f816000830187611b38565b611f8e6020830186611c07565b611f9b6040830185611c07565b611fa86060830184611b38565b95945050505050565b7f6f6e6c7920746865206f776e65722063616e206d6f646966792061206e66742060008201527f70726f7065727479000000000000000000000000000000000000000000000000602082015250565b600061200d602883611b52565b915061201882611fb1565b604082019050919050565b6000602082019050818103600083015261203c81612000565b9050919050565b7f4e487b7100000000000000000000000000000000000000000000000000000000600052601160045260246000fd5b600061207d826117ec565b9150612088836117ec565b9250828202612096816117ec565b915082820484148315176120ad576120ac612043565b5b5092915050565b6000819050919050565b60006120d96120d46120cf84611bd5565b6120b4565b611bd5565b9050919050565b60006120eb826120be565b9050919050565b60006120fd826120e0565b9050919050565b61210d816120f2565b82525050565b60006020820190506121286000830184612104565b92915050565b7f4e6f7420656e6f75676820746f6b656e7320617661696c61626c650000000000600082015250565b6000612164601b83611b52565b915061216f8261212e565b602082019050919050565b6000602082019050818103600083015261219381612157565b9050919050565b600081905092915050565b50565b60006121b560008361219a565b91506121c0826121a5565b600082019050919050565b60006121d6826121a8565b9150819050919050565b7f455448207472616e73666572206661696c656400000000000000000000000000600082015250565b6000612216601383611b52565b9150612221826121e0565b602082019050919050565b6000602082019050818103600083015261224581612209565b9050919050565b60006060820190506122616000830186612104565b61226e6020830185611c07565b61227b6040830184611b38565b949350505050565b60006040820190506122986000830185611c07565b6122a56020830184611b38565b9392505050565b7f4e487b7100000000000000000000000000000000000000000000000000000000600052602260045260246000fd5b600060028204905060018216806122f357607f821691505b602082108103612306576123056122ac565b5b50919050565b60008190508160005260206000209050919050565b60006020601f8301049050919050565b600082821b905092915050565b60006008830261236e7fffffffffffffffffffffffffffffffffffffffffffffffffffffffffffffffff82612331565b6123788683612331565b95508019841693508086168417925050509392505050565b60006123ab6123a66123a1846117ec565b6120b4565b6117ec565b9050919050565b6000819050919050565b6123c583612390565b6123d96123d1826123b2565b84845461233e565b825550505050565b600090565b6123ee6123e1565b6123f98184846123bc565b505050565b5b8181101561241d576124126000826123e6565b6001810190506123ff565b5050565b601f821115612462576124338161230c565b61243c84612321565b8101602085101561244b578190505b61245f61245785612321565b8301826123fe565b50505b505050565b600082821c905092915050565b600061248560001984600802612467565b1980831691505092915050565b600061249e8383612474565b9150826002028217905092915050565b6124b782611b47565b67ffffffffffffffff8111156124d0576124cf6118e2565b5b6124da82546122db565b6124e5828285612421565b600060209050601f8311600181146125185760008415612506578287015190505b6125108582612492565b865550612578565b601f1984166125268661230c565b60005b8281101561254e57848901518255600182019150602085019450602081019050612529565b8683101561256b5784890151612567601f891682612474565b8355505b6001600288020188555050505b505050505050565b7f596f75206e656564205a546f6b656e20746f206d696e74204e46540000000000600082015250565b60006125b6601b83611b52565b91506125c182612580565b602082019050919050565b600060208201905081810360008301526125e5816125a9565b9050919050565b60006125f7826117ec565b9150612602836117ec565b925082820190508082111561261a57612619612043565b5b92915050565b60006060820190506126356000830186611b38565b81810360208301526126478185611b8d565b90506126566040830184611c07565b949350505050565b60006060820190506126736000830186611c07565b6126806020830185612104565b61268d6040830184611b38565b949350505050565b7f596f75206e65656420657468657220746f206d696e74204e4654000000000000600082015250565b60006126cb601a83611b52565b91506126d682612695565b602082019050919050565b600060208201905081810360008301526126fa816126be565b905091905056fea2646970667358221220285fa6860aa5999d8e460728dbcc368039daae552eb76d4af6a7f02310670fb264736f6c63430008130033",
  "immutableReferences": {},
  "source": "// SPDX-License-Identifier: MIT\r\npragma solidity ^0.8.0;\r\n\r\nimport \"./ZCoin.sol\";\r\nimport \"./MyNFT.sol\";\r\n\r\ncontract ZWallet {\r\n    ZCoin private zCoinContract;\r\n    address payable zCoinContractAddress;\r\n    MyNFT private nftContract;\r\n    address payable nftContractAddress;\r\n    uint256 public nftMintCostInWei;\r\n    uint256 public nftMintCostInZTK;\r\n    event ZCoinSold(address seller, uint256 amount);\r\n    uint256 public tokenCounter = 0;\r\n    struct NFTData {\r\n        uint256 id;\r\n        string name;\r\n        string description;\r\n        string uri;\r\n        uint256 cost;\r\n        bool isForSale;\r\n        address owner;\r\n    }\r\n    event NFTMinted(\r\n        uint256 id,\r\n        string name,\r\n        string description,\r\n        string uri,\r\n        uint256 cost,\r\n        bool isForSale,\r\n        address owner\r\n    );\r\n    event NFTSold(uint256 id, address buyer, address seller, uint256 price);\r\n    event ReceivedEth(address sender, uint256 amount);\r\n    mapping(uint256=>NFTData) public allNFTs;\r\n    constructor(\r\n        address payable _zCoinAddress,\r\n        address payable _nftContractAddress,\r\n        uint256 _nftMintCostInWei,\r\n        uint256 _nftMintCostInZTK\r\n    ) {\r\n        zCoinContractAddress = _zCoinAddress;\r\n        zCoinContract = ZCoin(_zCoinAddress);\r\n        nftContractAddress = _nftContractAddress;\r\n        nftContract = MyNFT(_nftContractAddress);\r\n        nftMintCostInWei = _nftMintCostInWei;\r\n        nftMintCostInZTK = _nftMintCostInZTK;\r\n    }\r\n\r\n    function buyZCoin() public payable {\r\n        uint256 tokensToBuy = msg.value * zCoinContract.tokenPrice();\r\n        require(\r\n            zCoinContract.getBalance(zCoinContractAddress) >= tokensToBuy,\r\n            \"Not enough tokens available\"\r\n        );\r\n        (bool success, ) = zCoinContractAddress.call{\r\n            value: msg.value,\r\n            gas: 1000000\r\n        }(\"\");\r\n        require(success, \"ETH transfer failed\");\r\n        zCoinContract.transferZCoin(\r\n            zCoinContractAddress,\r\n            msg.sender,\r\n            tokensToBuy\r\n        );\r\n        emit ZCoinSold(msg.sender, tokensToBuy);\r\n    }\r\n    function mintNFTWithEth(\r\n        string memory _tokenURI,\r\n        string memory _name,\r\n        string memory _description,\r\n        uint256 _cost,\r\n        bool _isForSale\r\n    ) public payable {\r\n        require(msg.value >= nftMintCostInWei, \"You need ether to mint NFT\");\r\n        NFTData memory newNFT;\r\n        newNFT.id = tokenCounter;\r\n        tokenCounter += 1;\r\n        newNFT.name = _name;\r\n        newNFT.description = _description;\r\n        newNFT.uri = _tokenURI;\r\n        newNFT.cost = _cost;\r\n        newNFT.isForSale = _isForSale;\r\n        newNFT.owner = msg.sender;\r\n        allNFTs[newNFT.id] = newNFT;\r\n        nftContract.mintNFT(newNFT.id, newNFT.uri, msg.sender);\r\n        emit NFTMinted(\r\n            newNFT.id,\r\n            newNFT.name,\r\n            newNFT.description,\r\n            newNFT.uri,\r\n            newNFT.cost,\r\n            newNFT.isForSale,\r\n            newNFT.owner\r\n        );\r\n        (bool success, ) = nftContractAddress.call{value: nftMintCostInWei, gas: 1000000}(\"\");\r\n        require(success, \"ETH transfer failed\");\r\n    }\r\n\r\n    function mintNFTWithZToken(\r\n        string memory _tokenURI,\r\n        string memory _name,\r\n        string memory _description,\r\n        uint256 _cost,\r\n        bool _isForSale\r\n    ) public {\r\n        require(\r\n            zCoinContract.getBalance(msg.sender) >= nftMintCostInZTK,\r\n            \"You need ZToken to mint NFT\"\r\n        );\r\n        NFTData memory newNFT;\r\n        newNFT.id = tokenCounter;\r\n        newNFT.name = _name;\r\n        newNFT.description = _description;\r\n        newNFT.uri = _tokenURI;\r\n        newNFT.cost = _cost;\r\n        newNFT.isForSale = _isForSale;\r\n        newNFT.owner = msg.sender;\r\n        allNFTs[tokenCounter] = newNFT;\r\n        tokenCounter += 1;\r\n        allNFTs[newNFT.id] = newNFT;\r\n        nftContract.mintNFT(newNFT.id, newNFT.uri, msg.sender);\r\n        emit NFTMinted(\r\n            newNFT.id,\r\n            newNFT.name,\r\n            newNFT.description,\r\n            newNFT.uri,\r\n            newNFT.cost,\r\n            newNFT.isForSale,\r\n            newNFT.owner\r\n        );        \r\n        zCoinContract.transferZCoin(msg.sender, nftContractAddress, nftMintCostInZTK);\r\n    }\r\n    function transferNFT(uint256 _tokenId) public {\r\n        NFTData storage nft = allNFTs[_tokenId];\r\n        require(nft.isForSale, \"NFT is not for sale\");\r\n        require(msg.sender != nft.owner, \"You are the owner of this NFT\");\r\n        require(zCoinContract.getBalance(msg.sender)>nft.cost , \"You don't have enought coins tobuy this nft\");\r\n        address previousOwner = nft.owner;\r\n        nft.owner = msg.sender;\r\n        nftContract.transferNFT(_tokenId,msg.sender,previousOwner);\r\n        zCoinContract.transferZCoin(msg.sender,previousOwner,nft.cost);\r\n        emit NFTSold(_tokenId, previousOwner, msg.sender, nft.cost);\r\n    }\r\n    function setNFTName(uint256 _id, string memory _name) public {\r\n        require(allNFTs[_id].owner == msg.sender , \"only the owner can modify a nft property\");\r\n        allNFTs[_id].name = _name;\r\n    }\r\n\r\n    function setNFTDescription(uint256 _id, string memory _description) public {\r\n        require(allNFTs[_id].owner == msg.sender , \"only the owner can modify a nft property\");\r\n        allNFTs[_id].description = _description;\r\n    }\r\n\r\n    function setNFTIsForSale(uint256 _id, bool _isForSale) public {\r\n        require(allNFTs[_id].owner == msg.sender , \"only the owner can modify a nft property\");\r\n        allNFTs[_id].isForSale = _isForSale;\r\n    }\r\n    function setNFTIsCost(uint256 _id, uint256 _cost) public {\r\n        require(allNFTs[_id].owner == msg.sender , \"only the owner can modify a nft property\");\r\n        allNFTs[_id].cost = _cost;\r\n    }\r\n}\r\n",
  "sourcePath": "C:\\Users\\yousf\\Bureau\\ppp_project\\z-wallet\\contracts\\ZWallet.sol",
  "compiler": {
    "name": "solc",
    "version": "0.8.19+commit.7dd6d404.Emscripten.clang"
  },
  "schemaVersion": "3.4.13",
  "updatedAt": "2023-05-28T10:33:39.639Z",
  "networkType": "ethereum",
  "devdoc": {
    "kind": "dev",
    "methods": {},
    "version": 1
  },
  "userdoc": {
    "kind": "user",
    "methods": {},
    "version": 1
  }
}