{
  "contractName": "ZWallet",
  "abi": [
    {
      "inputs": [
        {
          "internalType": "address payable",
          "name": "_zCoinAddress",
          "type": "address"
        },
        {
          "internalType": "address payable",
          "name": "_nftContractAddress",
          "type": "address"
        },
        {
          "internalType": "uint256",
          "name": "_nftMintCostInWei",
          "type": "uint256"
        },
        {
          "internalType": "uint256",
          "name": "_nftMintCostInZTK",
          "type": "uint256"
        }
      ],
      "stateMutability": "nonpayable",
      "type": "constructor"
    },
    {
      "anonymous": false,
      "inputs": [
        {
          "indexed": false,
          "internalType": "uint256",
          "name": "id",
          "type": "uint256"
        },
        {
          "indexed": false,
          "internalType": "string",
          "name": "name",
          "type": "string"
        },
        {
          "indexed": false,
          "internalType": "string",
          "name": "description",
          "type": "string"
        },
        {
          "indexed": false,
          "internalType": "string",
          "name": "uri",
          "type": "string"
        },
        {
          "indexed": false,
          "internalType": "uint256",
          "name": "cost",
          "type": "uint256"
        },
        {
          "indexed": false,
          "internalType": "bool",
          "name": "isForSale",
          "type": "bool"
        },
        {
          "indexed": false,
          "internalType": "address",
          "name": "owner",
          "type": "address"
        }
      ],
      "name": "NFTMinted",
      "type": "event"
    },
    {
      "anonymous": false,
      "inputs": [
        {
          "indexed": false,
          "internalType": "uint256",
          "name": "id",
          "type": "uint256"
        },
        {
          "indexed": false,
          "internalType": "address",
          "name": "buyer",
          "type": "address"
        },
        {
          "indexed": false,
          "internalType": "address",
          "name": "seller",
          "type": "address"
        },
        {
          "indexed": false,
          "internalType": "uint256",
          "name": "price",
          "type": "uint256"
        }
      ],
      "name": "NFTSold",
      "type": "event"
    },
    {
      "anonymous": false,
      "inputs": [
        {
          "indexed": false,
          "internalType": "address",
          "name": "sender",
          "type": "address"
        },
        {
          "indexed": false,
          "internalType": "uint256",
          "name": "amount",
          "type": "uint256"
        }
      ],
      "name": "ReceivedEth",
      "type": "event"
    },
    {
      "anonymous": false,
      "inputs": [
        {
          "indexed": false,
          "internalType": "address",
          "name": "seller",
          "type": "address"
        },
        {
          "indexed": false,
          "internalType": "uint256",
          "name": "amount",
          "type": "uint256"
        }
      ],
      "name": "ZCoinSold",
      "type": "event"
    },
    {
      "inputs": [
        {
          "internalType": "uint256",
          "name": "",
          "type": "uint256"
        }
      ],
      "name": "allNFTs",
      "outputs": [
        {
          "internalType": "uint256",
          "name": "id",
          "type": "uint256"
        },
        {
          "internalType": "string",
          "name": "name",
          "type": "string"
        },
        {
          "internalType": "string",
          "name": "description",
          "type": "string"
        },
        {
          "internalType": "string",
          "name": "uri",
          "type": "string"
        },
        {
          "internalType": "uint256",
          "name": "cost",
          "type": "uint256"
        },
        {
          "internalType": "bool",
          "name": "isForSale",
          "type": "bool"
        },
        {
          "internalType": "address",
          "name": "owner",
          "type": "address"
        }
      ],
      "stateMutability": "view",
      "type": "function",
      "constant": true
    },
    {
      "inputs": [],
      "name": "nftMintCostInWei",
      "outputs": [
        {
          "internalType": "uint256",
          "name": "",
          "type": "uint256"
        }
      ],
      "stateMutability": "view",
      "type": "function",
      "constant": true
    },
    {
      "inputs": [],
      "name": "nftMintCostInZTK",
      "outputs": [
        {
          "internalType": "uint256",
          "name": "",
          "type": "uint256"
        }
      ],
      "stateMutability": "view",
      "type": "function",
      "constant": true
    },
    {
      "inputs": [],
      "name": "tokenCounter",
      "outputs": [
        {
          "internalType": "uint256",
          "name": "",
          "type": "uint256"
        }
      ],
      "stateMutability": "view",
      "type": "function",
      "constant": true
    },
    {
      "inputs": [
        {
          "internalType": "address",
          "name": "account",
          "type": "address"
        }
      ],
      "name": "getZCoinBalance",
      "outputs": [
        {
          "internalType": "uint256",
          "name": "",
          "type": "uint256"
        }
      ],
      "stateMutability": "view",
      "type": "function",
      "constant": true
    },
    {
      "inputs": [
        {
          "internalType": "address",
          "name": "from",
          "type": "address"
        },
        {
          "internalType": "address",
          "name": "to",
          "type": "address"
        },
        {
          "internalType": "uint256",
          "name": "amount",
          "type": "uint256"
        }
      ],
      "name": "transferZCoin",
      "outputs": [],
      "stateMutability": "nonpayable",
      "type": "function"
    },
    {
      "inputs": [],
      "name": "buyZCoin",
      "outputs": [],
      "stateMutability": "payable",
      "type": "function",
      "payable": true
    },
    {
      "inputs": [
        {
          "internalType": "string",
          "name": "_tokenURI",
          "type": "string"
        },
        {
          "internalType": "string",
          "name": "_name",
          "type": "string"
        },
        {
          "internalType": "string",
          "name": "_description",
          "type": "string"
        },
        {
          "internalType": "uint256",
          "name": "_cost",
          "type": "uint256"
        },
        {
          "internalType": "bool",
          "name": "_isForSale",
          "type": "bool"
        }
      ],
      "name": "mintNFTWithEth",
      "outputs": [],
      "stateMutability": "payable",
      "type": "function",
      "payable": true
    },
    {
      "inputs": [
        {
          "internalType": "string",
          "name": "_tokenURI",
          "type": "string"
        },
        {
          "internalType": "string",
          "name": "_name",
          "type": "string"
        },
        {
          "internalType": "string",
          "name": "_description",
          "type": "string"
        },
        {
          "internalType": "uint256",
          "name": "_cost",
          "type": "uint256"
        },
        {
          "internalType": "bool",
          "name": "_isForSale",
          "type": "bool"
        }
      ],
      "name": "mintNFTWithZToken",
      "outputs": [
        {
          "internalType": "uint256",
          "name": "",
          "type": "uint256"
        }
      ],
      "stateMutability": "nonpayable",
      "type": "function"
    },
    {
      "inputs": [
        {
          "internalType": "uint256",
          "name": "_tokenId",
          "type": "uint256"
        }
      ],
      "name": "transferNFT",
      "outputs": [
        {
          "internalType": "uint256",
          "name": "",
          "type": "uint256"
        }
      ],
      "stateMutability": "nonpayable",
      "type": "function"
    },
    {
      "inputs": [
        {
          "internalType": "uint256",
          "name": "_id",
          "type": "uint256"
        },
        {
          "internalType": "string",
          "name": "_name",
          "type": "string"
        }
      ],
      "name": "setNFTName",
      "outputs": [],
      "stateMutability": "nonpayable",
      "type": "function"
    },
    {
      "inputs": [
        {
          "internalType": "uint256",
          "name": "_id",
          "type": "uint256"
        },
        {
          "internalType": "string",
          "name": "_description",
          "type": "string"
        }
      ],
      "name": "setNFTDescription",
      "outputs": [],
      "stateMutability": "nonpayable",
      "type": "function"
    },
    {
      "inputs": [
        {
          "internalType": "uint256",
          "name": "_id",
          "type": "uint256"
        },
        {
          "internalType": "bool",
          "name": "_isForSale",
          "type": "bool"
        }
      ],
      "name": "setNFTIsForSale",
      "outputs": [],
      "stateMutability": "nonpayable",
      "type": "function"
    },
    {
      "inputs": [
        {
          "internalType": "uint256",
          "name": "_id",
          "type": "uint256"
        },
        {
          "internalType": "uint256",
          "name": "_cost",
          "type": "uint256"
        }
      ],
      "name": "setNFTIsCost",
      "outputs": [],
      "stateMutability": "nonpayable",
      "type": "function"
    }
  ],
  "bytecode": "0x608060405260006006553480156200001657600080fd5b5060405162002cad38038062002cad83398181016040528101906200003c919062000211565b83600160006101000a81548173ffffffffffffffffffffffffffffffffffffffff021916908373ffffffffffffffffffffffffffffffffffffffff160217905550836000806101000a81548173ffffffffffffffffffffffffffffffffffffffff021916908373ffffffffffffffffffffffffffffffffffffffff16021790555082600360006101000a81548173ffffffffffffffffffffffffffffffffffffffff021916908373ffffffffffffffffffffffffffffffffffffffff16021790555082600260006101000a81548173ffffffffffffffffffffffffffffffffffffffff021916908373ffffffffffffffffffffffffffffffffffffffff160217905550670de0b6b3a764000082620001559190620002b2565b6004819055508060058190555050505050620002fd565b600080fd5b600073ffffffffffffffffffffffffffffffffffffffff82169050919050565b60006200019e8262000171565b9050919050565b620001b08162000191565b8114620001bc57600080fd5b50565b600081519050620001d081620001a5565b92915050565b6000819050919050565b620001eb81620001d6565b8114620001f757600080fd5b50565b6000815190506200020b81620001e0565b92915050565b600080600080608085870312156200022e576200022d6200016c565b5b60006200023e87828801620001bf565b94505060206200025187828801620001bf565b93505060406200026487828801620001fa565b92505060606200027787828801620001fa565b91505092959194509250565b7f4e487b7100000000000000000000000000000000000000000000000000000000600052601160045260246000fd5b6000620002bf82620001d6565b9150620002cc83620001d6565b9250828202620002dc81620001d6565b91508282048414831517620002f657620002f562000283565b5b5092915050565b6129a0806200030d6000396000f3fe6080604052600436106100dd5760003560e01c8063bf162d671161007f578063d082e38111610059578063d082e381146102b5578063d22327cb146102e0578063df6e9911146102fc578063fc9f696d14610325576100dd565b8063bf162d671461021e578063c3f679ca14610261578063cc39bc9f1461028c576100dd565b80638d2e963d116100bb5780638d2e963d1461018557806394ef0b351461018f57806397a1ce33146101b8578063afb59367146101e1576100dd565b8063249e10c5146100e25780633e5b92a61461011f57806376f548ac1461015c575b600080fd5b3480156100ee57600080fd5b506101096004803603810190610104919061197f565b610350565b60405161011691906119bb565b60405180910390f35b34801561012b57600080fd5b5061014660048036038101906101419190611a34565b61071b565b60405161015391906119bb565b60405180910390f35b34801561016857600080fd5b50610183600480360381019061017e9190611a99565b6107bf565b005b61018d610895565b005b34801561019b57600080fd5b506101b660048036038101906101b19190611ad9565b610c18565b005b3480156101c457600080fd5b506101df60048036038101906101da9190611c72565b610cbe565b005b3480156101ed57600080fd5b5061020860048036038101906102039190611cce565b610d8a565b60405161021591906119bb565b60405180910390f35b34801561022a57600080fd5b506102456004803603810190610240919061197f565b6111a9565b6040516102589796959493929190611e3a565b60405180910390f35b34801561026d57600080fd5b506102766113b0565b60405161028391906119bb565b60405180910390f35b34801561029857600080fd5b506102b360048036038101906102ae9190611ebe565b6113b6565b005b3480156102c157600080fd5b506102ca611479565b6040516102d791906119bb565b60405180910390f35b6102fa60048036038101906102f59190611cce565b61147f565b005b34801561030857600080fd5b50610323600480360381019061031e9190611c72565b61180e565b005b34801561033157600080fd5b5061033a6118da565b60405161034791906119bb565b60405180910390f35b6000806007600084815260200190815260200160002090508060050160009054906101000a900460ff166103b9576040517f08c379a00000000000000000000000000000000000000000000000000000000081526004016103b090611f4a565b60405180910390fd5b8060050160019054906101000a900473ffffffffffffffffffffffffffffffffffffffff1673ffffffffffffffffffffffffffffffffffffffff163373ffffffffffffffffffffffffffffffffffffffff160361044b576040517f08c379a000000000000000000000000000000000000000000000000000000000815260040161044290611fb6565b60405180910390fd5b806004015460008054906101000a900473ffffffffffffffffffffffffffffffffffffffff1673ffffffffffffffffffffffffffffffffffffffff1663f8b2cb4f336040518263ffffffff1660e01b81526004016104a99190611fd6565b602060405180830381865afa1580156104c6573d6000803e3d6000fd5b505050506040513d601f19601f820116820180604052508101906104ea9190612006565b1161052a576040517f08c379a0000000000000000000000000000000000000000000000000000000008152600401610521906120a5565b60405180910390fd5b60008160050160019054906101000a900473ffffffffffffffffffffffffffffffffffffffff169050338260050160016101000a81548173ffffffffffffffffffffffffffffffffffffffff021916908373ffffffffffffffffffffffffffffffffffffffff160217905550600260009054906101000a900473ffffffffffffffffffffffffffffffffffffffff1673ffffffffffffffffffffffffffffffffffffffff16632aafe1328533846040518463ffffffff1660e01b81526004016105f5939291906120c5565b600060405180830381600087803b15801561060f57600080fd5b505af1158015610623573d6000803e3d6000fd5b5050505060008054906101000a900473ffffffffffffffffffffffffffffffffffffffff1673ffffffffffffffffffffffffffffffffffffffff166394ef0b35338385600401546040518463ffffffff1660e01b8152600401610688939291906120fc565b6020604051808303816000875af11580156106a7573d6000803e3d6000fd5b505050506040513d601f19601f820116820180604052508101906106cb9190612148565b507f8562eb94748e30bb0071e932744ce902b460c683474fcb3bfd567ffa16b1afb284823385600401546040516107059493929190612175565b60405180910390a1816000015492505050919050565b60008060009054906101000a900473ffffffffffffffffffffffffffffffffffffffff1673ffffffffffffffffffffffffffffffffffffffff1663f8b2cb4f836040518263ffffffff1660e01b81526004016107779190611fd6565b602060405180830381865afa158015610794573d6000803e3d6000fd5b505050506040513d601f19601f820116820180604052508101906107b89190612006565b9050919050565b3373ffffffffffffffffffffffffffffffffffffffff166007600084815260200190815260200160002060050160019054906101000a900473ffffffffffffffffffffffffffffffffffffffff1673ffffffffffffffffffffffffffffffffffffffff1614610863576040517f08c379a000000000000000000000000000000000000000000000000000000000815260040161085a9061222c565b60405180910390fd5b806007600084815260200190815260200160002060050160006101000a81548160ff0219169083151502179055505050565b6000670de0b6b3a764000060008054906101000a900473ffffffffffffffffffffffffffffffffffffffff1673ffffffffffffffffffffffffffffffffffffffff16637ff9b5966040518163ffffffff1660e01b8152600401602060405180830381865afa15801561090b573d6000803e3d6000fd5b505050506040513d601f19601f8201168201806040525081019061092f9190612006565b3461093a919061227b565b61094491906122ec565b90508060008054906101000a900473ffffffffffffffffffffffffffffffffffffffff1673ffffffffffffffffffffffffffffffffffffffff1663f8b2cb4f600160009054906101000a900473ffffffffffffffffffffffffffffffffffffffff166040518263ffffffff1660e01b81526004016109c2919061237c565b602060405180830381865afa1580156109df573d6000803e3d6000fd5b505050506040513d601f19601f82011682018060405250810190610a039190612006565b1015610a44576040517f08c379a0000000000000000000000000000000000000000000000000000000008152600401610a3b906123e3565b60405180910390fd5b6000600160009054906101000a900473ffffffffffffffffffffffffffffffffffffffff1673ffffffffffffffffffffffffffffffffffffffff1634620f424090604051610a9190612434565b600060405180830381858888f193505050503d8060008114610acf576040519150601f19603f3d011682016040523d82523d6000602084013e610ad4565b606091505b5050905080610b18576040517f08c379a0000000000000000000000000000000000000000000000000000000008152600401610b0f90612495565b60405180910390fd5b60008054906101000a900473ffffffffffffffffffffffffffffffffffffffff1673ffffffffffffffffffffffffffffffffffffffff166394ef0b35600160009054906101000a900473ffffffffffffffffffffffffffffffffffffffff1633856040518463ffffffff1660e01b8152600401610b97939291906124b5565b6020604051808303816000875af1158015610bb6573d6000803e3d6000fd5b505050506040513d601f19601f82011682018060405250810190610bda9190612148565b507f10c1ae801e87966f1c81cc31fb7b4be3b6267c5a99840408188405b943a618b73383604051610c0c9291906124ec565b60405180910390a15050565b60008054906101000a900473ffffffffffffffffffffffffffffffffffffffff1673ffffffffffffffffffffffffffffffffffffffff166394ef0b358484846040518463ffffffff1660e01b8152600401610c75939291906120fc565b6020604051808303816000875af1158015610c94573d6000803e3d6000fd5b505050506040513d601f19601f82011682018060405250810190610cb89190612148565b50505050565b3373ffffffffffffffffffffffffffffffffffffffff166007600084815260200190815260200160002060050160019054906101000a900473ffffffffffffffffffffffffffffffffffffffff1673ffffffffffffffffffffffffffffffffffffffff1614610d62576040517f08c379a0000000000000000000000000000000000000000000000000000000008152600401610d599061222c565b60405180910390fd5b80600760008481526020019081526020016000206002019081610d859190612717565b505050565b600060055460008054906101000a900473ffffffffffffffffffffffffffffffffffffffff1673ffffffffffffffffffffffffffffffffffffffff1663f8b2cb4f336040518263ffffffff1660e01b8152600401610de89190611fd6565b602060405180830381865afa158015610e05573d6000803e3d6000fd5b505050506040513d601f19601f82011682018060405250810190610e299190612006565b1015610e6a576040517f08c379a0000000000000000000000000000000000000000000000000000000008152600401610e6190612835565b60405180910390fd5b610e726118e0565b60065481600001818152505085816020018190525084816040018190525086816060018190525083816080018181525050828160a0019015159081151581525050338160c0019073ffffffffffffffffffffffffffffffffffffffff16908173ffffffffffffffffffffffffffffffffffffffff168152505080600760006006548152602001908152602001600020600082015181600001556020820151816001019081610f209190612717565b506040820151816002019081610f369190612717565b506060820151816003019081610f4c9190612717565b506080820151816004015560a08201518160050160006101000a81548160ff02191690831515021790555060c08201518160050160016101000a81548173ffffffffffffffffffffffffffffffffffffffff021916908373ffffffffffffffffffffffffffffffffffffffff160217905550905050600160066000828254610fd49190612855565b92505081905550600260009054906101000a900473ffffffffffffffffffffffffffffffffffffffff1673ffffffffffffffffffffffffffffffffffffffff166365d98cd682600001518360600151336040518463ffffffff1660e01b815260040161104293929190612889565b600060405180830381600087803b15801561105c57600080fd5b505af1158015611070573d6000803e3d6000fd5b505050507f156e8777c61016226bf9880fe734c6079cbe46f8ba6bbd64da92ed4fa3a6b3e9816000015182602001518360400151846060015185608001518660a001518760c001516040516110cb9796959493929190611e3a565b60405180910390a160008054906101000a900473ffffffffffffffffffffffffffffffffffffffff1673ffffffffffffffffffffffffffffffffffffffff166394ef0b3533600360009054906101000a900473ffffffffffffffffffffffffffffffffffffffff166005546040518463ffffffff1660e01b8152600401611154939291906128c7565b6020604051808303816000875af1158015611173573d6000803e3d6000fd5b505050506040513d601f19601f820116820180604052508101906111979190612148565b50806000015191505095945050505050565b60076020528060005260406000206000915090508060000154908060010180546111d290612544565b80601f01602080910402602001604051908101604052809291908181526020018280546111fe90612544565b801561124b5780601f106112205761010080835404028352916020019161124b565b820191906000526020600020905b81548152906001019060200180831161122e57829003601f168201915b50505050509080600201805461126090612544565b80601f016020809104026020016040519081016040528092919081815260200182805461128c90612544565b80156112d95780601f106112ae576101008083540402835291602001916112d9565b820191906000526020600020905b8154815290600101906020018083116112bc57829003601f168201915b5050505050908060030180546112ee90612544565b80601f016020809104026020016040519081016040528092919081815260200182805461131a90612544565b80156113675780601f1061133c57610100808354040283529160200191611367565b820191906000526020600020905b81548152906001019060200180831161134a57829003601f168201915b5050505050908060040154908060050160009054906101000a900460ff16908060050160019054906101000a900473ffffffffffffffffffffffffffffffffffffffff16905087565b60055481565b3373ffffffffffffffffffffffffffffffffffffffff166007600084815260200190815260200160002060050160019054906101000a900473ffffffffffffffffffffffffffffffffffffffff1673ffffffffffffffffffffffffffffffffffffffff161461145a576040517f08c379a00000000000000000000000000000000000000000000000000000000081526004016114519061222c565b60405180910390fd5b8060076000848152602001908152602001600020600401819055505050565b60065481565b6004543410156114c4576040517f08c379a00000000000000000000000000000000000000000000000000000000081526004016114bb9061294a565b60405180910390fd5b6114cc6118e0565b6006548160000181815250506001600660008282546114eb9190612855565b9250508190555084816020018190525083816040018190525085816060018190525082816080018181525050818160a0019015159081151581525050338160c0019073ffffffffffffffffffffffffffffffffffffffff16908173ffffffffffffffffffffffffffffffffffffffff16815250508060076000836000015181526020019081526020016000206000820151816000015560208201518160010190816115969190612717565b5060408201518160020190816115ac9190612717565b5060608201518160030190816115c29190612717565b506080820151816004015560a08201518160050160006101000a81548160ff02191690831515021790555060c08201518160050160016101000a81548173ffffffffffffffffffffffffffffffffffffffff021916908373ffffffffffffffffffffffffffffffffffffffff160217905550905050600260009054906101000a900473ffffffffffffffffffffffffffffffffffffffff1673ffffffffffffffffffffffffffffffffffffffff166365d98cd682600001518360600151336040518463ffffffff1660e01b815260040161169e93929190612889565b600060405180830381600087803b1580156116b857600080fd5b505af11580156116cc573d6000803e3d6000fd5b505050507f156e8777c61016226bf9880fe734c6079cbe46f8ba6bbd64da92ed4fa3a6b3e9816000015182602001518360400151846060015185608001518660a001518760c001516040516117279796959493929190611e3a565b60405180910390a16000600360009054906101000a900473ffffffffffffffffffffffffffffffffffffffff1673ffffffffffffffffffffffffffffffffffffffff16600454620f42409060405161177e90612434565b600060405180830381858888f193505050503d80600081146117bc576040519150601f19603f3d011682016040523d82523d6000602084013e6117c1565b606091505b5050905080611805576040517f08c379a00000000000000000000000000000000000000000000000000000000081526004016117fc90612495565b60405180910390fd5b50505050505050565b3373ffffffffffffffffffffffffffffffffffffffff166007600084815260200190815260200160002060050160019054906101000a900473ffffffffffffffffffffffffffffffffffffffff1673ffffffffffffffffffffffffffffffffffffffff16146118b2576040517f08c379a00000000000000000000000000000000000000000000000000000000081526004016118a99061222c565b60405180910390fd5b806007600084815260200190815260200160002060010190816118d59190612717565b505050565b60045481565b6040518060e001604052806000815260200160608152602001606081526020016060815260200160008152602001600015158152602001600073ffffffffffffffffffffffffffffffffffffffff1681525090565b6000604051905090565b600080fd5b600080fd5b6000819050919050565b61195c81611949565b811461196757600080fd5b50565b60008135905061197981611953565b92915050565b6000602082840312156119955761199461193f565b5b60006119a38482850161196a565b91505092915050565b6119b581611949565b82525050565b60006020820190506119d060008301846119ac565b92915050565b600073ffffffffffffffffffffffffffffffffffffffff82169050919050565b6000611a01826119d6565b9050919050565b611a11816119f6565b8114611a1c57600080fd5b50565b600081359050611a2e81611a08565b92915050565b600060208284031215611a4a57611a4961193f565b5b6000611a5884828501611a1f565b91505092915050565b60008115159050919050565b611a7681611a61565b8114611a8157600080fd5b50565b600081359050611a9381611a6d565b92915050565b60008060408385031215611ab057611aaf61193f565b5b6000611abe8582860161196a565b9250506020611acf85828601611a84565b9150509250929050565b600080600060608486031215611af257611af161193f565b5b6000611b0086828701611a1f565b9350506020611b1186828701611a1f565b9250506040611b228682870161196a565b9150509250925092565b600080fd5b600080fd5b6000601f19601f8301169050919050565b7f4e487b7100000000000000000000000000000000000000000000000000000000600052604160045260246000fd5b611b7f82611b36565b810181811067ffffffffffffffff82111715611b9e57611b9d611b47565b5b80604052505050565b6000611bb1611935565b9050611bbd8282611b76565b919050565b600067ffffffffffffffff821115611bdd57611bdc611b47565b5b611be682611b36565b9050602081019050919050565b82818337600083830152505050565b6000611c15611c1084611bc2565b611ba7565b905082815260208101848484011115611c3157611c30611b31565b5b611c3c848285611bf3565b509392505050565b600082601f830112611c5957611c58611b2c565b5b8135611c69848260208601611c02565b91505092915050565b60008060408385031215611c8957611c8861193f565b5b6000611c978582860161196a565b925050602083013567ffffffffffffffff811115611cb857611cb7611944565b5b611cc485828601611c44565b9150509250929050565b600080600080600060a08688031215611cea57611ce961193f565b5b600086013567ffffffffffffffff811115611d0857611d07611944565b5b611d1488828901611c44565b955050602086013567ffffffffffffffff811115611d3557611d34611944565b5b611d4188828901611c44565b945050604086013567ffffffffffffffff811115611d6257611d61611944565b5b611d6e88828901611c44565b9350506060611d7f8882890161196a565b9250506080611d9088828901611a84565b9150509295509295909350565b600081519050919050565b600082825260208201905092915050565b60005b83811015611dd7578082015181840152602081019050611dbc565b60008484015250505050565b6000611dee82611d9d565b611df88185611da8565b9350611e08818560208601611db9565b611e1181611b36565b840191505092915050565b611e2581611a61565b82525050565b611e34816119f6565b82525050565b600060e082019050611e4f600083018a6119ac565b8181036020830152611e618189611de3565b90508181036040830152611e758188611de3565b90508181036060830152611e898187611de3565b9050611e9860808301866119ac565b611ea560a0830185611e1c565b611eb260c0830184611e2b565b98975050505050505050565b60008060408385031215611ed557611ed461193f565b5b6000611ee38582860161196a565b9250506020611ef48582860161196a565b9150509250929050565b7f4e4654206973206e6f7420666f722073616c6500000000000000000000000000600082015250565b6000611f34601383611da8565b9150611f3f82611efe565b602082019050919050565b60006020820190508181036000830152611f6381611f27565b9050919050565b7f596f752061726520746865206f776e6572206f662074686973204e4654000000600082015250565b6000611fa0601d83611da8565b9150611fab82611f6a565b602082019050919050565b60006020820190508181036000830152611fcf81611f93565b9050919050565b6000602082019050611feb6000830184611e2b565b92915050565b60008151905061200081611953565b92915050565b60006020828403121561201c5761201b61193f565b5b600061202a84828501611ff1565b91505092915050565b7f596f7520646f6e2774206861766520656e6f7567687420636f696e7320746f6260008201527f75792074686973206e6674000000000000000000000000000000000000000000602082015250565b600061208f602b83611da8565b915061209a82612033565b604082019050919050565b600060208201905081810360008301526120be81612082565b9050919050565b60006060820190506120da60008301866119ac565b6120e76020830185611e2b565b6120f46040830184611e2b565b949350505050565b60006060820190506121116000830186611e2b565b61211e6020830185611e2b565b61212b60408301846119ac565b949350505050565b60008151905061214281611a6d565b92915050565b60006020828403121561215e5761215d61193f565b5b600061216c84828501612133565b91505092915050565b600060808201905061218a60008301876119ac565b6121976020830186611e2b565b6121a46040830185611e2b565b6121b160608301846119ac565b95945050505050565b7f6f6e6c7920746865206f776e65722063616e206d6f646966792061206e66742060008201527f70726f7065727479000000000000000000000000000000000000000000000000602082015250565b6000612216602883611da8565b9150612221826121ba565b604082019050919050565b6000602082019050818103600083015261224581612209565b9050919050565b7f4e487b7100000000000000000000000000000000000000000000000000000000600052601160045260246000fd5b600061228682611949565b915061229183611949565b925082820261229f81611949565b915082820484148315176122b6576122b561224c565b5b5092915050565b7f4e487b7100000000000000000000000000000000000000000000000000000000600052601260045260246000fd5b60006122f782611949565b915061230283611949565b925082612312576123116122bd565b5b828204905092915050565b6000819050919050565b600061234261233d612338846119d6565b61231d565b6119d6565b9050919050565b600061235482612327565b9050919050565b600061236682612349565b9050919050565b6123768161235b565b82525050565b6000602082019050612391600083018461236d565b92915050565b7f4e6f7420656e6f75676820746f6b656e7320617661696c61626c650000000000600082015250565b60006123cd601b83611da8565b91506123d882612397565b602082019050919050565b600060208201905081810360008301526123fc816123c0565b9050919050565b600081905092915050565b50565b600061241e600083612403565b91506124298261240e565b600082019050919050565b600061243f82612411565b9150819050919050565b7f455448207472616e73666572206661696c656400000000000000000000000000600082015250565b600061247f601383611da8565b915061248a82612449565b602082019050919050565b600060208201905081810360008301526124ae81612472565b9050919050565b60006060820190506124ca600083018661236d565b6124d76020830185611e2b565b6124e460408301846119ac565b949350505050565b60006040820190506125016000830185611e2b565b61250e60208301846119ac565b9392505050565b7f4e487b7100000000000000000000000000000000000000000000000000000000600052602260045260246000fd5b6000600282049050600182168061255c57607f821691505b60208210810361256f5761256e612515565b5b50919050565b60008190508160005260206000209050919050565b60006020601f8301049050919050565b600082821b905092915050565b6000600883026125d77fffffffffffffffffffffffffffffffffffffffffffffffffffffffffffffffff8261259a565b6125e1868361259a565b95508019841693508086168417925050509392505050565b600061261461260f61260a84611949565b61231d565b611949565b9050919050565b6000819050919050565b61262e836125f9565b61264261263a8261261b565b8484546125a7565b825550505050565b600090565b61265761264a565b612662818484612625565b505050565b5b818110156126865761267b60008261264f565b600181019050612668565b5050565b601f8211156126cb5761269c81612575565b6126a58461258a565b810160208510156126b4578190505b6126c86126c08561258a565b830182612667565b50505b505050565b600082821c905092915050565b60006126ee600019846008026126d0565b1980831691505092915050565b600061270783836126dd565b9150826002028217905092915050565b61272082611d9d565b67ffffffffffffffff81111561273957612738611b47565b5b6127438254612544565b61274e82828561268a565b600060209050601f831160018114612781576000841561276f578287015190505b61277985826126fb565b8655506127e1565b601f19841661278f86612575565b60005b828110156127b757848901518255600182019150602085019450602081019050612792565b868310156127d457848901516127d0601f8916826126dd565b8355505b6001600288020188555050505b505050505050565b7f596f75206e656564205a546f6b656e20746f206d696e74204e46540000000000600082015250565b600061281f601b83611da8565b915061282a826127e9565b602082019050919050565b6000602082019050818103600083015261284e81612812565b9050919050565b600061286082611949565b915061286b83611949565b92508282019050808211156128835761288261224c565b5b92915050565b600060608201905061289e60008301866119ac565b81810360208301526128b08185611de3565b90506128bf6040830184611e2b565b949350505050565b60006060820190506128dc6000830186611e2b565b6128e9602083018561236d565b6128f660408301846119ac565b949350505050565b7f596f75206e65656420657468657220746f206d696e74204e4654000000000000600082015250565b6000612934601a83611da8565b915061293f826128fe565b602082019050919050565b6000602082019050818103600083015261296381612927565b905091905056fea2646970667358221220fafa841ec1df5408d3cbf210843400b12132456bcc6729f5e6770ef2f204aaad64736f6c63430008130033",
  "immutableReferences": {},
  "source": "// SPDX-License-Identifier: MIT\r\npragma solidity ^0.8.0;\r\n\r\nimport \"./ZCoin.sol\";\r\nimport \"./MyNFT.sol\";\r\n\r\ncontract ZWallet {\r\n    ZCoin private zCoinContract;\r\n    address payable zCoinContractAddress;\r\n    MyNFT private nftContract;\r\n    address payable nftContractAddress;\r\n    uint256 public nftMintCostInWei;\r\n    uint256 public nftMintCostInZTK;\r\n    event ZCoinSold(address seller, uint256 amount);\r\n    uint256 public tokenCounter = 0;\r\n    struct NFTData {\r\n        uint256 id;\r\n        string name;\r\n        string description;\r\n        string uri;\r\n        uint256 cost;\r\n        bool isForSale;\r\n        address owner;\r\n    }\r\n    event NFTMinted(\r\n        uint256 id,\r\n        string name,\r\n        string description,\r\n        string uri,\r\n        uint256 cost,\r\n        bool isForSale,\r\n        address owner\r\n    );\r\n    event NFTSold(uint256 id, address buyer, address seller, uint256 price);\r\n    event ReceivedEth(address sender, uint256 amount);\r\n    mapping(uint256=>NFTData) public allNFTs;\r\n    constructor(\r\n        address payable _zCoinAddress,\r\n        address payable _nftContractAddress,\r\n        uint256 _nftMintCostInWei,\r\n        uint256 _nftMintCostInZTK\r\n    ) {\r\n        zCoinContractAddress = _zCoinAddress;\r\n        zCoinContract = ZCoin(_zCoinAddress);\r\n        nftContractAddress = _nftContractAddress;\r\n        nftContract = MyNFT(_nftContractAddress);\r\n        nftMintCostInWei = _nftMintCostInWei * (10**18);\r\n        nftMintCostInZTK = _nftMintCostInZTK;\r\n    }\r\n    function getZCoinBalance(address account) public view returns(uint256){\r\n        return zCoinContract.getBalance(account);\r\n    }\r\n    function transferZCoin(address from,address to, uint256 amount) public {\r\n        zCoinContract.transferZCoin(from,to,amount);\r\n    }\r\n    function buyZCoin() public payable {\r\n        uint256 tokensToBuy = (msg.value * zCoinContract.tokenPrice()) / 1 ether;\r\n        require(\r\n            zCoinContract.getBalance(zCoinContractAddress) >= tokensToBuy,\r\n            \"Not enough tokens available\"\r\n        );\r\n        (bool success, ) = zCoinContractAddress.call{\r\n            value: msg.value,\r\n            gas: 1000000\r\n        }(\"\");\r\n        require(success, \"ETH transfer failed\");\r\n        zCoinContract.transferZCoin(\r\n            zCoinContractAddress,\r\n            msg.sender,\r\n            tokensToBuy\r\n        );\r\n        emit ZCoinSold(msg.sender, tokensToBuy);\r\n    }\r\n    function mintNFTWithEth(\r\n        string memory _tokenURI,\r\n        string memory _name,\r\n        string memory _description,\r\n        uint256 _cost,\r\n        bool _isForSale\r\n    ) public payable {\r\n        require(msg.value >= nftMintCostInWei, \"You need ether to mint NFT\");\r\n        NFTData memory newNFT;\r\n        newNFT.id = tokenCounter;\r\n        tokenCounter += 1;\r\n        newNFT.name = _name;\r\n        newNFT.description = _description;\r\n        newNFT.uri = _tokenURI;\r\n        newNFT.cost = _cost;\r\n        newNFT.isForSale = _isForSale;\r\n        newNFT.owner = msg.sender;\r\n        allNFTs[newNFT.id] = newNFT;\r\n        nftContract.mintNFT(newNFT.id, newNFT.uri, msg.sender);\r\n        emit NFTMinted(\r\n            newNFT.id,\r\n            newNFT.name,\r\n            newNFT.description,\r\n            newNFT.uri,\r\n            newNFT.cost,\r\n            newNFT.isForSale,\r\n            newNFT.owner\r\n        );\r\n        (bool success, ) = nftContractAddress.call{value: nftMintCostInWei, gas: 1000000}(\"\");\r\n        require(success, \"ETH transfer failed\");\r\n    }\r\n\r\n    function mintNFTWithZToken(\r\n    string memory _tokenURI,\r\n    string memory _name,\r\n    string memory _description,\r\n    uint256 _cost,\r\n    bool _isForSale\r\n) public returns(uint256){\r\n    require(\r\n        zCoinContract.getBalance(msg.sender) >= nftMintCostInZTK,\r\n        \"You need ZToken to mint NFT\"\r\n    );\r\n    NFTData memory newNFT;\r\n    newNFT.id = tokenCounter;\r\n    newNFT.name = _name;\r\n    newNFT.description = _description;\r\n    newNFT.uri = _tokenURI;\r\n    newNFT.cost = _cost;\r\n    newNFT.isForSale = _isForSale;\r\n    newNFT.owner = msg.sender;\r\n    allNFTs[tokenCounter] = newNFT;\r\n    tokenCounter += 1;\r\n    nftContract.mintNFT(newNFT.id, newNFT.uri, msg.sender);\r\n    emit NFTMinted(\r\n        newNFT.id,\r\n        newNFT.name,\r\n        newNFT.description,\r\n        newNFT.uri,\r\n        newNFT.cost,\r\n        newNFT.isForSale,\r\n        newNFT.owner\r\n    );        \r\n    zCoinContract.transferZCoin(msg.sender, nftContractAddress, nftMintCostInZTK);\r\n    return newNFT.id;\r\n}\r\n\r\n    function transferNFT(uint256 _tokenId) public returns (uint256){\r\n        NFTData storage nft = allNFTs[_tokenId];\r\n        require(nft.isForSale, \"NFT is not for sale\");\r\n        require(msg.sender != nft.owner, \"You are the owner of this NFT\");\r\n        require(zCoinContract.getBalance(msg.sender)>nft.cost , \"You don't have enought coins tobuy this nft\");\r\n        address previousOwner = nft.owner;\r\n        nft.owner = msg.sender;\r\n        nftContract.transferNFT(_tokenId,msg.sender,previousOwner);\r\n        zCoinContract.transferZCoin(msg.sender,previousOwner,nft.cost);\r\n        emit NFTSold(_tokenId, previousOwner, msg.sender, nft.cost);\r\n        return(nft.id);\r\n    }\r\n    function setNFTName(uint256 _id, string memory _name) public {\r\n        require(allNFTs[_id].owner == msg.sender , \"only the owner can modify a nft property\");\r\n        allNFTs[_id].name = _name;\r\n    }\r\n\r\n    function setNFTDescription(uint256 _id, string memory _description) public {\r\n        require(allNFTs[_id].owner == msg.sender , \"only the owner can modify a nft property\");\r\n        allNFTs[_id].description = _description;\r\n    }\r\n\r\n    function setNFTIsForSale(uint256 _id, bool _isForSale) public {\r\n        require(allNFTs[_id].owner == msg.sender , \"only the owner can modify a nft property\");\r\n        allNFTs[_id].isForSale = _isForSale;\r\n    }\r\n    function setNFTIsCost(uint256 _id, uint256 _cost) public {\r\n        require(allNFTs[_id].owner == msg.sender , \"only the owner can modify a nft property\");\r\n        allNFTs[_id].cost = _cost;\r\n    }\r\n}\r\n",
  "sourcePath": "C:\\Users\\firas\\WebstormProjects\\z-wallet\\contracts\\ZWallet.sol",
  "compiler": {
    "name": "solc",
    "version": "0.8.19+commit.7dd6d404.Emscripten.clang"
  },
  "schemaVersion": "3.4.16",
  "updatedAt": "2024-12-04T15:20:58.655Z",
  "networkType": "ethereum",
  "devdoc": {
    "kind": "dev",
    "methods": {},
    "version": 1
  },
  "userdoc": {
    "kind": "user",
    "methods": {},
    "version": 1
  }
}