{
  "contractName": "ZWallet",
  "abi": [
    {
      "inputs": [
        {
          "internalType": "address payable",
          "name": "_zCoinAddress",
          "type": "address"
        },
        {
          "internalType": "address payable",
          "name": "_nftContractAddress",
          "type": "address"
        },
        {
          "internalType": "uint256",
          "name": "_nftMintCostInWei",
          "type": "uint256"
        },
        {
          "internalType": "uint256",
          "name": "_nftMintCostInZTK",
          "type": "uint256"
        }
      ],
      "stateMutability": "nonpayable",
      "type": "constructor"
    },
    {
      "anonymous": false,
      "inputs": [
        {
          "indexed": false,
          "internalType": "uint256",
          "name": "id",
          "type": "uint256"
        },
        {
          "indexed": false,
          "internalType": "string",
          "name": "name",
          "type": "string"
        },
        {
          "indexed": false,
          "internalType": "string",
          "name": "description",
          "type": "string"
        },
        {
          "indexed": false,
          "internalType": "string",
          "name": "uri",
          "type": "string"
        },
        {
          "indexed": false,
          "internalType": "uint256",
          "name": "cost",
          "type": "uint256"
        },
        {
          "indexed": false,
          "internalType": "bool",
          "name": "isForSale",
          "type": "bool"
        },
        {
          "indexed": false,
          "internalType": "address",
          "name": "owner",
          "type": "address"
        }
      ],
      "name": "NFTMinted",
      "type": "event"
    },
    {
      "anonymous": false,
      "inputs": [
        {
          "indexed": false,
          "internalType": "uint256",
          "name": "id",
          "type": "uint256"
        },
        {
          "indexed": false,
          "internalType": "address",
          "name": "buyer",
          "type": "address"
        },
        {
          "indexed": false,
          "internalType": "address",
          "name": "seller",
          "type": "address"
        },
        {
          "indexed": false,
          "internalType": "uint256",
          "name": "price",
          "type": "uint256"
        }
      ],
      "name": "NFTSold",
      "type": "event"
    },
    {
      "anonymous": false,
      "inputs": [
        {
          "indexed": false,
          "internalType": "address",
          "name": "sender",
          "type": "address"
        },
        {
          "indexed": false,
          "internalType": "uint256",
          "name": "amount",
          "type": "uint256"
        }
      ],
      "name": "ReceivedEth",
      "type": "event"
    },
    {
      "anonymous": false,
      "inputs": [
        {
          "indexed": false,
          "internalType": "address",
          "name": "seller",
          "type": "address"
        },
        {
          "indexed": false,
          "internalType": "uint256",
          "name": "amount",
          "type": "uint256"
        }
      ],
      "name": "ZCoinSold",
      "type": "event"
    },
    {
      "inputs": [
        {
          "internalType": "uint256",
          "name": "",
          "type": "uint256"
        }
      ],
      "name": "allNFTs",
      "outputs": [
        {
          "internalType": "uint256",
          "name": "id",
          "type": "uint256"
        },
        {
          "internalType": "string",
          "name": "name",
          "type": "string"
        },
        {
          "internalType": "string",
          "name": "description",
          "type": "string"
        },
        {
          "internalType": "string",
          "name": "uri",
          "type": "string"
        },
        {
          "internalType": "uint256",
          "name": "cost",
          "type": "uint256"
        },
        {
          "internalType": "bool",
          "name": "isForSale",
          "type": "bool"
        },
        {
          "internalType": "address",
          "name": "owner",
          "type": "address"
        }
      ],
      "stateMutability": "view",
      "type": "function",
      "constant": true
    },
    {
      "inputs": [],
      "name": "nftMintCostInWei",
      "outputs": [
        {
          "internalType": "uint256",
          "name": "",
          "type": "uint256"
        }
      ],
      "stateMutability": "view",
      "type": "function",
      "constant": true
    },
    {
      "inputs": [],
      "name": "nftMintCostInZTK",
      "outputs": [
        {
          "internalType": "uint256",
          "name": "",
          "type": "uint256"
        }
      ],
      "stateMutability": "view",
      "type": "function",
      "constant": true
    },
    {
      "inputs": [],
      "name": "tokenCounter",
      "outputs": [
        {
          "internalType": "uint256",
          "name": "",
          "type": "uint256"
        }
      ],
      "stateMutability": "view",
      "type": "function",
      "constant": true
    },
    {
      "inputs": [
        {
          "internalType": "address",
          "name": "account",
          "type": "address"
        }
      ],
      "name": "getZCoinBalance",
      "outputs": [
        {
          "internalType": "uint256",
          "name": "",
          "type": "uint256"
        }
      ],
      "stateMutability": "view",
      "type": "function",
      "constant": true
    },
    {
      "inputs": [
        {
          "internalType": "address",
          "name": "from",
          "type": "address"
        },
        {
          "internalType": "address",
          "name": "to",
          "type": "address"
        },
        {
          "internalType": "uint256",
          "name": "amount",
          "type": "uint256"
        }
      ],
      "name": "transferZCoin",
      "outputs": [],
      "stateMutability": "nonpayable",
      "type": "function"
    },
    {
      "inputs": [],
      "name": "buyZCoin",
      "outputs": [],
      "stateMutability": "payable",
      "type": "function",
      "payable": true
    },
    {
      "inputs": [
        {
          "internalType": "string",
          "name": "_tokenURI",
          "type": "string"
        },
        {
          "internalType": "string",
          "name": "_name",
          "type": "string"
        },
        {
          "internalType": "string",
          "name": "_description",
          "type": "string"
        },
        {
          "internalType": "uint256",
          "name": "_cost",
          "type": "uint256"
        },
        {
          "internalType": "bool",
          "name": "_isForSale",
          "type": "bool"
        }
      ],
      "name": "mintNFTWithEth",
      "outputs": [],
      "stateMutability": "payable",
      "type": "function",
      "payable": true
    },
    {
      "inputs": [
        {
          "internalType": "string",
          "name": "_tokenURI",
          "type": "string"
        },
        {
          "internalType": "string",
          "name": "_name",
          "type": "string"
        },
        {
          "internalType": "string",
          "name": "_description",
          "type": "string"
        },
        {
          "internalType": "uint256",
          "name": "_cost",
          "type": "uint256"
        },
        {
          "internalType": "bool",
          "name": "_isForSale",
          "type": "bool"
        }
      ],
      "name": "mintNFTWithZToken",
      "outputs": [],
      "stateMutability": "nonpayable",
      "type": "function"
    },
    {
      "inputs": [
        {
          "internalType": "uint256",
          "name": "_tokenId",
          "type": "uint256"
        }
      ],
      "name": "transferNFT",
      "outputs": [],
      "stateMutability": "nonpayable",
      "type": "function"
    },
    {
      "inputs": [
        {
          "internalType": "uint256",
          "name": "_id",
          "type": "uint256"
        },
        {
          "internalType": "string",
          "name": "_name",
          "type": "string"
        }
      ],
      "name": "setNFTName",
      "outputs": [],
      "stateMutability": "nonpayable",
      "type": "function"
    },
    {
      "inputs": [
        {
          "internalType": "uint256",
          "name": "_id",
          "type": "uint256"
        },
        {
          "internalType": "string",
          "name": "_description",
          "type": "string"
        }
      ],
      "name": "setNFTDescription",
      "outputs": [],
      "stateMutability": "nonpayable",
      "type": "function"
    },
    {
      "inputs": [
        {
          "internalType": "uint256",
          "name": "_id",
          "type": "uint256"
        },
        {
          "internalType": "bool",
          "name": "_isForSale",
          "type": "bool"
        }
      ],
      "name": "setNFTIsForSale",
      "outputs": [],
      "stateMutability": "nonpayable",
      "type": "function"
    },
    {
      "inputs": [
        {
          "internalType": "uint256",
          "name": "_id",
          "type": "uint256"
        },
        {
          "internalType": "uint256",
          "name": "_cost",
          "type": "uint256"
        }
      ],
      "name": "setNFTIsCost",
      "outputs": [],
      "stateMutability": "nonpayable",
      "type": "function"
    }
  ],
  "bytecode": "0x608060405260006006553480156200001657600080fd5b5060405162002cb938038062002cb983398181016040528101906200003c9190620001fc565b83600160006101000a81548173ffffffffffffffffffffffffffffffffffffffff021916908373ffffffffffffffffffffffffffffffffffffffff160217905550836000806101000a81548173ffffffffffffffffffffffffffffffffffffffff021916908373ffffffffffffffffffffffffffffffffffffffff16021790555082600360006101000a81548173ffffffffffffffffffffffffffffffffffffffff021916908373ffffffffffffffffffffffffffffffffffffffff16021790555082600260006101000a81548173ffffffffffffffffffffffffffffffffffffffff021916908373ffffffffffffffffffffffffffffffffffffffff1602179055508160048190555080600581905550505050506200026e565b600080fd5b600073ffffffffffffffffffffffffffffffffffffffff82169050919050565b600062000189826200015c565b9050919050565b6200019b816200017c565b8114620001a757600080fd5b50565b600081519050620001bb8162000190565b92915050565b6000819050919050565b620001d681620001c1565b8114620001e257600080fd5b50565b600081519050620001f681620001cb565b92915050565b6000806000806080858703121562000219576200021862000157565b5b60006200022987828801620001aa565b94505060206200023c87828801620001aa565b93505060406200024f87828801620001e5565b92505060606200026287828801620001e5565b91505092959194509250565b612a3b806200027e6000396000f3fe6080604052600436106100dd5760003560e01c8063bf162d671161007f578063d082e38111610059578063d082e3811461028d578063d22327cb146102b8578063df6e9911146102d4578063fc9f696d146102fd576100dd565b8063bf162d67146101f6578063c3f679ca14610239578063cc39bc9f14610264576100dd565b80638d2e963d116100bb5780638d2e963d1461017157806394ef0b351461017b57806397a1ce33146101a4578063afb59367146101cd576100dd565b8063249e10c5146100e25780633e5b92a61461010b57806376f548ac14610148575b600080fd5b3480156100ee57600080fd5b5061010960048036038101906101049190611a1a565b610328565b005b34801561011757600080fd5b50610132600480360381019061012d9190611aa5565b6106e9565b60405161013f9190611ae1565b60405180910390f35b34801561015457600080fd5b5061016f600480360381019061016a9190611b34565b61078d565b005b610179610863565b005b34801561018757600080fd5b506101a2600480360381019061019d9190611b74565b610be6565b005b3480156101b057600080fd5b506101cb60048036038101906101c69190611d0d565b610c8c565b005b3480156101d957600080fd5b506101f460048036038101906101ef9190611d69565b610d58565b005b34801561020257600080fd5b5061021d60048036038101906102189190611a1a565b611244565b6040516102309796959493929190611ed5565b60405180910390f35b34801561024557600080fd5b5061024e61144b565b60405161025b9190611ae1565b60405180910390f35b34801561027057600080fd5b5061028b60048036038101906102869190611f59565b611451565b005b34801561029957600080fd5b506102a2611514565b6040516102af9190611ae1565b60405180910390f35b6102d260048036038101906102cd9190611d69565b61151a565b005b3480156102e057600080fd5b506102fb60048036038101906102f69190611d0d565b6118a9565b005b34801561030957600080fd5b50610312611975565b60405161031f9190611ae1565b60405180910390f35b60006007600083815260200190815260200160002090508060050160009054906101000a900460ff16610390576040517f08c379a000000000000000000000000000000000000000000000000000000000815260040161038790611fe5565b60405180910390fd5b8060050160019054906101000a900473ffffffffffffffffffffffffffffffffffffffff1673ffffffffffffffffffffffffffffffffffffffff163373ffffffffffffffffffffffffffffffffffffffff1603610422576040517f08c379a000000000000000000000000000000000000000000000000000000000815260040161041990612051565b60405180910390fd5b806004015460008054906101000a900473ffffffffffffffffffffffffffffffffffffffff1673ffffffffffffffffffffffffffffffffffffffff1663f8b2cb4f336040518263ffffffff1660e01b81526004016104809190612071565b602060405180830381865afa15801561049d573d6000803e3d6000fd5b505050506040513d601f19601f820116820180604052508101906104c191906120a1565b11610501576040517f08c379a00000000000000000000000000000000000000000000000000000000081526004016104f890612140565b60405180910390fd5b60008160050160019054906101000a900473ffffffffffffffffffffffffffffffffffffffff169050338260050160016101000a81548173ffffffffffffffffffffffffffffffffffffffff021916908373ffffffffffffffffffffffffffffffffffffffff160217905550600260009054906101000a900473ffffffffffffffffffffffffffffffffffffffff1673ffffffffffffffffffffffffffffffffffffffff16632aafe1328433846040518463ffffffff1660e01b81526004016105cc93929190612160565b600060405180830381600087803b1580156105e657600080fd5b505af11580156105fa573d6000803e3d6000fd5b5050505060008054906101000a900473ffffffffffffffffffffffffffffffffffffffff1673ffffffffffffffffffffffffffffffffffffffff166394ef0b35338385600401546040518463ffffffff1660e01b815260040161065f93929190612197565b6020604051808303816000875af115801561067e573d6000803e3d6000fd5b505050506040513d601f19601f820116820180604052508101906106a291906121e3565b507f8562eb94748e30bb0071e932744ce902b460c683474fcb3bfd567ffa16b1afb283823385600401546040516106dc9493929190612210565b60405180910390a1505050565b60008060009054906101000a900473ffffffffffffffffffffffffffffffffffffffff1673ffffffffffffffffffffffffffffffffffffffff1663f8b2cb4f836040518263ffffffff1660e01b81526004016107459190612071565b602060405180830381865afa158015610762573d6000803e3d6000fd5b505050506040513d601f19601f8201168201806040525081019061078691906120a1565b9050919050565b3373ffffffffffffffffffffffffffffffffffffffff166007600084815260200190815260200160002060050160019054906101000a900473ffffffffffffffffffffffffffffffffffffffff1673ffffffffffffffffffffffffffffffffffffffff1614610831576040517f08c379a0000000000000000000000000000000000000000000000000000000008152600401610828906122c7565b60405180910390fd5b806007600084815260200190815260200160002060050160006101000a81548160ff0219169083151502179055505050565b6000670de0b6b3a764000060008054906101000a900473ffffffffffffffffffffffffffffffffffffffff1673ffffffffffffffffffffffffffffffffffffffff16637ff9b5966040518163ffffffff1660e01b8152600401602060405180830381865afa1580156108d9573d6000803e3d6000fd5b505050506040513d601f19601f820116820180604052508101906108fd91906120a1565b346109089190612316565b6109129190612387565b90508060008054906101000a900473ffffffffffffffffffffffffffffffffffffffff1673ffffffffffffffffffffffffffffffffffffffff1663f8b2cb4f600160009054906101000a900473ffffffffffffffffffffffffffffffffffffffff166040518263ffffffff1660e01b81526004016109909190612417565b602060405180830381865afa1580156109ad573d6000803e3d6000fd5b505050506040513d601f19601f820116820180604052508101906109d191906120a1565b1015610a12576040517f08c379a0000000000000000000000000000000000000000000000000000000008152600401610a099061247e565b60405180910390fd5b6000600160009054906101000a900473ffffffffffffffffffffffffffffffffffffffff1673ffffffffffffffffffffffffffffffffffffffff1634620f424090604051610a5f906124cf565b600060405180830381858888f193505050503d8060008114610a9d576040519150601f19603f3d011682016040523d82523d6000602084013e610aa2565b606091505b5050905080610ae6576040517f08c379a0000000000000000000000000000000000000000000000000000000008152600401610add90612530565b60405180910390fd5b60008054906101000a900473ffffffffffffffffffffffffffffffffffffffff1673ffffffffffffffffffffffffffffffffffffffff166394ef0b35600160009054906101000a900473ffffffffffffffffffffffffffffffffffffffff1633856040518463ffffffff1660e01b8152600401610b6593929190612550565b6020604051808303816000875af1158015610b84573d6000803e3d6000fd5b505050506040513d601f19601f82011682018060405250810190610ba891906121e3565b507f10c1ae801e87966f1c81cc31fb7b4be3b6267c5a99840408188405b943a618b73383604051610bda929190612587565b60405180910390a15050565b60008054906101000a900473ffffffffffffffffffffffffffffffffffffffff1673ffffffffffffffffffffffffffffffffffffffff166394ef0b358484846040518463ffffffff1660e01b8152600401610c4393929190612197565b6020604051808303816000875af1158015610c62573d6000803e3d6000fd5b505050506040513d601f19601f82011682018060405250810190610c8691906121e3565b50505050565b3373ffffffffffffffffffffffffffffffffffffffff166007600084815260200190815260200160002060050160019054906101000a900473ffffffffffffffffffffffffffffffffffffffff1673ffffffffffffffffffffffffffffffffffffffff1614610d30576040517f08c379a0000000000000000000000000000000000000000000000000000000008152600401610d27906122c7565b60405180910390fd5b80600760008481526020019081526020016000206002019081610d5391906127b2565b505050565b60055460008054906101000a900473ffffffffffffffffffffffffffffffffffffffff1673ffffffffffffffffffffffffffffffffffffffff1663f8b2cb4f336040518263ffffffff1660e01b8152600401610db49190612071565b602060405180830381865afa158015610dd1573d6000803e3d6000fd5b505050506040513d601f19601f82011682018060405250810190610df591906120a1565b1015610e36576040517f08c379a0000000000000000000000000000000000000000000000000000000008152600401610e2d906128d0565b60405180910390fd5b610e3e61197b565b60065481600001818152505084816020018190525083816040018190525085816060018190525082816080018181525050818160a0019015159081151581525050338160c0019073ffffffffffffffffffffffffffffffffffffffff16908173ffffffffffffffffffffffffffffffffffffffff168152505080600760006006548152602001908152602001600020600082015181600001556020820151816001019081610eec91906127b2565b506040820151816002019081610f0291906127b2565b506060820151816003019081610f1891906127b2565b506080820151816004015560a08201518160050160006101000a81548160ff02191690831515021790555060c08201518160050160016101000a81548173ffffffffffffffffffffffffffffffffffffffff021916908373ffffffffffffffffffffffffffffffffffffffff160217905550905050600160066000828254610fa091906128f0565b92505081905550806007600083600001518152602001908152602001600020600082015181600001556020820151816001019081610fde91906127b2565b506040820151816002019081610ff491906127b2565b50606082015181600301908161100a91906127b2565b506080820151816004015560a08201518160050160006101000a81548160ff02191690831515021790555060c08201518160050160016101000a81548173ffffffffffffffffffffffffffffffffffffffff021916908373ffffffffffffffffffffffffffffffffffffffff160217905550905050600260009054906101000a900473ffffffffffffffffffffffffffffffffffffffff1673ffffffffffffffffffffffffffffffffffffffff166365d98cd682600001518360600151336040518463ffffffff1660e01b81526004016110e693929190612924565b600060405180830381600087803b15801561110057600080fd5b505af1158015611114573d6000803e3d6000fd5b505050507f156e8777c61016226bf9880fe734c6079cbe46f8ba6bbd64da92ed4fa3a6b3e9816000015182602001518360400151846060015185608001518660a001518760c0015160405161116f9796959493929190611ed5565b60405180910390a160008054906101000a900473ffffffffffffffffffffffffffffffffffffffff1673ffffffffffffffffffffffffffffffffffffffff166394ef0b3533600360009054906101000a900473ffffffffffffffffffffffffffffffffffffffff166005546040518463ffffffff1660e01b81526004016111f893929190612962565b6020604051808303816000875af1158015611217573d6000803e3d6000fd5b505050506040513d601f19601f8201168201806040525081019061123b91906121e3565b50505050505050565b600760205280600052604060002060009150905080600001549080600101805461126d906125df565b80601f0160208091040260200160405190810160405280929190818152602001828054611299906125df565b80156112e65780601f106112bb576101008083540402835291602001916112e6565b820191906000526020600020905b8154815290600101906020018083116112c957829003601f168201915b5050505050908060020180546112fb906125df565b80601f0160208091040260200160405190810160405280929190818152602001828054611327906125df565b80156113745780601f1061134957610100808354040283529160200191611374565b820191906000526020600020905b81548152906001019060200180831161135757829003601f168201915b505050505090806003018054611389906125df565b80601f01602080910402602001604051908101604052809291908181526020018280546113b5906125df565b80156114025780601f106113d757610100808354040283529160200191611402565b820191906000526020600020905b8154815290600101906020018083116113e557829003601f168201915b5050505050908060040154908060050160009054906101000a900460ff16908060050160019054906101000a900473ffffffffffffffffffffffffffffffffffffffff16905087565b60055481565b3373ffffffffffffffffffffffffffffffffffffffff166007600084815260200190815260200160002060050160019054906101000a900473ffffffffffffffffffffffffffffffffffffffff1673ffffffffffffffffffffffffffffffffffffffff16146114f5576040517f08c379a00000000000000000000000000000000000000000000000000000000081526004016114ec906122c7565b60405180910390fd5b8060076000848152602001908152602001600020600401819055505050565b60065481565b60045434101561155f576040517f08c379a0000000000000000000000000000000000000000000000000000000008152600401611556906129e5565b60405180910390fd5b61156761197b565b60065481600001818152505060016006600082825461158691906128f0565b9250508190555084816020018190525083816040018190525085816060018190525082816080018181525050818160a0019015159081151581525050338160c0019073ffffffffffffffffffffffffffffffffffffffff16908173ffffffffffffffffffffffffffffffffffffffff168152505080600760008360000151815260200190815260200160002060008201518160000155602082015181600101908161163191906127b2565b50604082015181600201908161164791906127b2565b50606082015181600301908161165d91906127b2565b506080820151816004015560a08201518160050160006101000a81548160ff02191690831515021790555060c08201518160050160016101000a81548173ffffffffffffffffffffffffffffffffffffffff021916908373ffffffffffffffffffffffffffffffffffffffff160217905550905050600260009054906101000a900473ffffffffffffffffffffffffffffffffffffffff1673ffffffffffffffffffffffffffffffffffffffff166365d98cd682600001518360600151336040518463ffffffff1660e01b815260040161173993929190612924565b600060405180830381600087803b15801561175357600080fd5b505af1158015611767573d6000803e3d6000fd5b505050507f156e8777c61016226bf9880fe734c6079cbe46f8ba6bbd64da92ed4fa3a6b3e9816000015182602001518360400151846060015185608001518660a001518760c001516040516117c29796959493929190611ed5565b60405180910390a16000600360009054906101000a900473ffffffffffffffffffffffffffffffffffffffff1673ffffffffffffffffffffffffffffffffffffffff16600454620f424090604051611819906124cf565b600060405180830381858888f193505050503d8060008114611857576040519150601f19603f3d011682016040523d82523d6000602084013e61185c565b606091505b50509050806118a0576040517f08c379a000000000000000000000000000000000000000000000000000000000815260040161189790612530565b60405180910390fd5b50505050505050565b3373ffffffffffffffffffffffffffffffffffffffff166007600084815260200190815260200160002060050160019054906101000a900473ffffffffffffffffffffffffffffffffffffffff1673ffffffffffffffffffffffffffffffffffffffff161461194d576040517f08c379a0000000000000000000000000000000000000000000000000000000008152600401611944906122c7565b60405180910390fd5b8060076000848152602001908152602001600020600101908161197091906127b2565b505050565b60045481565b6040518060e001604052806000815260200160608152602001606081526020016060815260200160008152602001600015158152602001600073ffffffffffffffffffffffffffffffffffffffff1681525090565b6000604051905090565b600080fd5b600080fd5b6000819050919050565b6119f7816119e4565b8114611a0257600080fd5b50565b600081359050611a14816119ee565b92915050565b600060208284031215611a3057611a2f6119da565b5b6000611a3e84828501611a05565b91505092915050565b600073ffffffffffffffffffffffffffffffffffffffff82169050919050565b6000611a7282611a47565b9050919050565b611a8281611a67565b8114611a8d57600080fd5b50565b600081359050611a9f81611a79565b92915050565b600060208284031215611abb57611aba6119da565b5b6000611ac984828501611a90565b91505092915050565b611adb816119e4565b82525050565b6000602082019050611af66000830184611ad2565b92915050565b60008115159050919050565b611b1181611afc565b8114611b1c57600080fd5b50565b600081359050611b2e81611b08565b92915050565b60008060408385031215611b4b57611b4a6119da565b5b6000611b5985828601611a05565b9250506020611b6a85828601611b1f565b9150509250929050565b600080600060608486031215611b8d57611b8c6119da565b5b6000611b9b86828701611a90565b9350506020611bac86828701611a90565b9250506040611bbd86828701611a05565b9150509250925092565b600080fd5b600080fd5b6000601f19601f8301169050919050565b7f4e487b7100000000000000000000000000000000000000000000000000000000600052604160045260246000fd5b611c1a82611bd1565b810181811067ffffffffffffffff82111715611c3957611c38611be2565b5b80604052505050565b6000611c4c6119d0565b9050611c588282611c11565b919050565b600067ffffffffffffffff821115611c7857611c77611be2565b5b611c8182611bd1565b9050602081019050919050565b82818337600083830152505050565b6000611cb0611cab84611c5d565b611c42565b905082815260208101848484011115611ccc57611ccb611bcc565b5b611cd7848285611c8e565b509392505050565b600082601f830112611cf457611cf3611bc7565b5b8135611d04848260208601611c9d565b91505092915050565b60008060408385031215611d2457611d236119da565b5b6000611d3285828601611a05565b925050602083013567ffffffffffffffff811115611d5357611d526119df565b5b611d5f85828601611cdf565b9150509250929050565b600080600080600060a08688031215611d8557611d846119da565b5b600086013567ffffffffffffffff811115611da357611da26119df565b5b611daf88828901611cdf565b955050602086013567ffffffffffffffff811115611dd057611dcf6119df565b5b611ddc88828901611cdf565b945050604086013567ffffffffffffffff811115611dfd57611dfc6119df565b5b611e0988828901611cdf565b9350506060611e1a88828901611a05565b9250506080611e2b88828901611b1f565b9150509295509295909350565b600081519050919050565b600082825260208201905092915050565b60005b83811015611e72578082015181840152602081019050611e57565b60008484015250505050565b6000611e8982611e38565b611e938185611e43565b9350611ea3818560208601611e54565b611eac81611bd1565b840191505092915050565b611ec081611afc565b82525050565b611ecf81611a67565b82525050565b600060e082019050611eea600083018a611ad2565b8181036020830152611efc8189611e7e565b90508181036040830152611f108188611e7e565b90508181036060830152611f248187611e7e565b9050611f336080830186611ad2565b611f4060a0830185611eb7565b611f4d60c0830184611ec6565b98975050505050505050565b60008060408385031215611f7057611f6f6119da565b5b6000611f7e85828601611a05565b9250506020611f8f85828601611a05565b9150509250929050565b7f4e4654206973206e6f7420666f722073616c6500000000000000000000000000600082015250565b6000611fcf601383611e43565b9150611fda82611f99565b602082019050919050565b60006020820190508181036000830152611ffe81611fc2565b9050919050565b7f596f752061726520746865206f776e6572206f662074686973204e4654000000600082015250565b600061203b601d83611e43565b915061204682612005565b602082019050919050565b6000602082019050818103600083015261206a8161202e565b9050919050565b60006020820190506120866000830184611ec6565b92915050565b60008151905061209b816119ee565b92915050565b6000602082840312156120b7576120b66119da565b5b60006120c58482850161208c565b91505092915050565b7f596f7520646f6e2774206861766520656e6f7567687420636f696e7320746f6260008201527f75792074686973206e6674000000000000000000000000000000000000000000602082015250565b600061212a602b83611e43565b9150612135826120ce565b604082019050919050565b600060208201905081810360008301526121598161211d565b9050919050565b60006060820190506121756000830186611ad2565b6121826020830185611ec6565b61218f6040830184611ec6565b949350505050565b60006060820190506121ac6000830186611ec6565b6121b96020830185611ec6565b6121c66040830184611ad2565b949350505050565b6000815190506121dd81611b08565b92915050565b6000602082840312156121f9576121f86119da565b5b6000612207848285016121ce565b91505092915050565b60006080820190506122256000830187611ad2565b6122326020830186611ec6565b61223f6040830185611ec6565b61224c6060830184611ad2565b95945050505050565b7f6f6e6c7920746865206f776e65722063616e206d6f646966792061206e66742060008201527f70726f7065727479000000000000000000000000000000000000000000000000602082015250565b60006122b1602883611e43565b91506122bc82612255565b604082019050919050565b600060208201905081810360008301526122e0816122a4565b9050919050565b7f4e487b7100000000000000000000000000000000000000000000000000000000600052601160045260246000fd5b6000612321826119e4565b915061232c836119e4565b925082820261233a816119e4565b91508282048414831517612351576123506122e7565b5b5092915050565b7f4e487b7100000000000000000000000000000000000000000000000000000000600052601260045260246000fd5b6000612392826119e4565b915061239d836119e4565b9250826123ad576123ac612358565b5b828204905092915050565b6000819050919050565b60006123dd6123d86123d384611a47565b6123b8565b611a47565b9050919050565b60006123ef826123c2565b9050919050565b6000612401826123e4565b9050919050565b612411816123f6565b82525050565b600060208201905061242c6000830184612408565b92915050565b7f4e6f7420656e6f75676820746f6b656e7320617661696c61626c650000000000600082015250565b6000612468601b83611e43565b915061247382612432565b602082019050919050565b600060208201905081810360008301526124978161245b565b9050919050565b600081905092915050565b50565b60006124b960008361249e565b91506124c4826124a9565b600082019050919050565b60006124da826124ac565b9150819050919050565b7f455448207472616e73666572206661696c656400000000000000000000000000600082015250565b600061251a601383611e43565b9150612525826124e4565b602082019050919050565b600060208201905081810360008301526125498161250d565b9050919050565b60006060820190506125656000830186612408565b6125726020830185611ec6565b61257f6040830184611ad2565b949350505050565b600060408201905061259c6000830185611ec6565b6125a96020830184611ad2565b9392505050565b7f4e487b7100000000000000000000000000000000000000000000000000000000600052602260045260246000fd5b600060028204905060018216806125f757607f821691505b60208210810361260a576126096125b0565b5b50919050565b60008190508160005260206000209050919050565b60006020601f8301049050919050565b600082821b905092915050565b6000600883026126727fffffffffffffffffffffffffffffffffffffffffffffffffffffffffffffffff82612635565b61267c8683612635565b95508019841693508086168417925050509392505050565b60006126af6126aa6126a5846119e4565b6123b8565b6119e4565b9050919050565b6000819050919050565b6126c983612694565b6126dd6126d5826126b6565b848454612642565b825550505050565b600090565b6126f26126e5565b6126fd8184846126c0565b505050565b5b81811015612721576127166000826126ea565b600181019050612703565b5050565b601f8211156127665761273781612610565b61274084612625565b8101602085101561274f578190505b61276361275b85612625565b830182612702565b50505b505050565b600082821c905092915050565b60006127896000198460080261276b565b1980831691505092915050565b60006127a28383612778565b9150826002028217905092915050565b6127bb82611e38565b67ffffffffffffffff8111156127d4576127d3611be2565b5b6127de82546125df565b6127e9828285612725565b600060209050601f83116001811461281c576000841561280a578287015190505b6128148582612796565b86555061287c565b601f19841661282a86612610565b60005b828110156128525784890151825560018201915060208501945060208101905061282d565b8683101561286f578489015161286b601f891682612778565b8355505b6001600288020188555050505b505050505050565b7f596f75206e656564205a546f6b656e20746f206d696e74204e46540000000000600082015250565b60006128ba601b83611e43565b91506128c582612884565b602082019050919050565b600060208201905081810360008301526128e9816128ad565b9050919050565b60006128fb826119e4565b9150612906836119e4565b925082820190508082111561291e5761291d6122e7565b5b92915050565b60006060820190506129396000830186611ad2565b818103602083015261294b8185611e7e565b905061295a6040830184611ec6565b949350505050565b60006060820190506129776000830186611ec6565b6129846020830185612408565b6129916040830184611ad2565b949350505050565b7f596f75206e65656420657468657220746f206d696e74204e4654000000000000600082015250565b60006129cf601a83611e43565b91506129da82612999565b602082019050919050565b600060208201905081810360008301526129fe816129c2565b905091905056fea26469706673582212209ad2a3b5060f5b1b8c80b34b9aad786e9ee8f9b7e7d44af04570dbc61a7d29e264736f6c63430008130033",
  "immutableReferences": {},
  "source": "// SPDX-License-Identifier: MIT\r\npragma solidity ^0.8.0;\r\n\r\nimport \"./ZCoin.sol\";\r\nimport \"./MyNFT.sol\";\r\n\r\ncontract ZWallet {\r\n    ZCoin private zCoinContract;\r\n    address payable zCoinContractAddress;\r\n    MyNFT private nftContract;\r\n    address payable nftContractAddress;\r\n    uint256 public nftMintCostInWei;\r\n    uint256 public nftMintCostInZTK;\r\n    event ZCoinSold(address seller, uint256 amount);\r\n    uint256 public tokenCounter = 0;\r\n    struct NFTData {\r\n        uint256 id;\r\n        string name;\r\n        string description;\r\n        string uri;\r\n        uint256 cost;\r\n        bool isForSale;\r\n        address owner;\r\n    }\r\n    event NFTMinted(\r\n        uint256 id,\r\n        string name,\r\n        string description,\r\n        string uri,\r\n        uint256 cost,\r\n        bool isForSale,\r\n        address owner\r\n    );\r\n    event NFTSold(uint256 id, address buyer, address seller, uint256 price);\r\n    event ReceivedEth(address sender, uint256 amount);\r\n    mapping(uint256=>NFTData) public allNFTs;\r\n    constructor(\r\n        address payable _zCoinAddress,\r\n        address payable _nftContractAddress,\r\n        uint256 _nftMintCostInWei,\r\n        uint256 _nftMintCostInZTK\r\n    ) {\r\n        zCoinContractAddress = _zCoinAddress;\r\n        zCoinContract = ZCoin(_zCoinAddress);\r\n        nftContractAddress = _nftContractAddress;\r\n        nftContract = MyNFT(_nftContractAddress);\r\n        nftMintCostInWei = _nftMintCostInWei;\r\n        nftMintCostInZTK = _nftMintCostInZTK;\r\n    }\r\n    function getZCoinBalance(address account) public view returns(uint256){\r\n        return zCoinContract.getBalance(account);\r\n    }\r\n    function transferZCoin(address from,address to, uint256 amount) public {\r\n        zCoinContract.transferZCoin(from,to,amount);\r\n    }\r\n    function buyZCoin() public payable {\r\n        uint256 tokensToBuy = (msg.value * zCoinContract.tokenPrice()) / 1 ether;\r\n        require(\r\n            zCoinContract.getBalance(zCoinContractAddress) >= tokensToBuy,\r\n            \"Not enough tokens available\"\r\n        );\r\n        (bool success, ) = zCoinContractAddress.call{\r\n            value: msg.value,\r\n            gas: 1000000\r\n        }(\"\");\r\n        require(success, \"ETH transfer failed\");\r\n        zCoinContract.transferZCoin(\r\n            zCoinContractAddress,\r\n            msg.sender,\r\n            tokensToBuy\r\n        );\r\n        emit ZCoinSold(msg.sender, tokensToBuy);\r\n    }\r\n    function mintNFTWithEth(\r\n        string memory _tokenURI,\r\n        string memory _name,\r\n        string memory _description,\r\n        uint256 _cost,\r\n        bool _isForSale\r\n    ) public payable {\r\n        require(msg.value >= nftMintCostInWei, \"You need ether to mint NFT\");\r\n        NFTData memory newNFT;\r\n        newNFT.id = tokenCounter;\r\n        tokenCounter += 1;\r\n        newNFT.name = _name;\r\n        newNFT.description = _description;\r\n        newNFT.uri = _tokenURI;\r\n        newNFT.cost = _cost;\r\n        newNFT.isForSale = _isForSale;\r\n        newNFT.owner = msg.sender;\r\n        allNFTs[newNFT.id] = newNFT;\r\n        nftContract.mintNFT(newNFT.id, newNFT.uri, msg.sender);\r\n        emit NFTMinted(\r\n            newNFT.id,\r\n            newNFT.name,\r\n            newNFT.description,\r\n            newNFT.uri,\r\n            newNFT.cost,\r\n            newNFT.isForSale,\r\n            newNFT.owner\r\n        );\r\n        (bool success, ) = nftContractAddress.call{value: nftMintCostInWei, gas: 1000000}(\"\");\r\n        require(success, \"ETH transfer failed\");\r\n    }\r\n\r\n    function mintNFTWithZToken(\r\n        string memory _tokenURI,\r\n        string memory _name,\r\n        string memory _description,\r\n        uint256 _cost,\r\n        bool _isForSale\r\n    ) public {\r\n        require(\r\n            zCoinContract.getBalance(msg.sender) >= nftMintCostInZTK,\r\n            \"You need ZToken to mint NFT\"\r\n        );\r\n        NFTData memory newNFT;\r\n        newNFT.id = tokenCounter;\r\n        newNFT.name = _name;\r\n        newNFT.description = _description;\r\n        newNFT.uri = _tokenURI;\r\n        newNFT.cost = _cost;\r\n        newNFT.isForSale = _isForSale;\r\n        newNFT.owner = msg.sender;\r\n        allNFTs[tokenCounter] = newNFT;\r\n        tokenCounter += 1;\r\n        allNFTs[newNFT.id] = newNFT;\r\n        nftContract.mintNFT(newNFT.id, newNFT.uri, msg.sender);\r\n        emit NFTMinted(\r\n            newNFT.id,\r\n            newNFT.name,\r\n            newNFT.description,\r\n            newNFT.uri,\r\n            newNFT.cost,\r\n            newNFT.isForSale,\r\n            newNFT.owner\r\n        );        \r\n        zCoinContract.transferZCoin(msg.sender, nftContractAddress, nftMintCostInZTK);\r\n    }\r\n    function transferNFT(uint256 _tokenId) public {\r\n        NFTData storage nft = allNFTs[_tokenId];\r\n        require(nft.isForSale, \"NFT is not for sale\");\r\n        require(msg.sender != nft.owner, \"You are the owner of this NFT\");\r\n        require(zCoinContract.getBalance(msg.sender)>nft.cost , \"You don't have enought coins tobuy this nft\");\r\n        address previousOwner = nft.owner;\r\n        nft.owner = msg.sender;\r\n        nftContract.transferNFT(_tokenId,msg.sender,previousOwner);\r\n        zCoinContract.transferZCoin(msg.sender,previousOwner,nft.cost);\r\n        emit NFTSold(_tokenId, previousOwner, msg.sender, nft.cost);\r\n    }\r\n    function setNFTName(uint256 _id, string memory _name) public {\r\n        require(allNFTs[_id].owner == msg.sender , \"only the owner can modify a nft property\");\r\n        allNFTs[_id].name = _name;\r\n    }\r\n\r\n    function setNFTDescription(uint256 _id, string memory _description) public {\r\n        require(allNFTs[_id].owner == msg.sender , \"only the owner can modify a nft property\");\r\n        allNFTs[_id].description = _description;\r\n    }\r\n\r\n    function setNFTIsForSale(uint256 _id, bool _isForSale) public {\r\n        require(allNFTs[_id].owner == msg.sender , \"only the owner can modify a nft property\");\r\n        allNFTs[_id].isForSale = _isForSale;\r\n    }\r\n    function setNFTIsCost(uint256 _id, uint256 _cost) public {\r\n        require(allNFTs[_id].owner == msg.sender , \"only the owner can modify a nft property\");\r\n        allNFTs[_id].cost = _cost;\r\n    }\r\n}\r\n",
  "sourcePath": "C:\\Users\\semah\\OneDrive\\Bureau\\amine\\ppp\\z-wallet1\\z-wallet\\contracts\\ZWallet.sol",
  "compiler": {
    "name": "solc",
    "version": "0.8.19+commit.7dd6d404.Emscripten.clang"
  },
  "schemaVersion": "3.4.13",
  "updatedAt": "2023-05-29T14:27:56.295Z",
  "networkType": "ethereum",
  "devdoc": {
    "kind": "dev",
    "methods": {},
    "version": 1
  },
  "userdoc": {
    "kind": "user",
    "methods": {},
    "version": 1
  }
}