{
  "contractName": "MyNFT",
  "abi": [
    {
      "inputs": [
        {
          "internalType": "address",
          "name": "_token",
          "type": "address"
        }
      ],
      "stateMutability": "nonpayable",
      "type": "constructor"
    },
    {
      "anonymous": false,
      "inputs": [
        {
          "indexed": true,
          "internalType": "address",
          "name": "owner",
          "type": "address"
        },
        {
          "indexed": true,
          "internalType": "address",
          "name": "approved",
          "type": "address"
        },
        {
          "indexed": true,
          "internalType": "uint256",
          "name": "tokenId",
          "type": "uint256"
        }
      ],
      "name": "Approval",
      "type": "event"
    },
    {
      "anonymous": false,
      "inputs": [
        {
          "indexed": true,
          "internalType": "address",
          "name": "owner",
          "type": "address"
        },
        {
          "indexed": true,
          "internalType": "address",
          "name": "operator",
          "type": "address"
        },
        {
          "indexed": false,
          "internalType": "bool",
          "name": "approved",
          "type": "bool"
        }
      ],
      "name": "ApprovalForAll",
      "type": "event"
    },
    {
      "anonymous": false,
      "inputs": [
        {
          "indexed": false,
          "internalType": "uint256",
          "name": "id",
          "type": "uint256"
        },
        {
          "indexed": false,
          "internalType": "string",
          "name": "name",
          "type": "string"
        },
        {
          "indexed": false,
          "internalType": "string",
          "name": "description",
          "type": "string"
        },
        {
          "indexed": false,
          "internalType": "string",
          "name": "uri",
          "type": "string"
        },
        {
          "indexed": false,
          "internalType": "uint256",
          "name": "cost",
          "type": "uint256"
        },
        {
          "indexed": false,
          "internalType": "bool",
          "name": "isForSale",
          "type": "bool"
        },
        {
          "indexed": false,
          "internalType": "address",
          "name": "owner",
          "type": "address"
        }
      ],
      "name": "NFTMinted",
      "type": "event"
    },
    {
      "anonymous": false,
      "inputs": [
        {
          "indexed": false,
          "internalType": "uint256",
          "name": "id",
          "type": "uint256"
        },
        {
          "indexed": false,
          "internalType": "address",
          "name": "buyer",
          "type": "address"
        },
        {
          "indexed": false,
          "internalType": "address",
          "name": "seller",
          "type": "address"
        },
        {
          "indexed": false,
          "internalType": "uint256",
          "name": "price",
          "type": "uint256"
        }
      ],
      "name": "NFTSold",
      "type": "event"
    },
    {
      "anonymous": false,
      "inputs": [
        {
          "indexed": true,
          "internalType": "address",
          "name": "from",
          "type": "address"
        },
        {
          "indexed": true,
          "internalType": "address",
          "name": "to",
          "type": "address"
        },
        {
          "indexed": true,
          "internalType": "uint256",
          "name": "tokenId",
          "type": "uint256"
        }
      ],
      "name": "Transfer",
      "type": "event"
    },
    {
      "inputs": [
        {
          "internalType": "uint256",
          "name": "",
          "type": "uint256"
        }
      ],
      "name": "allNFTs",
      "outputs": [
        {
          "internalType": "uint256",
          "name": "id",
          "type": "uint256"
        },
        {
          "internalType": "string",
          "name": "name",
          "type": "string"
        },
        {
          "internalType": "string",
          "name": "description",
          "type": "string"
        },
        {
          "internalType": "string",
          "name": "uri",
          "type": "string"
        },
        {
          "internalType": "uint256",
          "name": "cost",
          "type": "uint256"
        },
        {
          "internalType": "bool",
          "name": "isForSale",
          "type": "bool"
        },
        {
          "internalType": "address",
          "name": "owner",
          "type": "address"
        }
      ],
      "stateMutability": "view",
      "type": "function"
    },
    {
      "inputs": [
        {
          "internalType": "address",
          "name": "to",
          "type": "address"
        },
        {
          "internalType": "uint256",
          "name": "tokenId",
          "type": "uint256"
        }
      ],
      "name": "approve",
      "outputs": [],
      "stateMutability": "nonpayable",
      "type": "function"
    },
    {
      "inputs": [
        {
          "internalType": "address",
          "name": "owner",
          "type": "address"
        }
      ],
      "name": "balanceOf",
      "outputs": [
        {
          "internalType": "uint256",
          "name": "",
          "type": "uint256"
        }
      ],
      "stateMutability": "view",
      "type": "function"
    },
    {
      "inputs": [
        {
          "internalType": "uint256",
          "name": "tokenId",
          "type": "uint256"
        }
      ],
      "name": "getApproved",
      "outputs": [
        {
          "internalType": "address",
          "name": "",
          "type": "address"
        }
      ],
      "stateMutability": "view",
      "type": "function"
    },
    {
      "inputs": [
        {
          "internalType": "address",
          "name": "owner",
          "type": "address"
        },
        {
          "internalType": "address",
          "name": "operator",
          "type": "address"
        }
      ],
      "name": "isApprovedForAll",
      "outputs": [
        {
          "internalType": "bool",
          "name": "",
          "type": "bool"
        }
      ],
      "stateMutability": "view",
      "type": "function"
    },
    {
      "inputs": [],
      "name": "name",
      "outputs": [
        {
          "internalType": "string",
          "name": "",
          "type": "string"
        }
      ],
      "stateMutability": "view",
      "type": "function"
    },
    {
      "inputs": [
        {
          "internalType": "uint256",
          "name": "tokenId",
          "type": "uint256"
        }
      ],
      "name": "ownerOf",
      "outputs": [
        {
          "internalType": "address",
          "name": "",
          "type": "address"
        }
      ],
      "stateMutability": "view",
      "type": "function"
    },
    {
      "inputs": [],
      "name": "price_in_wei",
      "outputs": [
        {
          "internalType": "uint256",
          "name": "",
          "type": "uint256"
        }
      ],
      "stateMutability": "view",
      "type": "function"
    },
    {
      "inputs": [],
      "name": "price_ini_ztk",
      "outputs": [
        {
          "internalType": "uint256",
          "name": "",
          "type": "uint256"
        }
      ],
      "stateMutability": "view",
      "type": "function"
    },
    {
      "inputs": [
        {
          "internalType": "address",
          "name": "from",
          "type": "address"
        },
        {
          "internalType": "address",
          "name": "to",
          "type": "address"
        },
        {
          "internalType": "uint256",
          "name": "tokenId",
          "type": "uint256"
        }
      ],
      "name": "safeTransferFrom",
      "outputs": [],
      "stateMutability": "nonpayable",
      "type": "function"
    },
    {
      "inputs": [
        {
          "internalType": "address",
          "name": "from",
          "type": "address"
        },
        {
          "internalType": "address",
          "name": "to",
          "type": "address"
        },
        {
          "internalType": "uint256",
          "name": "tokenId",
          "type": "uint256"
        },
        {
          "internalType": "bytes",
          "name": "data",
          "type": "bytes"
        }
      ],
      "name": "safeTransferFrom",
      "outputs": [],
      "stateMutability": "nonpayable",
      "type": "function"
    },
    {
      "inputs": [
        {
          "internalType": "address",
          "name": "operator",
          "type": "address"
        },
        {
          "internalType": "bool",
          "name": "approved",
          "type": "bool"
        }
      ],
      "name": "setApprovalForAll",
      "outputs": [],
      "stateMutability": "nonpayable",
      "type": "function"
    },
    {
      "inputs": [
        {
          "internalType": "bytes4",
          "name": "interfaceId",
          "type": "bytes4"
        }
      ],
      "name": "supportsInterface",
      "outputs": [
        {
          "internalType": "bool",
          "name": "",
          "type": "bool"
        }
      ],
      "stateMutability": "view",
      "type": "function"
    },
    {
      "inputs": [],
      "name": "symbol",
      "outputs": [
        {
          "internalType": "string",
          "name": "",
          "type": "string"
        }
      ],
      "stateMutability": "view",
      "type": "function"
    },
    {
      "inputs": [],
      "name": "tokenCounter",
      "outputs": [
        {
          "internalType": "uint256",
          "name": "",
          "type": "uint256"
        }
      ],
      "stateMutability": "view",
      "type": "function"
    },
    {
      "inputs": [
        {
          "internalType": "uint256",
          "name": "tokenId",
          "type": "uint256"
        }
      ],
      "name": "tokenURI",
      "outputs": [
        {
          "internalType": "string",
          "name": "",
          "type": "string"
        }
      ],
      "stateMutability": "view",
      "type": "function"
    },
    {
      "inputs": [
        {
          "internalType": "address",
          "name": "from",
          "type": "address"
        },
        {
          "internalType": "address",
          "name": "to",
          "type": "address"
        },
        {
          "internalType": "uint256",
          "name": "tokenId",
          "type": "uint256"
        }
      ],
      "name": "transferFrom",
      "outputs": [],
      "stateMutability": "nonpayable",
      "type": "function"
    },
    {
      "inputs": [
        {
          "internalType": "string",
          "name": "_tokenURI",
          "type": "string"
        },
        {
          "internalType": "string",
          "name": "_name",
          "type": "string"
        },
        {
          "internalType": "string",
          "name": "_description",
          "type": "string"
        },
        {
          "internalType": "uint256",
          "name": "_cost",
          "type": "uint256"
        },
        {
          "internalType": "bool",
          "name": "_isForSale",
          "type": "bool"
        }
      ],
      "name": "createCollectible",
      "outputs": [
        {
          "internalType": "uint256",
          "name": "",
          "type": "uint256"
        }
      ],
      "stateMutability": "payable",
      "type": "function"
    },
    {
      "inputs": [
        {
          "internalType": "string",
          "name": "_tokenURI",
          "type": "string"
        },
        {
          "internalType": "string",
          "name": "_name",
          "type": "string"
        },
        {
          "internalType": "string",
          "name": "_description",
          "type": "string"
        },
        {
          "internalType": "uint256",
          "name": "_cost",
          "type": "uint256"
        },
        {
          "internalType": "bool",
          "name": "_isForSale",
          "type": "bool"
        }
      ],
      "name": "mintWithToken",
      "outputs": [
        {
          "internalType": "uint256",
          "name": "",
          "type": "uint256"
        }
      ],
      "stateMutability": "nonpayable",
      "type": "function"
    },
    {
      "inputs": [
        {
          "internalType": "uint256",
          "name": "_tokenId",
          "type": "uint256"
        }
      ],
      "name": "buyNFT",
      "outputs": [],
      "stateMutability": "nonpayable",
      "type": "function"
    },
    {
      "inputs": [
        {
          "internalType": "uint256",
          "name": "_id",
          "type": "uint256"
        },
        {
          "internalType": "string",
          "name": "_name",
          "type": "string"
        }
      ],
      "name": "setNFTName",
      "outputs": [],
      "stateMutability": "nonpayable",
      "type": "function"
    },
    {
      "inputs": [
        {
          "internalType": "uint256",
          "name": "_id",
          "type": "uint256"
        },
        {
          "internalType": "string",
          "name": "_description",
          "type": "string"
        }
      ],
      "name": "setNFTDescription",
      "outputs": [],
      "stateMutability": "nonpayable",
      "type": "function"
    },
    {
      "inputs": [
        {
          "internalType": "uint256",
          "name": "_id",
          "type": "uint256"
        },
        {
          "internalType": "bool",
          "name": "_isForSale",
          "type": "bool"
        }
      ],
      "name": "setNFTIsForSale",
      "outputs": [],
      "stateMutability": "nonpayable",
      "type": "function"
    }
  ],
  "bytecode": "0x6080604052662386f26fc10000600955670de0b6b3a7640000600a553480156200002857600080fd5b506040516200430e3803806200430e83398181016040528101906200004e91906200019a565b6040518060400160405280600d81526020017f546865417765736f6d654e4654000000000000000000000000000000000000008152506040518060400160405280600581526020017f54414e46540000000000000000000000000000000000000000000000000000008152508160009081620000cb919062000446565b508060019081620000dd919062000446565b505050600060088190555080600760006101000a81548173ffffffffffffffffffffffffffffffffffffffff021916908373ffffffffffffffffffffffffffffffffffffffff160217905550506200052d565b600080fd5b600073ffffffffffffffffffffffffffffffffffffffff82169050919050565b6000620001628262000135565b9050919050565b620001748162000155565b81146200018057600080fd5b50565b600081519050620001948162000169565b92915050565b600060208284031215620001b357620001b262000130565b5b6000620001c38482850162000183565b91505092915050565b600081519050919050565b7f4e487b7100000000000000000000000000000000000000000000000000000000600052604160045260246000fd5b7f4e487b7100000000000000000000000000000000000000000000000000000000600052602260045260246000fd5b600060028204905060018216806200024e57607f821691505b60208210810362000264576200026362000206565b5b50919050565b60008190508160005260206000209050919050565b60006020601f8301049050919050565b600082821b905092915050565b600060088302620002ce7fffffffffffffffffffffffffffffffffffffffffffffffffffffffffffffffff826200028f565b620002da86836200028f565b95508019841693508086168417925050509392505050565b6000819050919050565b6000819050919050565b600062000327620003216200031b84620002f2565b620002fc565b620002f2565b9050919050565b6000819050919050565b620003438362000306565b6200035b62000352826200032e565b8484546200029c565b825550505050565b600090565b6200037262000363565b6200037f81848462000338565b505050565b5b81811015620003a7576200039b60008262000368565b60018101905062000385565b5050565b601f821115620003f657620003c0816200026a565b620003cb846200027f565b81016020851015620003db578190505b620003f3620003ea856200027f565b83018262000384565b50505b505050565b600082821c905092915050565b60006200041b60001984600802620003fb565b1980831691505092915050565b600062000436838362000408565b9150826002028217905092915050565b6200045182620001cc565b67ffffffffffffffff8111156200046d576200046c620001d7565b5b62000479825462000235565b62000486828285620003ab565b600060209050601f831160018114620004be5760008415620004a9578287015190505b620004b5858262000428565b86555062000525565b601f198416620004ce866200026a565b60005b82811015620004f857848901518255600182019150602085019450602081019050620004d1565b8683101562000518578489015162000514601f89168262000408565b8355505b6001600288020188555050505b505050505050565b613dd1806200053d6000396000f3fe6080604052600436106101405760003560e01c806370a08231116100b6578063bf162d671161006f578063bf162d671461046f578063c74a690c146104b2578063c87b56dd146104dd578063d082e3811461051a578063df6e991114610545578063e985e9c51461056e57610140565b806370a082311461036357806376f548ac146103a057806395d89b41146103c957806397a1ce33146103f4578063a22cb4651461041d578063b88d4fde1461044657610140565b8063095ea7b311610108578063095ea7b31461025257806323b872dd1461027b578063256ef919146102a457806342842e0e146102d457806351ed8288146102fd5780636352211e1461032657610140565b806301ffc9a714610145578063048c09c01461018257806306fdde03146101bf57806307815638146101ea578063081812fc14610215575b600080fd5b34801561015157600080fd5b5061016c600480360381019061016791906127ae565b6105ab565b60405161017991906127f6565b60405180910390f35b34801561018e57600080fd5b506101a960048036038101906101a491906129b9565b61068d565b6040516101b69190612a97565b60405180910390f35b3480156101cb57600080fd5b506101d4610a01565b6040516101e19190612b31565b60405180910390f35b3480156101f657600080fd5b506101ff610a93565b60405161020c9190612a97565b60405180910390f35b34801561022157600080fd5b5061023c60048036038101906102379190612b53565b610a99565b6040516102499190612bc1565b60405180910390f35b34801561025e57600080fd5b5061027960048036038101906102749190612c08565b610adf565b005b34801561028757600080fd5b506102a2600480360381019061029d9190612c48565b610bf6565b005b6102be60048036038101906102b991906129b9565b610c56565b6040516102cb9190612a97565b60405180910390f35b3480156102e057600080fd5b506102fb60048036038101906102f69190612c48565b610ee2565b005b34801561030957600080fd5b50610324600480360381019061031f9190612b53565b610f02565b005b34801561033257600080fd5b5061034d60048036038101906103489190612b53565b611241565b60405161035a9190612bc1565b60405180910390f35b34801561036f57600080fd5b5061038a60048036038101906103859190612c9b565b6112c7565b6040516103979190612a97565b60405180910390f35b3480156103ac57600080fd5b506103c760048036038101906103c29190612cc8565b61137e565b005b3480156103d557600080fd5b506103de6113b0565b6040516103eb9190612b31565b60405180910390f35b34801561040057600080fd5b5061041b60048036038101906104169190612d08565b611442565b005b34801561042957600080fd5b50610444600480360381019061043f9190612d64565b61146a565b005b34801561045257600080fd5b5061046d60048036038101906104689190612e45565b611480565b005b34801561047b57600080fd5b5061049660048036038101906104919190612b53565b6114e2565b6040516104a99796959493929190612ec8565b60405180910390f35b3480156104be57600080fd5b506104c76116e9565b6040516104d49190612a97565b60405180910390f35b3480156104e957600080fd5b5061050460048036038101906104ff9190612b53565b6116ef565b6040516105119190612b31565b60405180910390f35b34801561052657600080fd5b5061052f611801565b60405161053c9190612a97565b60405180910390f35b34801561055157600080fd5b5061056c60048036038101906105679190612d08565b611807565b005b34801561057a57600080fd5b5061059560048036038101906105909190612f4c565b61182f565b6040516105a291906127f6565b60405180910390f35b60007f80ac58cd000000000000000000000000000000000000000000000000000000007bffffffffffffffffffffffffffffffffffffffffffffffffffffffff1916827bffffffffffffffffffffffffffffffffffffffffffffffffffffffff1916148061067657507f5b5e139f000000000000000000000000000000000000000000000000000000007bffffffffffffffffffffffffffffffffffffffffffffffffffffffff1916827bffffffffffffffffffffffffffffffffffffffffffffffffffffffff1916145b806106865750610685826118c3565b5b9050919050565b6000600a54600760009054906101000a900473ffffffffffffffffffffffffffffffffffffffff1673ffffffffffffffffffffffffffffffffffffffff166370a08231336040518263ffffffff1660e01b81526004016106ed9190612bc1565b602060405180830381865afa15801561070a573d6000803e3d6000fd5b505050506040513d601f19601f8201168201806040525081019061072e9190612fa1565b101561076f576040517f08c379a00000000000000000000000000000000000000000000000000000000081526004016107669061301a565b60405180910390fd5b6107776126ed565b6008548160000181815250508581602001819052508481604001819052506001600860008282546107a89190613069565b9250508190555086816060018190525083816080018181525050828160a0019015159081151581525050338160c0019073ffffffffffffffffffffffffffffffffffffffff16908173ffffffffffffffffffffffffffffffffffffffff168152505080600b60008360000151815260200190815260200160002060008201518160000155602082015181600101908161084191906132a9565b50604082015181600201908161085791906132a9565b50606082015181600301908161086d91906132a9565b506080820151816004015560a08201518160050160006101000a81548160ff02191690831515021790555060c08201518160050160016101000a81548173ffffffffffffffffffffffffffffffffffffffff021916908373ffffffffffffffffffffffffffffffffffffffff1602179055509050506108f033826000015161192d565b6108fe816000015188611b4a565b600760009054906101000a900473ffffffffffffffffffffffffffffffffffffffff1673ffffffffffffffffffffffffffffffffffffffff16634db8a60b3330600a546040518463ffffffff1660e01b815260040161095f9392919061337b565b600060405180830381600087803b15801561097957600080fd5b505af115801561098d573d6000803e3d6000fd5b505050507f156e8777c61016226bf9880fe734c6079cbe46f8ba6bbd64da92ed4fa3a6b3e9816000015182602001518360400151846060015185608001518660a001518760c001516040516109e89796959493929190612ec8565b60405180910390a1806000015191505095945050505050565b606060008054610a10906130cc565b80601f0160208091040260200160405190810160405280929190818152602001828054610a3c906130cc565b8015610a895780601f10610a5e57610100808354040283529160200191610a89565b820191906000526020600020905b815481529060010190602001808311610a6c57829003601f168201915b5050505050905090565b600a5481565b6000610aa482611bb7565b6004600083815260200190815260200160002060009054906101000a900473ffffffffffffffffffffffffffffffffffffffff169050919050565b6000610aea82611241565b90508073ffffffffffffffffffffffffffffffffffffffff168373ffffffffffffffffffffffffffffffffffffffff1603610b5a576040517f08c379a0000000000000000000000000000000000000000000000000000000008152600401610b5190613424565b60405180910390fd5b8073ffffffffffffffffffffffffffffffffffffffff16610b79611c02565b73ffffffffffffffffffffffffffffffffffffffff161480610ba85750610ba781610ba2611c02565b61182f565b5b610be7576040517f08c379a0000000000000000000000000000000000000000000000000000000008152600401610bde906134b6565b60405180910390fd5b610bf18383611c0a565b505050565b610c07610c01611c02565b82611cc3565b610c46576040517f08c379a0000000000000000000000000000000000000000000000000000000008152600401610c3d90613548565b60405180910390fd5b610c51838383611d58565b505050565b60006009543414610c9c576040517f08c379a0000000000000000000000000000000000000000000000000000000008152600401610c93906135b4565b60405180910390fd5b610ca46126ed565b600854816000018181525050600160086000828254610cc39190613069565b9250508190555085816020018190525084816040018190525086816060018190525083816080018181525050828160a0019015159081151581525050338160c0019073ffffffffffffffffffffffffffffffffffffffff16908173ffffffffffffffffffffffffffffffffffffffff168152505080600b600083600001518152602001908152602001600020600082015181600001556020820151816001019081610d6e91906132a9565b506040820151816002019081610d8491906132a9565b506060820151816003019081610d9a91906132a9565b506080820151816004015560a08201518160050160006101000a81548160ff02191690831515021790555060c08201518160050160016101000a81548173ffffffffffffffffffffffffffffffffffffffff021916908373ffffffffffffffffffffffffffffffffffffffff160217905550905050610e1d33826000015161192d565b610e2b816000015188611b4a565b3073ffffffffffffffffffffffffffffffffffffffff166108fc349081150290604051600060405180830381858888f19350505050158015610e71573d6000803e3d6000fd5b507f156e8777c61016226bf9880fe734c6079cbe46f8ba6bbd64da92ed4fa3a6b3e9816000015182602001518360400151846060015185608001518660a001518760c00151604051610ec99796959493929190612ec8565b60405180910390a1806000015191505095945050505050565b610efd83838360405180602001604052806000815250611480565b505050565b6000600b600083815260200190815260200160002090508060050160009054906101000a900460ff16610f6a576040517f08c379a0000000000000000000000000000000000000000000000000000000008152600401610f6190613620565b60405180910390fd5b8060040154600760009054906101000a900473ffffffffffffffffffffffffffffffffffffffff1673ffffffffffffffffffffffffffffffffffffffff166370a08231336040518263ffffffff1660e01b8152600401610fca9190612bc1565b602060405180830381865afa158015610fe7573d6000803e3d6000fd5b505050506040513d601f19601f8201168201806040525081019061100b9190612fa1565b1461104b576040517f08c379a00000000000000000000000000000000000000000000000000000000081526004016110429061368c565b60405180910390fd5b8060050160019054906101000a900473ffffffffffffffffffffffffffffffffffffffff1673ffffffffffffffffffffffffffffffffffffffff163373ffffffffffffffffffffffffffffffffffffffff16036110dd576040517f08c379a00000000000000000000000000000000000000000000000000000000081526004016110d4906136f8565b60405180910390fd5b60008160050160019054906101000a900473ffffffffffffffffffffffffffffffffffffffff169050338260050160016101000a81548173ffffffffffffffffffffffffffffffffffffffff021916908373ffffffffffffffffffffffffffffffffffffffff160217905550611154813385611d58565b600760009054906101000a900473ffffffffffffffffffffffffffffffffffffffff1673ffffffffffffffffffffffffffffffffffffffff166323b872dd338385600401546040518463ffffffff1660e01b81526004016111b79392919061337b565b6020604051808303816000875af11580156111d6573d6000803e3d6000fd5b505050506040513d601f19601f820116820180604052508101906111fa919061372d565b507f8562eb94748e30bb0071e932744ce902b460c683474fcb3bfd567ffa16b1afb28382338560040154604051611234949392919061375a565b60405180910390a1505050565b60008061124d83612051565b9050600073ffffffffffffffffffffffffffffffffffffffff168173ffffffffffffffffffffffffffffffffffffffff16036112be576040517f08c379a00000000000000000000000000000000000000000000000000000000081526004016112b5906137eb565b60405180910390fd5b80915050919050565b60008073ffffffffffffffffffffffffffffffffffffffff168273ffffffffffffffffffffffffffffffffffffffff1603611337576040517f08c379a000000000000000000000000000000000000000000000000000000000815260040161132e9061387d565b60405180910390fd5b600360008373ffffffffffffffffffffffffffffffffffffffff1673ffffffffffffffffffffffffffffffffffffffff168152602001908152602001600020549050919050565b80600b600084815260200190815260200160002060050160006101000a81548160ff0219169083151502179055505050565b6060600180546113bf906130cc565b80601f01602080910402602001604051908101604052809291908181526020018280546113eb906130cc565b80156114385780601f1061140d57610100808354040283529160200191611438565b820191906000526020600020905b81548152906001019060200180831161141b57829003601f168201915b5050505050905090565b80600b6000848152602001908152602001600020600201908161146591906132a9565b505050565b61147c611475611c02565b838361208e565b5050565b61149161148b611c02565b83611cc3565b6114d0576040517f08c379a00000000000000000000000000000000000000000000000000000000081526004016114c790613548565b60405180910390fd5b6114dc848484846121fa565b50505050565b600b60205280600052604060002060009150905080600001549080600101805461150b906130cc565b80601f0160208091040260200160405190810160405280929190818152602001828054611537906130cc565b80156115845780601f1061155957610100808354040283529160200191611584565b820191906000526020600020905b81548152906001019060200180831161156757829003601f168201915b505050505090806002018054611599906130cc565b80601f01602080910402602001604051908101604052809291908181526020018280546115c5906130cc565b80156116125780601f106115e757610100808354040283529160200191611612565b820191906000526020600020905b8154815290600101906020018083116115f557829003601f168201915b505050505090806003018054611627906130cc565b80601f0160208091040260200160405190810160405280929190818152602001828054611653906130cc565b80156116a05780601f10611675576101008083540402835291602001916116a0565b820191906000526020600020905b81548152906001019060200180831161168357829003601f168201915b5050505050908060040154908060050160009054906101000a900460ff16908060050160019054906101000a900473ffffffffffffffffffffffffffffffffffffffff16905087565b60095481565b60606116fa82611bb7565b600060066000848152602001908152602001600020805461171a906130cc565b80601f0160208091040260200160405190810160405280929190818152602001828054611746906130cc565b80156117935780601f1061176857610100808354040283529160200191611793565b820191906000526020600020905b81548152906001019060200180831161177657829003601f168201915b5050505050905060006117a4612256565b905060008151036117b95781925050506117fc565b6000825111156117ee5780826040516020016117d69291906138d9565b604051602081830303815290604052925050506117fc565b6117f78461226d565b925050505b919050565b60085481565b80600b6000848152602001908152602001600020600101908161182a91906132a9565b505050565b6000600560008473ffffffffffffffffffffffffffffffffffffffff1673ffffffffffffffffffffffffffffffffffffffff16815260200190815260200160002060008373ffffffffffffffffffffffffffffffffffffffff1673ffffffffffffffffffffffffffffffffffffffff16815260200190815260200160002060009054906101000a900460ff16905092915050565b60007f01ffc9a7000000000000000000000000000000000000000000000000000000007bffffffffffffffffffffffffffffffffffffffffffffffffffffffff1916827bffffffffffffffffffffffffffffffffffffffffffffffffffffffff1916149050919050565b600073ffffffffffffffffffffffffffffffffffffffff168273ffffffffffffffffffffffffffffffffffffffff160361199c576040517f08c379a000000000000000000000000000000000000000000000000000000000815260040161199390613949565b60405180910390fd5b6119a5816122d5565b156119e5576040517f08c379a00000000000000000000000000000000000000000000000000000000081526004016119dc906139b5565b60405180910390fd5b6119f3600083836001612316565b6119fc816122d5565b15611a3c576040517f08c379a0000000000000000000000000000000000000000000000000000000008152600401611a33906139b5565b60405180910390fd5b6001600360008473ffffffffffffffffffffffffffffffffffffffff1673ffffffffffffffffffffffffffffffffffffffff16815260200190815260200160002060008282540192505081905550816002600083815260200190815260200160002060006101000a81548173ffffffffffffffffffffffffffffffffffffffff021916908373ffffffffffffffffffffffffffffffffffffffff160217905550808273ffffffffffffffffffffffffffffffffffffffff16600073ffffffffffffffffffffffffffffffffffffffff167fddf252ad1be2c89b69c2b068fc378daa952ba7f163c4a11628f55a4df523b3ef60405160405180910390a4611b4660008383600161231c565b5050565b611b53826122d5565b611b92576040517f08c379a0000000000000000000000000000000000000000000000000000000008152600401611b8990613a47565b60405180910390fd5b80600660008481526020019081526020016000209081611bb291906132a9565b505050565b611bc0816122d5565b611bff576040517f08c379a0000000000000000000000000000000000000000000000000000000008152600401611bf6906137eb565b60405180910390fd5b50565b600033905090565b816004600083815260200190815260200160002060006101000a81548173ffffffffffffffffffffffffffffffffffffffff021916908373ffffffffffffffffffffffffffffffffffffffff160217905550808273ffffffffffffffffffffffffffffffffffffffff16611c7d83611241565b73ffffffffffffffffffffffffffffffffffffffff167f8c5be1e5ebec7d5bd14f71427d1e84f3dd0314c0f7b2291e5b200ac8c7c3b92560405160405180910390a45050565b600080611ccf83611241565b90508073ffffffffffffffffffffffffffffffffffffffff168473ffffffffffffffffffffffffffffffffffffffff161480611d115750611d10818561182f565b5b80611d4f57508373ffffffffffffffffffffffffffffffffffffffff16611d3784610a99565b73ffffffffffffffffffffffffffffffffffffffff16145b91505092915050565b8273ffffffffffffffffffffffffffffffffffffffff16611d7882611241565b73ffffffffffffffffffffffffffffffffffffffff1614611dce576040517f08c379a0000000000000000000000000000000000000000000000000000000008152600401611dc590613ad9565b60405180910390fd5b600073ffffffffffffffffffffffffffffffffffffffff168273ffffffffffffffffffffffffffffffffffffffff1603611e3d576040517f08c379a0000000000000000000000000000000000000000000000000000000008152600401611e3490613b6b565b60405180910390fd5b611e4a8383836001612316565b8273ffffffffffffffffffffffffffffffffffffffff16611e6a82611241565b73ffffffffffffffffffffffffffffffffffffffff1614611ec0576040517f08c379a0000000000000000000000000000000000000000000000000000000008152600401611eb790613ad9565b60405180910390fd5b6004600082815260200190815260200160002060006101000a81549073ffffffffffffffffffffffffffffffffffffffff02191690556001600360008573ffffffffffffffffffffffffffffffffffffffff1673ffffffffffffffffffffffffffffffffffffffff168152602001908152602001600020600082825403925050819055506001600360008473ffffffffffffffffffffffffffffffffffffffff1673ffffffffffffffffffffffffffffffffffffffff16815260200190815260200160002060008282540192505081905550816002600083815260200190815260200160002060006101000a81548173ffffffffffffffffffffffffffffffffffffffff021916908373ffffffffffffffffffffffffffffffffffffffff160217905550808273ffffffffffffffffffffffffffffffffffffffff168473ffffffffffffffffffffffffffffffffffffffff167fddf252ad1be2c89b69c2b068fc378daa952ba7f163c4a11628f55a4df523b3ef60405160405180910390a461204c838383600161231c565b505050565b60006002600083815260200190815260200160002060009054906101000a900473ffffffffffffffffffffffffffffffffffffffff169050919050565b8173ffffffffffffffffffffffffffffffffffffffff168373ffffffffffffffffffffffffffffffffffffffff16036120fc576040517f08c379a00000000000000000000000000000000000000000000000000000000081526004016120f390613bd7565b60405180910390fd5b80600560008573ffffffffffffffffffffffffffffffffffffffff1673ffffffffffffffffffffffffffffffffffffffff16815260200190815260200160002060008473ffffffffffffffffffffffffffffffffffffffff1673ffffffffffffffffffffffffffffffffffffffff16815260200190815260200160002060006101000a81548160ff0219169083151502179055508173ffffffffffffffffffffffffffffffffffffffff168373ffffffffffffffffffffffffffffffffffffffff167f17307eab39ab6107e8899845ad3d59bd9653f200f220920489ca2b5937696c31836040516121ed91906127f6565b60405180910390a3505050565b612205848484611d58565b61221184848484612322565b612250576040517f08c379a000000000000000000000000000000000000000000000000000000000815260040161224790613c69565b60405180910390fd5b50505050565b606060405180602001604052806000815250905090565b606061227882611bb7565b6000612282612256565b905060008151116122a257604051806020016040528060008152506122cd565b806122ac846124a9565b6040516020016122bd9291906138d9565b6040516020818303038152906040525b915050919050565b60008073ffffffffffffffffffffffffffffffffffffffff166122f783612051565b73ffffffffffffffffffffffffffffffffffffffff1614159050919050565b50505050565b50505050565b60006123438473ffffffffffffffffffffffffffffffffffffffff16612577565b1561249c578373ffffffffffffffffffffffffffffffffffffffff1663150b7a0261236c611c02565b8786866040518563ffffffff1660e01b815260040161238e9493929190613cde565b6020604051808303816000875af19250505080156123ca57506040513d601f19601f820116820180604052508101906123c79190613d3f565b60015b61244c573d80600081146123fa576040519150601f19603f3d011682016040523d82523d6000602084013e6123ff565b606091505b506000815103612444576040517f08c379a000000000000000000000000000000000000000000000000000000000815260040161243b90613c69565b60405180910390fd5b805181602001fd5b63150b7a0260e01b7bffffffffffffffffffffffffffffffffffffffffffffffffffffffff1916817bffffffffffffffffffffffffffffffffffffffffffffffffffffffff1916149150506124a1565b600190505b949350505050565b6060600060016124b88461259a565b01905060008167ffffffffffffffff8111156124d7576124d661282c565b5b6040519080825280601f01601f1916602001820160405280156125095781602001600182028036833780820191505090505b509050600082602001820190505b60011561256c578080600190039150507f3031323334353637383961626364656600000000000000000000000000000000600a86061a8153600a85816125605761255f613d6c565b5b04945060008503612517575b819350505050919050565b6000808273ffffffffffffffffffffffffffffffffffffffff163b119050919050565b600080600090507a184f03e93ff9f4daa797ed6e38ed64bf6a1f01000000000000000083106125f8577a184f03e93ff9f4daa797ed6e38ed64bf6a1f01000000000000000083816125ee576125ed613d6c565b5b0492506040810190505b6d04ee2d6d415b85acef81000000008310612635576d04ee2d6d415b85acef8100000000838161262b5761262a613d6c565b5b0492506020810190505b662386f26fc10000831061266457662386f26fc10000838161265a57612659613d6c565b5b0492506010810190505b6305f5e100831061268d576305f5e100838161268357612682613d6c565b5b0492506008810190505b61271083106126b25761271083816126a8576126a7613d6c565b5b0492506004810190505b606483106126d557606483816126cb576126ca613d6c565b5b0492506002810190505b600a83106126e4576001810190505b80915050919050565b6040518060e001604052806000815260200160608152602001606081526020016060815260200160008152602001600015158152602001600073ffffffffffffffffffffffffffffffffffffffff1681525090565b6000604051905090565b600080fd5b600080fd5b60007fffffffff0000000000000000000000000000000000000000000000000000000082169050919050565b61278b81612756565b811461279657600080fd5b50565b6000813590506127a881612782565b92915050565b6000602082840312156127c4576127c361274c565b5b60006127d284828501612799565b91505092915050565b60008115159050919050565b6127f0816127db565b82525050565b600060208201905061280b60008301846127e7565b92915050565b600080fd5b600080fd5b6000601f19601f8301169050919050565b7f4e487b7100000000000000000000000000000000000000000000000000000000600052604160045260246000fd5b6128648261281b565b810181811067ffffffffffffffff821117156128835761288261282c565b5b80604052505050565b6000612896612742565b90506128a2828261285b565b919050565b600067ffffffffffffffff8211156128c2576128c161282c565b5b6128cb8261281b565b9050602081019050919050565b82818337600083830152505050565b60006128fa6128f5846128a7565b61288c565b90508281526020810184848401111561291657612915612816565b5b6129218482856128d8565b509392505050565b600082601f83011261293e5761293d612811565b5b813561294e8482602086016128e7565b91505092915050565b6000819050919050565b61296a81612957565b811461297557600080fd5b50565b60008135905061298781612961565b92915050565b612996816127db565b81146129a157600080fd5b50565b6000813590506129b38161298d565b92915050565b600080600080600060a086880312156129d5576129d461274c565b5b600086013567ffffffffffffffff8111156129f3576129f2612751565b5b6129ff88828901612929565b955050602086013567ffffffffffffffff811115612a2057612a1f612751565b5b612a2c88828901612929565b945050604086013567ffffffffffffffff811115612a4d57612a4c612751565b5b612a5988828901612929565b9350506060612a6a88828901612978565b9250506080612a7b888289016129a4565b9150509295509295909350565b612a9181612957565b82525050565b6000602082019050612aac6000830184612a88565b92915050565b600081519050919050565b600082825260208201905092915050565b60005b83811015612aec578082015181840152602081019050612ad1565b60008484015250505050565b6000612b0382612ab2565b612b0d8185612abd565b9350612b1d818560208601612ace565b612b268161281b565b840191505092915050565b60006020820190508181036000830152612b4b8184612af8565b905092915050565b600060208284031215612b6957612b6861274c565b5b6000612b7784828501612978565b91505092915050565b600073ffffffffffffffffffffffffffffffffffffffff82169050919050565b6000612bab82612b80565b9050919050565b612bbb81612ba0565b82525050565b6000602082019050612bd66000830184612bb2565b92915050565b612be581612ba0565b8114612bf057600080fd5b50565b600081359050612c0281612bdc565b92915050565b60008060408385031215612c1f57612c1e61274c565b5b6000612c2d85828601612bf3565b9250506020612c3e85828601612978565b9150509250929050565b600080600060608486031215612c6157612c6061274c565b5b6000612c6f86828701612bf3565b9350506020612c8086828701612bf3565b9250506040612c9186828701612978565b9150509250925092565b600060208284031215612cb157612cb061274c565b5b6000612cbf84828501612bf3565b91505092915050565b60008060408385031215612cdf57612cde61274c565b5b6000612ced85828601612978565b9250506020612cfe858286016129a4565b9150509250929050565b60008060408385031215612d1f57612d1e61274c565b5b6000612d2d85828601612978565b925050602083013567ffffffffffffffff811115612d4e57612d4d612751565b5b612d5a85828601612929565b9150509250929050565b60008060408385031215612d7b57612d7a61274c565b5b6000612d8985828601612bf3565b9250506020612d9a858286016129a4565b9150509250929050565b600067ffffffffffffffff821115612dbf57612dbe61282c565b5b612dc88261281b565b9050602081019050919050565b6000612de8612de384612da4565b61288c565b905082815260208101848484011115612e0457612e03612816565b5b612e0f8482856128d8565b509392505050565b600082601f830112612e2c57612e2b612811565b5b8135612e3c848260208601612dd5565b91505092915050565b60008060008060808587031215612e5f57612e5e61274c565b5b6000612e6d87828801612bf3565b9450506020612e7e87828801612bf3565b9350506040612e8f87828801612978565b925050606085013567ffffffffffffffff811115612eb057612eaf612751565b5b612ebc87828801612e17565b91505092959194509250565b600060e082019050612edd600083018a612a88565b8181036020830152612eef8189612af8565b90508181036040830152612f038188612af8565b90508181036060830152612f178187612af8565b9050612f266080830186612a88565b612f3360a08301856127e7565b612f4060c0830184612bb2565b98975050505050505050565b60008060408385031215612f6357612f6261274c565b5b6000612f7185828601612bf3565b9250506020612f8285828601612bf3565b9150509250929050565b600081519050612f9b81612961565b92915050565b600060208284031215612fb757612fb661274c565b5b6000612fc584828501612f8c565b91505092915050565b7f596f75206e656564205a546f6b656e20746f206d696e74204e46540000000000600082015250565b6000613004601b83612abd565b915061300f82612fce565b602082019050919050565b6000602082019050818103600083015261303381612ff7565b9050919050565b7f4e487b7100000000000000000000000000000000000000000000000000000000600052601160045260246000fd5b600061307482612957565b915061307f83612957565b92508282019050808211156130975761309661303a565b5b92915050565b7f4e487b7100000000000000000000000000000000000000000000000000000000600052602260045260246000fd5b600060028204905060018216806130e457607f821691505b6020821081036130f7576130f661309d565b5b50919050565b60008190508160005260206000209050919050565b60006020601f8301049050919050565b600082821b905092915050565b60006008830261315f7fffffffffffffffffffffffffffffffffffffffffffffffffffffffffffffffff82613122565b6131698683613122565b95508019841693508086168417925050509392505050565b6000819050919050565b60006131a66131a161319c84612957565b613181565b612957565b9050919050565b6000819050919050565b6131c08361318b565b6131d46131cc826131ad565b84845461312f565b825550505050565b600090565b6131e96131dc565b6131f48184846131b7565b505050565b5b818110156132185761320d6000826131e1565b6001810190506131fa565b5050565b601f82111561325d5761322e816130fd565b61323784613112565b81016020851015613246578190505b61325a61325285613112565b8301826131f9565b50505b505050565b600082821c905092915050565b600061328060001984600802613262565b1980831691505092915050565b6000613299838361326f565b9150826002028217905092915050565b6132b282612ab2565b67ffffffffffffffff8111156132cb576132ca61282c565b5b6132d582546130cc565b6132e082828561321c565b600060209050601f8311600181146133135760008415613301578287015190505b61330b858261328d565b865550613373565b601f198416613321866130fd565b60005b8281101561334957848901518255600182019150602085019450602081019050613324565b868310156133665784890151613362601f89168261326f565b8355505b6001600288020188555050505b505050505050565b60006060820190506133906000830186612bb2565b61339d6020830185612bb2565b6133aa6040830184612a88565b949350505050565b7f4552433732313a20617070726f76616c20746f2063757272656e74206f776e6560008201527f7200000000000000000000000000000000000000000000000000000000000000602082015250565b600061340e602183612abd565b9150613419826133b2565b604082019050919050565b6000602082019050818103600083015261343d81613401565b9050919050565b7f4552433732313a20617070726f76652063616c6c6572206973206e6f7420746f60008201527f6b656e206f776e6572206f7220617070726f76656420666f7220616c6c000000602082015250565b60006134a0603d83612abd565b91506134ab82613444565b604082019050919050565b600060208201905081810360008301526134cf81613493565b9050919050565b7f4552433732313a2063616c6c6572206973206e6f7420746f6b656e206f776e6560008201527f72206f7220617070726f76656400000000000000000000000000000000000000602082015250565b6000613532602d83612abd565b915061353d826134d6565b604082019050919050565b6000602082019050818103600083015261356181613525565b9050919050565b7f596f75206e65656420657468657220746f206d696e74204e4654000000000000600082015250565b600061359e601a83612abd565b91506135a982613568565b602082019050919050565b600060208201905081810360008301526135cd81613591565b9050919050565b7f4e4654206973206e6f7420666f722073616c6500000000000000000000000000600082015250565b600061360a601383612abd565b9150613615826135d4565b602082019050919050565b60006020820190508181036000830152613639816135fd565b9050919050565b7f696e73756666696369656e742062616c616e6365000000000000000000000000600082015250565b6000613676601483612abd565b915061368182613640565b602082019050919050565b600060208201905081810360008301526136a581613669565b9050919050565b7f596f752061726520746865206f776e6572206f662074686973204e4654000000600082015250565b60006136e2601d83612abd565b91506136ed826136ac565b602082019050919050565b60006020820190508181036000830152613711816136d5565b9050919050565b6000815190506137278161298d565b92915050565b6000602082840312156137435761374261274c565b5b600061375184828501613718565b91505092915050565b600060808201905061376f6000830187612a88565b61377c6020830186612bb2565b6137896040830185612bb2565b6137966060830184612a88565b95945050505050565b7f4552433732313a20696e76616c696420746f6b656e2049440000000000000000600082015250565b60006137d5601883612abd565b91506137e08261379f565b602082019050919050565b60006020820190508181036000830152613804816137c8565b9050919050565b7f4552433732313a2061646472657373207a65726f206973206e6f74206120766160008201527f6c6964206f776e65720000000000000000000000000000000000000000000000602082015250565b6000613867602983612abd565b91506138728261380b565b604082019050919050565b600060208201905081810360008301526138968161385a565b9050919050565b600081905092915050565b60006138b382612ab2565b6138bd818561389d565b93506138cd818560208601612ace565b80840191505092915050565b60006138e582856138a8565b91506138f182846138a8565b91508190509392505050565b7f4552433732313a206d696e7420746f20746865207a65726f2061646472657373600082015250565b6000613933602083612abd565b915061393e826138fd565b602082019050919050565b6000602082019050818103600083015261396281613926565b9050919050565b7f4552433732313a20746f6b656e20616c7265616479206d696e74656400000000600082015250565b600061399f601c83612abd565b91506139aa82613969565b602082019050919050565b600060208201905081810360008301526139ce81613992565b9050919050565b7f45524337323155524953746f726167653a2055524920736574206f66206e6f6e60008201527f6578697374656e7420746f6b656e000000000000000000000000000000000000602082015250565b6000613a31602e83612abd565b9150613a3c826139d5565b604082019050919050565b60006020820190508181036000830152613a6081613a24565b9050919050565b7f4552433732313a207472616e736665722066726f6d20696e636f72726563742060008201527f6f776e6572000000000000000000000000000000000000000000000000000000602082015250565b6000613ac3602583612abd565b9150613ace82613a67565b604082019050919050565b60006020820190508181036000830152613af281613ab6565b9050919050565b7f4552433732313a207472616e7366657220746f20746865207a65726f2061646460008201527f7265737300000000000000000000000000000000000000000000000000000000602082015250565b6000613b55602483612abd565b9150613b6082613af9565b604082019050919050565b60006020820190508181036000830152613b8481613b48565b9050919050565b7f4552433732313a20617070726f766520746f2063616c6c657200000000000000600082015250565b6000613bc1601983612abd565b9150613bcc82613b8b565b602082019050919050565b60006020820190508181036000830152613bf081613bb4565b9050919050565b7f4552433732313a207472616e7366657220746f206e6f6e20455243373231526560008201527f63656976657220696d706c656d656e7465720000000000000000000000000000602082015250565b6000613c53603283612abd565b9150613c5e82613bf7565b604082019050919050565b60006020820190508181036000830152613c8281613c46565b9050919050565b600081519050919050565b600082825260208201905092915050565b6000613cb082613c89565b613cba8185613c94565b9350613cca818560208601612ace565b613cd38161281b565b840191505092915050565b6000608082019050613cf36000830187612bb2565b613d006020830186612bb2565b613d0d6040830185612a88565b8181036060830152613d1f8184613ca5565b905095945050505050565b600081519050613d3981612782565b92915050565b600060208284031215613d5557613d5461274c565b5b6000613d6384828501613d2a565b91505092915050565b7f4e487b7100000000000000000000000000000000000000000000000000000000600052601260045260246000fdfea2646970667358221220b483498d96a7a1b9c1a1df1f2d6190e627cee47d4db1d14fdb71a4741709a34164736f6c63430008130033",
  "immutableReferences": {},
  "source": "// SPDX-License-Identifier: MIT\r\n//TODO: ad setters for nft attributes and add events\r\npragma solidity ^0.8.0;\r\n\r\nimport \"@openzeppelin/contracts/token/ERC721/ERC721.sol\";\r\nimport \"@openzeppelin/contracts/token/ERC721/extensions/ERC721URIStorage.sol\";\r\nimport \"./ZCoin.sol\";\r\ncontract MyNFT is ERC721URIStorage {\r\n    ZCoin private token;\r\n    uint256 public tokenCounter;\r\n    uint256 public price_in_wei = 10 ** 16;\r\n    uint256 public price_ini_ztk = 10 ** 18;\r\n\r\n    struct NFTData {\r\n        uint256 id;\r\n        string name;\r\n        string description;\r\n        string uri;\r\n        uint256 cost;\r\n        bool isForSale;\r\n        address owner;\r\n    }\r\n    event NFTMinted(uint256 id,string name,string description,string uri,uint256 cost,bool isForSale,address owner);\r\n    event NFTSold(uint256 id,address buyer,address seller,uint256 price);\r\n    mapping(uint256 => NFTData) public allNFTs;\r\n\r\n    constructor(address _token) ERC721(\"TheAwesomeNFT\", \"TANFT\") {\r\n        tokenCounter = 0;\r\n        token = ZCoin(_token);\r\n    }\r\n    //function _burn(uint256 tokenId) internal override(ERC721URIStorage) {\r\n    //    super._burn(tokenId);\r\n    //    if (bytes(allNFTs[tokenId].uri).length != 0) {\r\n    //        delete allNFTs[tokenId].uri;\r\n    //    }\r\n    //}\r\n    function createCollectible(string memory _tokenURI,string memory _name,string memory _description,uint256 _cost,bool _isForSale) public payable returns (uint256) {\r\n        require(msg.value == price_in_wei, \"You need ether to mint NFT\");\r\n        NFTData memory newNFT;\r\n        newNFT.id = tokenCounter;\r\n        tokenCounter += 1;\r\n        newNFT.name = _name;\r\n        newNFT.description = _description;\r\n        newNFT.uri = _tokenURI;\r\n        newNFT.cost = _cost;\r\n        newNFT.isForSale = _isForSale;\r\n        newNFT.owner = msg.sender;\r\n        allNFTs[newNFT.id] = newNFT;\r\n        _mint(msg.sender, newNFT.id);\r\n        _setTokenURI(newNFT.id, _tokenURI);\r\n        payable(address(this)).transfer(msg.value);\r\n        emit NFTMinted(newNFT.id, newNFT.name, newNFT.description, newNFT.uri, newNFT.cost, newNFT.isForSale, newNFT.owner);\r\n        return newNFT.id;\r\n    }\r\n\r\n    function mintWithToken(string memory _tokenURI,string memory _name,string memory _description,uint256 _cost,bool _isForSale) public returns (uint256) {\r\n        require(token.balanceOf(msg.sender) >= price_ini_ztk, \"You need ZToken to mint NFT\");\r\n        NFTData memory newNFT;\r\n        newNFT.id = tokenCounter;\r\n        newNFT.name = _name;\r\n        newNFT.description = _description;\r\n        tokenCounter += 1;\r\n        newNFT.uri = _tokenURI;\r\n        newNFT.cost = _cost;\r\n        newNFT.isForSale = _isForSale;\r\n        newNFT.owner = msg.sender;\r\n\r\n        allNFTs[newNFT.id] = newNFT;\r\n        _mint(msg.sender, newNFT.id);\r\n        _setTokenURI(newNFT.id, _tokenURI);\r\n        token.transferCoin(msg.sender, address(this), price_ini_ztk);\r\n        emit NFTMinted(newNFT.id,newNFT.name,newNFT.description, newNFT.uri, newNFT.cost, newNFT.isForSale, newNFT.owner);\r\n        return newNFT.id;\r\n    }\r\n    function buyNFT(uint256 _tokenId) public {\r\n        NFTData storage nft = allNFTs[_tokenId];\r\n        require(nft.isForSale, \"NFT is not for sale\");\r\n        require(token.balanceOf(msg.sender) == nft.cost, \"insufficient balance\");\r\n        require(msg.sender != nft.owner, \"You are the owner of this NFT\");\r\n        address previousOwner = nft.owner;\r\n        nft.owner = msg.sender;\r\n        _transfer(previousOwner, msg.sender, _tokenId);\r\n        token.transferFrom(msg.sender, previousOwner, nft.cost);\r\n        emit NFTSold(_tokenId, previousOwner, msg.sender, nft.cost);\r\n    }\r\n    function setNFTName(uint256 _id,string memory _name) public {\r\n        allNFTs[_id].name = _name;\r\n    }\r\n    function setNFTDescription(uint256 _id,string memory _description) public {\r\n        allNFTs[_id].description = _description;\r\n    }\r\n    function setNFTIsForSale(uint256 _id,bool _isForSale) public {\r\n        allNFTs[_id].isForSale = _isForSale;\r\n    }\r\n}",
  "sourcePath": "C:\\Users\\yousf\\Bureau\\ppp_project\\z-wallet\\contracts\\MyNFT.sol",
  "compiler": {
    "name": "solc",
    "version": "0.8.19+commit.7dd6d404.Emscripten.clang"
  },
  "schemaVersion": "3.4.13",
  "updatedAt": "2023-05-10T20:16:09.623Z",
  "devdoc": {
    "events": {
      "Approval(address,address,uint256)": {
        "details": "Emitted when `owner` enables `approved` to manage the `tokenId` token."
      },
      "ApprovalForAll(address,address,bool)": {
        "details": "Emitted when `owner` enables or disables (`approved`) `operator` to manage all of its assets."
      },
      "Transfer(address,address,uint256)": {
        "details": "Emitted when `tokenId` token is transferred from `from` to `to`."
      }
    },
    "kind": "dev",
    "methods": {
      "approve(address,uint256)": {
        "details": "See {IERC721-approve}."
      },
      "balanceOf(address)": {
        "details": "See {IERC721-balanceOf}."
      },
      "getApproved(uint256)": {
        "details": "See {IERC721-getApproved}."
      },
      "isApprovedForAll(address,address)": {
        "details": "See {IERC721-isApprovedForAll}."
      },
      "name()": {
        "details": "See {IERC721Metadata-name}."
      },
      "ownerOf(uint256)": {
        "details": "See {IERC721-ownerOf}."
      },
      "safeTransferFrom(address,address,uint256)": {
        "details": "See {IERC721-safeTransferFrom}."
      },
      "safeTransferFrom(address,address,uint256,bytes)": {
        "details": "See {IERC721-safeTransferFrom}."
      },
      "setApprovalForAll(address,bool)": {
        "details": "See {IERC721-setApprovalForAll}."
      },
      "supportsInterface(bytes4)": {
        "details": "See {IERC165-supportsInterface}."
      },
      "symbol()": {
        "details": "See {IERC721Metadata-symbol}."
      },
      "tokenURI(uint256)": {
        "details": "See {IERC721Metadata-tokenURI}."
      },
      "transferFrom(address,address,uint256)": {
        "details": "See {IERC721-transferFrom}."
      }
    },
    "version": 1
  },
  "userdoc": {
    "kind": "user",
    "methods": {},
    "version": 1
  }
}