{
  "contractName": "MyNFT",
  "abi": [
    {
      "inputs": [
        {
          "internalType": "address",
          "name": "_token",
          "type": "address"
        }
      ],
      "stateMutability": "nonpayable",
      "type": "constructor"
    },
    {
      "anonymous": false,
      "inputs": [
        {
          "indexed": true,
          "internalType": "address",
          "name": "owner",
          "type": "address"
        },
        {
          "indexed": true,
          "internalType": "address",
          "name": "approved",
          "type": "address"
        },
        {
          "indexed": true,
          "internalType": "uint256",
          "name": "tokenId",
          "type": "uint256"
        }
      ],
      "name": "Approval",
      "type": "event"
    },
    {
      "anonymous": false,
      "inputs": [
        {
          "indexed": true,
          "internalType": "address",
          "name": "owner",
          "type": "address"
        },
        {
          "indexed": true,
          "internalType": "address",
          "name": "operator",
          "type": "address"
        },
        {
          "indexed": false,
          "internalType": "bool",
          "name": "approved",
          "type": "bool"
        }
      ],
      "name": "ApprovalForAll",
      "type": "event"
    },
    {
      "anonymous": false,
      "inputs": [
        {
          "indexed": false,
          "internalType": "uint256",
          "name": "id",
          "type": "uint256"
        },
        {
          "indexed": false,
          "internalType": "string",
          "name": "uri",
          "type": "string"
        },
        {
          "indexed": false,
          "internalType": "uint256",
          "name": "cost",
          "type": "uint256"
        },
        {
          "indexed": false,
          "internalType": "bool",
          "name": "isForSale",
          "type": "bool"
        },
        {
          "indexed": false,
          "internalType": "address",
          "name": "owner",
          "type": "address"
        }
      ],
      "name": "NFTMinted",
      "type": "event"
    },
    {
      "anonymous": false,
      "inputs": [
        {
          "indexed": false,
          "internalType": "uint256",
          "name": "id",
          "type": "uint256"
        },
        {
          "indexed": false,
          "internalType": "address",
          "name": "buyer",
          "type": "address"
        },
        {
          "indexed": false,
          "internalType": "address",
          "name": "seller",
          "type": "address"
        },
        {
          "indexed": false,
          "internalType": "uint256",
          "name": "price",
          "type": "uint256"
        }
      ],
      "name": "NFTSold",
      "type": "event"
    },
    {
      "anonymous": false,
      "inputs": [
        {
          "indexed": true,
          "internalType": "address",
          "name": "from",
          "type": "address"
        },
        {
          "indexed": true,
          "internalType": "address",
          "name": "to",
          "type": "address"
        },
        {
          "indexed": true,
          "internalType": "uint256",
          "name": "tokenId",
          "type": "uint256"
        }
      ],
      "name": "Transfer",
      "type": "event"
    },
    {
      "inputs": [
        {
          "internalType": "uint256",
          "name": "",
          "type": "uint256"
        }
      ],
      "name": "allNFTs",
      "outputs": [
        {
          "internalType": "uint256",
          "name": "id",
          "type": "uint256"
        },
        {
          "internalType": "string",
          "name": "uri",
          "type": "string"
        },
        {
          "internalType": "uint256",
          "name": "cost",
          "type": "uint256"
        },
        {
          "internalType": "bool",
          "name": "isForSale",
          "type": "bool"
        },
        {
          "internalType": "address",
          "name": "owner",
          "type": "address"
        }
      ],
      "stateMutability": "view",
      "type": "function",
      "constant": true
    },
    {
      "inputs": [
        {
          "internalType": "address",
          "name": "to",
          "type": "address"
        },
        {
          "internalType": "uint256",
          "name": "tokenId",
          "type": "uint256"
        }
      ],
      "name": "approve",
      "outputs": [],
      "stateMutability": "nonpayable",
      "type": "function"
    },
    {
      "inputs": [
        {
          "internalType": "address",
          "name": "owner",
          "type": "address"
        }
      ],
      "name": "balanceOf",
      "outputs": [
        {
          "internalType": "uint256",
          "name": "",
          "type": "uint256"
        }
      ],
      "stateMutability": "view",
      "type": "function",
      "constant": true
    },
    {
      "inputs": [
        {
          "internalType": "uint256",
          "name": "tokenId",
          "type": "uint256"
        }
      ],
      "name": "getApproved",
      "outputs": [
        {
          "internalType": "address",
          "name": "",
          "type": "address"
        }
      ],
      "stateMutability": "view",
      "type": "function",
      "constant": true
    },
    {
      "inputs": [
        {
          "internalType": "address",
          "name": "owner",
          "type": "address"
        },
        {
          "internalType": "address",
          "name": "operator",
          "type": "address"
        }
      ],
      "name": "isApprovedForAll",
      "outputs": [
        {
          "internalType": "bool",
          "name": "",
          "type": "bool"
        }
      ],
      "stateMutability": "view",
      "type": "function",
      "constant": true
    },
    {
      "inputs": [],
      "name": "name",
      "outputs": [
        {
          "internalType": "string",
          "name": "",
          "type": "string"
        }
      ],
      "stateMutability": "view",
      "type": "function",
      "constant": true
    },
    {
      "inputs": [
        {
          "internalType": "uint256",
          "name": "tokenId",
          "type": "uint256"
        }
      ],
      "name": "ownerOf",
      "outputs": [
        {
          "internalType": "address",
          "name": "",
          "type": "address"
        }
      ],
      "stateMutability": "view",
      "type": "function",
      "constant": true
    },
    {
      "inputs": [],
      "name": "price_in_wei",
      "outputs": [
        {
          "internalType": "uint256",
          "name": "",
          "type": "uint256"
        }
      ],
      "stateMutability": "view",
      "type": "function",
      "constant": true
    },
    {
      "inputs": [],
      "name": "price_ini_ztk",
      "outputs": [
        {
          "internalType": "uint256",
          "name": "",
          "type": "uint256"
        }
      ],
      "stateMutability": "view",
      "type": "function",
      "constant": true
    },
    {
      "inputs": [
        {
          "internalType": "address",
          "name": "from",
          "type": "address"
        },
        {
          "internalType": "address",
          "name": "to",
          "type": "address"
        },
        {
          "internalType": "uint256",
          "name": "tokenId",
          "type": "uint256"
        }
      ],
      "name": "safeTransferFrom",
      "outputs": [],
      "stateMutability": "nonpayable",
      "type": "function"
    },
    {
      "inputs": [
        {
          "internalType": "address",
          "name": "from",
          "type": "address"
        },
        {
          "internalType": "address",
          "name": "to",
          "type": "address"
        },
        {
          "internalType": "uint256",
          "name": "tokenId",
          "type": "uint256"
        },
        {
          "internalType": "bytes",
          "name": "data",
          "type": "bytes"
        }
      ],
      "name": "safeTransferFrom",
      "outputs": [],
      "stateMutability": "nonpayable",
      "type": "function"
    },
    {
      "inputs": [
        {
          "internalType": "address",
          "name": "operator",
          "type": "address"
        },
        {
          "internalType": "bool",
          "name": "approved",
          "type": "bool"
        }
      ],
      "name": "setApprovalForAll",
      "outputs": [],
      "stateMutability": "nonpayable",
      "type": "function"
    },
    {
      "inputs": [
        {
          "internalType": "bytes4",
          "name": "interfaceId",
          "type": "bytes4"
        }
      ],
      "name": "supportsInterface",
      "outputs": [
        {
          "internalType": "bool",
          "name": "",
          "type": "bool"
        }
      ],
      "stateMutability": "view",
      "type": "function",
      "constant": true
    },
    {
      "inputs": [],
      "name": "symbol",
      "outputs": [
        {
          "internalType": "string",
          "name": "",
          "type": "string"
        }
      ],
      "stateMutability": "view",
      "type": "function",
      "constant": true
    },
    {
      "inputs": [],
      "name": "tokenCounter",
      "outputs": [
        {
          "internalType": "uint256",
          "name": "",
          "type": "uint256"
        }
      ],
      "stateMutability": "view",
      "type": "function",
      "constant": true
    },
    {
      "inputs": [
        {
          "internalType": "uint256",
          "name": "tokenId",
          "type": "uint256"
        }
      ],
      "name": "tokenURI",
      "outputs": [
        {
          "internalType": "string",
          "name": "",
          "type": "string"
        }
      ],
      "stateMutability": "view",
      "type": "function",
      "constant": true
    },
    {
      "inputs": [
        {
          "internalType": "address",
          "name": "from",
          "type": "address"
        },
        {
          "internalType": "address",
          "name": "to",
          "type": "address"
        },
        {
          "internalType": "uint256",
          "name": "tokenId",
          "type": "uint256"
        }
      ],
      "name": "transferFrom",
      "outputs": [],
      "stateMutability": "nonpayable",
      "type": "function"
    },
    {
      "inputs": [
        {
          "internalType": "string",
          "name": "_tokenURI",
          "type": "string"
        },
        {
          "internalType": "uint256",
          "name": "_cost",
          "type": "uint256"
        },
        {
          "internalType": "bool",
          "name": "_isForSale",
          "type": "bool"
        }
      ],
      "name": "createCollectible",
      "outputs": [
        {
          "internalType": "uint256",
          "name": "",
          "type": "uint256"
        }
      ],
      "stateMutability": "payable",
      "type": "function",
      "payable": true
    },
    {
      "inputs": [
        {
          "internalType": "string",
          "name": "_tokenURI",
          "type": "string"
        },
        {
          "internalType": "uint256",
          "name": "_cost",
          "type": "uint256"
        },
        {
          "internalType": "bool",
          "name": "_isForSale",
          "type": "bool"
        }
      ],
      "name": "mintWithToken",
      "outputs": [
        {
          "internalType": "uint256",
          "name": "",
          "type": "uint256"
        }
      ],
      "stateMutability": "nonpayable",
      "type": "function"
    },
    {
      "inputs": [
        {
          "internalType": "uint256",
          "name": "_tokenId",
          "type": "uint256"
        }
      ],
      "name": "buyNFT",
      "outputs": [],
      "stateMutability": "nonpayable",
      "type": "function"
    }
  ],
  "bytecode": "0x6080604052662386f26fc10000600955670de0b6b3a7640000600a553480156200002857600080fd5b5060405162003f1838038062003f1883398181016040528101906200004e91906200019a565b6040518060400160405280600d81526020017f546865417765736f6d654e4654000000000000000000000000000000000000008152506040518060400160405280600581526020017f54414e46540000000000000000000000000000000000000000000000000000008152508160009081620000cb919062000446565b508060019081620000dd919062000446565b505050600060088190555080600760006101000a81548173ffffffffffffffffffffffffffffffffffffffff021916908373ffffffffffffffffffffffffffffffffffffffff160217905550506200052d565b600080fd5b600073ffffffffffffffffffffffffffffffffffffffff82169050919050565b6000620001628262000135565b9050919050565b620001748162000155565b81146200018057600080fd5b50565b600081519050620001948162000169565b92915050565b600060208284031215620001b357620001b262000130565b5b6000620001c38482850162000183565b91505092915050565b600081519050919050565b7f4e487b7100000000000000000000000000000000000000000000000000000000600052604160045260246000fd5b7f4e487b7100000000000000000000000000000000000000000000000000000000600052602260045260246000fd5b600060028204905060018216806200024e57607f821691505b60208210810362000264576200026362000206565b5b50919050565b60008190508160005260206000209050919050565b60006020601f8301049050919050565b600082821b905092915050565b600060088302620002ce7fffffffffffffffffffffffffffffffffffffffffffffffffffffffffffffffff826200028f565b620002da86836200028f565b95508019841693508086168417925050509392505050565b6000819050919050565b6000819050919050565b600062000327620003216200031b84620002f2565b620002fc565b620002f2565b9050919050565b6000819050919050565b620003438362000306565b6200035b62000352826200032e565b8484546200029c565b825550505050565b600090565b6200037262000363565b6200037f81848462000338565b505050565b5b81811015620003a7576200039b60008262000368565b60018101905062000385565b5050565b601f821115620003f657620003c0816200026a565b620003cb846200027f565b81016020851015620003db578190505b620003f3620003ea856200027f565b83018262000384565b50505b505050565b600082821c905092915050565b60006200041b60001984600802620003fb565b1980831691505092915050565b600062000436838362000408565b9150826002028217905092915050565b6200045182620001cc565b67ffffffffffffffff8111156200046d576200046c620001d7565b5b62000479825462000235565b62000486828285620003ab565b600060209050601f831160018114620004be5760008415620004a9578287015190505b620004b5858262000428565b86555062000525565b601f198416620004ce866200026a565b60005b82811015620004f857848901518255600182019150602085019450602081019050620004d1565b8683101562000518578489015162000514601f89168262000408565b8355505b6001600288020188555050505b505050505050565b6139db806200053d6000396000f3fe60806040526004361061011f5760003560e01c806370a08231116100a0578063bf162d6711610064578063bf162d67146103fc578063c74a690c1461043d578063c87b56dd14610468578063d082e381146104a5578063e985e9c5146104d05761011f565b806370a082311461031257806395d89b411461034f5780639e46234e1461037a578063a22cb465146103aa578063b88d4fde146103d35761011f565b806323b872dd116100e757806323b872dd1461021d57806337868c511461024657806342842e0e1461028357806351ed8288146102ac5780636352211e146102d55761011f565b806301ffc9a71461012457806306fdde0314610161578063078156381461018c578063081812fc146101b7578063095ea7b3146101f4575b600080fd5b34801561013057600080fd5b5061014b600480360381019061014691906124de565b61050d565b6040516101589190612526565b60405180910390f35b34801561016d57600080fd5b506101766105ef565b60405161018391906125d1565b60405180910390f35b34801561019857600080fd5b506101a1610681565b6040516101ae919061260c565b60405180910390f35b3480156101c357600080fd5b506101de60048036038101906101d99190612653565b610687565b6040516101eb91906126c1565b60405180910390f35b34801561020057600080fd5b5061021b60048036038101906102169190612708565b6106cd565b005b34801561022957600080fd5b50610244600480360381019061023f9190612748565b6107e4565b005b34801561025257600080fd5b5061026d600480360381019061026891906128fc565b610844565b60405161027a919061260c565b60405180910390f35b34801561028f57600080fd5b506102aa60048036038101906102a59190612748565b610b7e565b005b3480156102b857600080fd5b506102d360048036038101906102ce9190612653565b610b9e565b005b3480156102e157600080fd5b506102fc60048036038101906102f79190612653565b610edd565b60405161030991906126c1565b60405180910390f35b34801561031e57600080fd5b506103396004803603810190610334919061296b565b610f63565b604051610346919061260c565b60405180910390f35b34801561035b57600080fd5b5061036461101a565b60405161037191906125d1565b60405180910390f35b610394600480360381019061038f91906128fc565b6110ac565b6040516103a1919061260c565b60405180910390f35b3480156103b657600080fd5b506103d160048036038101906103cc9190612998565b6112ec565b005b3480156103df57600080fd5b506103fa60048036038101906103f59190612a79565b611302565b005b34801561040857600080fd5b50610423600480360381019061041e9190612653565b611364565b604051610434959493929190612afc565b60405180910390f35b34801561044957600080fd5b5061045261144f565b60405161045f919061260c565b60405180910390f35b34801561047457600080fd5b5061048f600480360381019061048a9190612653565b611455565b60405161049c91906125d1565b60405180910390f35b3480156104b157600080fd5b506104ba611567565b6040516104c7919061260c565b60405180910390f35b3480156104dc57600080fd5b506104f760048036038101906104f29190612b56565b61156d565b6040516105049190612526565b60405180910390f35b60007f80ac58cd000000000000000000000000000000000000000000000000000000007bffffffffffffffffffffffffffffffffffffffffffffffffffffffff1916827bffffffffffffffffffffffffffffffffffffffffffffffffffffffff191614806105d857507f5b5e139f000000000000000000000000000000000000000000000000000000007bffffffffffffffffffffffffffffffffffffffffffffffffffffffff1916827bffffffffffffffffffffffffffffffffffffffffffffffffffffffff1916145b806105e857506105e782611601565b5b9050919050565b6060600080546105fe90612bc5565b80601f016020809104026020016040519081016040528092919081815260200182805461062a90612bc5565b80156106775780601f1061064c57610100808354040283529160200191610677565b820191906000526020600020905b81548152906001019060200180831161065a57829003601f168201915b5050505050905090565b600a5481565b60006106928261166b565b6004600083815260200190815260200160002060009054906101000a900473ffffffffffffffffffffffffffffffffffffffff169050919050565b60006106d882610edd565b90508073ffffffffffffffffffffffffffffffffffffffff168373ffffffffffffffffffffffffffffffffffffffff1603610748576040517f08c379a000000000000000000000000000000000000000000000000000000000815260040161073f90612c68565b60405180910390fd5b8073ffffffffffffffffffffffffffffffffffffffff166107676116b6565b73ffffffffffffffffffffffffffffffffffffffff1614806107965750610795816107906116b6565b61156d565b5b6107d5576040517f08c379a00000000000000000000000000000000000000000000000000000000081526004016107cc90612cfa565b60405180910390fd5b6107df83836116be565b505050565b6107f56107ef6116b6565b82611777565b610834576040517f08c379a000000000000000000000000000000000000000000000000000000000815260040161082b90612d8c565b60405180910390fd5b61083f83838361180c565b505050565b6000600a54600760009054906101000a900473ffffffffffffffffffffffffffffffffffffffff1673ffffffffffffffffffffffffffffffffffffffff166370a08231336040518263ffffffff1660e01b81526004016108a491906126c1565b602060405180830381865afa1580156108c1573d6000803e3d6000fd5b505050506040513d601f19601f820116820180604052508101906108e59190612dc1565b1015610926576040517f08c379a000000000000000000000000000000000000000000000000000000000815260040161091d90612e3a565b60405180910390fd5b61092e61242b565b60085481600001818152505060016008600082825461094d9190612e89565b92505081905550848160200181905250838160400181815250508281606001901515908115158152505033816080019073ffffffffffffffffffffffffffffffffffffffff16908173ffffffffffffffffffffffffffffffffffffffff168152505080600b6000836000015181526020019081526020016000206000820151816000015560208201518160010190816109e69190613069565b506040820151816002015560608201518160030160006101000a81548160ff02191690831515021790555060808201518160030160016101000a81548173ffffffffffffffffffffffffffffffffffffffff021916908373ffffffffffffffffffffffffffffffffffffffff160217905550905050610a69338260000151611b05565b610a77816000015186611d22565b600760009054906101000a900473ffffffffffffffffffffffffffffffffffffffff1673ffffffffffffffffffffffffffffffffffffffff166323b872dd3330600a546040518463ffffffff1660e01b8152600401610ad89392919061313b565b6020604051808303816000875af1158015610af7573d6000803e3d6000fd5b505050506040513d601f19601f82011682018060405250810190610b1b9190613187565b507f555c047f66d52a2c7fa2835038f6beb74305ea84f3250da850c7320132534fb181600001518260200151836040015184606001518560800151604051610b67959493929190612afc565b60405180910390a180600001519150509392505050565b610b9983838360405180602001604052806000815250611302565b505050565b6000600b600083815260200190815260200160002090508060030160009054906101000a900460ff16610c06576040517f08c379a0000000000000000000000000000000000000000000000000000000008152600401610bfd90613200565b60405180910390fd5b8060020154600760009054906101000a900473ffffffffffffffffffffffffffffffffffffffff1673ffffffffffffffffffffffffffffffffffffffff166370a08231336040518263ffffffff1660e01b8152600401610c6691906126c1565b602060405180830381865afa158015610c83573d6000803e3d6000fd5b505050506040513d601f19601f82011682018060405250810190610ca79190612dc1565b14610ce7576040517f08c379a0000000000000000000000000000000000000000000000000000000008152600401610cde9061326c565b60405180910390fd5b8060030160019054906101000a900473ffffffffffffffffffffffffffffffffffffffff1673ffffffffffffffffffffffffffffffffffffffff163373ffffffffffffffffffffffffffffffffffffffff1603610d79576040517f08c379a0000000000000000000000000000000000000000000000000000000008152600401610d70906132d8565b60405180910390fd5b60008160030160019054906101000a900473ffffffffffffffffffffffffffffffffffffffff169050338260030160016101000a81548173ffffffffffffffffffffffffffffffffffffffff021916908373ffffffffffffffffffffffffffffffffffffffff160217905550610df081338561180c565b600760009054906101000a900473ffffffffffffffffffffffffffffffffffffffff1673ffffffffffffffffffffffffffffffffffffffff166323b872dd338385600201546040518463ffffffff1660e01b8152600401610e539392919061313b565b6020604051808303816000875af1158015610e72573d6000803e3d6000fd5b505050506040513d601f19601f82011682018060405250810190610e969190613187565b507f8562eb94748e30bb0071e932744ce902b460c683474fcb3bfd567ffa16b1afb28382338560020154604051610ed094939291906132f8565b60405180910390a1505050565b600080610ee983611d8f565b9050600073ffffffffffffffffffffffffffffffffffffffff168173ffffffffffffffffffffffffffffffffffffffff1603610f5a576040517f08c379a0000000000000000000000000000000000000000000000000000000008152600401610f5190613389565b60405180910390fd5b80915050919050565b60008073ffffffffffffffffffffffffffffffffffffffff168273ffffffffffffffffffffffffffffffffffffffff1603610fd3576040517f08c379a0000000000000000000000000000000000000000000000000000000008152600401610fca9061341b565b60405180910390fd5b600360008373ffffffffffffffffffffffffffffffffffffffff1673ffffffffffffffffffffffffffffffffffffffff168152602001908152602001600020549050919050565b60606001805461102990612bc5565b80601f016020809104026020016040519081016040528092919081815260200182805461105590612bc5565b80156110a25780601f10611077576101008083540402835291602001916110a2565b820191906000526020600020905b81548152906001019060200180831161108557829003601f168201915b5050505050905090565b600060095434146110f2576040517f08c379a00000000000000000000000000000000000000000000000000000000081526004016110e990613487565b60405180910390fd5b6110fa61242b565b6008548160000181815250506001600860008282546111199190612e89565b92505081905550848160200181905250838160400181815250508281606001901515908115158152505033816080019073ffffffffffffffffffffffffffffffffffffffff16908173ffffffffffffffffffffffffffffffffffffffff168152505080600b6000836000015181526020019081526020016000206000820151816000015560208201518160010190816111b29190613069565b506040820151816002015560608201518160030160006101000a81548160ff02191690831515021790555060808201518160030160016101000a81548173ffffffffffffffffffffffffffffffffffffffff021916908373ffffffffffffffffffffffffffffffffffffffff160217905550905050611235338260000151611b05565b611243816000015186611d22565b3073ffffffffffffffffffffffffffffffffffffffff166108fc349081150290604051600060405180830381858888f19350505050158015611289573d6000803e3d6000fd5b507f555c047f66d52a2c7fa2835038f6beb74305ea84f3250da850c7320132534fb1816000015182602001518360400151846060015185608001516040516112d5959493929190612afc565b60405180910390a180600001519150509392505050565b6112fe6112f76116b6565b8383611dcc565b5050565b61131361130d6116b6565b83611777565b611352576040517f08c379a000000000000000000000000000000000000000000000000000000000815260040161134990612d8c565b60405180910390fd5b61135e84848484611f38565b50505050565b600b60205280600052604060002060009150905080600001549080600101805461138d90612bc5565b80601f01602080910402602001604051908101604052809291908181526020018280546113b990612bc5565b80156114065780601f106113db57610100808354040283529160200191611406565b820191906000526020600020905b8154815290600101906020018083116113e957829003601f168201915b5050505050908060020154908060030160009054906101000a900460ff16908060030160019054906101000a900473ffffffffffffffffffffffffffffffffffffffff16905085565b60095481565b60606114608261166b565b600060066000848152602001908152602001600020805461148090612bc5565b80601f01602080910402602001604051908101604052809291908181526020018280546114ac90612bc5565b80156114f95780601f106114ce576101008083540402835291602001916114f9565b820191906000526020600020905b8154815290600101906020018083116114dc57829003601f168201915b50505050509050600061150a611f94565b9050600081510361151f578192505050611562565b60008251111561155457808260405160200161153c9291906134e3565b60405160208183030381529060405292505050611562565b61155d84611fab565b925050505b919050565b60085481565b6000600560008473ffffffffffffffffffffffffffffffffffffffff1673ffffffffffffffffffffffffffffffffffffffff16815260200190815260200160002060008373ffffffffffffffffffffffffffffffffffffffff1673ffffffffffffffffffffffffffffffffffffffff16815260200190815260200160002060009054906101000a900460ff16905092915050565b60007f01ffc9a7000000000000000000000000000000000000000000000000000000007bffffffffffffffffffffffffffffffffffffffffffffffffffffffff1916827bffffffffffffffffffffffffffffffffffffffffffffffffffffffff1916149050919050565b61167481612013565b6116b3576040517f08c379a00000000000000000000000000000000000000000000000000000000081526004016116aa90613389565b60405180910390fd5b50565b600033905090565b816004600083815260200190815260200160002060006101000a81548173ffffffffffffffffffffffffffffffffffffffff021916908373ffffffffffffffffffffffffffffffffffffffff160217905550808273ffffffffffffffffffffffffffffffffffffffff1661173183610edd565b73ffffffffffffffffffffffffffffffffffffffff167f8c5be1e5ebec7d5bd14f71427d1e84f3dd0314c0f7b2291e5b200ac8c7c3b92560405160405180910390a45050565b60008061178383610edd565b90508073ffffffffffffffffffffffffffffffffffffffff168473ffffffffffffffffffffffffffffffffffffffff1614806117c557506117c4818561156d565b5b8061180357508373ffffffffffffffffffffffffffffffffffffffff166117eb84610687565b73ffffffffffffffffffffffffffffffffffffffff16145b91505092915050565b8273ffffffffffffffffffffffffffffffffffffffff1661182c82610edd565b73ffffffffffffffffffffffffffffffffffffffff1614611882576040517f08c379a000000000000000000000000000000000000000000000000000000000815260040161187990613579565b60405180910390fd5b600073ffffffffffffffffffffffffffffffffffffffff168273ffffffffffffffffffffffffffffffffffffffff16036118f1576040517f08c379a00000000000000000000000000000000000000000000000000000000081526004016118e89061360b565b60405180910390fd5b6118fe8383836001612054565b8273ffffffffffffffffffffffffffffffffffffffff1661191e82610edd565b73ffffffffffffffffffffffffffffffffffffffff1614611974576040517f08c379a000000000000000000000000000000000000000000000000000000000815260040161196b90613579565b60405180910390fd5b6004600082815260200190815260200160002060006101000a81549073ffffffffffffffffffffffffffffffffffffffff02191690556001600360008573ffffffffffffffffffffffffffffffffffffffff1673ffffffffffffffffffffffffffffffffffffffff168152602001908152602001600020600082825403925050819055506001600360008473ffffffffffffffffffffffffffffffffffffffff1673ffffffffffffffffffffffffffffffffffffffff16815260200190815260200160002060008282540192505081905550816002600083815260200190815260200160002060006101000a81548173ffffffffffffffffffffffffffffffffffffffff021916908373ffffffffffffffffffffffffffffffffffffffff160217905550808273ffffffffffffffffffffffffffffffffffffffff168473ffffffffffffffffffffffffffffffffffffffff167fddf252ad1be2c89b69c2b068fc378daa952ba7f163c4a11628f55a4df523b3ef60405160405180910390a4611b00838383600161205a565b505050565b600073ffffffffffffffffffffffffffffffffffffffff168273ffffffffffffffffffffffffffffffffffffffff1603611b74576040517f08c379a0000000000000000000000000000000000000000000000000000000008152600401611b6b90613677565b60405180910390fd5b611b7d81612013565b15611bbd576040517f08c379a0000000000000000000000000000000000000000000000000000000008152600401611bb4906136e3565b60405180910390fd5b611bcb600083836001612054565b611bd481612013565b15611c14576040517f08c379a0000000000000000000000000000000000000000000000000000000008152600401611c0b906136e3565b60405180910390fd5b6001600360008473ffffffffffffffffffffffffffffffffffffffff1673ffffffffffffffffffffffffffffffffffffffff16815260200190815260200160002060008282540192505081905550816002600083815260200190815260200160002060006101000a81548173ffffffffffffffffffffffffffffffffffffffff021916908373ffffffffffffffffffffffffffffffffffffffff160217905550808273ffffffffffffffffffffffffffffffffffffffff16600073ffffffffffffffffffffffffffffffffffffffff167fddf252ad1be2c89b69c2b068fc378daa952ba7f163c4a11628f55a4df523b3ef60405160405180910390a4611d1e60008383600161205a565b5050565b611d2b82612013565b611d6a576040517f08c379a0000000000000000000000000000000000000000000000000000000008152600401611d6190613775565b60405180910390fd5b80600660008481526020019081526020016000209081611d8a9190613069565b505050565b60006002600083815260200190815260200160002060009054906101000a900473ffffffffffffffffffffffffffffffffffffffff169050919050565b8173ffffffffffffffffffffffffffffffffffffffff168373ffffffffffffffffffffffffffffffffffffffff1603611e3a576040517f08c379a0000000000000000000000000000000000000000000000000000000008152600401611e31906137e1565b60405180910390fd5b80600560008573ffffffffffffffffffffffffffffffffffffffff1673ffffffffffffffffffffffffffffffffffffffff16815260200190815260200160002060008473ffffffffffffffffffffffffffffffffffffffff1673ffffffffffffffffffffffffffffffffffffffff16815260200190815260200160002060006101000a81548160ff0219169083151502179055508173ffffffffffffffffffffffffffffffffffffffff168373ffffffffffffffffffffffffffffffffffffffff167f17307eab39ab6107e8899845ad3d59bd9653f200f220920489ca2b5937696c3183604051611f2b9190612526565b60405180910390a3505050565b611f4384848461180c565b611f4f84848484612060565b611f8e576040517f08c379a0000000000000000000000000000000000000000000000000000000008152600401611f8590613873565b60405180910390fd5b50505050565b606060405180602001604052806000815250905090565b6060611fb68261166b565b6000611fc0611f94565b90506000815111611fe0576040518060200160405280600081525061200b565b80611fea846121e7565b604051602001611ffb9291906134e3565b6040516020818303038152906040525b915050919050565b60008073ffffffffffffffffffffffffffffffffffffffff1661203583611d8f565b73ffffffffffffffffffffffffffffffffffffffff1614159050919050565b50505050565b50505050565b60006120818473ffffffffffffffffffffffffffffffffffffffff166122b5565b156121da578373ffffffffffffffffffffffffffffffffffffffff1663150b7a026120aa6116b6565b8786866040518563ffffffff1660e01b81526004016120cc94939291906138e8565b6020604051808303816000875af192505050801561210857506040513d601f19601f820116820180604052508101906121059190613949565b60015b61218a573d8060008114612138576040519150601f19603f3d011682016040523d82523d6000602084013e61213d565b606091505b506000815103612182576040517f08c379a000000000000000000000000000000000000000000000000000000000815260040161217990613873565b60405180910390fd5b805181602001fd5b63150b7a0260e01b7bffffffffffffffffffffffffffffffffffffffffffffffffffffffff1916817bffffffffffffffffffffffffffffffffffffffffffffffffffffffff1916149150506121df565b600190505b949350505050565b6060600060016121f6846122d8565b01905060008167ffffffffffffffff811115612215576122146127a5565b5b6040519080825280601f01601f1916602001820160405280156122475781602001600182028036833780820191505090505b509050600082602001820190505b6001156122aa578080600190039150507f3031323334353637383961626364656600000000000000000000000000000000600a86061a8153600a858161229e5761229d613976565b5b04945060008503612255575b819350505050919050565b6000808273ffffffffffffffffffffffffffffffffffffffff163b119050919050565b600080600090507a184f03e93ff9f4daa797ed6e38ed64bf6a1f0100000000000000008310612336577a184f03e93ff9f4daa797ed6e38ed64bf6a1f010000000000000000838161232c5761232b613976565b5b0492506040810190505b6d04ee2d6d415b85acef81000000008310612373576d04ee2d6d415b85acef8100000000838161236957612368613976565b5b0492506020810190505b662386f26fc1000083106123a257662386f26fc10000838161239857612397613976565b5b0492506010810190505b6305f5e10083106123cb576305f5e10083816123c1576123c0613976565b5b0492506008810190505b61271083106123f05761271083816123e6576123e5613976565b5b0492506004810190505b60648310612413576064838161240957612408613976565b5b0492506002810190505b600a8310612422576001810190505b80915050919050565b6040518060a00160405280600081526020016060815260200160008152602001600015158152602001600073ffffffffffffffffffffffffffffffffffffffff1681525090565b6000604051905090565b600080fd5b600080fd5b60007fffffffff0000000000000000000000000000000000000000000000000000000082169050919050565b6124bb81612486565b81146124c657600080fd5b50565b6000813590506124d8816124b2565b92915050565b6000602082840312156124f4576124f361247c565b5b6000612502848285016124c9565b91505092915050565b60008115159050919050565b6125208161250b565b82525050565b600060208201905061253b6000830184612517565b92915050565b600081519050919050565b600082825260208201905092915050565b60005b8381101561257b578082015181840152602081019050612560565b60008484015250505050565b6000601f19601f8301169050919050565b60006125a382612541565b6125ad818561254c565b93506125bd81856020860161255d565b6125c681612587565b840191505092915050565b600060208201905081810360008301526125eb8184612598565b905092915050565b6000819050919050565b612606816125f3565b82525050565b600060208201905061262160008301846125fd565b92915050565b612630816125f3565b811461263b57600080fd5b50565b60008135905061264d81612627565b92915050565b6000602082840312156126695761266861247c565b5b60006126778482850161263e565b91505092915050565b600073ffffffffffffffffffffffffffffffffffffffff82169050919050565b60006126ab82612680565b9050919050565b6126bb816126a0565b82525050565b60006020820190506126d660008301846126b2565b92915050565b6126e5816126a0565b81146126f057600080fd5b50565b600081359050612702816126dc565b92915050565b6000806040838503121561271f5761271e61247c565b5b600061272d858286016126f3565b925050602061273e8582860161263e565b9150509250929050565b6000806000606084860312156127615761276061247c565b5b600061276f868287016126f3565b9350506020612780868287016126f3565b92505060406127918682870161263e565b9150509250925092565b600080fd5b600080fd5b7f4e487b7100000000000000000000000000000000000000000000000000000000600052604160045260246000fd5b6127dd82612587565b810181811067ffffffffffffffff821117156127fc576127fb6127a5565b5b80604052505050565b600061280f612472565b905061281b82826127d4565b919050565b600067ffffffffffffffff82111561283b5761283a6127a5565b5b61284482612587565b9050602081019050919050565b82818337600083830152505050565b600061287361286e84612820565b612805565b90508281526020810184848401111561288f5761288e6127a0565b5b61289a848285612851565b509392505050565b600082601f8301126128b7576128b661279b565b5b81356128c7848260208601612860565b91505092915050565b6128d98161250b565b81146128e457600080fd5b50565b6000813590506128f6816128d0565b92915050565b6000806000606084860312156129155761291461247c565b5b600084013567ffffffffffffffff81111561293357612932612481565b5b61293f868287016128a2565b93505060206129508682870161263e565b9250506040612961868287016128e7565b9150509250925092565b6000602082840312156129815761298061247c565b5b600061298f848285016126f3565b91505092915050565b600080604083850312156129af576129ae61247c565b5b60006129bd858286016126f3565b92505060206129ce858286016128e7565b9150509250929050565b600067ffffffffffffffff8211156129f3576129f26127a5565b5b6129fc82612587565b9050602081019050919050565b6000612a1c612a17846129d8565b612805565b905082815260208101848484011115612a3857612a376127a0565b5b612a43848285612851565b509392505050565b600082601f830112612a6057612a5f61279b565b5b8135612a70848260208601612a09565b91505092915050565b60008060008060808587031215612a9357612a9261247c565b5b6000612aa1878288016126f3565b9450506020612ab2878288016126f3565b9350506040612ac38782880161263e565b925050606085013567ffffffffffffffff811115612ae457612ae3612481565b5b612af087828801612a4b565b91505092959194509250565b600060a082019050612b1160008301886125fd565b8181036020830152612b238187612598565b9050612b3260408301866125fd565b612b3f6060830185612517565b612b4c60808301846126b2565b9695505050505050565b60008060408385031215612b6d57612b6c61247c565b5b6000612b7b858286016126f3565b9250506020612b8c858286016126f3565b9150509250929050565b7f4e487b7100000000000000000000000000000000000000000000000000000000600052602260045260246000fd5b60006002820490506001821680612bdd57607f821691505b602082108103612bf057612bef612b96565b5b50919050565b7f4552433732313a20617070726f76616c20746f2063757272656e74206f776e6560008201527f7200000000000000000000000000000000000000000000000000000000000000602082015250565b6000612c5260218361254c565b9150612c5d82612bf6565b604082019050919050565b60006020820190508181036000830152612c8181612c45565b9050919050565b7f4552433732313a20617070726f76652063616c6c6572206973206e6f7420746f60008201527f6b656e206f776e6572206f7220617070726f76656420666f7220616c6c000000602082015250565b6000612ce4603d8361254c565b9150612cef82612c88565b604082019050919050565b60006020820190508181036000830152612d1381612cd7565b9050919050565b7f4552433732313a2063616c6c6572206973206e6f7420746f6b656e206f776e6560008201527f72206f7220617070726f76656400000000000000000000000000000000000000602082015250565b6000612d76602d8361254c565b9150612d8182612d1a565b604082019050919050565b60006020820190508181036000830152612da581612d69565b9050919050565b600081519050612dbb81612627565b92915050565b600060208284031215612dd757612dd661247c565b5b6000612de584828501612dac565b91505092915050565b7f596f75206e656564205a546f6b656e20746f206d696e74204e46540000000000600082015250565b6000612e24601b8361254c565b9150612e2f82612dee565b602082019050919050565b60006020820190508181036000830152612e5381612e17565b9050919050565b7f4e487b7100000000000000000000000000000000000000000000000000000000600052601160045260246000fd5b6000612e94826125f3565b9150612e9f836125f3565b9250828201905080821115612eb757612eb6612e5a565b5b92915050565b60008190508160005260206000209050919050565b60006020601f8301049050919050565b600082821b905092915050565b600060088302612f1f7fffffffffffffffffffffffffffffffffffffffffffffffffffffffffffffffff82612ee2565b612f298683612ee2565b95508019841693508086168417925050509392505050565b6000819050919050565b6000612f66612f61612f5c846125f3565b612f41565b6125f3565b9050919050565b6000819050919050565b612f8083612f4b565b612f94612f8c82612f6d565b848454612eef565b825550505050565b600090565b612fa9612f9c565b612fb4818484612f77565b505050565b5b81811015612fd857612fcd600082612fa1565b600181019050612fba565b5050565b601f82111561301d57612fee81612ebd565b612ff784612ed2565b81016020851015613006578190505b61301a61301285612ed2565b830182612fb9565b50505b505050565b600082821c905092915050565b600061304060001984600802613022565b1980831691505092915050565b6000613059838361302f565b9150826002028217905092915050565b61307282612541565b67ffffffffffffffff81111561308b5761308a6127a5565b5b6130958254612bc5565b6130a0828285612fdc565b600060209050601f8311600181146130d357600084156130c1578287015190505b6130cb858261304d565b865550613133565b601f1984166130e186612ebd565b60005b82811015613109578489015182556001820191506020850194506020810190506130e4565b868310156131265784890151613122601f89168261302f565b8355505b6001600288020188555050505b505050505050565b600060608201905061315060008301866126b2565b61315d60208301856126b2565b61316a60408301846125fd565b949350505050565b600081519050613181816128d0565b92915050565b60006020828403121561319d5761319c61247c565b5b60006131ab84828501613172565b91505092915050565b7f4e4654206973206e6f7420666f722073616c6500000000000000000000000000600082015250565b60006131ea60138361254c565b91506131f5826131b4565b602082019050919050565b60006020820190508181036000830152613219816131dd565b9050919050565b7f696e73756666696369656e742062616c616e6365000000000000000000000000600082015250565b600061325660148361254c565b915061326182613220565b602082019050919050565b6000602082019050818103600083015261328581613249565b9050919050565b7f596f752061726520746865206f776e6572206f662074686973204e4654000000600082015250565b60006132c2601d8361254c565b91506132cd8261328c565b602082019050919050565b600060208201905081810360008301526132f1816132b5565b9050919050565b600060808201905061330d60008301876125fd565b61331a60208301866126b2565b61332760408301856126b2565b61333460608301846125fd565b95945050505050565b7f4552433732313a20696e76616c696420746f6b656e2049440000000000000000600082015250565b600061337360188361254c565b915061337e8261333d565b602082019050919050565b600060208201905081810360008301526133a281613366565b9050919050565b7f4552433732313a2061646472657373207a65726f206973206e6f74206120766160008201527f6c6964206f776e65720000000000000000000000000000000000000000000000602082015250565b600061340560298361254c565b9150613410826133a9565b604082019050919050565b60006020820190508181036000830152613434816133f8565b9050919050565b7f596f75206e65656420657468657220746f206d696e74204e4654000000000000600082015250565b6000613471601a8361254c565b915061347c8261343b565b602082019050919050565b600060208201905081810360008301526134a081613464565b9050919050565b600081905092915050565b60006134bd82612541565b6134c781856134a7565b93506134d781856020860161255d565b80840191505092915050565b60006134ef82856134b2565b91506134fb82846134b2565b91508190509392505050565b7f4552433732313a207472616e736665722066726f6d20696e636f72726563742060008201527f6f776e6572000000000000000000000000000000000000000000000000000000602082015250565b600061356360258361254c565b915061356e82613507565b604082019050919050565b6000602082019050818103600083015261359281613556565b9050919050565b7f4552433732313a207472616e7366657220746f20746865207a65726f2061646460008201527f7265737300000000000000000000000000000000000000000000000000000000602082015250565b60006135f560248361254c565b915061360082613599565b604082019050919050565b60006020820190508181036000830152613624816135e8565b9050919050565b7f4552433732313a206d696e7420746f20746865207a65726f2061646472657373600082015250565b600061366160208361254c565b915061366c8261362b565b602082019050919050565b6000602082019050818103600083015261369081613654565b9050919050565b7f4552433732313a20746f6b656e20616c7265616479206d696e74656400000000600082015250565b60006136cd601c8361254c565b91506136d882613697565b602082019050919050565b600060208201905081810360008301526136fc816136c0565b9050919050565b7f45524337323155524953746f726167653a2055524920736574206f66206e6f6e60008201527f6578697374656e7420746f6b656e000000000000000000000000000000000000602082015250565b600061375f602e8361254c565b915061376a82613703565b604082019050919050565b6000602082019050818103600083015261378e81613752565b9050919050565b7f4552433732313a20617070726f766520746f2063616c6c657200000000000000600082015250565b60006137cb60198361254c565b91506137d682613795565b602082019050919050565b600060208201905081810360008301526137fa816137be565b9050919050565b7f4552433732313a207472616e7366657220746f206e6f6e20455243373231526560008201527f63656976657220696d706c656d656e7465720000000000000000000000000000602082015250565b600061385d60328361254c565b915061386882613801565b604082019050919050565b6000602082019050818103600083015261388c81613850565b9050919050565b600081519050919050565b600082825260208201905092915050565b60006138ba82613893565b6138c4818561389e565b93506138d481856020860161255d565b6138dd81612587565b840191505092915050565b60006080820190506138fd60008301876126b2565b61390a60208301866126b2565b61391760408301856125fd565b818103606083015261392981846138af565b905095945050505050565b600081519050613943816124b2565b92915050565b60006020828403121561395f5761395e61247c565b5b600061396d84828501613934565b91505092915050565b7f4e487b7100000000000000000000000000000000000000000000000000000000600052601260045260246000fdfea2646970667358221220aba8ebec1950c93206dac4b1883f9ba619224dc89baf4b4f67792172fec9565364736f6c63430008130033",
  "immutableReferences": {},
  "source": "// SPDX-License-Identifier: MIT\r\n//TODO: ad setters for nft attributes and add events\r\npragma solidity ^0.8.0;\r\n\r\nimport \"@openzeppelin/contracts/token/ERC721/ERC721.sol\";\r\nimport \"@openzeppelin/contracts/token/ERC721/extensions/ERC721URIStorage.sol\";\r\nimport \"./ZCoin.sol\";\r\ncontract MyNFT is ERC721URIStorage {\r\n    ZCoin private token;\r\n    uint256 public tokenCounter;\r\n    uint256 public price_in_wei = 10 ** 16;\r\n    uint256 public price_ini_ztk = 10 ** 18;\r\n\r\n    struct NFTData {\r\n        uint256 id;\r\n        string uri;\r\n        uint256 cost;\r\n        bool isForSale;\r\n        address owner;\r\n    }\r\n    event NFTMinted(uint256 id,string uri,uint256 cost,bool isForSale,address owner);\r\n    event NFTSold(uint256 id,address buyer,address seller,uint256 price);\r\n    mapping(uint256 => NFTData) public allNFTs;\r\n\r\n    constructor(address _token) ERC721(\"TheAwesomeNFT\", \"TANFT\") {\r\n        tokenCounter = 0;\r\n        token = ZCoin(_token);\r\n    }\r\n    //function _burn(uint256 tokenId) internal override(ERC721URIStorage) {\r\n    //    super._burn(tokenId);\r\n    //    if (bytes(allNFTs[tokenId].uri).length != 0) {\r\n    //        delete allNFTs[tokenId].uri;\r\n    //    }\r\n    //}\r\n\r\n    function createCollectible(string memory _tokenURI,uint256 _cost,bool _isForSale) public payable returns (uint256) {\r\n        require(msg.value == price_in_wei, \"You need ether to mint NFT\");\r\n        NFTData memory newNFT;\r\n        newNFT.id = tokenCounter;\r\n        tokenCounter += 1;\r\n        newNFT.uri = _tokenURI;\r\n        newNFT.cost = _cost;\r\n        newNFT.isForSale = _isForSale;\r\n        newNFT.owner = msg.sender;\r\n        allNFTs[newNFT.id] = newNFT;\r\n        _mint(msg.sender, newNFT.id);\r\n        _setTokenURI(newNFT.id, _tokenURI);\r\n        payable(address(this)).transfer(msg.value);\r\n        emit NFTMinted(newNFT.id, newNFT.uri, newNFT.cost, newNFT.isForSale, newNFT.owner);\r\n        return newNFT.id;\r\n    }\r\n\r\n    function mintWithToken(string memory _tokenURI,uint256 _cost,bool _isForSale) public returns (uint256) {\r\n        require(token.balanceOf(msg.sender) >= price_ini_ztk, \"You need ZToken to mint NFT\");\r\n        NFTData memory newNFT;\r\n        newNFT.id = tokenCounter;\r\n        tokenCounter += 1;\r\n        newNFT.uri = _tokenURI;\r\n        newNFT.cost = _cost;\r\n        newNFT.isForSale = _isForSale;\r\n        newNFT.owner = msg.sender;\r\n\r\n        allNFTs[newNFT.id] = newNFT;\r\n        _mint(msg.sender, newNFT.id);\r\n        _setTokenURI(newNFT.id, _tokenURI);\r\n        token.transferFrom(msg.sender, address(this), price_ini_ztk);\r\n        emit NFTMinted(newNFT.id, newNFT.uri, newNFT.cost, newNFT.isForSale, newNFT.owner);\r\n        return newNFT.id;\r\n    }\r\n    function buyNFT(uint256 _tokenId) public {\r\n        NFTData storage nft = allNFTs[_tokenId];\r\n        require(nft.isForSale, \"NFT is not for sale\");\r\n        require(token.balanceOf(msg.sender) == nft.cost, \"insufficient balance\");\r\n        require(msg.sender != nft.owner, \"You are the owner of this NFT\");\r\n        address previousOwner = nft.owner;\r\n        nft.owner = msg.sender;\r\n        _transfer(previousOwner, msg.sender, _tokenId);\r\n        token.transferFrom(msg.sender, previousOwner, nft.cost);\r\n        emit NFTSold(_tokenId, previousOwner, msg.sender, nft.cost);\r\n    }\r\n}",
  "sourcePath": "C:\\Users\\yousf\\Bureau\\ppp_project\\z-wallet\\contracts\\MyNFT.sol",
  "compiler": {
    "name": "solc",
    "version": "0.8.19+commit.7dd6d404.Emscripten.clang"
  },
  "schemaVersion": "3.4.13",
  "updatedAt": "2023-05-10T18:27:16.679Z",
  "networkType": "ethereum",
  "devdoc": {
    "events": {
      "Approval(address,address,uint256)": {
        "details": "Emitted when `owner` enables `approved` to manage the `tokenId` token."
      },
      "ApprovalForAll(address,address,bool)": {
        "details": "Emitted when `owner` enables or disables (`approved`) `operator` to manage all of its assets."
      },
      "Transfer(address,address,uint256)": {
        "details": "Emitted when `tokenId` token is transferred from `from` to `to`."
      }
    },
    "kind": "dev",
    "methods": {
      "approve(address,uint256)": {
        "details": "See {IERC721-approve}."
      },
      "balanceOf(address)": {
        "details": "See {IERC721-balanceOf}."
      },
      "getApproved(uint256)": {
        "details": "See {IERC721-getApproved}."
      },
      "isApprovedForAll(address,address)": {
        "details": "See {IERC721-isApprovedForAll}."
      },
      "name()": {
        "details": "See {IERC721Metadata-name}."
      },
      "ownerOf(uint256)": {
        "details": "See {IERC721-ownerOf}."
      },
      "safeTransferFrom(address,address,uint256)": {
        "details": "See {IERC721-safeTransferFrom}."
      },
      "safeTransferFrom(address,address,uint256,bytes)": {
        "details": "See {IERC721-safeTransferFrom}."
      },
      "setApprovalForAll(address,bool)": {
        "details": "See {IERC721-setApprovalForAll}."
      },
      "supportsInterface(bytes4)": {
        "details": "See {IERC165-supportsInterface}."
      },
      "symbol()": {
        "details": "See {IERC721Metadata-symbol}."
      },
      "tokenURI(uint256)": {
        "details": "See {IERC721Metadata-tokenURI}."
      },
      "transferFrom(address,address,uint256)": {
        "details": "See {IERC721-transferFrom}."
      }
    },
    "version": 1
  },
  "userdoc": {
    "kind": "user",
    "methods": {},
    "version": 1
  }
}