{
  "contractName": "NFT",
  "abi": [
    {
      "inputs": [
        {
          "internalType": "string",
          "name": "_name",
          "type": "string"
        },
        {
          "internalType": "string",
          "name": "_symbol",
          "type": "string"
        }
      ],
      "stateMutability": "nonpayable",
      "type": "constructor"
    },
    {
      "anonymous": false,
      "inputs": [
        {
          "indexed": true,
          "internalType": "address",
          "name": "owner",
          "type": "address"
        },
        {
          "indexed": true,
          "internalType": "address",
          "name": "approved",
          "type": "address"
        },
        {
          "indexed": true,
          "internalType": "uint256",
          "name": "tokenId",
          "type": "uint256"
        }
      ],
      "name": "Approval",
      "type": "event"
    },
    {
      "anonymous": false,
      "inputs": [
        {
          "indexed": true,
          "internalType": "address",
          "name": "owner",
          "type": "address"
        },
        {
          "indexed": true,
          "internalType": "address",
          "name": "operator",
          "type": "address"
        },
        {
          "indexed": false,
          "internalType": "bool",
          "name": "approved",
          "type": "bool"
        }
      ],
      "name": "ApprovalForAll",
      "type": "event"
    },
    {
      "anonymous": false,
      "inputs": [
        {
          "indexed": true,
          "internalType": "address",
          "name": "from",
          "type": "address"
        },
        {
          "indexed": true,
          "internalType": "address",
          "name": "to",
          "type": "address"
        },
        {
          "indexed": true,
          "internalType": "uint256",
          "name": "tokenId",
          "type": "uint256"
        }
      ],
      "name": "Transfer",
      "type": "event"
    },
    {
      "inputs": [
        {
          "internalType": "address",
          "name": "to",
          "type": "address"
        },
        {
          "internalType": "uint256",
          "name": "tokenId",
          "type": "uint256"
        }
      ],
      "name": "approve",
      "outputs": [],
      "stateMutability": "nonpayable",
      "type": "function"
    },
    {
      "inputs": [
        {
          "internalType": "address",
          "name": "owner",
          "type": "address"
        }
      ],
      "name": "balanceOf",
      "outputs": [
        {
          "internalType": "uint256",
          "name": "",
          "type": "uint256"
        }
      ],
      "stateMutability": "view",
      "type": "function"
    },
    {
      "inputs": [
        {
          "internalType": "uint256",
          "name": "tokenId",
          "type": "uint256"
        }
      ],
      "name": "getApproved",
      "outputs": [
        {
          "internalType": "address",
          "name": "",
          "type": "address"
        }
      ],
      "stateMutability": "view",
      "type": "function"
    },
    {
      "inputs": [
        {
          "internalType": "address",
          "name": "owner",
          "type": "address"
        },
        {
          "internalType": "address",
          "name": "operator",
          "type": "address"
        }
      ],
      "name": "isApprovedForAll",
      "outputs": [
        {
          "internalType": "bool",
          "name": "",
          "type": "bool"
        }
      ],
      "stateMutability": "view",
      "type": "function"
    },
    {
      "inputs": [],
      "name": "name",
      "outputs": [
        {
          "internalType": "string",
          "name": "",
          "type": "string"
        }
      ],
      "stateMutability": "view",
      "type": "function"
    },
    {
      "inputs": [],
      "name": "owner",
      "outputs": [
        {
          "internalType": "address",
          "name": "",
          "type": "address"
        }
      ],
      "stateMutability": "view",
      "type": "function"
    },
    {
      "inputs": [
        {
          "internalType": "uint256",
          "name": "tokenId",
          "type": "uint256"
        }
      ],
      "name": "ownerOf",
      "outputs": [
        {
          "internalType": "address",
          "name": "",
          "type": "address"
        }
      ],
      "stateMutability": "view",
      "type": "function"
    },
    {
      "inputs": [
        {
          "internalType": "address",
          "name": "from",
          "type": "address"
        },
        {
          "internalType": "address",
          "name": "to",
          "type": "address"
        },
        {
          "internalType": "uint256",
          "name": "tokenId",
          "type": "uint256"
        }
      ],
      "name": "safeTransferFrom",
      "outputs": [],
      "stateMutability": "nonpayable",
      "type": "function"
    },
    {
      "inputs": [
        {
          "internalType": "address",
          "name": "from",
          "type": "address"
        },
        {
          "internalType": "address",
          "name": "to",
          "type": "address"
        },
        {
          "internalType": "uint256",
          "name": "tokenId",
          "type": "uint256"
        },
        {
          "internalType": "bytes",
          "name": "data",
          "type": "bytes"
        }
      ],
      "name": "safeTransferFrom",
      "outputs": [],
      "stateMutability": "nonpayable",
      "type": "function"
    },
    {
      "inputs": [
        {
          "internalType": "address",
          "name": "operator",
          "type": "address"
        },
        {
          "internalType": "bool",
          "name": "approved",
          "type": "bool"
        }
      ],
      "name": "setApprovalForAll",
      "outputs": [],
      "stateMutability": "nonpayable",
      "type": "function"
    },
    {
      "inputs": [
        {
          "internalType": "bytes4",
          "name": "interfaceId",
          "type": "bytes4"
        }
      ],
      "name": "supportsInterface",
      "outputs": [
        {
          "internalType": "bool",
          "name": "",
          "type": "bool"
        }
      ],
      "stateMutability": "view",
      "type": "function"
    },
    {
      "inputs": [],
      "name": "symbol",
      "outputs": [
        {
          "internalType": "string",
          "name": "",
          "type": "string"
        }
      ],
      "stateMutability": "view",
      "type": "function"
    },
    {
      "inputs": [
        {
          "internalType": "uint256",
          "name": "tokenId",
          "type": "uint256"
        }
      ],
      "name": "tokenURI",
      "outputs": [
        {
          "internalType": "string",
          "name": "",
          "type": "string"
        }
      ],
      "stateMutability": "view",
      "type": "function"
    },
    {
      "inputs": [
        {
          "internalType": "address",
          "name": "from",
          "type": "address"
        },
        {
          "internalType": "address",
          "name": "to",
          "type": "address"
        },
        {
          "internalType": "uint256",
          "name": "tokenId",
          "type": "uint256"
        }
      ],
      "name": "transferFrom",
      "outputs": [],
      "stateMutability": "nonpayable",
      "type": "function"
    },
    {
      "inputs": [
        {
          "internalType": "string",
          "name": "tokenURI",
          "type": "string"
        }
      ],
      "name": "mint",
      "outputs": [],
      "stateMutability": "payable",
      "type": "function"
    },
    {
      "inputs": [
        {
          "internalType": "address",
          "name": "from",
          "type": "address"
        },
        {
          "internalType": "address",
          "name": "to",
          "type": "address"
        },
        {
          "internalType": "uint256",
          "name": "tokenId",
          "type": "uint256"
        }
      ],
      "name": "transferNFT",
      "outputs": [],
      "stateMutability": "nonpayable",
      "type": "function"
    },
    {
      "inputs": [],
      "name": "totalSupply",
      "outputs": [
        {
          "internalType": "uint256",
          "name": "",
          "type": "uint256"
        }
      ],
      "stateMutability": "view",
      "type": "function"
    },
    {
      "inputs": [],
      "name": "withdraw",
      "outputs": [],
      "stateMutability": "nonpayable",
      "type": "function"
    }
  ],
  "bytecode": "0x60806040523480156200001157600080fd5b50604051620033d6380380620033d683398181016040528101906200003791906200023b565b818181600090816200004a91906200050b565b5080600190816200005c91906200050b565b50505033600860006101000a81548173ffffffffffffffffffffffffffffffffffffffff021916908373ffffffffffffffffffffffffffffffffffffffff1602179055505050620005f2565b6000604051905090565b600080fd5b600080fd5b600080fd5b600080fd5b6000601f19601f8301169050919050565b7f4e487b7100000000000000000000000000000000000000000000000000000000600052604160045260246000fd5b6200011182620000c6565b810181811067ffffffffffffffff82111715620001335762000132620000d7565b5b80604052505050565b600062000148620000a8565b905062000156828262000106565b919050565b600067ffffffffffffffff821115620001795762000178620000d7565b5b6200018482620000c6565b9050602081019050919050565b60005b83811015620001b157808201518184015260208101905062000194565b60008484015250505050565b6000620001d4620001ce846200015b565b6200013c565b905082815260208101848484011115620001f357620001f2620000c1565b5b6200020084828562000191565b509392505050565b600082601f83011262000220576200021f620000bc565b5b815162000232848260208601620001bd565b91505092915050565b60008060408385031215620002555762000254620000b2565b5b600083015167ffffffffffffffff811115620002765762000275620000b7565b5b620002848582860162000208565b925050602083015167ffffffffffffffff811115620002a857620002a7620000b7565b5b620002b68582860162000208565b9150509250929050565b600081519050919050565b7f4e487b7100000000000000000000000000000000000000000000000000000000600052602260045260246000fd5b600060028204905060018216806200031357607f821691505b602082108103620003295762000328620002cb565b5b50919050565b60008190508160005260206000209050919050565b60006020601f8301049050919050565b600082821b905092915050565b600060088302620003937fffffffffffffffffffffffffffffffffffffffffffffffffffffffffffffffff8262000354565b6200039f868362000354565b95508019841693508086168417925050509392505050565b6000819050919050565b6000819050919050565b6000620003ec620003e6620003e084620003b7565b620003c1565b620003b7565b9050919050565b6000819050919050565b6200040883620003cb565b620004206200041782620003f3565b84845462000361565b825550505050565b600090565b6200043762000428565b62000444818484620003fd565b505050565b5b818110156200046c57620004606000826200042d565b6001810190506200044a565b5050565b601f821115620004bb5762000485816200032f565b620004908462000344565b81016020851015620004a0578190505b620004b8620004af8562000344565b83018262000449565b50505b505050565b600082821c905092915050565b6000620004e060001984600802620004c0565b1980831691505092915050565b6000620004fb8383620004cd565b9150826002028217905092915050565b6200051682620002c0565b67ffffffffffffffff811115620005325762000531620000d7565b5b6200053e8254620002fa565b6200054b82828562000470565b600060209050601f8311600181146200058357600084156200056e578287015190505b6200057a8582620004ed565b865550620005ea565b601f19841662000593866200032f565b60005b82811015620005bd5784890151825560018201915060208501945060208101905062000596565b86831015620005dd5784890151620005d9601f891682620004cd565b8355505b6001600288020188555050505b505050505050565b612dd480620006026000396000f3fe6080604052600436106101095760003560e01c806369e9cae111610095578063a22cb46511610064578063a22cb46514610369578063b88d4fde14610392578063c87b56dd146103bb578063d85d3d27146103f8578063e985e9c51461041457610109565b806369e9cae1146102ad57806370a08231146102d65780638da5cb5b1461031357806395d89b411461033e57610109565b806318160ddd116100dc57806318160ddd146101dc57806323b872dd146102075780633ccfd60b1461023057806342842e0e146102475780636352211e1461027057610109565b806301ffc9a71461010e57806306fdde031461014b578063081812fc14610176578063095ea7b3146101b3575b600080fd5b34801561011a57600080fd5b5061013560048036038101906101309190611bfe565b610451565b6040516101429190611c46565b60405180910390f35b34801561015757600080fd5b50610160610533565b60405161016d9190611cf1565b60405180910390f35b34801561018257600080fd5b5061019d60048036038101906101989190611d49565b6105c5565b6040516101aa9190611db7565b60405180910390f35b3480156101bf57600080fd5b506101da60048036038101906101d59190611dfe565b61060b565b005b3480156101e857600080fd5b506101f1610722565b6040516101fe9190611e4d565b60405180910390f35b34801561021357600080fd5b5061022e60048036038101906102299190611e68565b610733565b005b34801561023c57600080fd5b50610245610793565b005b34801561025357600080fd5b5061026e60048036038101906102699190611e68565b610888565b005b34801561027c57600080fd5b5061029760048036038101906102929190611d49565b6108a8565b6040516102a49190611db7565b60405180910390f35b3480156102b957600080fd5b506102d460048036038101906102cf9190611e68565b61092e565b005b3480156102e257600080fd5b506102fd60048036038101906102f89190611ebb565b610987565b60405161030a9190611e4d565b60405180910390f35b34801561031f57600080fd5b50610328610a3e565b6040516103359190611db7565b60405180910390f35b34801561034a57600080fd5b50610353610a64565b6040516103609190611cf1565b60405180910390f35b34801561037557600080fd5b50610390600480360381019061038b9190611f14565b610af6565b005b34801561039e57600080fd5b506103b960048036038101906103b49190612089565b610b0c565b005b3480156103c757600080fd5b506103e260048036038101906103dd9190611d49565b610b6e565b6040516103ef9190611cf1565b60405180910390f35b610412600480360381019061040d91906121ad565b610c80565b005b34801561042057600080fd5b5061043b600480360381019061043691906121f6565b610cb0565b6040516104489190611c46565b60405180910390f35b60007f80ac58cd000000000000000000000000000000000000000000000000000000007bffffffffffffffffffffffffffffffffffffffffffffffffffffffff1916827bffffffffffffffffffffffffffffffffffffffffffffffffffffffff1916148061051c57507f5b5e139f000000000000000000000000000000000000000000000000000000007bffffffffffffffffffffffffffffffffffffffffffffffffffffffff1916827bffffffffffffffffffffffffffffffffffffffffffffffffffffffff1916145b8061052c575061052b82610d44565b5b9050919050565b60606000805461054290612265565b80601f016020809104026020016040519081016040528092919081815260200182805461056e90612265565b80156105bb5780601f10610590576101008083540402835291602001916105bb565b820191906000526020600020905b81548152906001019060200180831161059e57829003601f168201915b5050505050905090565b60006105d082610dae565b6004600083815260200190815260200160002060009054906101000a900473ffffffffffffffffffffffffffffffffffffffff169050919050565b6000610616826108a8565b90508073ffffffffffffffffffffffffffffffffffffffff168373ffffffffffffffffffffffffffffffffffffffff1603610686576040517f08c379a000000000000000000000000000000000000000000000000000000000815260040161067d90612308565b60405180910390fd5b8073ffffffffffffffffffffffffffffffffffffffff166106a5610df9565b73ffffffffffffffffffffffffffffffffffffffff1614806106d457506106d3816106ce610df9565b610cb0565b5b610713576040517f08c379a000000000000000000000000000000000000000000000000000000000815260040161070a9061239a565b60405180910390fd5b61071d8383610e01565b505050565b600061072e6007610eba565b905090565b61074461073e610df9565b82610ec8565b610783576040517f08c379a000000000000000000000000000000000000000000000000000000000815260040161077a9061242c565b60405180910390fd5b61078e838383610f5d565b505050565b600860009054906101000a900473ffffffffffffffffffffffffffffffffffffffff1673ffffffffffffffffffffffffffffffffffffffff163373ffffffffffffffffffffffffffffffffffffffff16146107ed57600080fd5b6000600860009054906101000a900473ffffffffffffffffffffffffffffffffffffffff1673ffffffffffffffffffffffffffffffffffffffff16476040516108359061247d565b60006040518083038185875af1925050503d8060008114610872576040519150601f19603f3d011682016040523d82523d6000602084013e610877565b606091505b505090508061088557600080fd5b50565b6108a383838360405180602001604052806000815250610b0c565b505050565b6000806108b483611256565b9050600073ffffffffffffffffffffffffffffffffffffffff168173ffffffffffffffffffffffffffffffffffffffff1603610925576040517f08c379a000000000000000000000000000000000000000000000000000000000815260040161091c906124de565b60405180910390fd5b80915050919050565b6109383382610ec8565b610977576040517f08c379a000000000000000000000000000000000000000000000000000000000815260040161096e90612570565b60405180910390fd5b610982838383610f5d565b505050565b60008073ffffffffffffffffffffffffffffffffffffffff168273ffffffffffffffffffffffffffffffffffffffff16036109f7576040517f08c379a00000000000000000000000000000000000000000000000000000000081526004016109ee90612602565b60405180910390fd5b600360008373ffffffffffffffffffffffffffffffffffffffff1673ffffffffffffffffffffffffffffffffffffffff168152602001908152602001600020549050919050565b600860009054906101000a900473ffffffffffffffffffffffffffffffffffffffff1681565b606060018054610a7390612265565b80601f0160208091040260200160405190810160405280929190818152602001828054610a9f90612265565b8015610aec5780601f10610ac157610100808354040283529160200191610aec565b820191906000526020600020905b815481529060010190602001808311610acf57829003601f168201915b5050505050905090565b610b08610b01610df9565b8383611293565b5050565b610b1d610b17610df9565b83610ec8565b610b5c576040517f08c379a0000000000000000000000000000000000000000000000000000000008152600401610b539061242c565b60405180910390fd5b610b68848484846113ff565b50505050565b6060610b7982610dae565b6000600660008481526020019081526020016000208054610b9990612265565b80601f0160208091040260200160405190810160405280929190818152602001828054610bc590612265565b8015610c125780601f10610be757610100808354040283529160200191610c12565b820191906000526020600020905b815481529060010190602001808311610bf557829003601f168201915b505050505090506000610c2361145b565b90506000815103610c38578192505050610c7b565b600082511115610c6d578082604051602001610c5592919061265e565b60405160208183030381529060405292505050610c7b565b610c7684611472565b925050505b919050565b610c8a60076114da565b6000610c966007610eba565b9050610ca233826114f0565b610cac818361170d565b5050565b6000600560008473ffffffffffffffffffffffffffffffffffffffff1673ffffffffffffffffffffffffffffffffffffffff16815260200190815260200160002060008373ffffffffffffffffffffffffffffffffffffffff1673ffffffffffffffffffffffffffffffffffffffff16815260200190815260200160002060009054906101000a900460ff16905092915050565b60007f01ffc9a7000000000000000000000000000000000000000000000000000000007bffffffffffffffffffffffffffffffffffffffffffffffffffffffff1916827bffffffffffffffffffffffffffffffffffffffffffffffffffffffff1916149050919050565b610db78161177a565b610df6576040517f08c379a0000000000000000000000000000000000000000000000000000000008152600401610ded906124de565b60405180910390fd5b50565b600033905090565b816004600083815260200190815260200160002060006101000a81548173ffffffffffffffffffffffffffffffffffffffff021916908373ffffffffffffffffffffffffffffffffffffffff160217905550808273ffffffffffffffffffffffffffffffffffffffff16610e74836108a8565b73ffffffffffffffffffffffffffffffffffffffff167f8c5be1e5ebec7d5bd14f71427d1e84f3dd0314c0f7b2291e5b200ac8c7c3b92560405160405180910390a45050565b600081600001549050919050565b600080610ed4836108a8565b90508073ffffffffffffffffffffffffffffffffffffffff168473ffffffffffffffffffffffffffffffffffffffff161480610f165750610f158185610cb0565b5b80610f5457508373ffffffffffffffffffffffffffffffffffffffff16610f3c846105c5565b73ffffffffffffffffffffffffffffffffffffffff16145b91505092915050565b8273ffffffffffffffffffffffffffffffffffffffff16610f7d826108a8565b73ffffffffffffffffffffffffffffffffffffffff1614610fd3576040517f08c379a0000000000000000000000000000000000000000000000000000000008152600401610fca906126f4565b60405180910390fd5b600073ffffffffffffffffffffffffffffffffffffffff168273ffffffffffffffffffffffffffffffffffffffff1603611042576040517f08c379a000000000000000000000000000000000000000000000000000000000815260040161103990612786565b60405180910390fd5b61104f83838360016117bb565b8273ffffffffffffffffffffffffffffffffffffffff1661106f826108a8565b73ffffffffffffffffffffffffffffffffffffffff16146110c5576040517f08c379a00000000000000000000000000000000000000000000000000000000081526004016110bc906126f4565b60405180910390fd5b6004600082815260200190815260200160002060006101000a81549073ffffffffffffffffffffffffffffffffffffffff02191690556001600360008573ffffffffffffffffffffffffffffffffffffffff1673ffffffffffffffffffffffffffffffffffffffff168152602001908152602001600020600082825403925050819055506001600360008473ffffffffffffffffffffffffffffffffffffffff1673ffffffffffffffffffffffffffffffffffffffff16815260200190815260200160002060008282540192505081905550816002600083815260200190815260200160002060006101000a81548173ffffffffffffffffffffffffffffffffffffffff021916908373ffffffffffffffffffffffffffffffffffffffff160217905550808273ffffffffffffffffffffffffffffffffffffffff168473ffffffffffffffffffffffffffffffffffffffff167fddf252ad1be2c89b69c2b068fc378daa952ba7f163c4a11628f55a4df523b3ef60405160405180910390a461125183838360016117c1565b505050565b60006002600083815260200190815260200160002060009054906101000a900473ffffffffffffffffffffffffffffffffffffffff169050919050565b8173ffffffffffffffffffffffffffffffffffffffff168373ffffffffffffffffffffffffffffffffffffffff1603611301576040517f08c379a00000000000000000000000000000000000000000000000000000000081526004016112f8906127f2565b60405180910390fd5b80600560008573ffffffffffffffffffffffffffffffffffffffff1673ffffffffffffffffffffffffffffffffffffffff16815260200190815260200160002060008473ffffffffffffffffffffffffffffffffffffffff1673ffffffffffffffffffffffffffffffffffffffff16815260200190815260200160002060006101000a81548160ff0219169083151502179055508173ffffffffffffffffffffffffffffffffffffffff168373ffffffffffffffffffffffffffffffffffffffff167f17307eab39ab6107e8899845ad3d59bd9653f200f220920489ca2b5937696c31836040516113f29190611c46565b60405180910390a3505050565b61140a848484610f5d565b611416848484846117c7565b611455576040517f08c379a000000000000000000000000000000000000000000000000000000000815260040161144c90612884565b60405180910390fd5b50505050565b606060405180602001604052806000815250905090565b606061147d82610dae565b600061148761145b565b905060008151116114a757604051806020016040528060008152506114d2565b806114b18461194e565b6040516020016114c292919061265e565b6040516020818303038152906040525b915050919050565b6001816000016000828254019250508190555050565b600073ffffffffffffffffffffffffffffffffffffffff168273ffffffffffffffffffffffffffffffffffffffff160361155f576040517f08c379a0000000000000000000000000000000000000000000000000000000008152600401611556906128f0565b60405180910390fd5b6115688161177a565b156115a8576040517f08c379a000000000000000000000000000000000000000000000000000000000815260040161159f9061295c565b60405180910390fd5b6115b66000838360016117bb565b6115bf8161177a565b156115ff576040517f08c379a00000000000000000000000000000000000000000000000000000000081526004016115f69061295c565b60405180910390fd5b6001600360008473ffffffffffffffffffffffffffffffffffffffff1673ffffffffffffffffffffffffffffffffffffffff16815260200190815260200160002060008282540192505081905550816002600083815260200190815260200160002060006101000a81548173ffffffffffffffffffffffffffffffffffffffff021916908373ffffffffffffffffffffffffffffffffffffffff160217905550808273ffffffffffffffffffffffffffffffffffffffff16600073ffffffffffffffffffffffffffffffffffffffff167fddf252ad1be2c89b69c2b068fc378daa952ba7f163c4a11628f55a4df523b3ef60405160405180910390a46117096000838360016117c1565b5050565b6117168261177a565b611755576040517f08c379a000000000000000000000000000000000000000000000000000000000815260040161174c906129ee565b60405180910390fd5b806006600084815260200190815260200160002090816117759190612bba565b505050565b60008073ffffffffffffffffffffffffffffffffffffffff1661179c83611256565b73ffffffffffffffffffffffffffffffffffffffff1614159050919050565b50505050565b50505050565b60006117e88473ffffffffffffffffffffffffffffffffffffffff16611a1c565b15611941578373ffffffffffffffffffffffffffffffffffffffff1663150b7a02611811610df9565b8786866040518563ffffffff1660e01b81526004016118339493929190612ce1565b6020604051808303816000875af192505050801561186f57506040513d601f19601f8201168201806040525081019061186c9190612d42565b60015b6118f1573d806000811461189f576040519150601f19603f3d011682016040523d82523d6000602084013e6118a4565b606091505b5060008151036118e9576040517f08c379a00000000000000000000000000000000000000000000000000000000081526004016118e090612884565b60405180910390fd5b805181602001fd5b63150b7a0260e01b7bffffffffffffffffffffffffffffffffffffffffffffffffffffffff1916817bffffffffffffffffffffffffffffffffffffffffffffffffffffffff191614915050611946565b600190505b949350505050565b60606000600161195d84611a3f565b01905060008167ffffffffffffffff81111561197c5761197b611f5e565b5b6040519080825280601f01601f1916602001820160405280156119ae5781602001600182028036833780820191505090505b509050600082602001820190505b600115611a11578080600190039150507f3031323334353637383961626364656600000000000000000000000000000000600a86061a8153600a8581611a0557611a04612d6f565b5b049450600085036119bc575b819350505050919050565b6000808273ffffffffffffffffffffffffffffffffffffffff163b119050919050565b600080600090507a184f03e93ff9f4daa797ed6e38ed64bf6a1f0100000000000000008310611a9d577a184f03e93ff9f4daa797ed6e38ed64bf6a1f0100000000000000008381611a9357611a92612d6f565b5b0492506040810190505b6d04ee2d6d415b85acef81000000008310611ada576d04ee2d6d415b85acef81000000008381611ad057611acf612d6f565b5b0492506020810190505b662386f26fc100008310611b0957662386f26fc100008381611aff57611afe612d6f565b5b0492506010810190505b6305f5e1008310611b32576305f5e1008381611b2857611b27612d6f565b5b0492506008810190505b6127108310611b57576127108381611b4d57611b4c612d6f565b5b0492506004810190505b60648310611b7a5760648381611b7057611b6f612d6f565b5b0492506002810190505b600a8310611b89576001810190505b80915050919050565b6000604051905090565b600080fd5b600080fd5b60007fffffffff0000000000000000000000000000000000000000000000000000000082169050919050565b611bdb81611ba6565b8114611be657600080fd5b50565b600081359050611bf881611bd2565b92915050565b600060208284031215611c1457611c13611b9c565b5b6000611c2284828501611be9565b91505092915050565b60008115159050919050565b611c4081611c2b565b82525050565b6000602082019050611c5b6000830184611c37565b92915050565b600081519050919050565b600082825260208201905092915050565b60005b83811015611c9b578082015181840152602081019050611c80565b60008484015250505050565b6000601f19601f8301169050919050565b6000611cc382611c61565b611ccd8185611c6c565b9350611cdd818560208601611c7d565b611ce681611ca7565b840191505092915050565b60006020820190508181036000830152611d0b8184611cb8565b905092915050565b6000819050919050565b611d2681611d13565b8114611d3157600080fd5b50565b600081359050611d4381611d1d565b92915050565b600060208284031215611d5f57611d5e611b9c565b5b6000611d6d84828501611d34565b91505092915050565b600073ffffffffffffffffffffffffffffffffffffffff82169050919050565b6000611da182611d76565b9050919050565b611db181611d96565b82525050565b6000602082019050611dcc6000830184611da8565b92915050565b611ddb81611d96565b8114611de657600080fd5b50565b600081359050611df881611dd2565b92915050565b60008060408385031215611e1557611e14611b9c565b5b6000611e2385828601611de9565b9250506020611e3485828601611d34565b9150509250929050565b611e4781611d13565b82525050565b6000602082019050611e626000830184611e3e565b92915050565b600080600060608486031215611e8157611e80611b9c565b5b6000611e8f86828701611de9565b9350506020611ea086828701611de9565b9250506040611eb186828701611d34565b9150509250925092565b600060208284031215611ed157611ed0611b9c565b5b6000611edf84828501611de9565b91505092915050565b611ef181611c2b565b8114611efc57600080fd5b50565b600081359050611f0e81611ee8565b92915050565b60008060408385031215611f2b57611f2a611b9c565b5b6000611f3985828601611de9565b9250506020611f4a85828601611eff565b9150509250929050565b600080fd5b600080fd5b7f4e487b7100000000000000000000000000000000000000000000000000000000600052604160045260246000fd5b611f9682611ca7565b810181811067ffffffffffffffff82111715611fb557611fb4611f5e565b5b80604052505050565b6000611fc8611b92565b9050611fd48282611f8d565b919050565b600067ffffffffffffffff821115611ff457611ff3611f5e565b5b611ffd82611ca7565b9050602081019050919050565b82818337600083830152505050565b600061202c61202784611fd9565b611fbe565b90508281526020810184848401111561204857612047611f59565b5b61205384828561200a565b509392505050565b600082601f8301126120705761206f611f54565b5b8135612080848260208601612019565b91505092915050565b600080600080608085870312156120a3576120a2611b9c565b5b60006120b187828801611de9565b94505060206120c287828801611de9565b93505060406120d387828801611d34565b925050606085013567ffffffffffffffff8111156120f4576120f3611ba1565b5b6121008782880161205b565b91505092959194509250565b600067ffffffffffffffff82111561212757612126611f5e565b5b61213082611ca7565b9050602081019050919050565b600061215061214b8461210c565b611fbe565b90508281526020810184848401111561216c5761216b611f59565b5b61217784828561200a565b509392505050565b600082601f83011261219457612193611f54565b5b81356121a484826020860161213d565b91505092915050565b6000602082840312156121c3576121c2611b9c565b5b600082013567ffffffffffffffff8111156121e1576121e0611ba1565b5b6121ed8482850161217f565b91505092915050565b6000806040838503121561220d5761220c611b9c565b5b600061221b85828601611de9565b925050602061222c85828601611de9565b9150509250929050565b7f4e487b7100000000000000000000000000000000000000000000000000000000600052602260045260246000fd5b6000600282049050600182168061227d57607f821691505b6020821081036122905761228f612236565b5b50919050565b7f4552433732313a20617070726f76616c20746f2063757272656e74206f776e6560008201527f7200000000000000000000000000000000000000000000000000000000000000602082015250565b60006122f2602183611c6c565b91506122fd82612296565b604082019050919050565b60006020820190508181036000830152612321816122e5565b9050919050565b7f4552433732313a20617070726f76652063616c6c6572206973206e6f7420746f60008201527f6b656e206f776e6572206f7220617070726f76656420666f7220616c6c000000602082015250565b6000612384603d83611c6c565b915061238f82612328565b604082019050919050565b600060208201905081810360008301526123b381612377565b9050919050565b7f4552433732313a2063616c6c6572206973206e6f7420746f6b656e206f776e6560008201527f72206f7220617070726f76656400000000000000000000000000000000000000602082015250565b6000612416602d83611c6c565b9150612421826123ba565b604082019050919050565b6000602082019050818103600083015261244581612409565b9050919050565b600081905092915050565b50565b600061246760008361244c565b915061247282612457565b600082019050919050565b60006124888261245a565b9150819050919050565b7f4552433732313a20696e76616c696420746f6b656e2049440000000000000000600082015250565b60006124c8601883611c6c565b91506124d382612492565b602082019050919050565b600060208201905081810360008301526124f7816124bb565b9050919050565b7f4552433732313a207472616e736665722063616c6c6572206973206e6f74206f60008201527f776e6572206e6f7220617070726f766564000000000000000000000000000000602082015250565b600061255a603183611c6c565b9150612565826124fe565b604082019050919050565b600060208201905081810360008301526125898161254d565b9050919050565b7f4552433732313a2061646472657373207a65726f206973206e6f74206120766160008201527f6c6964206f776e65720000000000000000000000000000000000000000000000602082015250565b60006125ec602983611c6c565b91506125f782612590565b604082019050919050565b6000602082019050818103600083015261261b816125df565b9050919050565b600081905092915050565b600061263882611c61565b6126428185612622565b9350612652818560208601611c7d565b80840191505092915050565b600061266a828561262d565b9150612676828461262d565b91508190509392505050565b7f4552433732313a207472616e736665722066726f6d20696e636f72726563742060008201527f6f776e6572000000000000000000000000000000000000000000000000000000602082015250565b60006126de602583611c6c565b91506126e982612682565b604082019050919050565b6000602082019050818103600083015261270d816126d1565b9050919050565b7f4552433732313a207472616e7366657220746f20746865207a65726f2061646460008201527f7265737300000000000000000000000000000000000000000000000000000000602082015250565b6000612770602483611c6c565b915061277b82612714565b604082019050919050565b6000602082019050818103600083015261279f81612763565b9050919050565b7f4552433732313a20617070726f766520746f2063616c6c657200000000000000600082015250565b60006127dc601983611c6c565b91506127e7826127a6565b602082019050919050565b6000602082019050818103600083015261280b816127cf565b9050919050565b7f4552433732313a207472616e7366657220746f206e6f6e20455243373231526560008201527f63656976657220696d706c656d656e7465720000000000000000000000000000602082015250565b600061286e603283611c6c565b915061287982612812565b604082019050919050565b6000602082019050818103600083015261289d81612861565b9050919050565b7f4552433732313a206d696e7420746f20746865207a65726f2061646472657373600082015250565b60006128da602083611c6c565b91506128e5826128a4565b602082019050919050565b60006020820190508181036000830152612909816128cd565b9050919050565b7f4552433732313a20746f6b656e20616c7265616479206d696e74656400000000600082015250565b6000612946601c83611c6c565b915061295182612910565b602082019050919050565b6000602082019050818103600083015261297581612939565b9050919050565b7f45524337323155524953746f726167653a2055524920736574206f66206e6f6e60008201527f6578697374656e7420746f6b656e000000000000000000000000000000000000602082015250565b60006129d8602e83611c6c565b91506129e38261297c565b604082019050919050565b60006020820190508181036000830152612a07816129cb565b9050919050565b60008190508160005260206000209050919050565b60006020601f8301049050919050565b600082821b905092915050565b600060088302612a707fffffffffffffffffffffffffffffffffffffffffffffffffffffffffffffffff82612a33565b612a7a8683612a33565b95508019841693508086168417925050509392505050565b6000819050919050565b6000612ab7612ab2612aad84611d13565b612a92565b611d13565b9050919050565b6000819050919050565b612ad183612a9c565b612ae5612add82612abe565b848454612a40565b825550505050565b600090565b612afa612aed565b612b05818484612ac8565b505050565b5b81811015612b2957612b1e600082612af2565b600181019050612b0b565b5050565b601f821115612b6e57612b3f81612a0e565b612b4884612a23565b81016020851015612b57578190505b612b6b612b6385612a23565b830182612b0a565b50505b505050565b600082821c905092915050565b6000612b9160001984600802612b73565b1980831691505092915050565b6000612baa8383612b80565b9150826002028217905092915050565b612bc382611c61565b67ffffffffffffffff811115612bdc57612bdb611f5e565b5b612be68254612265565b612bf1828285612b2d565b600060209050601f831160018114612c245760008415612c12578287015190505b612c1c8582612b9e565b865550612c84565b601f198416612c3286612a0e565b60005b82811015612c5a57848901518255600182019150602085019450602081019050612c35565b86831015612c775784890151612c73601f891682612b80565b8355505b6001600288020188555050505b505050505050565b600081519050919050565b600082825260208201905092915050565b6000612cb382612c8c565b612cbd8185612c97565b9350612ccd818560208601611c7d565b612cd681611ca7565b840191505092915050565b6000608082019050612cf66000830187611da8565b612d036020830186611da8565b612d106040830185611e3e565b8181036060830152612d228184612ca8565b905095945050505050565b600081519050612d3c81611bd2565b92915050565b600060208284031215612d5857612d57611b9c565b5b6000612d6684828501612d2d565b91505092915050565b7f4e487b7100000000000000000000000000000000000000000000000000000000600052601260045260246000fdfea2646970667358221220d93c9198f0826bbad1533c4616c8fe8783d876544f1b844cb0f487ef575f602d64736f6c63430008130033",
  "immutableReferences": {},
  "source": "// SPDX-License-Identifier: MIT\r\npragma solidity ^0.8.0;\r\n\r\nimport \"@openzeppelin/contracts/utils/Counters.sol\";\r\nimport \"@openzeppelin/contracts/token/ERC721/ERC721.sol\";\r\nimport \"@openzeppelin/contracts/token/ERC721/extensions/ERC721URIStorage.sol\";\r\n\r\ncontract NFT is ERC721URIStorage {\r\n  using Counters for Counters.Counter;\r\n  Counters.Counter private _tokenIds;\r\n\r\n  address public owner;\r\n\r\n  constructor(string memory _name, string memory _symbol)\r\n  ERC721(_name, _symbol)\r\n  {\r\n    owner = msg.sender;\r\n  }\r\n\r\n  //minting function with the uri of the image uploaded to ipfs\r\n  function mint(string memory tokenURI) public payable {\r\n    _tokenIds.increment();\r\n\r\n    uint256 newItemId = _tokenIds.current();\r\n    _mint(msg.sender, newItemId);\r\n    _setTokenURI(newItemId, tokenURI);\r\n  }\r\n\r\n  //transfer function\r\n  function transferNFT(\r\n    address from,\r\n    address to,\r\n    uint256 tokenId\r\n  ) public {\r\n    require(\r\n      _isApprovedOrOwner(msg.sender, tokenId),\r\n      \"ERC721: transfer caller is not owner nor approved\"\r\n    );\r\n    _transfer(from, to, tokenId);\r\n  }\r\n\r\n  function totalSupply() public view returns (uint256) {\r\n    return _tokenIds.current();\r\n  }\r\n\r\n  function withdraw() public {\r\n    require(msg.sender == owner);\r\n    (bool success, ) = owner.call{value: address(this).balance}(\"\");\r\n    require(success);\r\n  }\r\n}\r\n",
  "sourcePath": "C:\\Users\\yousf\\Bureau\\ppp_project\\z-wallet\\contracts\\NFT.sol",
  "compiler": {
    "name": "solc",
    "version": "0.8.19+commit.7dd6d404.Emscripten.clang"
  },
  "schemaVersion": "3.4.13",
  "updatedAt": "2023-05-08T11:55:38.777Z",
  "devdoc": {
    "events": {
      "Approval(address,address,uint256)": {
        "details": "Emitted when `owner` enables `approved` to manage the `tokenId` token."
      },
      "ApprovalForAll(address,address,bool)": {
        "details": "Emitted when `owner` enables or disables (`approved`) `operator` to manage all of its assets."
      },
      "Transfer(address,address,uint256)": {
        "details": "Emitted when `tokenId` token is transferred from `from` to `to`."
      }
    },
    "kind": "dev",
    "methods": {
      "approve(address,uint256)": {
        "details": "See {IERC721-approve}."
      },
      "balanceOf(address)": {
        "details": "See {IERC721-balanceOf}."
      },
      "getApproved(uint256)": {
        "details": "See {IERC721-getApproved}."
      },
      "isApprovedForAll(address,address)": {
        "details": "See {IERC721-isApprovedForAll}."
      },
      "name()": {
        "details": "See {IERC721Metadata-name}."
      },
      "ownerOf(uint256)": {
        "details": "See {IERC721-ownerOf}."
      },
      "safeTransferFrom(address,address,uint256)": {
        "details": "See {IERC721-safeTransferFrom}."
      },
      "safeTransferFrom(address,address,uint256,bytes)": {
        "details": "See {IERC721-safeTransferFrom}."
      },
      "setApprovalForAll(address,bool)": {
        "details": "See {IERC721-setApprovalForAll}."
      },
      "supportsInterface(bytes4)": {
        "details": "See {IERC165-supportsInterface}."
      },
      "symbol()": {
        "details": "See {IERC721Metadata-symbol}."
      },
      "tokenURI(uint256)": {
        "details": "See {IERC721Metadata-tokenURI}."
      },
      "transferFrom(address,address,uint256)": {
        "details": "See {IERC721-transferFrom}."
      }
    },
    "version": 1
  },
  "userdoc": {
    "kind": "user",
    "methods": {},
    "version": 1
  }
}