{
  "contractName": "NFT",
  "abi": [
    {
      "inputs": [
        {
          "internalType": "string",
          "name": "_name",
          "type": "string"
        },
        {
          "internalType": "string",
          "name": "_symbol",
          "type": "string"
        },
        {
          "internalType": "string",
          "name": "_initBaseURI",
          "type": "string"
        }
      ],
      "stateMutability": "nonpayable",
      "type": "constructor"
    },
    {
      "anonymous": false,
      "inputs": [
        {
          "indexed": true,
          "internalType": "address",
          "name": "owner",
          "type": "address"
        },
        {
          "indexed": true,
          "internalType": "address",
          "name": "approved",
          "type": "address"
        },
        {
          "indexed": true,
          "internalType": "uint256",
          "name": "tokenId",
          "type": "uint256"
        }
      ],
      "name": "Approval",
      "type": "event"
    },
    {
      "anonymous": false,
      "inputs": [
        {
          "indexed": true,
          "internalType": "address",
          "name": "owner",
          "type": "address"
        },
        {
          "indexed": true,
          "internalType": "address",
          "name": "operator",
          "type": "address"
        },
        {
          "indexed": false,
          "internalType": "bool",
          "name": "approved",
          "type": "bool"
        }
      ],
      "name": "ApprovalForAll",
      "type": "event"
    },
    {
      "anonymous": false,
      "inputs": [
        {
          "indexed": true,
          "internalType": "address",
          "name": "previousOwner",
          "type": "address"
        },
        {
          "indexed": true,
          "internalType": "address",
          "name": "newOwner",
          "type": "address"
        }
      ],
      "name": "OwnershipTransferred",
      "type": "event"
    },
    {
      "anonymous": false,
      "inputs": [
        {
          "indexed": true,
          "internalType": "address",
          "name": "from",
          "type": "address"
        },
        {
          "indexed": true,
          "internalType": "address",
          "name": "to",
          "type": "address"
        },
        {
          "indexed": true,
          "internalType": "uint256",
          "name": "tokenId",
          "type": "uint256"
        }
      ],
      "name": "Transfer",
      "type": "event"
    },
    {
      "inputs": [
        {
          "internalType": "address",
          "name": "to",
          "type": "address"
        },
        {
          "internalType": "uint256",
          "name": "tokenId",
          "type": "uint256"
        }
      ],
      "name": "approve",
      "outputs": [],
      "stateMutability": "nonpayable",
      "type": "function"
    },
    {
      "inputs": [
        {
          "internalType": "address",
          "name": "owner",
          "type": "address"
        }
      ],
      "name": "balanceOf",
      "outputs": [
        {
          "internalType": "uint256",
          "name": "",
          "type": "uint256"
        }
      ],
      "stateMutability": "view",
      "type": "function"
    },
    {
      "inputs": [],
      "name": "baseExtension",
      "outputs": [
        {
          "internalType": "string",
          "name": "",
          "type": "string"
        }
      ],
      "stateMutability": "view",
      "type": "function"
    },
    {
      "inputs": [],
      "name": "baseImage",
      "outputs": [
        {
          "internalType": "string",
          "name": "",
          "type": "string"
        }
      ],
      "stateMutability": "view",
      "type": "function"
    },
    {
      "inputs": [
        {
          "internalType": "uint256",
          "name": "tokenId",
          "type": "uint256"
        }
      ],
      "name": "getApproved",
      "outputs": [
        {
          "internalType": "address",
          "name": "",
          "type": "address"
        }
      ],
      "stateMutability": "view",
      "type": "function"
    },
    {
      "inputs": [
        {
          "internalType": "address",
          "name": "owner",
          "type": "address"
        },
        {
          "internalType": "address",
          "name": "operator",
          "type": "address"
        }
      ],
      "name": "isApprovedForAll",
      "outputs": [
        {
          "internalType": "bool",
          "name": "",
          "type": "bool"
        }
      ],
      "stateMutability": "view",
      "type": "function"
    },
    {
      "inputs": [],
      "name": "name",
      "outputs": [
        {
          "internalType": "string",
          "name": "",
          "type": "string"
        }
      ],
      "stateMutability": "view",
      "type": "function"
    },
    {
      "inputs": [],
      "name": "owner",
      "outputs": [
        {
          "internalType": "address",
          "name": "",
          "type": "address"
        }
      ],
      "stateMutability": "view",
      "type": "function"
    },
    {
      "inputs": [
        {
          "internalType": "uint256",
          "name": "tokenId",
          "type": "uint256"
        }
      ],
      "name": "ownerOf",
      "outputs": [
        {
          "internalType": "address",
          "name": "",
          "type": "address"
        }
      ],
      "stateMutability": "view",
      "type": "function"
    },
    {
      "inputs": [],
      "name": "renounceOwnership",
      "outputs": [],
      "stateMutability": "nonpayable",
      "type": "function"
    },
    {
      "inputs": [
        {
          "internalType": "address",
          "name": "from",
          "type": "address"
        },
        {
          "internalType": "address",
          "name": "to",
          "type": "address"
        },
        {
          "internalType": "uint256",
          "name": "tokenId",
          "type": "uint256"
        }
      ],
      "name": "safeTransferFrom",
      "outputs": [],
      "stateMutability": "nonpayable",
      "type": "function"
    },
    {
      "inputs": [
        {
          "internalType": "address",
          "name": "from",
          "type": "address"
        },
        {
          "internalType": "address",
          "name": "to",
          "type": "address"
        },
        {
          "internalType": "uint256",
          "name": "tokenId",
          "type": "uint256"
        },
        {
          "internalType": "bytes",
          "name": "data",
          "type": "bytes"
        }
      ],
      "name": "safeTransferFrom",
      "outputs": [],
      "stateMutability": "nonpayable",
      "type": "function"
    },
    {
      "inputs": [
        {
          "internalType": "address",
          "name": "operator",
          "type": "address"
        },
        {
          "internalType": "bool",
          "name": "approved",
          "type": "bool"
        }
      ],
      "name": "setApprovalForAll",
      "outputs": [],
      "stateMutability": "nonpayable",
      "type": "function"
    },
    {
      "inputs": [
        {
          "internalType": "bytes4",
          "name": "interfaceId",
          "type": "bytes4"
        }
      ],
      "name": "supportsInterface",
      "outputs": [
        {
          "internalType": "bool",
          "name": "",
          "type": "bool"
        }
      ],
      "stateMutability": "view",
      "type": "function"
    },
    {
      "inputs": [],
      "name": "symbol",
      "outputs": [
        {
          "internalType": "string",
          "name": "",
          "type": "string"
        }
      ],
      "stateMutability": "view",
      "type": "function"
    },
    {
      "inputs": [
        {
          "internalType": "uint256",
          "name": "index",
          "type": "uint256"
        }
      ],
      "name": "tokenByIndex",
      "outputs": [
        {
          "internalType": "uint256",
          "name": "",
          "type": "uint256"
        }
      ],
      "stateMutability": "view",
      "type": "function"
    },
    {
      "inputs": [
        {
          "internalType": "address",
          "name": "owner",
          "type": "address"
        },
        {
          "internalType": "uint256",
          "name": "index",
          "type": "uint256"
        }
      ],
      "name": "tokenOfOwnerByIndex",
      "outputs": [
        {
          "internalType": "uint256",
          "name": "",
          "type": "uint256"
        }
      ],
      "stateMutability": "view",
      "type": "function"
    },
    {
      "inputs": [],
      "name": "totalSupply",
      "outputs": [
        {
          "internalType": "uint256",
          "name": "",
          "type": "uint256"
        }
      ],
      "stateMutability": "view",
      "type": "function"
    },
    {
      "inputs": [
        {
          "internalType": "address",
          "name": "from",
          "type": "address"
        },
        {
          "internalType": "address",
          "name": "to",
          "type": "address"
        },
        {
          "internalType": "uint256",
          "name": "tokenId",
          "type": "uint256"
        }
      ],
      "name": "transferFrom",
      "outputs": [],
      "stateMutability": "nonpayable",
      "type": "function"
    },
    {
      "inputs": [
        {
          "internalType": "address",
          "name": "newOwner",
          "type": "address"
        }
      ],
      "name": "transferOwnership",
      "outputs": [],
      "stateMutability": "nonpayable",
      "type": "function"
    },
    {
      "inputs": [
        {
          "internalType": "string",
          "name": "_newBaseURI",
          "type": "string"
        }
      ],
      "name": "setBaseURI",
      "outputs": [],
      "stateMutability": "nonpayable",
      "type": "function"
    },
    {
      "inputs": [],
      "name": "mint",
      "outputs": [],
      "stateMutability": "nonpayable",
      "type": "function"
    },
    {
      "inputs": [
        {
          "internalType": "address",
          "name": "from",
          "type": "address"
        },
        {
          "internalType": "address",
          "name": "to",
          "type": "address"
        },
        {
          "internalType": "uint256",
          "name": "tokenId",
          "type": "uint256"
        }
      ],
      "name": "transferNFT",
      "outputs": [],
      "stateMutability": "nonpayable",
      "type": "function"
    },
    {
      "inputs": [
        {
          "internalType": "uint256",
          "name": "tokenId",
          "type": "uint256"
        }
      ],
      "name": "tokenURI",
      "outputs": [
        {
          "internalType": "string",
          "name": "",
          "type": "string"
        }
      ],
      "stateMutability": "view",
      "type": "function"
    },
    {
      "inputs": [
        {
          "internalType": "uint256",
          "name": "tokenId",
          "type": "uint256"
        }
      ],
      "name": "toImage",
      "outputs": [
        {
          "internalType": "string",
          "name": "",
          "type": "string"
        }
      ],
      "stateMutability": "view",
      "type": "function"
    }
  ],
  "bytecode": "0x60806040526040518060400160405280600481526020017f6a736f6e00000000000000000000000000000000000000000000000000000000815250600c90816200004a919062000470565b506040518060400160405280600481526020017f7765627000000000000000000000000000000000000000000000000000000000815250600d908162000091919062000470565b503480156200009f57600080fd5b5060405162003e8938038062003e898339818101604052810190620000c59190620006bb565b82828160009081620000d8919062000470565b508060019081620000ea919062000470565b5050506200010d620001016200012860201b60201c565b6200013060201b60201c565b80600b90816200011e919062000470565b5050505062000774565b600033905090565b6000600a60009054906101000a900473ffffffffffffffffffffffffffffffffffffffff16905081600a60006101000a81548173ffffffffffffffffffffffffffffffffffffffff021916908373ffffffffffffffffffffffffffffffffffffffff1602179055508173ffffffffffffffffffffffffffffffffffffffff168173ffffffffffffffffffffffffffffffffffffffff167f8be0079c531659141344cd1fd0a4f28419497f9722a3daafe3b4186f6b6457e060405160405180910390a35050565b600081519050919050565b7f4e487b7100000000000000000000000000000000000000000000000000000000600052604160045260246000fd5b7f4e487b7100000000000000000000000000000000000000000000000000000000600052602260045260246000fd5b600060028204905060018216806200027857607f821691505b6020821081036200028e576200028d62000230565b5b50919050565b60008190508160005260206000209050919050565b60006020601f8301049050919050565b600082821b905092915050565b600060088302620002f87fffffffffffffffffffffffffffffffffffffffffffffffffffffffffffffffff82620002b9565b620003048683620002b9565b95508019841693508086168417925050509392505050565b6000819050919050565b6000819050919050565b6000620003516200034b62000345846200031c565b62000326565b6200031c565b9050919050565b6000819050919050565b6200036d8362000330565b620003856200037c8262000358565b848454620002c6565b825550505050565b600090565b6200039c6200038d565b620003a981848462000362565b505050565b5b81811015620003d157620003c560008262000392565b600181019050620003af565b5050565b601f8211156200042057620003ea8162000294565b620003f584620002a9565b8101602085101562000405578190505b6200041d6200041485620002a9565b830182620003ae565b50505b505050565b600082821c905092915050565b6000620004456000198460080262000425565b1980831691505092915050565b600062000460838362000432565b9150826002028217905092915050565b6200047b82620001f6565b67ffffffffffffffff81111562000497576200049662000201565b5b620004a382546200025f565b620004b0828285620003d5565b600060209050601f831160018114620004e85760008415620004d3578287015190505b620004df858262000452565b8655506200054f565b601f198416620004f88662000294565b60005b828110156200052257848901518255600182019150602085019450602081019050620004fb565b868310156200054257848901516200053e601f89168262000432565b8355505b6001600288020188555050505b505050505050565b6000604051905090565b600080fd5b600080fd5b600080fd5b600080fd5b6000601f19601f8301169050919050565b620005918262000575565b810181811067ffffffffffffffff82111715620005b357620005b262000201565b5b80604052505050565b6000620005c862000557565b9050620005d6828262000586565b919050565b600067ffffffffffffffff821115620005f957620005f862000201565b5b620006048262000575565b9050602081019050919050565b60005b838110156200063157808201518184015260208101905062000614565b60008484015250505050565b6000620006546200064e84620005db565b620005bc565b90508281526020810184848401111562000673576200067262000570565b5b6200068084828562000611565b509392505050565b600082601f830112620006a0576200069f6200056b565b5b8151620006b28482602086016200063d565b91505092915050565b600080600060608486031215620006d757620006d662000561565b5b600084015167ffffffffffffffff811115620006f857620006f762000566565b5b620007068682870162000688565b935050602084015167ffffffffffffffff8111156200072a576200072962000566565b5b620007388682870162000688565b925050604084015167ffffffffffffffff8111156200075c576200075b62000566565b5b6200076a8682870162000688565b9150509250925092565b61370580620007846000396000f3fe608060405234801561001057600080fd5b50600436106101735760003560e01c806355f804b3116100de57806395d89b4111610097578063c668286211610071578063c668286214610436578063c87b56dd14610454578063e985e9c514610484578063f2fde38b146104b457610173565b806395d89b41146103e0578063a22cb465146103fe578063b88d4fde1461041a57610173565b806355f804b3146103205780636352211e1461033c57806369e9cae11461036c57806370a0823114610388578063715018a6146103b85780638da5cb5b146103c257610173565b806318160ddd1161013057806318160ddd1461023a57806323b872dd146102585780632f745c5914610274578063338d8dc5146102a457806342842e0e146102d45780634f6ccce7146102f057610173565b806301ffc9a71461017857806303b0f38d146101a857806306fdde03146101c6578063081812fc146101e4578063095ea7b3146102145780631249c58b14610230575b600080fd5b610192600480360381019061018d91906121ab565b6104d0565b60405161019f91906121f3565b60405180910390f35b6101b061054a565b6040516101bd919061229e565b60405180910390f35b6101ce6105d8565b6040516101db919061229e565b60405180910390f35b6101fe60048036038101906101f991906122f6565b61066a565b60405161020b9190612364565b60405180910390f35b61022e600480360381019061022991906123ab565b6106b0565b005b6102386107c7565b005b6102426107e0565b60405161024f91906123fa565b60405180910390f35b610272600480360381019061026d9190612415565b6107ed565b005b61028e600480360381019061028991906123ab565b61084d565b60405161029b91906123fa565b60405180910390f35b6102be60048036038101906102b991906122f6565b6108f2565b6040516102cb919061229e565b60405180910390f35b6102ee60048036038101906102e99190612415565b61094d565b005b61030a600480360381019061030591906122f6565b61096d565b60405161031791906123fa565b60405180910390f35b61033a6004803603810190610335919061259d565b6109de565b005b610356600480360381019061035191906122f6565b6109f9565b6040516103639190612364565b60405180910390f35b61038660048036038101906103819190612415565b610a7f565b005b6103a2600480360381019061039d91906125e6565b610ad8565b6040516103af91906123fa565b60405180910390f35b6103c0610b8f565b005b6103ca610ba3565b6040516103d79190612364565b60405180910390f35b6103e8610bcd565b6040516103f5919061229e565b60405180910390f35b6104186004803603810190610413919061263f565b610c5f565b005b610434600480360381019061042f9190612720565b610c75565b005b61043e610cd7565b60405161044b919061229e565b60405180910390f35b61046e600480360381019061046991906122f6565b610d65565b60405161047b919061229e565b60405180910390f35b61049e600480360381019061049991906127a3565b610e08565b6040516104ab91906121f3565b60405180910390f35b6104ce60048036038101906104c991906125e6565b610e9c565b005b60007f780e9d63000000000000000000000000000000000000000000000000000000007bffffffffffffffffffffffffffffffffffffffffffffffffffffffff1916827bffffffffffffffffffffffffffffffffffffffffffffffffffffffff19161480610543575061054282610f1f565b5b9050919050565b600d805461055790612812565b80601f016020809104026020016040519081016040528092919081815260200182805461058390612812565b80156105d05780601f106105a5576101008083540402835291602001916105d0565b820191906000526020600020905b8154815290600101906020018083116105b357829003601f168201915b505050505081565b6060600080546105e790612812565b80601f016020809104026020016040519081016040528092919081815260200182805461061390612812565b80156106605780601f1061063557610100808354040283529160200191610660565b820191906000526020600020905b81548152906001019060200180831161064357829003601f168201915b5050505050905090565b600061067582611001565b6004600083815260200190815260200160002060009054906101000a900473ffffffffffffffffffffffffffffffffffffffff169050919050565b60006106bb826109f9565b90508073ffffffffffffffffffffffffffffffffffffffff168373ffffffffffffffffffffffffffffffffffffffff160361072b576040517f08c379a0000000000000000000000000000000000000000000000000000000008152600401610722906128b5565b60405180910390fd5b8073ffffffffffffffffffffffffffffffffffffffff1661074a61104c565b73ffffffffffffffffffffffffffffffffffffffff16148061077957506107788161077361104c565b610e08565b5b6107b8576040517f08c379a00000000000000000000000000000000000000000000000000000000081526004016107af90612947565b60405180910390fd5b6107c28383611054565b505050565b60006107d16107e0565b90506107dd338261110d565b50565b6000600880549050905090565b6107fe6107f861104c565b8261112b565b61083d576040517f08c379a0000000000000000000000000000000000000000000000000000000008152600401610834906129d9565b60405180910390fd5b6108488383836111c0565b505050565b600061085883610ad8565b8210610899576040517f08c379a000000000000000000000000000000000000000000000000000000000815260040161089090612a6b565b60405180910390fd5b600660008473ffffffffffffffffffffffffffffffffffffffff1673ffffffffffffffffffffffffffffffffffffffff168152602001908152602001600020600083815260200190815260200160002054905092915050565b60606000600b805461090390612812565b90501161091f5760405180602001604052806000815250610946565b600b82600d60405160200161093693929190612b4f565b6040516020818303038152906040525b9050919050565b61096883838360405180602001604052806000815250610c75565b505050565b60006109776107e0565b82106109b8576040517f08c379a00000000000000000000000000000000000000000000000000000000081526004016109af90612bf6565b60405180910390fd5b600882815481106109cc576109cb612c16565b5b90600052602060002001549050919050565b6109e66114b9565b80600b90816109f59190612ddc565b5050565b600080610a0583611537565b9050600073ffffffffffffffffffffffffffffffffffffffff168173ffffffffffffffffffffffffffffffffffffffff1603610a76576040517f08c379a0000000000000000000000000000000000000000000000000000000008152600401610a6d90612efa565b60405180910390fd5b80915050919050565b610a89338261112b565b610ac8576040517f08c379a0000000000000000000000000000000000000000000000000000000008152600401610abf90612f8c565b60405180910390fd5b610ad38383836111c0565b505050565b60008073ffffffffffffffffffffffffffffffffffffffff168273ffffffffffffffffffffffffffffffffffffffff1603610b48576040517f08c379a0000000000000000000000000000000000000000000000000000000008152600401610b3f9061301e565b60405180910390fd5b600360008373ffffffffffffffffffffffffffffffffffffffff1673ffffffffffffffffffffffffffffffffffffffff168152602001908152602001600020549050919050565b610b976114b9565b610ba16000611574565b565b6000600a60009054906101000a900473ffffffffffffffffffffffffffffffffffffffff16905090565b606060018054610bdc90612812565b80601f0160208091040260200160405190810160405280929190818152602001828054610c0890612812565b8015610c555780601f10610c2a57610100808354040283529160200191610c55565b820191906000526020600020905b815481529060010190602001808311610c3857829003601f168201915b5050505050905090565b610c71610c6a61104c565b838361163a565b5050565b610c86610c8061104c565b8361112b565b610cc5576040517f08c379a0000000000000000000000000000000000000000000000000000000008152600401610cbc906129d9565b60405180910390fd5b610cd1848484846117a6565b50505050565b600c8054610ce490612812565b80601f0160208091040260200160405190810160405280929190818152602001828054610d1090612812565b8015610d5d5780601f10610d3257610100808354040283529160200191610d5d565b820191906000526020600020905b815481529060010190602001808311610d4057829003601f168201915b505050505081565b6060610d7082611802565b610daf576040517f08c379a0000000000000000000000000000000000000000000000000000000008152600401610da6906130b0565b60405180910390fd5b6000600b8054610dbe90612812565b905011610dda5760405180602001604052806000815250610e01565b600b82600d604051602001610df193929190612b4f565b6040516020818303038152906040525b9050919050565b6000600560008473ffffffffffffffffffffffffffffffffffffffff1673ffffffffffffffffffffffffffffffffffffffff16815260200190815260200160002060008373ffffffffffffffffffffffffffffffffffffffff1673ffffffffffffffffffffffffffffffffffffffff16815260200190815260200160002060009054906101000a900460ff16905092915050565b610ea46114b9565b600073ffffffffffffffffffffffffffffffffffffffff168173ffffffffffffffffffffffffffffffffffffffff1603610f13576040517f08c379a0000000000000000000000000000000000000000000000000000000008152600401610f0a90613142565b60405180910390fd5b610f1c81611574565b50565b60007f80ac58cd000000000000000000000000000000000000000000000000000000007bffffffffffffffffffffffffffffffffffffffffffffffffffffffff1916827bffffffffffffffffffffffffffffffffffffffffffffffffffffffff19161480610fea57507f5b5e139f000000000000000000000000000000000000000000000000000000007bffffffffffffffffffffffffffffffffffffffffffffffffffffffff1916827bffffffffffffffffffffffffffffffffffffffffffffffffffffffff1916145b80610ffa5750610ff982611843565b5b9050919050565b61100a81611802565b611049576040517f08c379a000000000000000000000000000000000000000000000000000000000815260040161104090612efa565b60405180910390fd5b50565b600033905090565b816004600083815260200190815260200160002060006101000a81548173ffffffffffffffffffffffffffffffffffffffff021916908373ffffffffffffffffffffffffffffffffffffffff160217905550808273ffffffffffffffffffffffffffffffffffffffff166110c7836109f9565b73ffffffffffffffffffffffffffffffffffffffff167f8c5be1e5ebec7d5bd14f71427d1e84f3dd0314c0f7b2291e5b200ac8c7c3b92560405160405180910390a45050565b6111278282604051806020016040528060008152506118ad565b5050565b600080611137836109f9565b90508073ffffffffffffffffffffffffffffffffffffffff168473ffffffffffffffffffffffffffffffffffffffff16148061117957506111788185610e08565b5b806111b757508373ffffffffffffffffffffffffffffffffffffffff1661119f8461066a565b73ffffffffffffffffffffffffffffffffffffffff16145b91505092915050565b8273ffffffffffffffffffffffffffffffffffffffff166111e0826109f9565b73ffffffffffffffffffffffffffffffffffffffff1614611236576040517f08c379a000000000000000000000000000000000000000000000000000000000815260040161122d906131d4565b60405180910390fd5b600073ffffffffffffffffffffffffffffffffffffffff168273ffffffffffffffffffffffffffffffffffffffff16036112a5576040517f08c379a000000000000000000000000000000000000000000000000000000000815260040161129c90613266565b60405180910390fd5b6112b28383836001611908565b8273ffffffffffffffffffffffffffffffffffffffff166112d2826109f9565b73ffffffffffffffffffffffffffffffffffffffff1614611328576040517f08c379a000000000000000000000000000000000000000000000000000000000815260040161131f906131d4565b60405180910390fd5b6004600082815260200190815260200160002060006101000a81549073ffffffffffffffffffffffffffffffffffffffff02191690556001600360008573ffffffffffffffffffffffffffffffffffffffff1673ffffffffffffffffffffffffffffffffffffffff168152602001908152602001600020600082825403925050819055506001600360008473ffffffffffffffffffffffffffffffffffffffff1673ffffffffffffffffffffffffffffffffffffffff16815260200190815260200160002060008282540192505081905550816002600083815260200190815260200160002060006101000a81548173ffffffffffffffffffffffffffffffffffffffff021916908373ffffffffffffffffffffffffffffffffffffffff160217905550808273ffffffffffffffffffffffffffffffffffffffff168473ffffffffffffffffffffffffffffffffffffffff167fddf252ad1be2c89b69c2b068fc378daa952ba7f163c4a11628f55a4df523b3ef60405160405180910390a46114b48383836001611a66565b505050565b6114c161104c565b73ffffffffffffffffffffffffffffffffffffffff166114df610ba3565b73ffffffffffffffffffffffffffffffffffffffff1614611535576040517f08c379a000000000000000000000000000000000000000000000000000000000815260040161152c906132d2565b60405180910390fd5b565b60006002600083815260200190815260200160002060009054906101000a900473ffffffffffffffffffffffffffffffffffffffff169050919050565b6000600a60009054906101000a900473ffffffffffffffffffffffffffffffffffffffff16905081600a60006101000a81548173ffffffffffffffffffffffffffffffffffffffff021916908373ffffffffffffffffffffffffffffffffffffffff1602179055508173ffffffffffffffffffffffffffffffffffffffff168173ffffffffffffffffffffffffffffffffffffffff167f8be0079c531659141344cd1fd0a4f28419497f9722a3daafe3b4186f6b6457e060405160405180910390a35050565b8173ffffffffffffffffffffffffffffffffffffffff168373ffffffffffffffffffffffffffffffffffffffff16036116a8576040517f08c379a000000000000000000000000000000000000000000000000000000000815260040161169f9061333e565b60405180910390fd5b80600560008573ffffffffffffffffffffffffffffffffffffffff1673ffffffffffffffffffffffffffffffffffffffff16815260200190815260200160002060008473ffffffffffffffffffffffffffffffffffffffff1673ffffffffffffffffffffffffffffffffffffffff16815260200190815260200160002060006101000a81548160ff0219169083151502179055508173ffffffffffffffffffffffffffffffffffffffff168373ffffffffffffffffffffffffffffffffffffffff167f17307eab39ab6107e8899845ad3d59bd9653f200f220920489ca2b5937696c318360405161179991906121f3565b60405180910390a3505050565b6117b18484846111c0565b6117bd84848484611a6c565b6117fc576040517f08c379a00000000000000000000000000000000000000000000000000000000081526004016117f3906133d0565b60405180910390fd5b50505050565b60008073ffffffffffffffffffffffffffffffffffffffff1661182483611537565b73ffffffffffffffffffffffffffffffffffffffff1614159050919050565b60007f01ffc9a7000000000000000000000000000000000000000000000000000000007bffffffffffffffffffffffffffffffffffffffffffffffffffffffff1916827bffffffffffffffffffffffffffffffffffffffffffffffffffffffff1916149050919050565b6118b78383611bf3565b6118c46000848484611a6c565b611903576040517f08c379a00000000000000000000000000000000000000000000000000000000081526004016118fa906133d0565b60405180910390fd5b505050565b61191484848484611e10565b6001811115611958576040517f08c379a000000000000000000000000000000000000000000000000000000000815260040161194f90613462565b60405180910390fd5b6000829050600073ffffffffffffffffffffffffffffffffffffffff168573ffffffffffffffffffffffffffffffffffffffff160361199f5761199a81611e16565b6119de565b8373ffffffffffffffffffffffffffffffffffffffff168573ffffffffffffffffffffffffffffffffffffffff16146119dd576119dc8582611e5f565b5b5b600073ffffffffffffffffffffffffffffffffffffffff168473ffffffffffffffffffffffffffffffffffffffff1603611a2057611a1b81611fcc565b611a5f565b8473ffffffffffffffffffffffffffffffffffffffff168473ffffffffffffffffffffffffffffffffffffffff1614611a5e57611a5d848261209d565b5b5b5050505050565b50505050565b6000611a8d8473ffffffffffffffffffffffffffffffffffffffff1661211c565b15611be6578373ffffffffffffffffffffffffffffffffffffffff1663150b7a02611ab661104c565b8786866040518563ffffffff1660e01b8152600401611ad894939291906134d7565b6020604051808303816000875af1925050508015611b1457506040513d601f19601f82011682018060405250810190611b119190613538565b60015b611b96573d8060008114611b44576040519150601f19603f3d011682016040523d82523d6000602084013e611b49565b606091505b506000815103611b8e576040517f08c379a0000000000000000000000000000000000000000000000000000000008152600401611b85906133d0565b60405180910390fd5b805181602001fd5b63150b7a0260e01b7bffffffffffffffffffffffffffffffffffffffffffffffffffffffff1916817bffffffffffffffffffffffffffffffffffffffffffffffffffffffff191614915050611beb565b600190505b949350505050565b600073ffffffffffffffffffffffffffffffffffffffff168273ffffffffffffffffffffffffffffffffffffffff1603611c62576040517f08c379a0000000000000000000000000000000000000000000000000000000008152600401611c59906135b1565b60405180910390fd5b611c6b81611802565b15611cab576040517f08c379a0000000000000000000000000000000000000000000000000000000008152600401611ca29061361d565b60405180910390fd5b611cb9600083836001611908565b611cc281611802565b15611d02576040517f08c379a0000000000000000000000000000000000000000000000000000000008152600401611cf99061361d565b60405180910390fd5b6001600360008473ffffffffffffffffffffffffffffffffffffffff1673ffffffffffffffffffffffffffffffffffffffff16815260200190815260200160002060008282540192505081905550816002600083815260200190815260200160002060006101000a81548173ffffffffffffffffffffffffffffffffffffffff021916908373ffffffffffffffffffffffffffffffffffffffff160217905550808273ffffffffffffffffffffffffffffffffffffffff16600073ffffffffffffffffffffffffffffffffffffffff167fddf252ad1be2c89b69c2b068fc378daa952ba7f163c4a11628f55a4df523b3ef60405160405180910390a4611e0c600083836001611a66565b5050565b50505050565b6008805490506009600083815260200190815260200160002081905550600881908060018154018082558091505060019003906000526020600020016000909190919091505550565b60006001611e6c84610ad8565b611e76919061366c565b9050600060076000848152602001908152602001600020549050818114611f5b576000600660008673ffffffffffffffffffffffffffffffffffffffff1673ffffffffffffffffffffffffffffffffffffffff168152602001908152602001600020600084815260200190815260200160002054905080600660008773ffffffffffffffffffffffffffffffffffffffff1673ffffffffffffffffffffffffffffffffffffffff168152602001908152602001600020600084815260200190815260200160002081905550816007600083815260200190815260200160002081905550505b6007600084815260200190815260200160002060009055600660008573ffffffffffffffffffffffffffffffffffffffff1673ffffffffffffffffffffffffffffffffffffffff16815260200190815260200160002060008381526020019081526020016000206000905550505050565b60006001600880549050611fe0919061366c565b90506000600960008481526020019081526020016000205490506000600883815481106120105761200f612c16565b5b90600052602060002001549050806008838154811061203257612031612c16565b5b906000526020600020018190555081600960008381526020019081526020016000208190555060096000858152602001908152602001600020600090556008805480612081576120806136a0565b5b6001900381819060005260206000200160009055905550505050565b60006120a883610ad8565b905081600660008573ffffffffffffffffffffffffffffffffffffffff1673ffffffffffffffffffffffffffffffffffffffff168152602001908152602001600020600083815260200190815260200160002081905550806007600084815260200190815260200160002081905550505050565b6000808273ffffffffffffffffffffffffffffffffffffffff163b119050919050565b6000604051905090565b600080fd5b600080fd5b60007fffffffff0000000000000000000000000000000000000000000000000000000082169050919050565b61218881612153565b811461219357600080fd5b50565b6000813590506121a58161217f565b92915050565b6000602082840312156121c1576121c0612149565b5b60006121cf84828501612196565b91505092915050565b60008115159050919050565b6121ed816121d8565b82525050565b600060208201905061220860008301846121e4565b92915050565b600081519050919050565b600082825260208201905092915050565b60005b8381101561224857808201518184015260208101905061222d565b60008484015250505050565b6000601f19601f8301169050919050565b60006122708261220e565b61227a8185612219565b935061228a81856020860161222a565b61229381612254565b840191505092915050565b600060208201905081810360008301526122b88184612265565b905092915050565b6000819050919050565b6122d3816122c0565b81146122de57600080fd5b50565b6000813590506122f0816122ca565b92915050565b60006020828403121561230c5761230b612149565b5b600061231a848285016122e1565b91505092915050565b600073ffffffffffffffffffffffffffffffffffffffff82169050919050565b600061234e82612323565b9050919050565b61235e81612343565b82525050565b60006020820190506123796000830184612355565b92915050565b61238881612343565b811461239357600080fd5b50565b6000813590506123a58161237f565b92915050565b600080604083850312156123c2576123c1612149565b5b60006123d085828601612396565b92505060206123e1858286016122e1565b9150509250929050565b6123f4816122c0565b82525050565b600060208201905061240f60008301846123eb565b92915050565b60008060006060848603121561242e5761242d612149565b5b600061243c86828701612396565b935050602061244d86828701612396565b925050604061245e868287016122e1565b9150509250925092565b600080fd5b600080fd5b7f4e487b7100000000000000000000000000000000000000000000000000000000600052604160045260246000fd5b6124aa82612254565b810181811067ffffffffffffffff821117156124c9576124c8612472565b5b80604052505050565b60006124dc61213f565b90506124e882826124a1565b919050565b600067ffffffffffffffff82111561250857612507612472565b5b61251182612254565b9050602081019050919050565b82818337600083830152505050565b600061254061253b846124ed565b6124d2565b90508281526020810184848401111561255c5761255b61246d565b5b61256784828561251e565b509392505050565b600082601f83011261258457612583612468565b5b813561259484826020860161252d565b91505092915050565b6000602082840312156125b3576125b2612149565b5b600082013567ffffffffffffffff8111156125d1576125d061214e565b5b6125dd8482850161256f565b91505092915050565b6000602082840312156125fc576125fb612149565b5b600061260a84828501612396565b91505092915050565b61261c816121d8565b811461262757600080fd5b50565b60008135905061263981612613565b92915050565b6000806040838503121561265657612655612149565b5b600061266485828601612396565b92505060206126758582860161262a565b9150509250929050565b600067ffffffffffffffff82111561269a57612699612472565b5b6126a382612254565b9050602081019050919050565b60006126c36126be8461267f565b6124d2565b9050828152602081018484840111156126df576126de61246d565b5b6126ea84828561251e565b509392505050565b600082601f83011261270757612706612468565b5b81356127178482602086016126b0565b91505092915050565b6000806000806080858703121561273a57612739612149565b5b600061274887828801612396565b945050602061275987828801612396565b935050604061276a878288016122e1565b925050606085013567ffffffffffffffff81111561278b5761278a61214e565b5b612797878288016126f2565b91505092959194509250565b600080604083850312156127ba576127b9612149565b5b60006127c885828601612396565b92505060206127d985828601612396565b9150509250929050565b7f4e487b7100000000000000000000000000000000000000000000000000000000600052602260045260246000fd5b6000600282049050600182168061282a57607f821691505b60208210810361283d5761283c6127e3565b5b50919050565b7f4552433732313a20617070726f76616c20746f2063757272656e74206f776e6560008201527f7200000000000000000000000000000000000000000000000000000000000000602082015250565b600061289f602183612219565b91506128aa82612843565b604082019050919050565b600060208201905081810360008301526128ce81612892565b9050919050565b7f4552433732313a20617070726f76652063616c6c6572206973206e6f7420746f60008201527f6b656e206f776e6572206f7220617070726f76656420666f7220616c6c000000602082015250565b6000612931603d83612219565b915061293c826128d5565b604082019050919050565b6000602082019050818103600083015261296081612924565b9050919050565b7f4552433732313a2063616c6c6572206973206e6f7420746f6b656e206f776e6560008201527f72206f7220617070726f76656400000000000000000000000000000000000000602082015250565b60006129c3602d83612219565b91506129ce82612967565b604082019050919050565b600060208201905081810360008301526129f2816129b6565b9050919050565b7f455243373231456e756d657261626c653a206f776e657220696e646578206f7560008201527f74206f6620626f756e6473000000000000000000000000000000000000000000602082015250565b6000612a55602b83612219565b9150612a60826129f9565b604082019050919050565b60006020820190508181036000830152612a8481612a48565b9050919050565b600081905092915050565b60008190508160005260206000209050919050565b60008154612ab881612812565b612ac28186612a8b565b94506001821660008114612add5760018114612af257612b25565b60ff1983168652811515820286019350612b25565b612afb85612a96565b60005b83811015612b1d57815481890152600182019150602081019050612afe565b838801955050505b50505092915050565b6000819050919050565b612b49612b44826122c0565b612b2e565b82525050565b6000612b5b8286612aab565b9150612b678285612b38565b602082019150612b778284612aab565b9150819050949350505050565b7f455243373231456e756d657261626c653a20676c6f62616c20696e646578206f60008201527f7574206f6620626f756e64730000000000000000000000000000000000000000602082015250565b6000612be0602c83612219565b9150612beb82612b84565b604082019050919050565b60006020820190508181036000830152612c0f81612bd3565b9050919050565b7f4e487b7100000000000000000000000000000000000000000000000000000000600052603260045260246000fd5b60006020601f8301049050919050565b600082821b905092915050565b600060088302612c927fffffffffffffffffffffffffffffffffffffffffffffffffffffffffffffffff82612c55565b612c9c8683612c55565b95508019841693508086168417925050509392505050565b6000819050919050565b6000612cd9612cd4612ccf846122c0565b612cb4565b6122c0565b9050919050565b6000819050919050565b612cf383612cbe565b612d07612cff82612ce0565b848454612c62565b825550505050565b600090565b612d1c612d0f565b612d27818484612cea565b505050565b5b81811015612d4b57612d40600082612d14565b600181019050612d2d565b5050565b601f821115612d9057612d6181612a96565b612d6a84612c45565b81016020851015612d79578190505b612d8d612d8585612c45565b830182612d2c565b50505b505050565b600082821c905092915050565b6000612db360001984600802612d95565b1980831691505092915050565b6000612dcc8383612da2565b9150826002028217905092915050565b612de58261220e565b67ffffffffffffffff811115612dfe57612dfd612472565b5b612e088254612812565b612e13828285612d4f565b600060209050601f831160018114612e465760008415612e34578287015190505b612e3e8582612dc0565b865550612ea6565b601f198416612e5486612a96565b60005b82811015612e7c57848901518255600182019150602085019450602081019050612e57565b86831015612e995784890151612e95601f891682612da2565b8355505b6001600288020188555050505b505050505050565b7f4552433732313a20696e76616c696420746f6b656e2049440000000000000000600082015250565b6000612ee4601883612219565b9150612eef82612eae565b602082019050919050565b60006020820190508181036000830152612f1381612ed7565b9050919050565b7f4552433732313a207472616e736665722063616c6c6572206973206e6f74206f60008201527f776e6572206e6f7220617070726f766564000000000000000000000000000000602082015250565b6000612f76603183612219565b9150612f8182612f1a565b604082019050919050565b60006020820190508181036000830152612fa581612f69565b9050919050565b7f4552433732313a2061646472657373207a65726f206973206e6f74206120766160008201527f6c6964206f776e65720000000000000000000000000000000000000000000000602082015250565b6000613008602983612219565b915061301382612fac565b604082019050919050565b6000602082019050818103600083015261303781612ffb565b9050919050565b7f4552433732314d657461646174613a4e6f20746f6b656e20776974682074686960008201527f7320696400000000000000000000000000000000000000000000000000000000602082015250565b600061309a602483612219565b91506130a58261303e565b604082019050919050565b600060208201905081810360008301526130c98161308d565b9050919050565b7f4f776e61626c653a206e6577206f776e657220697320746865207a65726f206160008201527f6464726573730000000000000000000000000000000000000000000000000000602082015250565b600061312c602683612219565b9150613137826130d0565b604082019050919050565b6000602082019050818103600083015261315b8161311f565b9050919050565b7f4552433732313a207472616e736665722066726f6d20696e636f72726563742060008201527f6f776e6572000000000000000000000000000000000000000000000000000000602082015250565b60006131be602583612219565b91506131c982613162565b604082019050919050565b600060208201905081810360008301526131ed816131b1565b9050919050565b7f4552433732313a207472616e7366657220746f20746865207a65726f2061646460008201527f7265737300000000000000000000000000000000000000000000000000000000602082015250565b6000613250602483612219565b915061325b826131f4565b604082019050919050565b6000602082019050818103600083015261327f81613243565b9050919050565b7f4f776e61626c653a2063616c6c6572206973206e6f7420746865206f776e6572600082015250565b60006132bc602083612219565b91506132c782613286565b602082019050919050565b600060208201905081810360008301526132eb816132af565b9050919050565b7f4552433732313a20617070726f766520746f2063616c6c657200000000000000600082015250565b6000613328601983612219565b9150613333826132f2565b602082019050919050565b600060208201905081810360008301526133578161331b565b9050919050565b7f4552433732313a207472616e7366657220746f206e6f6e20455243373231526560008201527f63656976657220696d706c656d656e7465720000000000000000000000000000602082015250565b60006133ba603283612219565b91506133c58261335e565b604082019050919050565b600060208201905081810360008301526133e9816133ad565b9050919050565b7f455243373231456e756d657261626c653a20636f6e736563757469766520747260008201527f616e7366657273206e6f7420737570706f727465640000000000000000000000602082015250565b600061344c603583612219565b9150613457826133f0565b604082019050919050565b6000602082019050818103600083015261347b8161343f565b9050919050565b600081519050919050565b600082825260208201905092915050565b60006134a982613482565b6134b3818561348d565b93506134c381856020860161222a565b6134cc81612254565b840191505092915050565b60006080820190506134ec6000830187612355565b6134f96020830186612355565b61350660408301856123eb565b8181036060830152613518818461349e565b905095945050505050565b6000815190506135328161217f565b92915050565b60006020828403121561354e5761354d612149565b5b600061355c84828501613523565b91505092915050565b7f4552433732313a206d696e7420746f20746865207a65726f2061646472657373600082015250565b600061359b602083612219565b91506135a682613565565b602082019050919050565b600060208201905081810360008301526135ca8161358e565b9050919050565b7f4552433732313a20746f6b656e20616c7265616479206d696e74656400000000600082015250565b6000613607601c83612219565b9150613612826135d1565b602082019050919050565b60006020820190508181036000830152613636816135fa565b9050919050565b7f4e487b7100000000000000000000000000000000000000000000000000000000600052601160045260246000fd5b6000613677826122c0565b9150613682836122c0565b925082820390508181111561369a5761369961363d565b5b92915050565b7f4e487b7100000000000000000000000000000000000000000000000000000000600052603160045260246000fdfea264697066735822122042359b2ba59c05e786fd78beb7168446b83245e67300427e3e876513252dde0964736f6c63430008130033",
  "immutableReferences": {},
  "source": "// SPDX-License-Identifier: MIT\r\npragma solidity ^0.8.19;\r\n\r\nimport \"@openzeppelin/contracts/token/ERC721/extensions/ERC721Enumerable.sol\";\r\nimport \"@openzeppelin/contracts/access/Ownable.sol\";\r\n\r\ncontract NFT is ERC721Enumerable, Ownable {\r\n  using Strings for uint256;\r\n  string private baseURI;\r\n  string public baseExtension = \"json\";\r\n  string public baseImage = \"webp\";\r\n\r\n  constructor(\r\n    string memory _name,\r\n    string memory _symbol,\r\n    string memory _initBaseURI\r\n  ) ERC721(_name, _symbol) {\r\n    baseURI = _initBaseURI;\r\n  }\r\n\r\n  function setBaseURI(string memory _newBaseURI) public onlyOwner {\r\n    baseURI = _newBaseURI;\r\n  }\r\n\r\n  function mint() public {\r\n    uint256 supply = totalSupply();\r\n    _safeMint(msg.sender, supply);\r\n    //    minted.push(MintedStruct(supply+1,msg.sender,toImage(supply+1),block.timestamp));\r\n    //    emit Minted(supply+1,msg.sender,tokenURI(supply+1),block.timestamp);\r\n  }\r\n\r\n  function transferNFT(\r\n    address from,\r\n    address to,\r\n    uint256 tokenId\r\n  ) public {\r\n    require(\r\n      _isApprovedOrOwner(msg.sender, tokenId),\r\n      \"ERC721: transfer caller is not owner nor approved\"\r\n    );\r\n    _transfer(from, to, tokenId);\r\n  }\r\n\r\n  function tokenURI(uint256 tokenId)\r\n  public\r\n  view\r\n  virtual\r\n  override\r\n  returns (string memory)\r\n  {\r\n    require(_exists(tokenId), \"ERC721Metadata:No token with this id\");\r\n    return\r\n    bytes(baseURI).length > 0\r\n    ? string(abi.encodePacked(baseURI, tokenId, baseImage))\r\n    : \"\";\r\n  }\r\n\r\n  function toImage(uint256 tokenId)\r\n  public\r\n  view\r\n  virtual\r\n  returns (string memory)\r\n  {\r\n    return\r\n    bytes(baseURI).length > 0\r\n    ? string(abi.encodePacked(baseURI, tokenId, baseImage))\r\n    : \"\";\r\n  }\r\n  //  function getAnNFt(uint256 tokenId) public view returns (MintedStruct memory){\r\n  //    return minted[tokenId-1];\r\n  //  }\r\n  //  function transferTo(address to, uint256 tokenId) public {\r\n  //    require(msg.sender == minted[tokenId-1].nftOwner , \"only the owner of the nft can send it\");\r\n  //    minted[tokenId-1].nftOwner = to;\r\n  //  }\r\n}\r\n",
  "sourcePath": "C:\\Users\\yousf\\Bureau\\ppp_project\\z-wallet\\contracts\\NFT.sol",
  "compiler": {
    "name": "solc",
    "version": "0.8.19+commit.7dd6d404.Emscripten.clang"
  },
  "schemaVersion": "3.4.13",
  "updatedAt": "2023-05-06T11:42:23.972Z",
  "devdoc": {
    "events": {
      "Approval(address,address,uint256)": {
        "details": "Emitted when `owner` enables `approved` to manage the `tokenId` token."
      },
      "ApprovalForAll(address,address,bool)": {
        "details": "Emitted when `owner` enables or disables (`approved`) `operator` to manage all of its assets."
      },
      "Transfer(address,address,uint256)": {
        "details": "Emitted when `tokenId` token is transferred from `from` to `to`."
      }
    },
    "kind": "dev",
    "methods": {
      "approve(address,uint256)": {
        "details": "See {IERC721-approve}."
      },
      "balanceOf(address)": {
        "details": "See {IERC721-balanceOf}."
      },
      "getApproved(uint256)": {
        "details": "See {IERC721-getApproved}."
      },
      "isApprovedForAll(address,address)": {
        "details": "See {IERC721-isApprovedForAll}."
      },
      "name()": {
        "details": "See {IERC721Metadata-name}."
      },
      "owner()": {
        "details": "Returns the address of the current owner."
      },
      "ownerOf(uint256)": {
        "details": "See {IERC721-ownerOf}."
      },
      "renounceOwnership()": {
        "details": "Leaves the contract without owner. It will not be possible to call `onlyOwner` functions anymore. Can only be called by the current owner. NOTE: Renouncing ownership will leave the contract without an owner, thereby removing any functionality that is only available to the owner."
      },
      "safeTransferFrom(address,address,uint256)": {
        "details": "See {IERC721-safeTransferFrom}."
      },
      "safeTransferFrom(address,address,uint256,bytes)": {
        "details": "See {IERC721-safeTransferFrom}."
      },
      "setApprovalForAll(address,bool)": {
        "details": "See {IERC721-setApprovalForAll}."
      },
      "supportsInterface(bytes4)": {
        "details": "See {IERC165-supportsInterface}."
      },
      "symbol()": {
        "details": "See {IERC721Metadata-symbol}."
      },
      "tokenByIndex(uint256)": {
        "details": "See {IERC721Enumerable-tokenByIndex}."
      },
      "tokenOfOwnerByIndex(address,uint256)": {
        "details": "See {IERC721Enumerable-tokenOfOwnerByIndex}."
      },
      "tokenURI(uint256)": {
        "details": "See {IERC721Metadata-tokenURI}."
      },
      "totalSupply()": {
        "details": "See {IERC721Enumerable-totalSupply}."
      },
      "transferFrom(address,address,uint256)": {
        "details": "See {IERC721-transferFrom}."
      },
      "transferOwnership(address)": {
        "details": "Transfers ownership of the contract to a new account (`newOwner`). Can only be called by the current owner."
      }
    },
    "version": 1
  },
  "userdoc": {
    "kind": "user",
    "methods": {},
    "version": 1
  }
}