{
  "contractName": "ZCoin",
  "abi": [
    {
      "inputs": [],
      "stateMutability": "nonpayable",
      "type": "constructor"
    },
    {
      "anonymous": false,
      "inputs": [
        {
          "indexed": true,
          "internalType": "address",
          "name": "owner",
          "type": "address"
        },
        {
          "indexed": true,
          "internalType": "address",
          "name": "spender",
          "type": "address"
        },
        {
          "indexed": false,
          "internalType": "uint256",
          "name": "value",
          "type": "uint256"
        }
      ],
      "name": "Approval",
      "type": "event"
    },
    {
      "anonymous": false,
      "inputs": [
        {
          "indexed": true,
          "internalType": "address",
          "name": "from",
          "type": "address"
        },
        {
          "indexed": true,
          "internalType": "address",
          "name": "to",
          "type": "address"
        },
        {
          "indexed": false,
          "internalType": "uint256",
          "name": "value",
          "type": "uint256"
        }
      ],
      "name": "Transfer",
      "type": "event"
    },
    {
      "anonymous": false,
      "inputs": [
        {
          "indexed": false,
          "internalType": "address",
          "name": "seller",
          "type": "address"
        },
        {
          "indexed": false,
          "internalType": "uint256",
          "name": "amount",
          "type": "uint256"
        }
      ],
      "name": "ZCoinSold",
      "type": "event"
    },
    {
      "anonymous": false,
      "inputs": [
        {
          "indexed": false,
          "internalType": "uint256",
          "name": "value",
          "type": "uint256"
        }
      ],
      "name": "test",
      "type": "event"
    },
    {
      "inputs": [
        {
          "internalType": "address",
          "name": "owner",
          "type": "address"
        },
        {
          "internalType": "address",
          "name": "spender",
          "type": "address"
        }
      ],
      "name": "allowance",
      "outputs": [
        {
          "internalType": "uint256",
          "name": "",
          "type": "uint256"
        }
      ],
      "stateMutability": "view",
      "type": "function"
    },
    {
      "inputs": [
        {
          "internalType": "address",
          "name": "spender",
          "type": "address"
        },
        {
          "internalType": "uint256",
          "name": "amount",
          "type": "uint256"
        }
      ],
      "name": "approve",
      "outputs": [
        {
          "internalType": "bool",
          "name": "",
          "type": "bool"
        }
      ],
      "stateMutability": "nonpayable",
      "type": "function"
    },
    {
      "inputs": [
        {
          "internalType": "address",
          "name": "account",
          "type": "address"
        }
      ],
      "name": "balanceOf",
      "outputs": [
        {
          "internalType": "uint256",
          "name": "",
          "type": "uint256"
        }
      ],
      "stateMutability": "view",
      "type": "function"
    },
    {
      "inputs": [],
      "name": "decimals",
      "outputs": [
        {
          "internalType": "uint8",
          "name": "",
          "type": "uint8"
        }
      ],
      "stateMutability": "view",
      "type": "function"
    },
    {
      "inputs": [
        {
          "internalType": "address",
          "name": "spender",
          "type": "address"
        },
        {
          "internalType": "uint256",
          "name": "subtractedValue",
          "type": "uint256"
        }
      ],
      "name": "decreaseAllowance",
      "outputs": [
        {
          "internalType": "bool",
          "name": "",
          "type": "bool"
        }
      ],
      "stateMutability": "nonpayable",
      "type": "function"
    },
    {
      "inputs": [
        {
          "internalType": "address",
          "name": "spender",
          "type": "address"
        },
        {
          "internalType": "uint256",
          "name": "addedValue",
          "type": "uint256"
        }
      ],
      "name": "increaseAllowance",
      "outputs": [
        {
          "internalType": "bool",
          "name": "",
          "type": "bool"
        }
      ],
      "stateMutability": "nonpayable",
      "type": "function"
    },
    {
      "inputs": [],
      "name": "name",
      "outputs": [
        {
          "internalType": "string",
          "name": "",
          "type": "string"
        }
      ],
      "stateMutability": "view",
      "type": "function"
    },
    {
      "inputs": [],
      "name": "supply",
      "outputs": [
        {
          "internalType": "uint256",
          "name": "",
          "type": "uint256"
        }
      ],
      "stateMutability": "view",
      "type": "function"
    },
    {
      "inputs": [],
      "name": "symbol",
      "outputs": [
        {
          "internalType": "string",
          "name": "",
          "type": "string"
        }
      ],
      "stateMutability": "view",
      "type": "function"
    },
    {
      "inputs": [],
      "name": "token_price",
      "outputs": [
        {
          "internalType": "uint256",
          "name": "",
          "type": "uint256"
        }
      ],
      "stateMutability": "view",
      "type": "function"
    },
    {
      "inputs": [],
      "name": "totalSupply",
      "outputs": [
        {
          "internalType": "uint256",
          "name": "",
          "type": "uint256"
        }
      ],
      "stateMutability": "view",
      "type": "function"
    },
    {
      "inputs": [
        {
          "internalType": "address",
          "name": "to",
          "type": "address"
        },
        {
          "internalType": "uint256",
          "name": "amount",
          "type": "uint256"
        }
      ],
      "name": "transfer",
      "outputs": [
        {
          "internalType": "bool",
          "name": "",
          "type": "bool"
        }
      ],
      "stateMutability": "nonpayable",
      "type": "function"
    },
    {
      "inputs": [
        {
          "internalType": "address",
          "name": "from",
          "type": "address"
        },
        {
          "internalType": "address",
          "name": "to",
          "type": "address"
        },
        {
          "internalType": "uint256",
          "name": "amount",
          "type": "uint256"
        }
      ],
      "name": "transferFrom",
      "outputs": [
        {
          "internalType": "bool",
          "name": "",
          "type": "bool"
        }
      ],
      "stateMutability": "nonpayable",
      "type": "function"
    },
    {
      "inputs": [],
      "name": "buy",
      "outputs": [],
      "stateMutability": "payable",
      "type": "function"
    },
    {
      "inputs": [
        {
          "internalType": "address",
          "name": "from",
          "type": "address"
        },
        {
          "internalType": "address",
          "name": "to",
          "type": "address"
        },
        {
          "internalType": "uint256",
          "name": "amount",
          "type": "uint256"
        }
      ],
      "name": "transferCoin",
      "outputs": [],
      "stateMutability": "nonpayable",
      "type": "function"
    }
  ],
  "bytecode": "0x6080604052606460055574446c3b15f9926687d2c40534fdb5640000000000006006553480156200002f57600080fd5b506040518060400160405280600681526020017f5a546f6b656e00000000000000000000000000000000000000000000000000008152506040518060400160405280600381526020017f5a544b00000000000000000000000000000000000000000000000000000000008152508160039081620000ad9190620004cd565b508060049081620000bf9190620004cd565b505050620000d630600654620000dc60201b60201c565b620006cf565b600073ffffffffffffffffffffffffffffffffffffffff168273ffffffffffffffffffffffffffffffffffffffff16036200014e576040517f08c379a0000000000000000000000000000000000000000000000000000000008152600401620001459062000615565b60405180910390fd5b62000162600083836200024960201b60201c565b806002600082825462000176919062000666565b92505081905550806000808473ffffffffffffffffffffffffffffffffffffffff1673ffffffffffffffffffffffffffffffffffffffff168152602001908152602001600020600082825401925050819055508173ffffffffffffffffffffffffffffffffffffffff16600073ffffffffffffffffffffffffffffffffffffffff167fddf252ad1be2c89b69c2b068fc378daa952ba7f163c4a11628f55a4df523b3ef83604051620002299190620006b2565b60405180910390a362000245600083836200024e60201b60201c565b5050565b505050565b505050565b600081519050919050565b7f4e487b7100000000000000000000000000000000000000000000000000000000600052604160045260246000fd5b7f4e487b7100000000000000000000000000000000000000000000000000000000600052602260045260246000fd5b60006002820490506001821680620002d557607f821691505b602082108103620002eb57620002ea6200028d565b5b50919050565b60008190508160005260206000209050919050565b60006020601f8301049050919050565b600082821b905092915050565b600060088302620003557fffffffffffffffffffffffffffffffffffffffffffffffffffffffffffffffff8262000316565b62000361868362000316565b95508019841693508086168417925050509392505050565b6000819050919050565b6000819050919050565b6000620003ae620003a8620003a28462000379565b62000383565b62000379565b9050919050565b6000819050919050565b620003ca836200038d565b620003e2620003d982620003b5565b84845462000323565b825550505050565b600090565b620003f9620003ea565b62000406818484620003bf565b505050565b5b818110156200042e5762000422600082620003ef565b6001810190506200040c565b5050565b601f8211156200047d576200044781620002f1565b620004528462000306565b8101602085101562000462578190505b6200047a620004718562000306565b8301826200040b565b50505b505050565b600082821c905092915050565b6000620004a26000198460080262000482565b1980831691505092915050565b6000620004bd83836200048f565b9150826002028217905092915050565b620004d88262000253565b67ffffffffffffffff811115620004f457620004f36200025e565b5b620005008254620002bc565b6200050d82828562000432565b600060209050601f83116001811462000545576000841562000530578287015190505b6200053c8582620004af565b865550620005ac565b601f1984166200055586620002f1565b60005b828110156200057f5784890151825560018201915060208501945060208101905062000558565b868310156200059f57848901516200059b601f8916826200048f565b8355505b6001600288020188555050505b505050505050565b600082825260208201905092915050565b7f45524332303a206d696e7420746f20746865207a65726f206164647265737300600082015250565b6000620005fd601f83620005b4565b91506200060a82620005c5565b602082019050919050565b600060208201905081810360008301526200063081620005ee565b9050919050565b7f4e487b7100000000000000000000000000000000000000000000000000000000600052601160045260246000fd5b6000620006738262000379565b9150620006808362000379565b92508282019050808211156200069b576200069a62000637565b5b92915050565b620006ac8162000379565b82525050565b6000602082019050620006c96000830184620006a1565b92915050565b61157280620006df6000396000f3fe6080604052600436106100e85760003560e01c80634db8a60b1161008a578063a457c2d711610059578063a457c2d71461030c578063a6f2ae3a14610349578063a9059cbb14610353578063dd62ed3e14610390576100e8565b80634db8a60b1461025057806370a08231146102795780637b4fd96e146102b657806395d89b41146102e1576100e8565b806318160ddd116100c657806318160ddd1461018057806323b872dd146101ab578063313ce567146101e85780633950935114610213576100e8565b8063047fc9aa146100ed57806306fdde0314610118578063095ea7b314610143575b600080fd5b3480156100f957600080fd5b506101026103cd565b60405161010f9190610cbe565b60405180910390f35b34801561012457600080fd5b5061012d6103d3565b60405161013a9190610d69565b60405180910390f35b34801561014f57600080fd5b5061016a60048036038101906101659190610e1a565b610465565b6040516101779190610e75565b60405180910390f35b34801561018c57600080fd5b50610195610488565b6040516101a29190610cbe565b60405180910390f35b3480156101b757600080fd5b506101d260048036038101906101cd9190610e90565b610492565b6040516101df9190610e75565b60405180910390f35b3480156101f457600080fd5b506101fd6104c1565b60405161020a9190610eff565b60405180910390f35b34801561021f57600080fd5b5061023a60048036038101906102359190610e1a565b6104ca565b6040516102479190610e75565b60405180910390f35b34801561025c57600080fd5b5061027760048036038101906102729190610e90565b610501565b005b34801561028557600080fd5b506102a0600480360381019061029b9190610f1a565b610511565b6040516102ad9190610cbe565b60405180910390f35b3480156102c257600080fd5b506102cb610559565b6040516102d89190610cbe565b60405180910390f35b3480156102ed57600080fd5b506102f661055f565b6040516103039190610d69565b60405180910390f35b34801561031857600080fd5b50610333600480360381019061032e9190610e1a565b6105f1565b6040516103409190610e75565b60405180910390f35b610351610668565b005b34801561035f57600080fd5b5061037a60048036038101906103759190610e1a565b61071e565b6040516103879190610e75565b60405180910390f35b34801561039c57600080fd5b506103b760048036038101906103b29190610f47565b610741565b6040516103c49190610cbe565b60405180910390f35b60065481565b6060600380546103e290610fb6565b80601f016020809104026020016040519081016040528092919081815260200182805461040e90610fb6565b801561045b5780601f106104305761010080835404028352916020019161045b565b820191906000526020600020905b81548152906001019060200180831161043e57829003601f168201915b5050505050905090565b6000806104706107c8565b905061047d8185856107d0565b600191505092915050565b6000600254905090565b60008061049d6107c8565b90506104aa858285610999565b6104b5858585610a25565b60019150509392505050565b60006012905090565b6000806104d56107c8565b90506104f68185856104e78589610741565b6104f19190611016565b6107d0565b600191505092915050565b61050c838383610a25565b505050565b60008060008373ffffffffffffffffffffffffffffffffffffffff1673ffffffffffffffffffffffffffffffffffffffff168152602001908152602001600020549050919050565b60055481565b60606004805461056e90610fb6565b80601f016020809104026020016040519081016040528092919081815260200182805461059a90610fb6565b80156105e75780601f106105bc576101008083540402835291602001916105e7565b820191906000526020600020905b8154815290600101906020018083116105ca57829003601f168201915b5050505050905090565b6000806105fc6107c8565b9050600061060a8286610741565b90508381101561064f576040517f08c379a0000000000000000000000000000000000000000000000000000000008152600401610646906110bc565b60405180910390fd5b61065c82868684036107d0565b60019250505092915050565b60006005543461067891906110dc565b905080600654116106be576040517f08c379a00000000000000000000000000000000000000000000000000000000081526004016106b59061116a565b60405180910390fd5b6106c9303383610a25565b80600660008282546106db919061118a565b925050819055507f10c1ae801e87966f1c81cc31fb7b4be3b6267c5a99840408188405b943a618b733826040516107139291906111cd565b60405180910390a150565b6000806107296107c8565b9050610736818585610a25565b600191505092915050565b6000600160008473ffffffffffffffffffffffffffffffffffffffff1673ffffffffffffffffffffffffffffffffffffffff16815260200190815260200160002060008373ffffffffffffffffffffffffffffffffffffffff1673ffffffffffffffffffffffffffffffffffffffff16815260200190815260200160002054905092915050565b600033905090565b600073ffffffffffffffffffffffffffffffffffffffff168373ffffffffffffffffffffffffffffffffffffffff160361083f576040517f08c379a000000000000000000000000000000000000000000000000000000000815260040161083690611268565b60405180910390fd5b600073ffffffffffffffffffffffffffffffffffffffff168273ffffffffffffffffffffffffffffffffffffffff16036108ae576040517f08c379a00000000000000000000000000000000000000000000000000000000081526004016108a5906112fa565b60405180910390fd5b80600160008573ffffffffffffffffffffffffffffffffffffffff1673ffffffffffffffffffffffffffffffffffffffff16815260200190815260200160002060008473ffffffffffffffffffffffffffffffffffffffff1673ffffffffffffffffffffffffffffffffffffffff168152602001908152602001600020819055508173ffffffffffffffffffffffffffffffffffffffff168373ffffffffffffffffffffffffffffffffffffffff167f8c5be1e5ebec7d5bd14f71427d1e84f3dd0314c0f7b2291e5b200ac8c7c3b9258360405161098c9190610cbe565b60405180910390a3505050565b60006109a58484610741565b90507fffffffffffffffffffffffffffffffffffffffffffffffffffffffffffffffff8114610a1f5781811015610a11576040517f08c379a0000000000000000000000000000000000000000000000000000000008152600401610a0890611366565b60405180910390fd5b610a1e84848484036107d0565b5b50505050565b600073ffffffffffffffffffffffffffffffffffffffff168373ffffffffffffffffffffffffffffffffffffffff1603610a94576040517f08c379a0000000000000000000000000000000000000000000000000000000008152600401610a8b906113f8565b60405180910390fd5b600073ffffffffffffffffffffffffffffffffffffffff168273ffffffffffffffffffffffffffffffffffffffff1603610b03576040517f08c379a0000000000000000000000000000000000000000000000000000000008152600401610afa9061148a565b60405180910390fd5b610b0e838383610c9b565b60008060008573ffffffffffffffffffffffffffffffffffffffff1673ffffffffffffffffffffffffffffffffffffffff16815260200190815260200160002054905081811015610b94576040517f08c379a0000000000000000000000000000000000000000000000000000000008152600401610b8b9061151c565b60405180910390fd5b8181036000808673ffffffffffffffffffffffffffffffffffffffff1673ffffffffffffffffffffffffffffffffffffffff16815260200190815260200160002081905550816000808573ffffffffffffffffffffffffffffffffffffffff1673ffffffffffffffffffffffffffffffffffffffff168152602001908152602001600020600082825401925050819055508273ffffffffffffffffffffffffffffffffffffffff168473ffffffffffffffffffffffffffffffffffffffff167fddf252ad1be2c89b69c2b068fc378daa952ba7f163c4a11628f55a4df523b3ef84604051610c829190610cbe565b60405180910390a3610c95848484610ca0565b50505050565b505050565b505050565b6000819050919050565b610cb881610ca5565b82525050565b6000602082019050610cd36000830184610caf565b92915050565b600081519050919050565b600082825260208201905092915050565b60005b83811015610d13578082015181840152602081019050610cf8565b60008484015250505050565b6000601f19601f8301169050919050565b6000610d3b82610cd9565b610d458185610ce4565b9350610d55818560208601610cf5565b610d5e81610d1f565b840191505092915050565b60006020820190508181036000830152610d838184610d30565b905092915050565b600080fd5b600073ffffffffffffffffffffffffffffffffffffffff82169050919050565b6000610dbb82610d90565b9050919050565b610dcb81610db0565b8114610dd657600080fd5b50565b600081359050610de881610dc2565b92915050565b610df781610ca5565b8114610e0257600080fd5b50565b600081359050610e1481610dee565b92915050565b60008060408385031215610e3157610e30610d8b565b5b6000610e3f85828601610dd9565b9250506020610e5085828601610e05565b9150509250929050565b60008115159050919050565b610e6f81610e5a565b82525050565b6000602082019050610e8a6000830184610e66565b92915050565b600080600060608486031215610ea957610ea8610d8b565b5b6000610eb786828701610dd9565b9350506020610ec886828701610dd9565b9250506040610ed986828701610e05565b9150509250925092565b600060ff82169050919050565b610ef981610ee3565b82525050565b6000602082019050610f146000830184610ef0565b92915050565b600060208284031215610f3057610f2f610d8b565b5b6000610f3e84828501610dd9565b91505092915050565b60008060408385031215610f5e57610f5d610d8b565b5b6000610f6c85828601610dd9565b9250506020610f7d85828601610dd9565b9150509250929050565b7f4e487b7100000000000000000000000000000000000000000000000000000000600052602260045260246000fd5b60006002820490506001821680610fce57607f821691505b602082108103610fe157610fe0610f87565b5b50919050565b7f4e487b7100000000000000000000000000000000000000000000000000000000600052601160045260246000fd5b600061102182610ca5565b915061102c83610ca5565b925082820190508082111561104457611043610fe7565b5b92915050565b7f45524332303a2064656372656173656420616c6c6f77616e63652062656c6f7760008201527f207a65726f000000000000000000000000000000000000000000000000000000602082015250565b60006110a6602583610ce4565b91506110b18261104a565b604082019050919050565b600060208201905081810360008301526110d581611099565b9050919050565b60006110e782610ca5565b91506110f283610ca5565b925082820261110081610ca5565b9150828204841483151761111757611116610fe7565b5b5092915050565b7f4e6f7420656e6f75676820746f6b656e7320617661696c61626c650000000000600082015250565b6000611154601b83610ce4565b915061115f8261111e565b602082019050919050565b6000602082019050818103600083015261118381611147565b9050919050565b600061119582610ca5565b91506111a083610ca5565b92508282039050818111156111b8576111b7610fe7565b5b92915050565b6111c781610db0565b82525050565b60006040820190506111e260008301856111be565b6111ef6020830184610caf565b9392505050565b7f45524332303a20617070726f76652066726f6d20746865207a65726f2061646460008201527f7265737300000000000000000000000000000000000000000000000000000000602082015250565b6000611252602483610ce4565b915061125d826111f6565b604082019050919050565b6000602082019050818103600083015261128181611245565b9050919050565b7f45524332303a20617070726f766520746f20746865207a65726f20616464726560008201527f7373000000000000000000000000000000000000000000000000000000000000602082015250565b60006112e4602283610ce4565b91506112ef82611288565b604082019050919050565b60006020820190508181036000830152611313816112d7565b9050919050565b7f45524332303a20696e73756666696369656e7420616c6c6f77616e6365000000600082015250565b6000611350601d83610ce4565b915061135b8261131a565b602082019050919050565b6000602082019050818103600083015261137f81611343565b9050919050565b7f45524332303a207472616e736665722066726f6d20746865207a65726f20616460008201527f6472657373000000000000000000000000000000000000000000000000000000602082015250565b60006113e2602583610ce4565b91506113ed82611386565b604082019050919050565b60006020820190508181036000830152611411816113d5565b9050919050565b7f45524332303a207472616e7366657220746f20746865207a65726f206164647260008201527f6573730000000000000000000000000000000000000000000000000000000000602082015250565b6000611474602383610ce4565b915061147f82611418565b604082019050919050565b600060208201905081810360008301526114a381611467565b9050919050565b7f45524332303a207472616e7366657220616d6f756e742065786365656473206260008201527f616c616e63650000000000000000000000000000000000000000000000000000602082015250565b6000611506602683610ce4565b9150611511826114aa565b604082019050919050565b60006020820190508181036000830152611535816114f9565b905091905056fea2646970667358221220c4fa7f0c038d03cf6a2b2f4d4d4c570100a07ba3c7ce600a01afe6cb0b4ce12064736f6c63430008130033",
  "immutableReferences": {},
  "source": "// SPDX-License-Identifier: MIT\r\npragma solidity ^0.8.0;\r\n\r\nimport \"@openzeppelin/contracts/token/ERC20/ERC20.sol\";\r\n\r\ncontract ZCoin is ERC20 {\r\n    uint256 public token_price = 100; // Set your desired token price\r\n    uint256 public supply = 10**50;\r\n    event test(uint256 value);\r\n    event ZCoinSold(address seller,uint256 amount);\r\n\r\n    constructor() ERC20(\"ZToken\", \"ZTK\") {\r\n        _mint(address(this), supply);\r\n    }\r\n\r\n    function buy() public payable {\r\n        uint256 tokensToBuy = msg.value * token_price;\r\n        require(\r\n            supply > tokensToBuy,\r\n            \"Not enough tokens available\"\r\n        );\r\n        _transfer(address(this), msg.sender, tokensToBuy);\r\n        supply -= tokensToBuy;\r\n        emit ZCoinSold(msg.sender, tokensToBuy);\r\n    }\r\n    function transferCoin(address from,address to,uint256 amount)public{\r\n        _transfer(from, to, amount);\r\n    }\r\n}",
  "sourcePath": "C:\\Users\\semah\\OneDrive\\Bureau\\amine\\ppp\\z-wallet1\\z-wallet\\contracts\\ZCoin.sol",
  "compiler": {
    "name": "solc",
    "version": "0.8.19+commit.7dd6d404.Emscripten.clang"
  },
  "schemaVersion": "3.4.13",
  "updatedAt": "2023-05-10T20:41:46.350Z",
  "devdoc": {
    "events": {
      "Approval(address,address,uint256)": {
        "details": "Emitted when the allowance of a `spender` for an `owner` is set by a call to {approve}. `value` is the new allowance."
      },
      "Transfer(address,address,uint256)": {
        "details": "Emitted when `value` tokens are moved from one account (`from`) to another (`to`). Note that `value` may be zero."
      }
    },
    "kind": "dev",
    "methods": {
      "allowance(address,address)": {
        "details": "See {IERC20-allowance}."
      },
      "approve(address,uint256)": {
        "details": "See {IERC20-approve}. NOTE: If `amount` is the maximum `uint256`, the allowance is not updated on `transferFrom`. This is semantically equivalent to an infinite approval. Requirements: - `spender` cannot be the zero address."
      },
      "balanceOf(address)": {
        "details": "See {IERC20-balanceOf}."
      },
      "decimals()": {
        "details": "Returns the number of decimals used to get its user representation. For example, if `decimals` equals `2`, a balance of `505` tokens should be displayed to a user as `5.05` (`505 / 10 ** 2`). Tokens usually opt for a value of 18, imitating the relationship between Ether and Wei. This is the value {ERC20} uses, unless this function is overridden; NOTE: This information is only used for _display_ purposes: it in no way affects any of the arithmetic of the contract, including {IERC20-balanceOf} and {IERC20-transfer}."
      },
      "decreaseAllowance(address,uint256)": {
        "details": "Atomically decreases the allowance granted to `spender` by the caller. This is an alternative to {approve} that can be used as a mitigation for problems described in {IERC20-approve}. Emits an {Approval} event indicating the updated allowance. Requirements: - `spender` cannot be the zero address. - `spender` must have allowance for the caller of at least `subtractedValue`."
      },
      "increaseAllowance(address,uint256)": {
        "details": "Atomically increases the allowance granted to `spender` by the caller. This is an alternative to {approve} that can be used as a mitigation for problems described in {IERC20-approve}. Emits an {Approval} event indicating the updated allowance. Requirements: - `spender` cannot be the zero address."
      },
      "name()": {
        "details": "Returns the name of the token."
      },
      "symbol()": {
        "details": "Returns the symbol of the token, usually a shorter version of the name."
      },
      "totalSupply()": {
        "details": "See {IERC20-totalSupply}."
      },
      "transfer(address,uint256)": {
        "details": "See {IERC20-transfer}. Requirements: - `to` cannot be the zero address. - the caller must have a balance of at least `amount`."
      },
      "transferFrom(address,address,uint256)": {
        "details": "See {IERC20-transferFrom}. Emits an {Approval} event indicating the updated allowance. This is not required by the EIP. See the note at the beginning of {ERC20}. NOTE: Does not update the allowance if the current allowance is the maximum `uint256`. Requirements: - `from` and `to` cannot be the zero address. - `from` must have a balance of at least `amount`. - the caller must have allowance for ``from``'s tokens of at least `amount`."
      }
    },
    "version": 1
  },
  "userdoc": {
    "kind": "user",
    "methods": {},
    "version": 1
  }
}