{
  "contractName": "ZCoin",
  "abi": [
    {
      "inputs": [
        {
          "internalType": "uint256",
          "name": "_blockReward",
          "type": "uint256"
        },
        {
          "internalType": "uint256",
          "name": "_initialValue",
          "type": "uint256"
        },
        {
          "internalType": "uint256",
          "name": "_cappedAt",
          "type": "uint256"
        },
        {
          "internalType": "uint256",
          "name": "_rate",
          "type": "uint256"
        }
      ],
      "stateMutability": "nonpayable",
      "type": "constructor"
    },
    {
      "anonymous": false,
      "inputs": [
        {
          "indexed": true,
          "internalType": "address",
          "name": "owner",
          "type": "address"
        },
        {
          "indexed": true,
          "internalType": "address",
          "name": "spender",
          "type": "address"
        },
        {
          "indexed": false,
          "internalType": "uint256",
          "name": "value",
          "type": "uint256"
        }
      ],
      "name": "Approval",
      "type": "event"
    },
    {
      "anonymous": false,
      "inputs": [
        {
          "indexed": true,
          "internalType": "address",
          "name": "from",
          "type": "address"
        },
        {
          "indexed": true,
          "internalType": "address",
          "name": "to",
          "type": "address"
        },
        {
          "indexed": false,
          "internalType": "uint256",
          "name": "value",
          "type": "uint256"
        }
      ],
      "name": "Transfer",
      "type": "event"
    },
    {
      "inputs": [
        {
          "internalType": "address",
          "name": "owner",
          "type": "address"
        },
        {
          "internalType": "address",
          "name": "spender",
          "type": "address"
        }
      ],
      "name": "allowance",
      "outputs": [
        {
          "internalType": "uint256",
          "name": "",
          "type": "uint256"
        }
      ],
      "stateMutability": "view",
      "type": "function"
    },
    {
      "inputs": [
        {
          "internalType": "address",
          "name": "spender",
          "type": "address"
        },
        {
          "internalType": "uint256",
          "name": "amount",
          "type": "uint256"
        }
      ],
      "name": "approve",
      "outputs": [
        {
          "internalType": "bool",
          "name": "",
          "type": "bool"
        }
      ],
      "stateMutability": "nonpayable",
      "type": "function"
    },
    {
      "inputs": [
        {
          "internalType": "address",
          "name": "account",
          "type": "address"
        }
      ],
      "name": "balanceOf",
      "outputs": [
        {
          "internalType": "uint256",
          "name": "",
          "type": "uint256"
        }
      ],
      "stateMutability": "view",
      "type": "function"
    },
    {
      "inputs": [],
      "name": "blockReward",
      "outputs": [
        {
          "internalType": "uint256",
          "name": "",
          "type": "uint256"
        }
      ],
      "stateMutability": "view",
      "type": "function"
    },
    {
      "inputs": [
        {
          "internalType": "uint256",
          "name": "amount",
          "type": "uint256"
        }
      ],
      "name": "burn",
      "outputs": [],
      "stateMutability": "nonpayable",
      "type": "function"
    },
    {
      "inputs": [
        {
          "internalType": "address",
          "name": "account",
          "type": "address"
        },
        {
          "internalType": "uint256",
          "name": "amount",
          "type": "uint256"
        }
      ],
      "name": "burnFrom",
      "outputs": [],
      "stateMutability": "nonpayable",
      "type": "function"
    },
    {
      "inputs": [],
      "name": "cap",
      "outputs": [
        {
          "internalType": "uint256",
          "name": "",
          "type": "uint256"
        }
      ],
      "stateMutability": "view",
      "type": "function"
    },
    {
      "inputs": [],
      "name": "cappedAt",
      "outputs": [
        {
          "internalType": "uint256",
          "name": "",
          "type": "uint256"
        }
      ],
      "stateMutability": "view",
      "type": "function"
    },
    {
      "inputs": [],
      "name": "decimals",
      "outputs": [
        {
          "internalType": "uint8",
          "name": "",
          "type": "uint8"
        }
      ],
      "stateMutability": "view",
      "type": "function"
    },
    {
      "inputs": [
        {
          "internalType": "address",
          "name": "spender",
          "type": "address"
        },
        {
          "internalType": "uint256",
          "name": "subtractedValue",
          "type": "uint256"
        }
      ],
      "name": "decreaseAllowance",
      "outputs": [
        {
          "internalType": "bool",
          "name": "",
          "type": "bool"
        }
      ],
      "stateMutability": "nonpayable",
      "type": "function"
    },
    {
      "inputs": [
        {
          "internalType": "address",
          "name": "spender",
          "type": "address"
        },
        {
          "internalType": "uint256",
          "name": "addedValue",
          "type": "uint256"
        }
      ],
      "name": "increaseAllowance",
      "outputs": [
        {
          "internalType": "bool",
          "name": "",
          "type": "bool"
        }
      ],
      "stateMutability": "nonpayable",
      "type": "function"
    },
    {
      "inputs": [],
      "name": "name",
      "outputs": [
        {
          "internalType": "string",
          "name": "",
          "type": "string"
        }
      ],
      "stateMutability": "view",
      "type": "function"
    },
    {
      "inputs": [],
      "name": "owner",
      "outputs": [
        {
          "internalType": "address payable",
          "name": "",
          "type": "address"
        }
      ],
      "stateMutability": "view",
      "type": "function"
    },
    {
      "inputs": [],
      "name": "rate",
      "outputs": [
        {
          "internalType": "uint256",
          "name": "",
          "type": "uint256"
        }
      ],
      "stateMutability": "view",
      "type": "function"
    },
    {
      "inputs": [],
      "name": "symbol",
      "outputs": [
        {
          "internalType": "string",
          "name": "",
          "type": "string"
        }
      ],
      "stateMutability": "view",
      "type": "function"
    },
    {
      "inputs": [],
      "name": "totalSupply",
      "outputs": [
        {
          "internalType": "uint256",
          "name": "",
          "type": "uint256"
        }
      ],
      "stateMutability": "view",
      "type": "function"
    },
    {
      "inputs": [
        {
          "internalType": "address",
          "name": "to",
          "type": "address"
        },
        {
          "internalType": "uint256",
          "name": "amount",
          "type": "uint256"
        }
      ],
      "name": "transfer",
      "outputs": [
        {
          "internalType": "bool",
          "name": "",
          "type": "bool"
        }
      ],
      "stateMutability": "nonpayable",
      "type": "function"
    },
    {
      "inputs": [
        {
          "internalType": "address",
          "name": "from",
          "type": "address"
        },
        {
          "internalType": "address",
          "name": "to",
          "type": "address"
        },
        {
          "internalType": "uint256",
          "name": "amount",
          "type": "uint256"
        }
      ],
      "name": "transferFrom",
      "outputs": [
        {
          "internalType": "bool",
          "name": "",
          "type": "bool"
        }
      ],
      "stateMutability": "nonpayable",
      "type": "function"
    },
    {
      "inputs": [],
      "name": "buyWithEtherum",
      "outputs": [],
      "stateMutability": "payable",
      "type": "function"
    },
    {
      "inputs": [
        {
          "internalType": "address",
          "name": "to",
          "type": "address"
        },
        {
          "internalType": "uint256",
          "name": "amount",
          "type": "uint256"
        }
      ],
      "name": "transferTo",
      "outputs": [],
      "stateMutability": "nonpayable",
      "type": "function"
    },
    {
      "inputs": [
        {
          "internalType": "uint256",
          "name": "_reward",
          "type": "uint256"
        }
      ],
      "name": "setBlockReward",
      "outputs": [],
      "stateMutability": "nonpayable",
      "type": "function"
    },
    {
      "inputs": [
        {
          "internalType": "uint256",
          "name": "_rate",
          "type": "uint256"
        }
      ],
      "name": "setRate",
      "outputs": [],
      "stateMutability": "nonpayable",
      "type": "function"
    }
  ],
  "bytecode": "0x60a06040523480156200001157600080fd5b5060405162002b5238038062002b528339818101604052810190620000379190620005c5565b670de0b6b3a76400006007546200004f919062000666565b6040518060400160405280600781526020017f5a2d546f6b656e000000000000000000000000000000000000000000000000008152506040518060400160405280600381526020017f5a544b00000000000000000000000000000000000000000000000000000000008152508160039081620000cc919062000921565b508060049081620000de919062000921565b5050506000811162000127576040517f08c379a00000000000000000000000000000000000000000000000000000000081526004016200011e9062000a69565b60405180910390fd5b80608081815250505033600560006101000a81548173ffffffffffffffffffffffffffffffffffffffff021916908373ffffffffffffffffffffffffffffffffffffffff160217905550670de0b6b3a76400008262000187919062000666565b600781905550620001d6600560009054906101000a900473ffffffffffffffffffffffffffffffffffffffff16670de0b6b3a764000085620001ca919062000666565b6200020360201b60201c565b670de0b6b3a764000084620001ec919062000666565b600681905550806008819055505050505062000bd8565b620002136200028a60201b60201c565b81620002246200029460201b60201c565b62000230919062000a8b565b111562000274576040517f08c379a00000000000000000000000000000000000000000000000000000000081526004016200026b9062000b16565b60405180910390fd5b6200028682826200029e60201b60201c565b5050565b6000608051905090565b6000600254905090565b620002ae6200028a60201b60201c565b81620002bf6200029460201b60201c565b620002cb919062000a8b565b11156200030f576040517f08c379a0000000000000000000000000000000000000000000000000000000008152600401620003069062000b16565b60405180910390fd5b6200032182826200032560201b60201c565b5050565b600073ffffffffffffffffffffffffffffffffffffffff168273ffffffffffffffffffffffffffffffffffffffff160362000397576040517f08c379a00000000000000000000000000000000000000000000000000000000081526004016200038e9062000b88565b60405180910390fd5b620003ab600083836200049260201b60201c565b8060026000828254620003bf919062000a8b565b92505081905550806000808473ffffffffffffffffffffffffffffffffffffffff1673ffffffffffffffffffffffffffffffffffffffff168152602001908152602001600020600082825401925050819055508173ffffffffffffffffffffffffffffffffffffffff16600073ffffffffffffffffffffffffffffffffffffffff167fddf252ad1be2c89b69c2b068fc378daa952ba7f163c4a11628f55a4df523b3ef8360405162000472919062000bbb565b60405180910390a36200048e600083836200056560201b60201c565b5050565b600073ffffffffffffffffffffffffffffffffffffffff168373ffffffffffffffffffffffffffffffffffffffff1614158015620004fc57504173ffffffffffffffffffffffffffffffffffffffff168273ffffffffffffffffffffffffffffffffffffffff1614155b8015620005365750600073ffffffffffffffffffffffffffffffffffffffff164173ffffffffffffffffffffffffffffffffffffffff1614155b156200054d576200054c6200056a60201b60201c565b5b620005608383836200058060201b60201c565b505050565b505050565b6200057e416006546200020360201b60201c565b565b505050565b600080fd5b6000819050919050565b6200059f816200058a565b8114620005ab57600080fd5b50565b600081519050620005bf8162000594565b92915050565b60008060008060808587031215620005e257620005e162000585565b5b6000620005f287828801620005ae565b94505060206200060587828801620005ae565b93505060406200061887828801620005ae565b92505060606200062b87828801620005ae565b91505092959194509250565b7f4e487b7100000000000000000000000000000000000000000000000000000000600052601160045260246000fd5b600062000673826200058a565b915062000680836200058a565b925082820262000690816200058a565b91508282048414831517620006aa57620006a962000637565b5b5092915050565b600081519050919050565b7f4e487b7100000000000000000000000000000000000000000000000000000000600052604160045260246000fd5b7f4e487b7100000000000000000000000000000000000000000000000000000000600052602260045260246000fd5b600060028204905060018216806200073357607f821691505b602082108103620007495762000748620006eb565b5b50919050565b60008190508160005260206000209050919050565b60006020601f8301049050919050565b600082821b905092915050565b600060088302620007b37fffffffffffffffffffffffffffffffffffffffffffffffffffffffffffffffff8262000774565b620007bf868362000774565b95508019841693508086168417925050509392505050565b6000819050919050565b600062000802620007fc620007f6846200058a565b620007d7565b6200058a565b9050919050565b6000819050919050565b6200081e83620007e1565b620008366200082d8262000809565b84845462000781565b825550505050565b600090565b6200084d6200083e565b6200085a81848462000813565b505050565b5b8181101562000882576200087660008262000843565b60018101905062000860565b5050565b601f821115620008d1576200089b816200074f565b620008a68462000764565b81016020851015620008b6578190505b620008ce620008c58562000764565b8301826200085f565b50505b505050565b600082821c905092915050565b6000620008f660001984600802620008d6565b1980831691505092915050565b6000620009118383620008e3565b9150826002028217905092915050565b6200092c82620006b1565b67ffffffffffffffff811115620009485762000947620006bc565b5b6200095482546200071a565b6200096182828562000886565b600060209050601f83116001811462000999576000841562000984578287015190505b62000990858262000903565b86555062000a00565b601f198416620009a9866200074f565b60005b82811015620009d357848901518255600182019150602085019450602081019050620009ac565b86831015620009f35784890151620009ef601f891682620008e3565b8355505b6001600288020188555050505b505050505050565b600082825260208201905092915050565b7f45524332304361707065643a2063617020697320300000000000000000000000600082015250565b600062000a5160158362000a08565b915062000a5e8262000a19565b602082019050919050565b6000602082019050818103600083015262000a848162000a42565b9050919050565b600062000a98826200058a565b915062000aa5836200058a565b925082820190508082111562000ac05762000abf62000637565b5b92915050565b7f45524332304361707065643a2063617020657863656564656400000000000000600082015250565b600062000afe60198362000a08565b915062000b0b8262000ac6565b602082019050919050565b6000602082019050818103600083015262000b318162000aef565b9050919050565b7f45524332303a206d696e7420746f20746865207a65726f206164647265737300600082015250565b600062000b70601f8362000a08565b915062000b7d8262000b38565b602082019050919050565b6000602082019050818103600083015262000ba38162000b61565b9050919050565b62000bb5816200058a565b82525050565b600060208201905062000bd2600083018462000baa565b92915050565b608051611f5e62000bf460003960006108010152611f5e6000f3fe6080604052600436106101355760003560e01c806339509351116100ab5780638b6b8b921161006f5780638b6b8b92146104075780638da5cb5b1461043257806395d89b411461045d578063a457c2d714610488578063a9059cbb146104c5578063dd62ed3e1461050257610135565b8063395093511461033157806342966c681461036e57806370a0823114610397578063726683b2146103d457806379cc6790146103de57610135565b806323b872dd116100fd57806323b872dd146102215780632c4e722e1461025e5780632ccb1b3014610289578063313ce567146102b257806334fcf437146102dd578063355274ea1461030657610135565b806306fdde031461013a578063095ea7b3146101655780630ac168a1146101a257806318160ddd146101cd5780631a18e707146101f8575b600080fd5b34801561014657600080fd5b5061014f61053f565b60405161015c9190611502565b60405180910390f35b34801561017157600080fd5b5061018c600480360381019061018791906115bd565b6105d1565b6040516101999190611618565b60405180910390f35b3480156101ae57600080fd5b506101b76105f4565b6040516101c49190611642565b60405180910390f35b3480156101d957600080fd5b506101e26105fa565b6040516101ef9190611642565b60405180910390f35b34801561020457600080fd5b5061021f600480360381019061021a919061165d565b610604565b005b34801561022d57600080fd5b506102486004803603810190610243919061168a565b6106b1565b6040516102559190611618565b60405180910390f35b34801561026a57600080fd5b506102736106e0565b6040516102809190611642565b60405180910390f35b34801561029557600080fd5b506102b060048036038101906102ab91906115bd565b6106e6565b005b3480156102be57600080fd5b506102c761075a565b6040516102d491906116f9565b60405180910390f35b3480156102e957600080fd5b5061030460048036038101906102ff919061165d565b610763565b005b34801561031257600080fd5b5061031b6107fd565b6040516103289190611642565b60405180910390f35b34801561033d57600080fd5b50610358600480360381019061035391906115bd565b610825565b6040516103659190611618565b60405180910390f35b34801561037a57600080fd5b506103956004803603810190610390919061165d565b61085c565b005b3480156103a357600080fd5b506103be60048036038101906103b99190611714565b610870565b6040516103cb9190611642565b60405180910390f35b6103dc6108b8565b005b3480156103ea57600080fd5b50610405600480360381019061040091906115bd565b6108d1565b005b34801561041357600080fd5b5061041c6108f1565b6040516104299190611642565b60405180910390f35b34801561043e57600080fd5b506104476108f7565b6040516104549190611762565b60405180910390f35b34801561046957600080fd5b5061047261091d565b60405161047f9190611502565b60405180910390f35b34801561049457600080fd5b506104af60048036038101906104aa91906115bd565b6109af565b6040516104bc9190611618565b60405180910390f35b3480156104d157600080fd5b506104ec60048036038101906104e791906115bd565b610a26565b6040516104f99190611618565b60405180910390f35b34801561050e57600080fd5b506105296004803603810190610524919061177d565b610a49565b6040516105369190611642565b60405180910390f35b60606003805461054e906117ec565b80601f016020809104026020016040519081016040528092919081815260200182805461057a906117ec565b80156105c75780601f1061059c576101008083540402835291602001916105c7565b820191906000526020600020905b8154815290600101906020018083116105aa57829003601f168201915b5050505050905090565b6000806105dc610ad0565b90506105e9818585610ad8565b600191505092915050565b60065481565b6000600254905090565b600560009054906101000a900473ffffffffffffffffffffffffffffffffffffffff1673ffffffffffffffffffffffffffffffffffffffff163373ffffffffffffffffffffffffffffffffffffffff1614610694576040517f08c379a000000000000000000000000000000000000000000000000000000000815260040161068b9061188f565b60405180910390fd5b670de0b6b3a7640000816106a891906118de565b60068190555050565b6000806106bc610ad0565b90506106c9858285610ca1565b6106d4858585610d2d565b60019150509392505050565b60085481565b6106f1338383610d2d565b8173ffffffffffffffffffffffffffffffffffffffff163373ffffffffffffffffffffffffffffffffffffffff167fddf252ad1be2c89b69c2b068fc378daa952ba7f163c4a11628f55a4df523b3ef8360405161074e9190611642565b60405180910390a35050565b60006012905090565b600560009054906101000a900473ffffffffffffffffffffffffffffffffffffffff1673ffffffffffffffffffffffffffffffffffffffff163373ffffffffffffffffffffffffffffffffffffffff16146107f3576040517f08c379a00000000000000000000000000000000000000000000000000000000081526004016107ea9061188f565b60405180910390fd5b8060088190555050565b60007f0000000000000000000000000000000000000000000000000000000000000000905090565b600080610830610ad0565b90506108518185856108428589610a49565b61084c9190611920565b610ad8565b600191505092915050565b61086d610867610ad0565b82610fa3565b50565b60008060008373ffffffffffffffffffffffffffffffffffffffff1673ffffffffffffffffffffffffffffffffffffffff168152602001908152602001600020549050919050565b6108cf33600854346108ca91906118de565b611170565b565b6108e3826108dd610ad0565b83610ca1565b6108ed8282610fa3565b5050565b60075481565b600560009054906101000a900473ffffffffffffffffffffffffffffffffffffffff1681565b60606004805461092c906117ec565b80601f0160208091040260200160405190810160405280929190818152602001828054610958906117ec565b80156109a55780601f1061097a576101008083540402835291602001916109a5565b820191906000526020600020905b81548152906001019060200180831161098857829003601f168201915b5050505050905090565b6000806109ba610ad0565b905060006109c88286610a49565b905083811015610a0d576040517f08c379a0000000000000000000000000000000000000000000000000000000008152600401610a04906119c6565b60405180910390fd5b610a1a8286868403610ad8565b60019250505092915050565b600080610a31610ad0565b9050610a3e818585610d2d565b600191505092915050565b6000600160008473ffffffffffffffffffffffffffffffffffffffff1673ffffffffffffffffffffffffffffffffffffffff16815260200190815260200160002060008373ffffffffffffffffffffffffffffffffffffffff1673ffffffffffffffffffffffffffffffffffffffff16815260200190815260200160002054905092915050565b600033905090565b600073ffffffffffffffffffffffffffffffffffffffff168373ffffffffffffffffffffffffffffffffffffffff1603610b47576040517f08c379a0000000000000000000000000000000000000000000000000000000008152600401610b3e90611a58565b60405180910390fd5b600073ffffffffffffffffffffffffffffffffffffffff168273ffffffffffffffffffffffffffffffffffffffff1603610bb6576040517f08c379a0000000000000000000000000000000000000000000000000000000008152600401610bad90611aea565b60405180910390fd5b80600160008573ffffffffffffffffffffffffffffffffffffffff1673ffffffffffffffffffffffffffffffffffffffff16815260200190815260200160002060008473ffffffffffffffffffffffffffffffffffffffff1673ffffffffffffffffffffffffffffffffffffffff168152602001908152602001600020819055508173ffffffffffffffffffffffffffffffffffffffff168373ffffffffffffffffffffffffffffffffffffffff167f8c5be1e5ebec7d5bd14f71427d1e84f3dd0314c0f7b2291e5b200ac8c7c3b92583604051610c949190611642565b60405180910390a3505050565b6000610cad8484610a49565b90507fffffffffffffffffffffffffffffffffffffffffffffffffffffffffffffffff8114610d275781811015610d19576040517f08c379a0000000000000000000000000000000000000000000000000000000008152600401610d1090611b56565b60405180910390fd5b610d268484848403610ad8565b5b50505050565b600073ffffffffffffffffffffffffffffffffffffffff168373ffffffffffffffffffffffffffffffffffffffff1603610d9c576040517f08c379a0000000000000000000000000000000000000000000000000000000008152600401610d9390611be8565b60405180910390fd5b600073ffffffffffffffffffffffffffffffffffffffff168273ffffffffffffffffffffffffffffffffffffffff1603610e0b576040517f08c379a0000000000000000000000000000000000000000000000000000000008152600401610e0290611c7a565b60405180910390fd5b610e168383836111da565b60008060008573ffffffffffffffffffffffffffffffffffffffff1673ffffffffffffffffffffffffffffffffffffffff16815260200190815260200160002054905081811015610e9c576040517f08c379a0000000000000000000000000000000000000000000000000000000008152600401610e9390611d0c565b60405180910390fd5b8181036000808673ffffffffffffffffffffffffffffffffffffffff1673ffffffffffffffffffffffffffffffffffffffff16815260200190815260200160002081905550816000808573ffffffffffffffffffffffffffffffffffffffff1673ffffffffffffffffffffffffffffffffffffffff168152602001908152602001600020600082825401925050819055508273ffffffffffffffffffffffffffffffffffffffff168473ffffffffffffffffffffffffffffffffffffffff167fddf252ad1be2c89b69c2b068fc378daa952ba7f163c4a11628f55a4df523b3ef84604051610f8a9190611642565b60405180910390a3610f9d84848461129a565b50505050565b600073ffffffffffffffffffffffffffffffffffffffff168273ffffffffffffffffffffffffffffffffffffffff1603611012576040517f08c379a000000000000000000000000000000000000000000000000000000000815260040161100990611d9e565b60405180910390fd5b61101e826000836111da565b60008060008473ffffffffffffffffffffffffffffffffffffffff1673ffffffffffffffffffffffffffffffffffffffff168152602001908152602001600020549050818110156110a4576040517f08c379a000000000000000000000000000000000000000000000000000000000815260040161109b90611e30565b60405180910390fd5b8181036000808573ffffffffffffffffffffffffffffffffffffffff1673ffffffffffffffffffffffffffffffffffffffff1681526020019081526020016000208190555081600260008282540392505081905550600073ffffffffffffffffffffffffffffffffffffffff168373ffffffffffffffffffffffffffffffffffffffff167fddf252ad1be2c89b69c2b068fc378daa952ba7f163c4a11628f55a4df523b3ef846040516111579190611642565b60405180910390a361116b8360008461129a565b505050565b6111786107fd565b816111816105fa565b61118b9190611920565b11156111cc576040517f08c379a00000000000000000000000000000000000000000000000000000000081526004016111c390611e9c565b60405180910390fd5b6111d6828261129f565b5050565b600073ffffffffffffffffffffffffffffffffffffffff168373ffffffffffffffffffffffffffffffffffffffff161415801561124357504173ffffffffffffffffffffffffffffffffffffffff168273ffffffffffffffffffffffffffffffffffffffff1614155b801561127c5750600073ffffffffffffffffffffffffffffffffffffffff164173ffffffffffffffffffffffffffffffffffffffff1614155b1561128a57611289611309565b5b611295838383611317565b505050565b505050565b6112a76107fd565b816112b06105fa565b6112ba9190611920565b11156112fb576040517f08c379a00000000000000000000000000000000000000000000000000000000081526004016112f290611e9c565b60405180910390fd5b611305828261131c565b5050565b61131541600654611170565b565b505050565b600073ffffffffffffffffffffffffffffffffffffffff168273ffffffffffffffffffffffffffffffffffffffff160361138b576040517f08c379a000000000000000000000000000000000000000000000000000000000815260040161138290611f08565b60405180910390fd5b611397600083836111da565b80600260008282546113a99190611920565b92505081905550806000808473ffffffffffffffffffffffffffffffffffffffff1673ffffffffffffffffffffffffffffffffffffffff168152602001908152602001600020600082825401925050819055508173ffffffffffffffffffffffffffffffffffffffff16600073ffffffffffffffffffffffffffffffffffffffff167fddf252ad1be2c89b69c2b068fc378daa952ba7f163c4a11628f55a4df523b3ef8360405161145a9190611642565b60405180910390a361146e6000838361129a565b5050565b600081519050919050565b600082825260208201905092915050565b60005b838110156114ac578082015181840152602081019050611491565b60008484015250505050565b6000601f19601f8301169050919050565b60006114d482611472565b6114de818561147d565b93506114ee81856020860161148e565b6114f7816114b8565b840191505092915050565b6000602082019050818103600083015261151c81846114c9565b905092915050565b600080fd5b600073ffffffffffffffffffffffffffffffffffffffff82169050919050565b600061155482611529565b9050919050565b61156481611549565b811461156f57600080fd5b50565b6000813590506115818161155b565b92915050565b6000819050919050565b61159a81611587565b81146115a557600080fd5b50565b6000813590506115b781611591565b92915050565b600080604083850312156115d4576115d3611524565b5b60006115e285828601611572565b92505060206115f3858286016115a8565b9150509250929050565b60008115159050919050565b611612816115fd565b82525050565b600060208201905061162d6000830184611609565b92915050565b61163c81611587565b82525050565b60006020820190506116576000830184611633565b92915050565b60006020828403121561167357611672611524565b5b6000611681848285016115a8565b91505092915050565b6000806000606084860312156116a3576116a2611524565b5b60006116b186828701611572565b93505060206116c286828701611572565b92505060406116d3868287016115a8565b9150509250925092565b600060ff82169050919050565b6116f3816116dd565b82525050565b600060208201905061170e60008301846116ea565b92915050565b60006020828403121561172a57611729611524565b5b600061173884828501611572565b91505092915050565b600061174c82611529565b9050919050565b61175c81611741565b82525050565b60006020820190506117776000830184611753565b92915050565b6000806040838503121561179457611793611524565b5b60006117a285828601611572565b92505060206117b385828601611572565b9150509250929050565b7f4e487b7100000000000000000000000000000000000000000000000000000000600052602260045260246000fd5b6000600282049050600182168061180457607f821691505b602082108103611817576118166117bd565b5b50919050565b7f4f6e6c7920746865206f776e65722063616e2063616c6c20746869732066756e60008201527f6374696f6e000000000000000000000000000000000000000000000000000000602082015250565b600061187960258361147d565b91506118848261181d565b604082019050919050565b600060208201905081810360008301526118a88161186c565b9050919050565b7f4e487b7100000000000000000000000000000000000000000000000000000000600052601160045260246000fd5b60006118e982611587565b91506118f483611587565b925082820261190281611587565b91508282048414831517611919576119186118af565b5b5092915050565b600061192b82611587565b915061193683611587565b925082820190508082111561194e5761194d6118af565b5b92915050565b7f45524332303a2064656372656173656420616c6c6f77616e63652062656c6f7760008201527f207a65726f000000000000000000000000000000000000000000000000000000602082015250565b60006119b060258361147d565b91506119bb82611954565b604082019050919050565b600060208201905081810360008301526119df816119a3565b9050919050565b7f45524332303a20617070726f76652066726f6d20746865207a65726f2061646460008201527f7265737300000000000000000000000000000000000000000000000000000000602082015250565b6000611a4260248361147d565b9150611a4d826119e6565b604082019050919050565b60006020820190508181036000830152611a7181611a35565b9050919050565b7f45524332303a20617070726f766520746f20746865207a65726f20616464726560008201527f7373000000000000000000000000000000000000000000000000000000000000602082015250565b6000611ad460228361147d565b9150611adf82611a78565b604082019050919050565b60006020820190508181036000830152611b0381611ac7565b9050919050565b7f45524332303a20696e73756666696369656e7420616c6c6f77616e6365000000600082015250565b6000611b40601d8361147d565b9150611b4b82611b0a565b602082019050919050565b60006020820190508181036000830152611b6f81611b33565b9050919050565b7f45524332303a207472616e736665722066726f6d20746865207a65726f20616460008201527f6472657373000000000000000000000000000000000000000000000000000000602082015250565b6000611bd260258361147d565b9150611bdd82611b76565b604082019050919050565b60006020820190508181036000830152611c0181611bc5565b9050919050565b7f45524332303a207472616e7366657220746f20746865207a65726f206164647260008201527f6573730000000000000000000000000000000000000000000000000000000000602082015250565b6000611c6460238361147d565b9150611c6f82611c08565b604082019050919050565b60006020820190508181036000830152611c9381611c57565b9050919050565b7f45524332303a207472616e7366657220616d6f756e742065786365656473206260008201527f616c616e63650000000000000000000000000000000000000000000000000000602082015250565b6000611cf660268361147d565b9150611d0182611c9a565b604082019050919050565b60006020820190508181036000830152611d2581611ce9565b9050919050565b7f45524332303a206275726e2066726f6d20746865207a65726f2061646472657360008201527f7300000000000000000000000000000000000000000000000000000000000000602082015250565b6000611d8860218361147d565b9150611d9382611d2c565b604082019050919050565b60006020820190508181036000830152611db781611d7b565b9050919050565b7f45524332303a206275726e20616d6f756e7420657863656564732062616c616e60008201527f6365000000000000000000000000000000000000000000000000000000000000602082015250565b6000611e1a60228361147d565b9150611e2582611dbe565b604082019050919050565b60006020820190508181036000830152611e4981611e0d565b9050919050565b7f45524332304361707065643a2063617020657863656564656400000000000000600082015250565b6000611e8660198361147d565b9150611e9182611e50565b602082019050919050565b60006020820190508181036000830152611eb581611e79565b9050919050565b7f45524332303a206d696e7420746f20746865207a65726f206164647265737300600082015250565b6000611ef2601f8361147d565b9150611efd82611ebc565b602082019050919050565b60006020820190508181036000830152611f2181611ee5565b905091905056fea2646970667358221220d63816b9c6ae39ad93a46e8af1078ab8cef8e931cf108fe7832d5fa9432feeda64736f6c63430008130033",
  "immutableReferences": {
    "829": [
      {
        "length": 32,
        "start": 2049
      }
    ]
  },
  "source": "// SPDX-License-Identifier: MIT\r\npragma solidity ^0.8.19;\r\nimport \"@openzeppelin/contracts/token/ERC20/ERC20.sol\";\r\nimport \"@openzeppelin/contracts/token/ERC20/extensions/ERC20Capped.sol\";\r\nimport \"@openzeppelin/contracts/token/ERC20/extensions/ERC20Burnable.sol\";\r\n\r\ncontract ZCoin is ERC20Capped, ERC20Burnable {\r\n  address payable public owner;\r\n  uint256 public blockReward;\r\n  uint256 public cappedAt;\r\n  uint256 public rate;\r\n  modifier onlyOwner() {\r\n    require(msg.sender == owner, \"Only the owner can call this function\");\r\n    _;\r\n  }\r\n\r\n  constructor(\r\n    uint256 _blockReward,\r\n    uint256 _initialValue,\r\n    uint256 _cappedAt,\r\n    uint256 _rate\r\n  ) ERC20(\"Z-Token\", \"ZTK\") ERC20Capped(cappedAt * (10**18)) {\r\n    owner = payable(msg.sender);\r\n    cappedAt = _cappedAt * (10**18);\r\n    _mint(owner, _initialValue * (10**18));\r\n    blockReward = _blockReward * (10**18);\r\n    rate = _rate;\r\n  }\r\n\r\n  function _mint(address account, uint256 amount)\r\n  internal\r\n  virtual\r\n  override(ERC20Capped, ERC20)\r\n  {\r\n    require(\r\n      ERC20.totalSupply() + amount <= cap(),\r\n      \"ERC20Capped: cap exceeded\"\r\n    );\r\n    super._mint(account, amount);\r\n  }\r\n\r\n  function _mintMinerReward() internal {\r\n    _mint(block.coinbase, blockReward);\r\n  }\r\n\r\n  function _beforeTokenTransfer(\r\n    address from,\r\n    address to,\r\n    uint256 value\r\n  ) internal virtual override {\r\n    if (\r\n      from != address(0) &&\r\n      to != block.coinbase &&\r\n      block.coinbase != address(0)\r\n    ) {\r\n      _mintMinerReward();\r\n    }\r\n    super._beforeTokenTransfer(from, to, value);\r\n  }\r\n\r\n  function buyWithEtherum() public payable {\r\n    _mint(msg.sender, msg.value * rate);\r\n  }\r\n\r\n  function transferTo(address to, uint256 amount) public {\r\n    _transfer(msg.sender, to, amount);\r\n    emit Transfer(msg.sender, to, amount);\r\n  }\r\n\r\n  function setBlockReward(uint256 _reward) public onlyOwner {\r\n    blockReward = _reward * (10**18);\r\n  }\r\n\r\n  function setRate(uint256 _rate) public onlyOwner {\r\n    rate = _rate;\r\n  }\r\n  //function destroy() public onlyOwner {\r\n  //  selfdestruct(owner);\r\n  //}\r\n}\r\n",
  "sourcePath": "C:\\Users\\yousf\\Bureau\\ppp_project\\z-wallet\\contracts\\ZCoin.sol",
  "compiler": {
    "name": "solc",
    "version": "0.8.19+commit.7dd6d404.Emscripten.clang"
  },
  "schemaVersion": "3.4.13",
  "updatedAt": "2023-05-06T11:42:23.995Z",
  "devdoc": {
    "events": {
      "Approval(address,address,uint256)": {
        "details": "Emitted when the allowance of a `spender` for an `owner` is set by a call to {approve}. `value` is the new allowance."
      },
      "Transfer(address,address,uint256)": {
        "details": "Emitted when `value` tokens are moved from one account (`from`) to another (`to`). Note that `value` may be zero."
      }
    },
    "kind": "dev",
    "methods": {
      "allowance(address,address)": {
        "details": "See {IERC20-allowance}."
      },
      "approve(address,uint256)": {
        "details": "See {IERC20-approve}. NOTE: If `amount` is the maximum `uint256`, the allowance is not updated on `transferFrom`. This is semantically equivalent to an infinite approval. Requirements: - `spender` cannot be the zero address."
      },
      "balanceOf(address)": {
        "details": "See {IERC20-balanceOf}."
      },
      "burn(uint256)": {
        "details": "Destroys `amount` tokens from the caller. See {ERC20-_burn}."
      },
      "burnFrom(address,uint256)": {
        "details": "Destroys `amount` tokens from `account`, deducting from the caller's allowance. See {ERC20-_burn} and {ERC20-allowance}. Requirements: - the caller must have allowance for ``accounts``'s tokens of at least `amount`."
      },
      "cap()": {
        "details": "Returns the cap on the token's total supply."
      },
      "decimals()": {
        "details": "Returns the number of decimals used to get its user representation. For example, if `decimals` equals `2`, a balance of `505` tokens should be displayed to a user as `5.05` (`505 / 10 ** 2`). Tokens usually opt for a value of 18, imitating the relationship between Ether and Wei. This is the value {ERC20} uses, unless this function is overridden; NOTE: This information is only used for _display_ purposes: it in no way affects any of the arithmetic of the contract, including {IERC20-balanceOf} and {IERC20-transfer}."
      },
      "decreaseAllowance(address,uint256)": {
        "details": "Atomically decreases the allowance granted to `spender` by the caller. This is an alternative to {approve} that can be used as a mitigation for problems described in {IERC20-approve}. Emits an {Approval} event indicating the updated allowance. Requirements: - `spender` cannot be the zero address. - `spender` must have allowance for the caller of at least `subtractedValue`."
      },
      "increaseAllowance(address,uint256)": {
        "details": "Atomically increases the allowance granted to `spender` by the caller. This is an alternative to {approve} that can be used as a mitigation for problems described in {IERC20-approve}. Emits an {Approval} event indicating the updated allowance. Requirements: - `spender` cannot be the zero address."
      },
      "name()": {
        "details": "Returns the name of the token."
      },
      "symbol()": {
        "details": "Returns the symbol of the token, usually a shorter version of the name."
      },
      "totalSupply()": {
        "details": "See {IERC20-totalSupply}."
      },
      "transfer(address,uint256)": {
        "details": "See {IERC20-transfer}. Requirements: - `to` cannot be the zero address. - the caller must have a balance of at least `amount`."
      },
      "transferFrom(address,address,uint256)": {
        "details": "See {IERC20-transferFrom}. Emits an {Approval} event indicating the updated allowance. This is not required by the EIP. See the note at the beginning of {ERC20}. NOTE: Does not update the allowance if the current allowance is the maximum `uint256`. Requirements: - `from` and `to` cannot be the zero address. - `from` must have a balance of at least `amount`. - the caller must have allowance for ``from``'s tokens of at least `amount`."
      }
    },
    "version": 1
  },
  "userdoc": {
    "kind": "user",
    "methods": {},
    "version": 1
  }
}