{
  "contractName": "ZWallet",
  "abi": [
    {
      "inputs": [
        {
          "internalType": "uint256",
          "name": "_zBlockReward",
          "type": "uint256"
        },
        {
          "internalType": "uint256",
          "name": "_zInitialValue",
          "type": "uint256"
        },
        {
          "internalType": "uint256",
          "name": "_zCappedAt",
          "type": "uint256"
        },
        {
          "internalType": "uint256",
          "name": "_zRate",
          "type": "uint256"
        },
        {
          "internalType": "string",
          "name": "_nftBaseURI",
          "type": "string"
        },
        {
          "internalType": "uint256",
          "name": "_mintCostETH",
          "type": "uint256"
        },
        {
          "internalType": "uint256",
          "name": "_mintCostZTK",
          "type": "uint256"
        }
      ],
      "stateMutability": "nonpayable",
      "type": "constructor"
    },
    {
      "anonymous": false,
      "inputs": [
        {
          "indexed": false,
          "internalType": "uint256",
          "name": "id",
          "type": "uint256"
        },
        {
          "indexed": true,
          "internalType": "address",
          "name": "nftOwner",
          "type": "address"
        },
        {
          "indexed": true,
          "internalType": "string",
          "name": "tokenURI",
          "type": "string"
        },
        {
          "indexed": false,
          "internalType": "bool",
          "name": "forSale",
          "type": "bool"
        },
        {
          "indexed": false,
          "internalType": "uint256",
          "name": "cost",
          "type": "uint256"
        },
        {
          "indexed": false,
          "internalType": "uint256",
          "name": "timestamp",
          "type": "uint256"
        }
      ],
      "name": "NFTMinted",
      "type": "event"
    },
    {
      "anonymous": false,
      "inputs": [
        {
          "indexed": false,
          "internalType": "uint256",
          "name": "nftId",
          "type": "uint256"
        },
        {
          "indexed": false,
          "internalType": "address",
          "name": "seller",
          "type": "address"
        },
        {
          "indexed": false,
          "internalType": "address",
          "name": "buyer",
          "type": "address"
        }
      ],
      "name": "NFTSold",
      "type": "event"
    },
    {
      "inputs": [],
      "name": "mintingNFTCostWithETH",
      "outputs": [
        {
          "internalType": "uint256",
          "name": "",
          "type": "uint256"
        }
      ],
      "stateMutability": "view",
      "type": "function"
    },
    {
      "inputs": [],
      "name": "mintingNFTCostWithZTK",
      "outputs": [
        {
          "internalType": "uint256",
          "name": "",
          "type": "uint256"
        }
      ],
      "stateMutability": "view",
      "type": "function"
    },
    {
      "inputs": [
        {
          "internalType": "uint256",
          "name": "",
          "type": "uint256"
        }
      ],
      "name": "nfts",
      "outputs": [
        {
          "internalType": "uint256",
          "name": "id",
          "type": "uint256"
        },
        {
          "internalType": "address",
          "name": "nftOwner",
          "type": "address"
        },
        {
          "internalType": "string",
          "name": "imageURL",
          "type": "string"
        },
        {
          "internalType": "bool",
          "name": "forSale",
          "type": "bool"
        },
        {
          "internalType": "uint256",
          "name": "cost",
          "type": "uint256"
        },
        {
          "internalType": "uint256",
          "name": "timestamp",
          "type": "uint256"
        }
      ],
      "stateMutability": "view",
      "type": "function"
    },
    {
      "inputs": [],
      "name": "owner",
      "outputs": [
        {
          "internalType": "address payable",
          "name": "",
          "type": "address"
        }
      ],
      "stateMutability": "view",
      "type": "function"
    },
    {
      "inputs": [],
      "name": "buyZCoin",
      "outputs": [],
      "stateMutability": "payable",
      "type": "function"
    },
    {
      "inputs": [
        {
          "internalType": "bool",
          "name": "_forSale",
          "type": "bool"
        },
        {
          "internalType": "uint256",
          "name": "_cost",
          "type": "uint256"
        }
      ],
      "name": "mintNFTWithEth",
      "outputs": [],
      "stateMutability": "payable",
      "type": "function"
    },
    {
      "inputs": [
        {
          "internalType": "bool",
          "name": "_forSale",
          "type": "bool"
        },
        {
          "internalType": "uint256",
          "name": "_cost",
          "type": "uint256"
        }
      ],
      "name": "mintNFTWithZTK",
      "outputs": [],
      "stateMutability": "nonpayable",
      "type": "function"
    },
    {
      "inputs": [
        {
          "internalType": "uint256",
          "name": "nftId",
          "type": "uint256"
        }
      ],
      "name": "sellNFT",
      "outputs": [],
      "stateMutability": "nonpayable",
      "type": "function"
    }
  ],
  "bytecode": "0x60806040523480156200001157600080fd5b506040516200910438038062009104833981810160405281019062000037919062000386565b336000806101000a81548173ffffffffffffffffffffffffffffffffffffffff021916908373ffffffffffffffffffffffffffffffffffffffff1602179055508260405162000086906200019c565b62000092919062000555565b604051809103906000f080158015620000af573d6000803e3d6000fd5b50600260006101000a81548173ffffffffffffffffffffffffffffffffffffffff021916908373ffffffffffffffffffffffffffffffffffffffff1602179055508260019081620001019190620007d9565b50868686866040516200011490620001aa565b620001239493929190620008d1565b604051809103906000f08015801562000140573d6000803e3d6000fd5b50600360006101000a81548173ffffffffffffffffffffffffffffffffffffffff021916908373ffffffffffffffffffffffffffffffffffffffff1602179055508160048190555080600581905550505050505050506200091e565b613e89806200272983390190565b612b5280620065b283390190565b6000604051905090565b600080fd5b600080fd5b6000819050919050565b620001e181620001cc565b8114620001ed57600080fd5b50565b6000815190506200020181620001d6565b92915050565b600080fd5b600080fd5b6000601f19601f8301169050919050565b7f4e487b7100000000000000000000000000000000000000000000000000000000600052604160045260246000fd5b6200025c8262000211565b810181811067ffffffffffffffff821117156200027e576200027d62000222565b5b80604052505050565b600062000293620001b8565b9050620002a1828262000251565b919050565b600067ffffffffffffffff821115620002c457620002c362000222565b5b620002cf8262000211565b9050602081019050919050565b60005b83811015620002fc578082015181840152602081019050620002df565b60008484015250505050565b60006200031f6200031984620002a6565b62000287565b9050828152602081018484840111156200033e576200033d6200020c565b5b6200034b848285620002dc565b509392505050565b600082601f8301126200036b576200036a62000207565b5b81516200037d84826020860162000308565b91505092915050565b600080600080600080600060e0888a031215620003a857620003a7620001c2565b5b6000620003b88a828b01620001f0565b9750506020620003cb8a828b01620001f0565b9650506040620003de8a828b01620001f0565b9550506060620003f18a828b01620001f0565b945050608088015167ffffffffffffffff811115620004155762000414620001c7565b5b620004238a828b0162000353565b93505060a0620004368a828b01620001f0565b92505060c0620004498a828b01620001f0565b91505092959891949750929550565b600082825260208201905092915050565b7f7a2d617765736f6d652d6e667473000000000000000000000000000000000000600082015250565b6000620004a1600e8362000458565b9150620004ae8262000469565b602082019050919050565b7f7a2d6e6674000000000000000000000000000000000000000000000000000000600082015250565b6000620004f160058362000458565b9150620004fe82620004b9565b602082019050919050565b600081519050919050565b6000620005218262000509565b6200052d818562000458565b93506200053f818560208601620002dc565b6200054a8162000211565b840191505092915050565b60006060820190508181036000830152620005708162000492565b905081810360208301526200058581620004e2565b905081810360408301526200059b818462000514565b905092915050565b7f4e487b7100000000000000000000000000000000000000000000000000000000600052602260045260246000fd5b60006002820490506001821680620005eb57607f821691505b602082108103620006015762000600620005a3565b5b50919050565b60008190508160005260206000209050919050565b60006020601f8301049050919050565b600082821b905092915050565b6000600883026200066b7fffffffffffffffffffffffffffffffffffffffffffffffffffffffffffffffff826200062c565b6200067786836200062c565b95508019841693508086168417925050509392505050565b6000819050919050565b6000620006ba620006b4620006ae84620001cc565b6200068f565b620001cc565b9050919050565b6000819050919050565b620006d68362000699565b620006ee620006e582620006c1565b84845462000639565b825550505050565b600090565b62000705620006f6565b62000712818484620006cb565b505050565b5b818110156200073a576200072e600082620006fb565b60018101905062000718565b5050565b601f8211156200078957620007538162000607565b6200075e846200061c565b810160208510156200076e578190505b620007866200077d856200061c565b83018262000717565b50505b505050565b600082821c905092915050565b6000620007ae600019846008026200078e565b1980831691505092915050565b6000620007c983836200079b565b9150826002028217905092915050565b620007e48262000509565b67ffffffffffffffff8111156200080057620007ff62000222565b5b6200080c8254620005d2565b620008198282856200073e565b600060209050601f8311600181146200085157600084156200083c578287015190505b620008488582620007bb565b865550620008b8565b601f198416620008618662000607565b60005b828110156200088b5784890151825560018201915060208501945060208101905062000864565b86831015620008ab5784890151620008a7601f8916826200079b565b8355505b6001600288020188555050505b505050505050565b620008cb81620001cc565b82525050565b6000608082019050620008e86000830187620008c0565b620008f76020830186620008c0565b620009066040830185620008c0565b620009156060830184620008c0565b95945050505050565b611dfb806200092e6000396000f3fe60806040526004361061007b5760003560e01c80638d2e963d1161004e5780638d2e963d146101325780638da5cb5b1461013c578063ac63ccec14610167578063ee9cdfb3146101925761007b565b8063265aa621146100805780632f6c0096146100c2578063586b7374146100de5780635fd8cba014610107575b600080fd5b34801561008c57600080fd5b506100a760048036038101906100a29190611475565b6101bb565b6040516100b99695949392919061159d565b60405180910390f35b6100dc60048036038101906100d79190611631565b6102bc565b005b3480156100ea57600080fd5b5061010560048036038101906101009190611631565b610839565b005b34801561011357600080fd5b5061011c610f0f565b6040516101299190611671565b60405180910390f35b61013a610f15565b005b34801561014857600080fd5b50610151610f9a565b60405161015e91906116ad565b60405180910390f35b34801561017357600080fd5b5061017c610fbe565b6040516101899190611671565b60405180910390f35b34801561019e57600080fd5b506101b960048036038101906101b49190611475565b610fc4565b005b600681815481106101cb57600080fd5b90600052602060002090600602016000915090508060000154908060010160009054906101000a900473ffffffffffffffffffffffffffffffffffffffff169080600201805461021a906116f7565b80601f0160208091040260200160405190810160405280929190818152602001828054610246906116f7565b80156102935780601f1061026857610100808354040283529160200191610293565b820191906000526020600020905b81548152906001019060200180831161027657829003601f168201915b5050505050908060030160009054906101000a900460ff16908060040154908060050154905086565b600260009054906101000a900473ffffffffffffffffffffffffffffffffffffffff1673ffffffffffffffffffffffffffffffffffffffff16631249c58b6040518163ffffffff1660e01b8152600401600060405180830381600087803b15801561032657600080fd5b505af115801561033a573d6000803e3d6000fd5b5050505060066040518060c00160405280600260009054906101000a900473ffffffffffffffffffffffffffffffffffffffff1673ffffffffffffffffffffffffffffffffffffffff166318160ddd6040518163ffffffff1660e01b8152600401602060405180830381865afa1580156103b8573d6000803e3d6000fd5b505050506040513d601f19601f820116820180604052508101906103dc919061173d565b81526020013373ffffffffffffffffffffffffffffffffffffffff168152602001600260009054906101000a900473ffffffffffffffffffffffffffffffffffffffff1673ffffffffffffffffffffffffffffffffffffffff1663338d8dc5600260009054906101000a900473ffffffffffffffffffffffffffffffffffffffff1673ffffffffffffffffffffffffffffffffffffffff166318160ddd6040518163ffffffff1660e01b8152600401602060405180830381865afa1580156104a8573d6000803e3d6000fd5b505050506040513d601f19601f820116820180604052508101906104cc919061173d565b6040518263ffffffff1660e01b81526004016104e89190611671565b600060405180830381865afa158015610505573d6000803e3d6000fd5b505050506040513d6000823e3d601f19601f8201168201806040525081019061052e9190611890565b815260200184151581526020018381526020014281525090806001815401808255809150506001900390600052602060002090600602016000909190919091506000820151816000015560208201518160010160006101000a81548173ffffffffffffffffffffffffffffffffffffffff021916908373ffffffffffffffffffffffffffffffffffffffff16021790555060408201518160020190816105d49190611a85565b5060608201518160030160006101000a81548160ff0219169083151502179055506080820151816004015560a082015181600501555050600260009054906101000a900473ffffffffffffffffffffffffffffffffffffffff1673ffffffffffffffffffffffffffffffffffffffff1663338d8dc5600260009054906101000a900473ffffffffffffffffffffffffffffffffffffffff1673ffffffffffffffffffffffffffffffffffffffff166318160ddd6040518163ffffffff1660e01b8152600401602060405180830381865afa1580156106b6573d6000803e3d6000fd5b505050506040513d601f19601f820116820180604052508101906106da919061173d565b6040518263ffffffff1660e01b81526004016106f69190611671565b600060405180830381865afa158015610713573d6000803e3d6000fd5b505050506040513d6000823e3d601f19601f8201168201806040525081019061073c9190611890565b6040516107499190611b93565b60405180910390203373ffffffffffffffffffffffffffffffffffffffff167f1ab6fadf2224261349e3d70475eda8d57019168a810c6a6efb116c479df994d1600260009054906101000a900473ffffffffffffffffffffffffffffffffffffffff1673ffffffffffffffffffffffffffffffffffffffff166318160ddd6040518163ffffffff1660e01b8152600401602060405180830381865afa1580156107f6573d6000803e3d6000fd5b505050506040513d601f19601f8201168201806040525081019061081a919061173d565b85854260405161082d9493929190611baa565b60405180910390a35050565b600554600360009054906101000a900473ffffffffffffffffffffffffffffffffffffffff1673ffffffffffffffffffffffffffffffffffffffff166370a08231336040518263ffffffff1660e01b81526004016108979190611bef565b602060405180830381865afa1580156108b4573d6000803e3d6000fd5b505050506040513d601f19601f820116820180604052508101906108d8919061173d565b10156108e357600080fd5b600360009054906101000a900473ffffffffffffffffffffffffffffffffffffffff1673ffffffffffffffffffffffffffffffffffffffff16632ccb1b3060008054906101000a900473ffffffffffffffffffffffffffffffffffffffff16836040518363ffffffff1660e01b8152600401610960929190611c5f565b600060405180830381600087803b15801561097a57600080fd5b505af115801561098e573d6000803e3d6000fd5b50505050600260009054906101000a900473ffffffffffffffffffffffffffffffffffffffff1673ffffffffffffffffffffffffffffffffffffffff16631249c58b6040518163ffffffff1660e01b8152600401600060405180830381600087803b1580156109fc57600080fd5b505af1158015610a10573d6000803e3d6000fd5b5050505060066040518060c00160405280600260009054906101000a900473ffffffffffffffffffffffffffffffffffffffff1673ffffffffffffffffffffffffffffffffffffffff166318160ddd6040518163ffffffff1660e01b8152600401602060405180830381865afa158015610a8e573d6000803e3d6000fd5b505050506040513d601f19601f82011682018060405250810190610ab2919061173d565b81526020013373ffffffffffffffffffffffffffffffffffffffff168152602001600260009054906101000a900473ffffffffffffffffffffffffffffffffffffffff1673ffffffffffffffffffffffffffffffffffffffff1663338d8dc5600260009054906101000a900473ffffffffffffffffffffffffffffffffffffffff1673ffffffffffffffffffffffffffffffffffffffff166318160ddd6040518163ffffffff1660e01b8152600401602060405180830381865afa158015610b7e573d6000803e3d6000fd5b505050506040513d601f19601f82011682018060405250810190610ba2919061173d565b6040518263ffffffff1660e01b8152600401610bbe9190611671565b600060405180830381865afa158015610bdb573d6000803e3d6000fd5b505050506040513d6000823e3d601f19601f82011682018060405250810190610c049190611890565b815260200184151581526020018381526020014281525090806001815401808255809150506001900390600052602060002090600602016000909190919091506000820151816000015560208201518160010160006101000a81548173ffffffffffffffffffffffffffffffffffffffff021916908373ffffffffffffffffffffffffffffffffffffffff1602179055506040820151816002019081610caa9190611a85565b5060608201518160030160006101000a81548160ff0219169083151502179055506080820151816004015560a082015181600501555050600260009054906101000a900473ffffffffffffffffffffffffffffffffffffffff1673ffffffffffffffffffffffffffffffffffffffff1663338d8dc5600260009054906101000a900473ffffffffffffffffffffffffffffffffffffffff1673ffffffffffffffffffffffffffffffffffffffff166318160ddd6040518163ffffffff1660e01b8152600401602060405180830381865afa158015610d8c573d6000803e3d6000fd5b505050506040513d601f19601f82011682018060405250810190610db0919061173d565b6040518263ffffffff1660e01b8152600401610dcc9190611671565b600060405180830381865afa158015610de9573d6000803e3d6000fd5b505050506040513d6000823e3d601f19601f82011682018060405250810190610e129190611890565b604051610e1f9190611b93565b60405180910390203373ffffffffffffffffffffffffffffffffffffffff167f1ab6fadf2224261349e3d70475eda8d57019168a810c6a6efb116c479df994d1600260009054906101000a900473ffffffffffffffffffffffffffffffffffffffff1673ffffffffffffffffffffffffffffffffffffffff166318160ddd6040518163ffffffff1660e01b8152600401602060405180830381865afa158015610ecc573d6000803e3d6000fd5b505050506040513d601f19601f82011682018060405250810190610ef0919061173d565b858542604051610f039493929190611baa565b60405180910390a35050565b60055481565b600360009054906101000a900473ffffffffffffffffffffffffffffffffffffffff1673ffffffffffffffffffffffffffffffffffffffff1663726683b2346040518263ffffffff1660e01b81526004016000604051808303818588803b158015610f7f57600080fd5b505af1158015610f93573d6000803e3d6000fd5b5050505050565b60008054906101000a900473ffffffffffffffffffffffffffffffffffffffff1681565b60045481565b60005b600680549050811015611427578160068281548110610fe957610fe8611c88565b5b90600052602060002090600602016000015403611414576006818154811061101457611013611c88565b5b906000526020600020906006020160040154600360009054906101000a900473ffffffffffffffffffffffffffffffffffffffff1673ffffffffffffffffffffffffffffffffffffffff166370a08231336040518263ffffffff1660e01b81526004016110819190611bef565b602060405180830381865afa15801561109e573d6000803e3d6000fd5b505050506040513d601f19601f820116820180604052508101906110c2919061173d565b10156110cd57600080fd5b60011515600682815481106110e5576110e4611c88565b5b906000526020600020906006020160030160009054906101000a900460ff1615151461111057600080fd5b600360009054906101000a900473ffffffffffffffffffffffffffffffffffffffff1673ffffffffffffffffffffffffffffffffffffffff16632ccb1b306006838154811061116257611161611c88565b5b906000526020600020906006020160010160009054906101000a900473ffffffffffffffffffffffffffffffffffffffff16600684815481106111a8576111a7611c88565b5b9060005260206000209060060201600401546040518363ffffffff1660e01b81526004016111d7929190611cb7565b600060405180830381600087803b1580156111f157600080fd5b505af1158015611205573d6000803e3d6000fd5b50505050600260009054906101000a900473ffffffffffffffffffffffffffffffffffffffff1673ffffffffffffffffffffffffffffffffffffffff166369e9cae16006838154811061125b5761125a611c88565b5b906000526020600020906006020160010160009054906101000a900473ffffffffffffffffffffffffffffffffffffffff1633600685815481106112a2576112a1611c88565b5b9060005260206000209060060201600001546040518463ffffffff1660e01b81526004016112d293929190611ce0565b600060405180830381600087803b1580156112ec57600080fd5b505af1158015611300573d6000803e3d6000fd5b5050505060006006828154811061131a57611319611c88565b5b906000526020600020906006020160010160009054906101000a900473ffffffffffffffffffffffffffffffffffffffff169050336006838154811061136357611362611c88565b5b906000526020600020906006020160010160006101000a81548173ffffffffffffffffffffffffffffffffffffffff021916908373ffffffffffffffffffffffffffffffffffffffff1602179055507ff076e74c3b31fba126074acbffcdd9d113b723bf30ad339f58dfe3002a8310df600683815481106113e7576113e6611c88565b5b906000526020600020906006020160000154823360405161140a93929190611d17565b60405180910390a1505b808061141f90611d7d565b915050610fc7565b5050565b6000604051905090565b600080fd5b600080fd5b6000819050919050565b6114528161143f565b811461145d57600080fd5b50565b60008135905061146f81611449565b92915050565b60006020828403121561148b5761148a611435565b5b600061149984828501611460565b91505092915050565b6114ab8161143f565b82525050565b600073ffffffffffffffffffffffffffffffffffffffff82169050919050565b60006114dc826114b1565b9050919050565b6114ec816114d1565b82525050565b600081519050919050565b600082825260208201905092915050565b60005b8381101561152c578082015181840152602081019050611511565b60008484015250505050565b6000601f19601f8301169050919050565b6000611554826114f2565b61155e81856114fd565b935061156e81856020860161150e565b61157781611538565b840191505092915050565b60008115159050919050565b61159781611582565b82525050565b600060c0820190506115b260008301896114a2565b6115bf60208301886114e3565b81810360408301526115d18187611549565b90506115e0606083018661158e565b6115ed60808301856114a2565b6115fa60a08301846114a2565b979650505050505050565b61160e81611582565b811461161957600080fd5b50565b60008135905061162b81611605565b92915050565b6000806040838503121561164857611647611435565b5b60006116568582860161161c565b925050602061166785828601611460565b9150509250929050565b600060208201905061168660008301846114a2565b92915050565b6000611697826114b1565b9050919050565b6116a78161168c565b82525050565b60006020820190506116c2600083018461169e565b92915050565b7f4e487b7100000000000000000000000000000000000000000000000000000000600052602260045260246000fd5b6000600282049050600182168061170f57607f821691505b602082108103611722576117216116c8565b5b50919050565b60008151905061173781611449565b92915050565b60006020828403121561175357611752611435565b5b600061176184828501611728565b91505092915050565b600080fd5b600080fd5b7f4e487b7100000000000000000000000000000000000000000000000000000000600052604160045260246000fd5b6117ac82611538565b810181811067ffffffffffffffff821117156117cb576117ca611774565b5b80604052505050565b60006117de61142b565b90506117ea82826117a3565b919050565b600067ffffffffffffffff82111561180a57611809611774565b5b61181382611538565b9050602081019050919050565b600061183361182e846117ef565b6117d4565b90508281526020810184848401111561184f5761184e61176f565b5b61185a84828561150e565b509392505050565b600082601f8301126118775761187661176a565b5b8151611887848260208601611820565b91505092915050565b6000602082840312156118a6576118a5611435565b5b600082015167ffffffffffffffff8111156118c4576118c361143a565b5b6118d084828501611862565b91505092915050565b60008190508160005260206000209050919050565b60006020601f8301049050919050565b600082821b905092915050565b60006008830261193b7fffffffffffffffffffffffffffffffffffffffffffffffffffffffffffffffff826118fe565b61194586836118fe565b95508019841693508086168417925050509392505050565b6000819050919050565b600061198261197d6119788461143f565b61195d565b61143f565b9050919050565b6000819050919050565b61199c83611967565b6119b06119a882611989565b84845461190b565b825550505050565b600090565b6119c56119b8565b6119d0818484611993565b505050565b5b818110156119f4576119e96000826119bd565b6001810190506119d6565b5050565b601f821115611a3957611a0a816118d9565b611a13846118ee565b81016020851015611a22578190505b611a36611a2e856118ee565b8301826119d5565b50505b505050565b600082821c905092915050565b6000611a5c60001984600802611a3e565b1980831691505092915050565b6000611a758383611a4b565b9150826002028217905092915050565b611a8e826114f2565b67ffffffffffffffff811115611aa757611aa6611774565b5b611ab182546116f7565b611abc8282856119f8565b600060209050601f831160018114611aef5760008415611add578287015190505b611ae78582611a69565b865550611b4f565b601f198416611afd866118d9565b60005b82811015611b2557848901518255600182019150602085019450602081019050611b00565b86831015611b425784890151611b3e601f891682611a4b565b8355505b6001600288020188555050505b505050505050565b600081905092915050565b6000611b6d826114f2565b611b778185611b57565b9350611b8781856020860161150e565b80840191505092915050565b6000611b9f8284611b62565b915081905092915050565b6000608082019050611bbf60008301876114a2565b611bcc602083018661158e565b611bd960408301856114a2565b611be660608301846114a2565b95945050505050565b6000602082019050611c0460008301846114e3565b92915050565b6000611c25611c20611c1b846114b1565b61195d565b6114b1565b9050919050565b6000611c3782611c0a565b9050919050565b6000611c4982611c2c565b9050919050565b611c5981611c3e565b82525050565b6000604082019050611c746000830185611c50565b611c8160208301846114a2565b9392505050565b7f4e487b7100000000000000000000000000000000000000000000000000000000600052603260045260246000fd5b6000604082019050611ccc60008301856114e3565b611cd960208301846114a2565b9392505050565b6000606082019050611cf560008301866114e3565b611d0260208301856114e3565b611d0f60408301846114a2565b949350505050565b6000606082019050611d2c60008301866114a2565b611d3960208301856114e3565b611d4660408301846114e3565b949350505050565b7f4e487b7100000000000000000000000000000000000000000000000000000000600052601160045260246000fd5b6000611d888261143f565b91507fffffffffffffffffffffffffffffffffffffffffffffffffffffffffffffffff8203611dba57611db9611d4e565b5b60018201905091905056fea264697066735822122074adebb4eb0eae6683361889b4f379ef357741b5c28418f4188168fcbc00a13364736f6c6343000813003360806040526040518060400160405280600481526020017f6a736f6e00000000000000000000000000000000000000000000000000000000815250600c90816200004a919062000470565b506040518060400160405280600481526020017f7765627000000000000000000000000000000000000000000000000000000000815250600d908162000091919062000470565b503480156200009f57600080fd5b5060405162003e8938038062003e898339818101604052810190620000c59190620006bb565b82828160009081620000d8919062000470565b508060019081620000ea919062000470565b5050506200010d620001016200012860201b60201c565b6200013060201b60201c565b80600b90816200011e919062000470565b5050505062000774565b600033905090565b6000600a60009054906101000a900473ffffffffffffffffffffffffffffffffffffffff16905081600a60006101000a81548173ffffffffffffffffffffffffffffffffffffffff021916908373ffffffffffffffffffffffffffffffffffffffff1602179055508173ffffffffffffffffffffffffffffffffffffffff168173ffffffffffffffffffffffffffffffffffffffff167f8be0079c531659141344cd1fd0a4f28419497f9722a3daafe3b4186f6b6457e060405160405180910390a35050565b600081519050919050565b7f4e487b7100000000000000000000000000000000000000000000000000000000600052604160045260246000fd5b7f4e487b7100000000000000000000000000000000000000000000000000000000600052602260045260246000fd5b600060028204905060018216806200027857607f821691505b6020821081036200028e576200028d62000230565b5b50919050565b60008190508160005260206000209050919050565b60006020601f8301049050919050565b600082821b905092915050565b600060088302620002f87fffffffffffffffffffffffffffffffffffffffffffffffffffffffffffffffff82620002b9565b620003048683620002b9565b95508019841693508086168417925050509392505050565b6000819050919050565b6000819050919050565b6000620003516200034b62000345846200031c565b62000326565b6200031c565b9050919050565b6000819050919050565b6200036d8362000330565b620003856200037c8262000358565b848454620002c6565b825550505050565b600090565b6200039c6200038d565b620003a981848462000362565b505050565b5b81811015620003d157620003c560008262000392565b600181019050620003af565b5050565b601f8211156200042057620003ea8162000294565b620003f584620002a9565b8101602085101562000405578190505b6200041d6200041485620002a9565b830182620003ae565b50505b505050565b600082821c905092915050565b6000620004456000198460080262000425565b1980831691505092915050565b600062000460838362000432565b9150826002028217905092915050565b6200047b82620001f6565b67ffffffffffffffff81111562000497576200049662000201565b5b620004a382546200025f565b620004b0828285620003d5565b600060209050601f831160018114620004e85760008415620004d3578287015190505b620004df858262000452565b8655506200054f565b601f198416620004f88662000294565b60005b828110156200052257848901518255600182019150602085019450602081019050620004fb565b868310156200054257848901516200053e601f89168262000432565b8355505b6001600288020188555050505b505050505050565b6000604051905090565b600080fd5b600080fd5b600080fd5b600080fd5b6000601f19601f8301169050919050565b620005918262000575565b810181811067ffffffffffffffff82111715620005b357620005b262000201565b5b80604052505050565b6000620005c862000557565b9050620005d6828262000586565b919050565b600067ffffffffffffffff821115620005f957620005f862000201565b5b620006048262000575565b9050602081019050919050565b60005b838110156200063157808201518184015260208101905062000614565b60008484015250505050565b6000620006546200064e84620005db565b620005bc565b90508281526020810184848401111562000673576200067262000570565b5b6200068084828562000611565b509392505050565b600082601f830112620006a0576200069f6200056b565b5b8151620006b28482602086016200063d565b91505092915050565b600080600060608486031215620006d757620006d662000561565b5b600084015167ffffffffffffffff811115620006f857620006f762000566565b5b620007068682870162000688565b935050602084015167ffffffffffffffff8111156200072a576200072962000566565b5b620007388682870162000688565b925050604084015167ffffffffffffffff8111156200075c576200075b62000566565b5b6200076a8682870162000688565b9150509250925092565b61370580620007846000396000f3fe608060405234801561001057600080fd5b50600436106101735760003560e01c806355f804b3116100de57806395d89b4111610097578063c668286211610071578063c668286214610436578063c87b56dd14610454578063e985e9c514610484578063f2fde38b146104b457610173565b806395d89b41146103e0578063a22cb465146103fe578063b88d4fde1461041a57610173565b806355f804b3146103205780636352211e1461033c57806369e9cae11461036c57806370a0823114610388578063715018a6146103b85780638da5cb5b146103c257610173565b806318160ddd1161013057806318160ddd1461023a57806323b872dd146102585780632f745c5914610274578063338d8dc5146102a457806342842e0e146102d45780634f6ccce7146102f057610173565b806301ffc9a71461017857806303b0f38d146101a857806306fdde03146101c6578063081812fc146101e4578063095ea7b3146102145780631249c58b14610230575b600080fd5b610192600480360381019061018d91906121ab565b6104d0565b60405161019f91906121f3565b60405180910390f35b6101b061054a565b6040516101bd919061229e565b60405180910390f35b6101ce6105d8565b6040516101db919061229e565b60405180910390f35b6101fe60048036038101906101f991906122f6565b61066a565b60405161020b9190612364565b60405180910390f35b61022e600480360381019061022991906123ab565b6106b0565b005b6102386107c7565b005b6102426107e0565b60405161024f91906123fa565b60405180910390f35b610272600480360381019061026d9190612415565b6107ed565b005b61028e600480360381019061028991906123ab565b61084d565b60405161029b91906123fa565b60405180910390f35b6102be60048036038101906102b991906122f6565b6108f2565b6040516102cb919061229e565b60405180910390f35b6102ee60048036038101906102e99190612415565b61094d565b005b61030a600480360381019061030591906122f6565b61096d565b60405161031791906123fa565b60405180910390f35b61033a6004803603810190610335919061259d565b6109de565b005b610356600480360381019061035191906122f6565b6109f9565b6040516103639190612364565b60405180910390f35b61038660048036038101906103819190612415565b610a7f565b005b6103a2600480360381019061039d91906125e6565b610ad8565b6040516103af91906123fa565b60405180910390f35b6103c0610b8f565b005b6103ca610ba3565b6040516103d79190612364565b60405180910390f35b6103e8610bcd565b6040516103f5919061229e565b60405180910390f35b6104186004803603810190610413919061263f565b610c5f565b005b610434600480360381019061042f9190612720565b610c75565b005b61043e610cd7565b60405161044b919061229e565b60405180910390f35b61046e600480360381019061046991906122f6565b610d65565b60405161047b919061229e565b60405180910390f35b61049e600480360381019061049991906127a3565b610e08565b6040516104ab91906121f3565b60405180910390f35b6104ce60048036038101906104c991906125e6565b610e9c565b005b60007f780e9d63000000000000000000000000000000000000000000000000000000007bffffffffffffffffffffffffffffffffffffffffffffffffffffffff1916827bffffffffffffffffffffffffffffffffffffffffffffffffffffffff19161480610543575061054282610f1f565b5b9050919050565b600d805461055790612812565b80601f016020809104026020016040519081016040528092919081815260200182805461058390612812565b80156105d05780601f106105a5576101008083540402835291602001916105d0565b820191906000526020600020905b8154815290600101906020018083116105b357829003601f168201915b505050505081565b6060600080546105e790612812565b80601f016020809104026020016040519081016040528092919081815260200182805461061390612812565b80156106605780601f1061063557610100808354040283529160200191610660565b820191906000526020600020905b81548152906001019060200180831161064357829003601f168201915b5050505050905090565b600061067582611001565b6004600083815260200190815260200160002060009054906101000a900473ffffffffffffffffffffffffffffffffffffffff169050919050565b60006106bb826109f9565b90508073ffffffffffffffffffffffffffffffffffffffff168373ffffffffffffffffffffffffffffffffffffffff160361072b576040517f08c379a0000000000000000000000000000000000000000000000000000000008152600401610722906128b5565b60405180910390fd5b8073ffffffffffffffffffffffffffffffffffffffff1661074a61104c565b73ffffffffffffffffffffffffffffffffffffffff16148061077957506107788161077361104c565b610e08565b5b6107b8576040517f08c379a00000000000000000000000000000000000000000000000000000000081526004016107af90612947565b60405180910390fd5b6107c28383611054565b505050565b60006107d16107e0565b90506107dd338261110d565b50565b6000600880549050905090565b6107fe6107f861104c565b8261112b565b61083d576040517f08c379a0000000000000000000000000000000000000000000000000000000008152600401610834906129d9565b60405180910390fd5b6108488383836111c0565b505050565b600061085883610ad8565b8210610899576040517f08c379a000000000000000000000000000000000000000000000000000000000815260040161089090612a6b565b60405180910390fd5b600660008473ffffffffffffffffffffffffffffffffffffffff1673ffffffffffffffffffffffffffffffffffffffff168152602001908152602001600020600083815260200190815260200160002054905092915050565b60606000600b805461090390612812565b90501161091f5760405180602001604052806000815250610946565b600b82600d60405160200161093693929190612b4f565b6040516020818303038152906040525b9050919050565b61096883838360405180602001604052806000815250610c75565b505050565b60006109776107e0565b82106109b8576040517f08c379a00000000000000000000000000000000000000000000000000000000081526004016109af90612bf6565b60405180910390fd5b600882815481106109cc576109cb612c16565b5b90600052602060002001549050919050565b6109e66114b9565b80600b90816109f59190612ddc565b5050565b600080610a0583611537565b9050600073ffffffffffffffffffffffffffffffffffffffff168173ffffffffffffffffffffffffffffffffffffffff1603610a76576040517f08c379a0000000000000000000000000000000000000000000000000000000008152600401610a6d90612efa565b60405180910390fd5b80915050919050565b610a89338261112b565b610ac8576040517f08c379a0000000000000000000000000000000000000000000000000000000008152600401610abf90612f8c565b60405180910390fd5b610ad38383836111c0565b505050565b60008073ffffffffffffffffffffffffffffffffffffffff168273ffffffffffffffffffffffffffffffffffffffff1603610b48576040517f08c379a0000000000000000000000000000000000000000000000000000000008152600401610b3f9061301e565b60405180910390fd5b600360008373ffffffffffffffffffffffffffffffffffffffff1673ffffffffffffffffffffffffffffffffffffffff168152602001908152602001600020549050919050565b610b976114b9565b610ba16000611574565b565b6000600a60009054906101000a900473ffffffffffffffffffffffffffffffffffffffff16905090565b606060018054610bdc90612812565b80601f0160208091040260200160405190810160405280929190818152602001828054610c0890612812565b8015610c555780601f10610c2a57610100808354040283529160200191610c55565b820191906000526020600020905b815481529060010190602001808311610c3857829003601f168201915b5050505050905090565b610c71610c6a61104c565b838361163a565b5050565b610c86610c8061104c565b8361112b565b610cc5576040517f08c379a0000000000000000000000000000000000000000000000000000000008152600401610cbc906129d9565b60405180910390fd5b610cd1848484846117a6565b50505050565b600c8054610ce490612812565b80601f0160208091040260200160405190810160405280929190818152602001828054610d1090612812565b8015610d5d5780601f10610d3257610100808354040283529160200191610d5d565b820191906000526020600020905b815481529060010190602001808311610d4057829003601f168201915b505050505081565b6060610d7082611802565b610daf576040517f08c379a0000000000000000000000000000000000000000000000000000000008152600401610da6906130b0565b60405180910390fd5b6000600b8054610dbe90612812565b905011610dda5760405180602001604052806000815250610e01565b600b82600d604051602001610df193929190612b4f565b6040516020818303038152906040525b9050919050565b6000600560008473ffffffffffffffffffffffffffffffffffffffff1673ffffffffffffffffffffffffffffffffffffffff16815260200190815260200160002060008373ffffffffffffffffffffffffffffffffffffffff1673ffffffffffffffffffffffffffffffffffffffff16815260200190815260200160002060009054906101000a900460ff16905092915050565b610ea46114b9565b600073ffffffffffffffffffffffffffffffffffffffff168173ffffffffffffffffffffffffffffffffffffffff1603610f13576040517f08c379a0000000000000000000000000000000000000000000000000000000008152600401610f0a90613142565b60405180910390fd5b610f1c81611574565b50565b60007f80ac58cd000000000000000000000000000000000000000000000000000000007bffffffffffffffffffffffffffffffffffffffffffffffffffffffff1916827bffffffffffffffffffffffffffffffffffffffffffffffffffffffff19161480610fea57507f5b5e139f000000000000000000000000000000000000000000000000000000007bffffffffffffffffffffffffffffffffffffffffffffffffffffffff1916827bffffffffffffffffffffffffffffffffffffffffffffffffffffffff1916145b80610ffa5750610ff982611843565b5b9050919050565b61100a81611802565b611049576040517f08c379a000000000000000000000000000000000000000000000000000000000815260040161104090612efa565b60405180910390fd5b50565b600033905090565b816004600083815260200190815260200160002060006101000a81548173ffffffffffffffffffffffffffffffffffffffff021916908373ffffffffffffffffffffffffffffffffffffffff160217905550808273ffffffffffffffffffffffffffffffffffffffff166110c7836109f9565b73ffffffffffffffffffffffffffffffffffffffff167f8c5be1e5ebec7d5bd14f71427d1e84f3dd0314c0f7b2291e5b200ac8c7c3b92560405160405180910390a45050565b6111278282604051806020016040528060008152506118ad565b5050565b600080611137836109f9565b90508073ffffffffffffffffffffffffffffffffffffffff168473ffffffffffffffffffffffffffffffffffffffff16148061117957506111788185610e08565b5b806111b757508373ffffffffffffffffffffffffffffffffffffffff1661119f8461066a565b73ffffffffffffffffffffffffffffffffffffffff16145b91505092915050565b8273ffffffffffffffffffffffffffffffffffffffff166111e0826109f9565b73ffffffffffffffffffffffffffffffffffffffff1614611236576040517f08c379a000000000000000000000000000000000000000000000000000000000815260040161122d906131d4565b60405180910390fd5b600073ffffffffffffffffffffffffffffffffffffffff168273ffffffffffffffffffffffffffffffffffffffff16036112a5576040517f08c379a000000000000000000000000000000000000000000000000000000000815260040161129c90613266565b60405180910390fd5b6112b28383836001611908565b8273ffffffffffffffffffffffffffffffffffffffff166112d2826109f9565b73ffffffffffffffffffffffffffffffffffffffff1614611328576040517f08c379a000000000000000000000000000000000000000000000000000000000815260040161131f906131d4565b60405180910390fd5b6004600082815260200190815260200160002060006101000a81549073ffffffffffffffffffffffffffffffffffffffff02191690556001600360008573ffffffffffffffffffffffffffffffffffffffff1673ffffffffffffffffffffffffffffffffffffffff168152602001908152602001600020600082825403925050819055506001600360008473ffffffffffffffffffffffffffffffffffffffff1673ffffffffffffffffffffffffffffffffffffffff16815260200190815260200160002060008282540192505081905550816002600083815260200190815260200160002060006101000a81548173ffffffffffffffffffffffffffffffffffffffff021916908373ffffffffffffffffffffffffffffffffffffffff160217905550808273ffffffffffffffffffffffffffffffffffffffff168473ffffffffffffffffffffffffffffffffffffffff167fddf252ad1be2c89b69c2b068fc378daa952ba7f163c4a11628f55a4df523b3ef60405160405180910390a46114b48383836001611a66565b505050565b6114c161104c565b73ffffffffffffffffffffffffffffffffffffffff166114df610ba3565b73ffffffffffffffffffffffffffffffffffffffff1614611535576040517f08c379a000000000000000000000000000000000000000000000000000000000815260040161152c906132d2565b60405180910390fd5b565b60006002600083815260200190815260200160002060009054906101000a900473ffffffffffffffffffffffffffffffffffffffff169050919050565b6000600a60009054906101000a900473ffffffffffffffffffffffffffffffffffffffff16905081600a60006101000a81548173ffffffffffffffffffffffffffffffffffffffff021916908373ffffffffffffffffffffffffffffffffffffffff1602179055508173ffffffffffffffffffffffffffffffffffffffff168173ffffffffffffffffffffffffffffffffffffffff167f8be0079c531659141344cd1fd0a4f28419497f9722a3daafe3b4186f6b6457e060405160405180910390a35050565b8173ffffffffffffffffffffffffffffffffffffffff168373ffffffffffffffffffffffffffffffffffffffff16036116a8576040517f08c379a000000000000000000000000000000000000000000000000000000000815260040161169f9061333e565b60405180910390fd5b80600560008573ffffffffffffffffffffffffffffffffffffffff1673ffffffffffffffffffffffffffffffffffffffff16815260200190815260200160002060008473ffffffffffffffffffffffffffffffffffffffff1673ffffffffffffffffffffffffffffffffffffffff16815260200190815260200160002060006101000a81548160ff0219169083151502179055508173ffffffffffffffffffffffffffffffffffffffff168373ffffffffffffffffffffffffffffffffffffffff167f17307eab39ab6107e8899845ad3d59bd9653f200f220920489ca2b5937696c318360405161179991906121f3565b60405180910390a3505050565b6117b18484846111c0565b6117bd84848484611a6c565b6117fc576040517f08c379a00000000000000000000000000000000000000000000000000000000081526004016117f3906133d0565b60405180910390fd5b50505050565b60008073ffffffffffffffffffffffffffffffffffffffff1661182483611537565b73ffffffffffffffffffffffffffffffffffffffff1614159050919050565b60007f01ffc9a7000000000000000000000000000000000000000000000000000000007bffffffffffffffffffffffffffffffffffffffffffffffffffffffff1916827bffffffffffffffffffffffffffffffffffffffffffffffffffffffff1916149050919050565b6118b78383611bf3565b6118c46000848484611a6c565b611903576040517f08c379a00000000000000000000000000000000000000000000000000000000081526004016118fa906133d0565b60405180910390fd5b505050565b61191484848484611e10565b6001811115611958576040517f08c379a000000000000000000000000000000000000000000000000000000000815260040161194f90613462565b60405180910390fd5b6000829050600073ffffffffffffffffffffffffffffffffffffffff168573ffffffffffffffffffffffffffffffffffffffff160361199f5761199a81611e16565b6119de565b8373ffffffffffffffffffffffffffffffffffffffff168573ffffffffffffffffffffffffffffffffffffffff16146119dd576119dc8582611e5f565b5b5b600073ffffffffffffffffffffffffffffffffffffffff168473ffffffffffffffffffffffffffffffffffffffff1603611a2057611a1b81611fcc565b611a5f565b8473ffffffffffffffffffffffffffffffffffffffff168473ffffffffffffffffffffffffffffffffffffffff1614611a5e57611a5d848261209d565b5b5b5050505050565b50505050565b6000611a8d8473ffffffffffffffffffffffffffffffffffffffff1661211c565b15611be6578373ffffffffffffffffffffffffffffffffffffffff1663150b7a02611ab661104c565b8786866040518563ffffffff1660e01b8152600401611ad894939291906134d7565b6020604051808303816000875af1925050508015611b1457506040513d601f19601f82011682018060405250810190611b119190613538565b60015b611b96573d8060008114611b44576040519150601f19603f3d011682016040523d82523d6000602084013e611b49565b606091505b506000815103611b8e576040517f08c379a0000000000000000000000000000000000000000000000000000000008152600401611b85906133d0565b60405180910390fd5b805181602001fd5b63150b7a0260e01b7bffffffffffffffffffffffffffffffffffffffffffffffffffffffff1916817bffffffffffffffffffffffffffffffffffffffffffffffffffffffff191614915050611beb565b600190505b949350505050565b600073ffffffffffffffffffffffffffffffffffffffff168273ffffffffffffffffffffffffffffffffffffffff1603611c62576040517f08c379a0000000000000000000000000000000000000000000000000000000008152600401611c59906135b1565b60405180910390fd5b611c6b81611802565b15611cab576040517f08c379a0000000000000000000000000000000000000000000000000000000008152600401611ca29061361d565b60405180910390fd5b611cb9600083836001611908565b611cc281611802565b15611d02576040517f08c379a0000000000000000000000000000000000000000000000000000000008152600401611cf99061361d565b60405180910390fd5b6001600360008473ffffffffffffffffffffffffffffffffffffffff1673ffffffffffffffffffffffffffffffffffffffff16815260200190815260200160002060008282540192505081905550816002600083815260200190815260200160002060006101000a81548173ffffffffffffffffffffffffffffffffffffffff021916908373ffffffffffffffffffffffffffffffffffffffff160217905550808273ffffffffffffffffffffffffffffffffffffffff16600073ffffffffffffffffffffffffffffffffffffffff167fddf252ad1be2c89b69c2b068fc378daa952ba7f163c4a11628f55a4df523b3ef60405160405180910390a4611e0c600083836001611a66565b5050565b50505050565b6008805490506009600083815260200190815260200160002081905550600881908060018154018082558091505060019003906000526020600020016000909190919091505550565b60006001611e6c84610ad8565b611e76919061366c565b9050600060076000848152602001908152602001600020549050818114611f5b576000600660008673ffffffffffffffffffffffffffffffffffffffff1673ffffffffffffffffffffffffffffffffffffffff168152602001908152602001600020600084815260200190815260200160002054905080600660008773ffffffffffffffffffffffffffffffffffffffff1673ffffffffffffffffffffffffffffffffffffffff168152602001908152602001600020600084815260200190815260200160002081905550816007600083815260200190815260200160002081905550505b6007600084815260200190815260200160002060009055600660008573ffffffffffffffffffffffffffffffffffffffff1673ffffffffffffffffffffffffffffffffffffffff16815260200190815260200160002060008381526020019081526020016000206000905550505050565b60006001600880549050611fe0919061366c565b90506000600960008481526020019081526020016000205490506000600883815481106120105761200f612c16565b5b90600052602060002001549050806008838154811061203257612031612c16565b5b906000526020600020018190555081600960008381526020019081526020016000208190555060096000858152602001908152602001600020600090556008805480612081576120806136a0565b5b6001900381819060005260206000200160009055905550505050565b60006120a883610ad8565b905081600660008573ffffffffffffffffffffffffffffffffffffffff1673ffffffffffffffffffffffffffffffffffffffff168152602001908152602001600020600083815260200190815260200160002081905550806007600084815260200190815260200160002081905550505050565b6000808273ffffffffffffffffffffffffffffffffffffffff163b119050919050565b6000604051905090565b600080fd5b600080fd5b60007fffffffff0000000000000000000000000000000000000000000000000000000082169050919050565b61218881612153565b811461219357600080fd5b50565b6000813590506121a58161217f565b92915050565b6000602082840312156121c1576121c0612149565b5b60006121cf84828501612196565b91505092915050565b60008115159050919050565b6121ed816121d8565b82525050565b600060208201905061220860008301846121e4565b92915050565b600081519050919050565b600082825260208201905092915050565b60005b8381101561224857808201518184015260208101905061222d565b60008484015250505050565b6000601f19601f8301169050919050565b60006122708261220e565b61227a8185612219565b935061228a81856020860161222a565b61229381612254565b840191505092915050565b600060208201905081810360008301526122b88184612265565b905092915050565b6000819050919050565b6122d3816122c0565b81146122de57600080fd5b50565b6000813590506122f0816122ca565b92915050565b60006020828403121561230c5761230b612149565b5b600061231a848285016122e1565b91505092915050565b600073ffffffffffffffffffffffffffffffffffffffff82169050919050565b600061234e82612323565b9050919050565b61235e81612343565b82525050565b60006020820190506123796000830184612355565b92915050565b61238881612343565b811461239357600080fd5b50565b6000813590506123a58161237f565b92915050565b600080604083850312156123c2576123c1612149565b5b60006123d085828601612396565b92505060206123e1858286016122e1565b9150509250929050565b6123f4816122c0565b82525050565b600060208201905061240f60008301846123eb565b92915050565b60008060006060848603121561242e5761242d612149565b5b600061243c86828701612396565b935050602061244d86828701612396565b925050604061245e868287016122e1565b9150509250925092565b600080fd5b600080fd5b7f4e487b7100000000000000000000000000000000000000000000000000000000600052604160045260246000fd5b6124aa82612254565b810181811067ffffffffffffffff821117156124c9576124c8612472565b5b80604052505050565b60006124dc61213f565b90506124e882826124a1565b919050565b600067ffffffffffffffff82111561250857612507612472565b5b61251182612254565b9050602081019050919050565b82818337600083830152505050565b600061254061253b846124ed565b6124d2565b90508281526020810184848401111561255c5761255b61246d565b5b61256784828561251e565b509392505050565b600082601f83011261258457612583612468565b5b813561259484826020860161252d565b91505092915050565b6000602082840312156125b3576125b2612149565b5b600082013567ffffffffffffffff8111156125d1576125d061214e565b5b6125dd8482850161256f565b91505092915050565b6000602082840312156125fc576125fb612149565b5b600061260a84828501612396565b91505092915050565b61261c816121d8565b811461262757600080fd5b50565b60008135905061263981612613565b92915050565b6000806040838503121561265657612655612149565b5b600061266485828601612396565b92505060206126758582860161262a565b9150509250929050565b600067ffffffffffffffff82111561269a57612699612472565b5b6126a382612254565b9050602081019050919050565b60006126c36126be8461267f565b6124d2565b9050828152602081018484840111156126df576126de61246d565b5b6126ea84828561251e565b509392505050565b600082601f83011261270757612706612468565b5b81356127178482602086016126b0565b91505092915050565b6000806000806080858703121561273a57612739612149565b5b600061274887828801612396565b945050602061275987828801612396565b935050604061276a878288016122e1565b925050606085013567ffffffffffffffff81111561278b5761278a61214e565b5b612797878288016126f2565b91505092959194509250565b600080604083850312156127ba576127b9612149565b5b60006127c885828601612396565b92505060206127d985828601612396565b9150509250929050565b7f4e487b7100000000000000000000000000000000000000000000000000000000600052602260045260246000fd5b6000600282049050600182168061282a57607f821691505b60208210810361283d5761283c6127e3565b5b50919050565b7f4552433732313a20617070726f76616c20746f2063757272656e74206f776e6560008201527f7200000000000000000000000000000000000000000000000000000000000000602082015250565b600061289f602183612219565b91506128aa82612843565b604082019050919050565b600060208201905081810360008301526128ce81612892565b9050919050565b7f4552433732313a20617070726f76652063616c6c6572206973206e6f7420746f60008201527f6b656e206f776e6572206f7220617070726f76656420666f7220616c6c000000602082015250565b6000612931603d83612219565b915061293c826128d5565b604082019050919050565b6000602082019050818103600083015261296081612924565b9050919050565b7f4552433732313a2063616c6c6572206973206e6f7420746f6b656e206f776e6560008201527f72206f7220617070726f76656400000000000000000000000000000000000000602082015250565b60006129c3602d83612219565b91506129ce82612967565b604082019050919050565b600060208201905081810360008301526129f2816129b6565b9050919050565b7f455243373231456e756d657261626c653a206f776e657220696e646578206f7560008201527f74206f6620626f756e6473000000000000000000000000000000000000000000602082015250565b6000612a55602b83612219565b9150612a60826129f9565b604082019050919050565b60006020820190508181036000830152612a8481612a48565b9050919050565b600081905092915050565b60008190508160005260206000209050919050565b60008154612ab881612812565b612ac28186612a8b565b94506001821660008114612add5760018114612af257612b25565b60ff1983168652811515820286019350612b25565b612afb85612a96565b60005b83811015612b1d57815481890152600182019150602081019050612afe565b838801955050505b50505092915050565b6000819050919050565b612b49612b44826122c0565b612b2e565b82525050565b6000612b5b8286612aab565b9150612b678285612b38565b602082019150612b778284612aab565b9150819050949350505050565b7f455243373231456e756d657261626c653a20676c6f62616c20696e646578206f60008201527f7574206f6620626f756e64730000000000000000000000000000000000000000602082015250565b6000612be0602c83612219565b9150612beb82612b84565b604082019050919050565b60006020820190508181036000830152612c0f81612bd3565b9050919050565b7f4e487b7100000000000000000000000000000000000000000000000000000000600052603260045260246000fd5b60006020601f8301049050919050565b600082821b905092915050565b600060088302612c927fffffffffffffffffffffffffffffffffffffffffffffffffffffffffffffffff82612c55565b612c9c8683612c55565b95508019841693508086168417925050509392505050565b6000819050919050565b6000612cd9612cd4612ccf846122c0565b612cb4565b6122c0565b9050919050565b6000819050919050565b612cf383612cbe565b612d07612cff82612ce0565b848454612c62565b825550505050565b600090565b612d1c612d0f565b612d27818484612cea565b505050565b5b81811015612d4b57612d40600082612d14565b600181019050612d2d565b5050565b601f821115612d9057612d6181612a96565b612d6a84612c45565b81016020851015612d79578190505b612d8d612d8585612c45565b830182612d2c565b50505b505050565b600082821c905092915050565b6000612db360001984600802612d95565b1980831691505092915050565b6000612dcc8383612da2565b9150826002028217905092915050565b612de58261220e565b67ffffffffffffffff811115612dfe57612dfd612472565b5b612e088254612812565b612e13828285612d4f565b600060209050601f831160018114612e465760008415612e34578287015190505b612e3e8582612dc0565b865550612ea6565b601f198416612e5486612a96565b60005b82811015612e7c57848901518255600182019150602085019450602081019050612e57565b86831015612e995784890151612e95601f891682612da2565b8355505b6001600288020188555050505b505050505050565b7f4552433732313a20696e76616c696420746f6b656e2049440000000000000000600082015250565b6000612ee4601883612219565b9150612eef82612eae565b602082019050919050565b60006020820190508181036000830152612f1381612ed7565b9050919050565b7f4552433732313a207472616e736665722063616c6c6572206973206e6f74206f60008201527f776e6572206e6f7220617070726f766564000000000000000000000000000000602082015250565b6000612f76603183612219565b9150612f8182612f1a565b604082019050919050565b60006020820190508181036000830152612fa581612f69565b9050919050565b7f4552433732313a2061646472657373207a65726f206973206e6f74206120766160008201527f6c6964206f776e65720000000000000000000000000000000000000000000000602082015250565b6000613008602983612219565b915061301382612fac565b604082019050919050565b6000602082019050818103600083015261303781612ffb565b9050919050565b7f4552433732314d657461646174613a4e6f20746f6b656e20776974682074686960008201527f7320696400000000000000000000000000000000000000000000000000000000602082015250565b600061309a602483612219565b91506130a58261303e565b604082019050919050565b600060208201905081810360008301526130c98161308d565b9050919050565b7f4f776e61626c653a206e6577206f776e657220697320746865207a65726f206160008201527f6464726573730000000000000000000000000000000000000000000000000000602082015250565b600061312c602683612219565b9150613137826130d0565b604082019050919050565b6000602082019050818103600083015261315b8161311f565b9050919050565b7f4552433732313a207472616e736665722066726f6d20696e636f72726563742060008201527f6f776e6572000000000000000000000000000000000000000000000000000000602082015250565b60006131be602583612219565b91506131c982613162565b604082019050919050565b600060208201905081810360008301526131ed816131b1565b9050919050565b7f4552433732313a207472616e7366657220746f20746865207a65726f2061646460008201527f7265737300000000000000000000000000000000000000000000000000000000602082015250565b6000613250602483612219565b915061325b826131f4565b604082019050919050565b6000602082019050818103600083015261327f81613243565b9050919050565b7f4f776e61626c653a2063616c6c6572206973206e6f7420746865206f776e6572600082015250565b60006132bc602083612219565b91506132c782613286565b602082019050919050565b600060208201905081810360008301526132eb816132af565b9050919050565b7f4552433732313a20617070726f766520746f2063616c6c657200000000000000600082015250565b6000613328601983612219565b9150613333826132f2565b602082019050919050565b600060208201905081810360008301526133578161331b565b9050919050565b7f4552433732313a207472616e7366657220746f206e6f6e20455243373231526560008201527f63656976657220696d706c656d656e7465720000000000000000000000000000602082015250565b60006133ba603283612219565b91506133c58261335e565b604082019050919050565b600060208201905081810360008301526133e9816133ad565b9050919050565b7f455243373231456e756d657261626c653a20636f6e736563757469766520747260008201527f616e7366657273206e6f7420737570706f727465640000000000000000000000602082015250565b600061344c603583612219565b9150613457826133f0565b604082019050919050565b6000602082019050818103600083015261347b8161343f565b9050919050565b600081519050919050565b600082825260208201905092915050565b60006134a982613482565b6134b3818561348d565b93506134c381856020860161222a565b6134cc81612254565b840191505092915050565b60006080820190506134ec6000830187612355565b6134f96020830186612355565b61350660408301856123eb565b8181036060830152613518818461349e565b905095945050505050565b6000815190506135328161217f565b92915050565b60006020828403121561354e5761354d612149565b5b600061355c84828501613523565b91505092915050565b7f4552433732313a206d696e7420746f20746865207a65726f2061646472657373600082015250565b600061359b602083612219565b91506135a682613565565b602082019050919050565b600060208201905081810360008301526135ca8161358e565b9050919050565b7f4552433732313a20746f6b656e20616c7265616479206d696e74656400000000600082015250565b6000613607601c83612219565b9150613612826135d1565b602082019050919050565b60006020820190508181036000830152613636816135fa565b9050919050565b7f4e487b7100000000000000000000000000000000000000000000000000000000600052601160045260246000fd5b6000613677826122c0565b9150613682836122c0565b925082820390508181111561369a5761369961363d565b5b92915050565b7f4e487b7100000000000000000000000000000000000000000000000000000000600052603160045260246000fdfea264697066735822122042359b2ba59c05e786fd78beb7168446b83245e67300427e3e876513252dde0964736f6c6343000813003360a06040523480156200001157600080fd5b5060405162002b5238038062002b528339818101604052810190620000379190620005c5565b670de0b6b3a76400006007546200004f919062000666565b6040518060400160405280600781526020017f5a2d546f6b656e000000000000000000000000000000000000000000000000008152506040518060400160405280600381526020017f5a544b00000000000000000000000000000000000000000000000000000000008152508160039081620000cc919062000921565b508060049081620000de919062000921565b5050506000811162000127576040517f08c379a00000000000000000000000000000000000000000000000000000000081526004016200011e9062000a69565b60405180910390fd5b80608081815250505033600560006101000a81548173ffffffffffffffffffffffffffffffffffffffff021916908373ffffffffffffffffffffffffffffffffffffffff160217905550670de0b6b3a76400008262000187919062000666565b600781905550620001d6600560009054906101000a900473ffffffffffffffffffffffffffffffffffffffff16670de0b6b3a764000085620001ca919062000666565b6200020360201b60201c565b670de0b6b3a764000084620001ec919062000666565b600681905550806008819055505050505062000bd8565b620002136200028a60201b60201c565b81620002246200029460201b60201c565b62000230919062000a8b565b111562000274576040517f08c379a00000000000000000000000000000000000000000000000000000000081526004016200026b9062000b16565b60405180910390fd5b6200028682826200029e60201b60201c565b5050565b6000608051905090565b6000600254905090565b620002ae6200028a60201b60201c565b81620002bf6200029460201b60201c565b620002cb919062000a8b565b11156200030f576040517f08c379a0000000000000000000000000000000000000000000000000000000008152600401620003069062000b16565b60405180910390fd5b6200032182826200032560201b60201c565b5050565b600073ffffffffffffffffffffffffffffffffffffffff168273ffffffffffffffffffffffffffffffffffffffff160362000397576040517f08c379a00000000000000000000000000000000000000000000000000000000081526004016200038e9062000b88565b60405180910390fd5b620003ab600083836200049260201b60201c565b8060026000828254620003bf919062000a8b565b92505081905550806000808473ffffffffffffffffffffffffffffffffffffffff1673ffffffffffffffffffffffffffffffffffffffff168152602001908152602001600020600082825401925050819055508173ffffffffffffffffffffffffffffffffffffffff16600073ffffffffffffffffffffffffffffffffffffffff167fddf252ad1be2c89b69c2b068fc378daa952ba7f163c4a11628f55a4df523b3ef8360405162000472919062000bbb565b60405180910390a36200048e600083836200056560201b60201c565b5050565b600073ffffffffffffffffffffffffffffffffffffffff168373ffffffffffffffffffffffffffffffffffffffff1614158015620004fc57504173ffffffffffffffffffffffffffffffffffffffff168273ffffffffffffffffffffffffffffffffffffffff1614155b8015620005365750600073ffffffffffffffffffffffffffffffffffffffff164173ffffffffffffffffffffffffffffffffffffffff1614155b156200054d576200054c6200056a60201b60201c565b5b620005608383836200058060201b60201c565b505050565b505050565b6200057e416006546200020360201b60201c565b565b505050565b600080fd5b6000819050919050565b6200059f816200058a565b8114620005ab57600080fd5b50565b600081519050620005bf8162000594565b92915050565b60008060008060808587031215620005e257620005e162000585565b5b6000620005f287828801620005ae565b94505060206200060587828801620005ae565b93505060406200061887828801620005ae565b92505060606200062b87828801620005ae565b91505092959194509250565b7f4e487b7100000000000000000000000000000000000000000000000000000000600052601160045260246000fd5b600062000673826200058a565b915062000680836200058a565b925082820262000690816200058a565b91508282048414831517620006aa57620006a962000637565b5b5092915050565b600081519050919050565b7f4e487b7100000000000000000000000000000000000000000000000000000000600052604160045260246000fd5b7f4e487b7100000000000000000000000000000000000000000000000000000000600052602260045260246000fd5b600060028204905060018216806200073357607f821691505b602082108103620007495762000748620006eb565b5b50919050565b60008190508160005260206000209050919050565b60006020601f8301049050919050565b600082821b905092915050565b600060088302620007b37fffffffffffffffffffffffffffffffffffffffffffffffffffffffffffffffff8262000774565b620007bf868362000774565b95508019841693508086168417925050509392505050565b6000819050919050565b600062000802620007fc620007f6846200058a565b620007d7565b6200058a565b9050919050565b6000819050919050565b6200081e83620007e1565b620008366200082d8262000809565b84845462000781565b825550505050565b600090565b6200084d6200083e565b6200085a81848462000813565b505050565b5b8181101562000882576200087660008262000843565b60018101905062000860565b5050565b601f821115620008d1576200089b816200074f565b620008a68462000764565b81016020851015620008b6578190505b620008ce620008c58562000764565b8301826200085f565b50505b505050565b600082821c905092915050565b6000620008f660001984600802620008d6565b1980831691505092915050565b6000620009118383620008e3565b9150826002028217905092915050565b6200092c82620006b1565b67ffffffffffffffff811115620009485762000947620006bc565b5b6200095482546200071a565b6200096182828562000886565b600060209050601f83116001811462000999576000841562000984578287015190505b62000990858262000903565b86555062000a00565b601f198416620009a9866200074f565b60005b82811015620009d357848901518255600182019150602085019450602081019050620009ac565b86831015620009f35784890151620009ef601f891682620008e3565b8355505b6001600288020188555050505b505050505050565b600082825260208201905092915050565b7f45524332304361707065643a2063617020697320300000000000000000000000600082015250565b600062000a5160158362000a08565b915062000a5e8262000a19565b602082019050919050565b6000602082019050818103600083015262000a848162000a42565b9050919050565b600062000a98826200058a565b915062000aa5836200058a565b925082820190508082111562000ac05762000abf62000637565b5b92915050565b7f45524332304361707065643a2063617020657863656564656400000000000000600082015250565b600062000afe60198362000a08565b915062000b0b8262000ac6565b602082019050919050565b6000602082019050818103600083015262000b318162000aef565b9050919050565b7f45524332303a206d696e7420746f20746865207a65726f206164647265737300600082015250565b600062000b70601f8362000a08565b915062000b7d8262000b38565b602082019050919050565b6000602082019050818103600083015262000ba38162000b61565b9050919050565b62000bb5816200058a565b82525050565b600060208201905062000bd2600083018462000baa565b92915050565b608051611f5e62000bf460003960006108010152611f5e6000f3fe6080604052600436106101355760003560e01c806339509351116100ab5780638b6b8b921161006f5780638b6b8b92146104075780638da5cb5b1461043257806395d89b411461045d578063a457c2d714610488578063a9059cbb146104c5578063dd62ed3e1461050257610135565b8063395093511461033157806342966c681461036e57806370a0823114610397578063726683b2146103d457806379cc6790146103de57610135565b806323b872dd116100fd57806323b872dd146102215780632c4e722e1461025e5780632ccb1b3014610289578063313ce567146102b257806334fcf437146102dd578063355274ea1461030657610135565b806306fdde031461013a578063095ea7b3146101655780630ac168a1146101a257806318160ddd146101cd5780631a18e707146101f8575b600080fd5b34801561014657600080fd5b5061014f61053f565b60405161015c9190611502565b60405180910390f35b34801561017157600080fd5b5061018c600480360381019061018791906115bd565b6105d1565b6040516101999190611618565b60405180910390f35b3480156101ae57600080fd5b506101b76105f4565b6040516101c49190611642565b60405180910390f35b3480156101d957600080fd5b506101e26105fa565b6040516101ef9190611642565b60405180910390f35b34801561020457600080fd5b5061021f600480360381019061021a919061165d565b610604565b005b34801561022d57600080fd5b506102486004803603810190610243919061168a565b6106b1565b6040516102559190611618565b60405180910390f35b34801561026a57600080fd5b506102736106e0565b6040516102809190611642565b60405180910390f35b34801561029557600080fd5b506102b060048036038101906102ab91906115bd565b6106e6565b005b3480156102be57600080fd5b506102c761075a565b6040516102d491906116f9565b60405180910390f35b3480156102e957600080fd5b5061030460048036038101906102ff919061165d565b610763565b005b34801561031257600080fd5b5061031b6107fd565b6040516103289190611642565b60405180910390f35b34801561033d57600080fd5b50610358600480360381019061035391906115bd565b610825565b6040516103659190611618565b60405180910390f35b34801561037a57600080fd5b506103956004803603810190610390919061165d565b61085c565b005b3480156103a357600080fd5b506103be60048036038101906103b99190611714565b610870565b6040516103cb9190611642565b60405180910390f35b6103dc6108b8565b005b3480156103ea57600080fd5b50610405600480360381019061040091906115bd565b6108d1565b005b34801561041357600080fd5b5061041c6108f1565b6040516104299190611642565b60405180910390f35b34801561043e57600080fd5b506104476108f7565b6040516104549190611762565b60405180910390f35b34801561046957600080fd5b5061047261091d565b60405161047f9190611502565b60405180910390f35b34801561049457600080fd5b506104af60048036038101906104aa91906115bd565b6109af565b6040516104bc9190611618565b60405180910390f35b3480156104d157600080fd5b506104ec60048036038101906104e791906115bd565b610a26565b6040516104f99190611618565b60405180910390f35b34801561050e57600080fd5b506105296004803603810190610524919061177d565b610a49565b6040516105369190611642565b60405180910390f35b60606003805461054e906117ec565b80601f016020809104026020016040519081016040528092919081815260200182805461057a906117ec565b80156105c75780601f1061059c576101008083540402835291602001916105c7565b820191906000526020600020905b8154815290600101906020018083116105aa57829003601f168201915b5050505050905090565b6000806105dc610ad0565b90506105e9818585610ad8565b600191505092915050565b60065481565b6000600254905090565b600560009054906101000a900473ffffffffffffffffffffffffffffffffffffffff1673ffffffffffffffffffffffffffffffffffffffff163373ffffffffffffffffffffffffffffffffffffffff1614610694576040517f08c379a000000000000000000000000000000000000000000000000000000000815260040161068b9061188f565b60405180910390fd5b670de0b6b3a7640000816106a891906118de565b60068190555050565b6000806106bc610ad0565b90506106c9858285610ca1565b6106d4858585610d2d565b60019150509392505050565b60085481565b6106f1338383610d2d565b8173ffffffffffffffffffffffffffffffffffffffff163373ffffffffffffffffffffffffffffffffffffffff167fddf252ad1be2c89b69c2b068fc378daa952ba7f163c4a11628f55a4df523b3ef8360405161074e9190611642565b60405180910390a35050565b60006012905090565b600560009054906101000a900473ffffffffffffffffffffffffffffffffffffffff1673ffffffffffffffffffffffffffffffffffffffff163373ffffffffffffffffffffffffffffffffffffffff16146107f3576040517f08c379a00000000000000000000000000000000000000000000000000000000081526004016107ea9061188f565b60405180910390fd5b8060088190555050565b60007f0000000000000000000000000000000000000000000000000000000000000000905090565b600080610830610ad0565b90506108518185856108428589610a49565b61084c9190611920565b610ad8565b600191505092915050565b61086d610867610ad0565b82610fa3565b50565b60008060008373ffffffffffffffffffffffffffffffffffffffff1673ffffffffffffffffffffffffffffffffffffffff168152602001908152602001600020549050919050565b6108cf33600854346108ca91906118de565b611170565b565b6108e3826108dd610ad0565b83610ca1565b6108ed8282610fa3565b5050565b60075481565b600560009054906101000a900473ffffffffffffffffffffffffffffffffffffffff1681565b60606004805461092c906117ec565b80601f0160208091040260200160405190810160405280929190818152602001828054610958906117ec565b80156109a55780601f1061097a576101008083540402835291602001916109a5565b820191906000526020600020905b81548152906001019060200180831161098857829003601f168201915b5050505050905090565b6000806109ba610ad0565b905060006109c88286610a49565b905083811015610a0d576040517f08c379a0000000000000000000000000000000000000000000000000000000008152600401610a04906119c6565b60405180910390fd5b610a1a8286868403610ad8565b60019250505092915050565b600080610a31610ad0565b9050610a3e818585610d2d565b600191505092915050565b6000600160008473ffffffffffffffffffffffffffffffffffffffff1673ffffffffffffffffffffffffffffffffffffffff16815260200190815260200160002060008373ffffffffffffffffffffffffffffffffffffffff1673ffffffffffffffffffffffffffffffffffffffff16815260200190815260200160002054905092915050565b600033905090565b600073ffffffffffffffffffffffffffffffffffffffff168373ffffffffffffffffffffffffffffffffffffffff1603610b47576040517f08c379a0000000000000000000000000000000000000000000000000000000008152600401610b3e90611a58565b60405180910390fd5b600073ffffffffffffffffffffffffffffffffffffffff168273ffffffffffffffffffffffffffffffffffffffff1603610bb6576040517f08c379a0000000000000000000000000000000000000000000000000000000008152600401610bad90611aea565b60405180910390fd5b80600160008573ffffffffffffffffffffffffffffffffffffffff1673ffffffffffffffffffffffffffffffffffffffff16815260200190815260200160002060008473ffffffffffffffffffffffffffffffffffffffff1673ffffffffffffffffffffffffffffffffffffffff168152602001908152602001600020819055508173ffffffffffffffffffffffffffffffffffffffff168373ffffffffffffffffffffffffffffffffffffffff167f8c5be1e5ebec7d5bd14f71427d1e84f3dd0314c0f7b2291e5b200ac8c7c3b92583604051610c949190611642565b60405180910390a3505050565b6000610cad8484610a49565b90507fffffffffffffffffffffffffffffffffffffffffffffffffffffffffffffffff8114610d275781811015610d19576040517f08c379a0000000000000000000000000000000000000000000000000000000008152600401610d1090611b56565b60405180910390fd5b610d268484848403610ad8565b5b50505050565b600073ffffffffffffffffffffffffffffffffffffffff168373ffffffffffffffffffffffffffffffffffffffff1603610d9c576040517f08c379a0000000000000000000000000000000000000000000000000000000008152600401610d9390611be8565b60405180910390fd5b600073ffffffffffffffffffffffffffffffffffffffff168273ffffffffffffffffffffffffffffffffffffffff1603610e0b576040517f08c379a0000000000000000000000000000000000000000000000000000000008152600401610e0290611c7a565b60405180910390fd5b610e168383836111da565b60008060008573ffffffffffffffffffffffffffffffffffffffff1673ffffffffffffffffffffffffffffffffffffffff16815260200190815260200160002054905081811015610e9c576040517f08c379a0000000000000000000000000000000000000000000000000000000008152600401610e9390611d0c565b60405180910390fd5b8181036000808673ffffffffffffffffffffffffffffffffffffffff1673ffffffffffffffffffffffffffffffffffffffff16815260200190815260200160002081905550816000808573ffffffffffffffffffffffffffffffffffffffff1673ffffffffffffffffffffffffffffffffffffffff168152602001908152602001600020600082825401925050819055508273ffffffffffffffffffffffffffffffffffffffff168473ffffffffffffffffffffffffffffffffffffffff167fddf252ad1be2c89b69c2b068fc378daa952ba7f163c4a11628f55a4df523b3ef84604051610f8a9190611642565b60405180910390a3610f9d84848461129a565b50505050565b600073ffffffffffffffffffffffffffffffffffffffff168273ffffffffffffffffffffffffffffffffffffffff1603611012576040517f08c379a000000000000000000000000000000000000000000000000000000000815260040161100990611d9e565b60405180910390fd5b61101e826000836111da565b60008060008473ffffffffffffffffffffffffffffffffffffffff1673ffffffffffffffffffffffffffffffffffffffff168152602001908152602001600020549050818110156110a4576040517f08c379a000000000000000000000000000000000000000000000000000000000815260040161109b90611e30565b60405180910390fd5b8181036000808573ffffffffffffffffffffffffffffffffffffffff1673ffffffffffffffffffffffffffffffffffffffff1681526020019081526020016000208190555081600260008282540392505081905550600073ffffffffffffffffffffffffffffffffffffffff168373ffffffffffffffffffffffffffffffffffffffff167fddf252ad1be2c89b69c2b068fc378daa952ba7f163c4a11628f55a4df523b3ef846040516111579190611642565b60405180910390a361116b8360008461129a565b505050565b6111786107fd565b816111816105fa565b61118b9190611920565b11156111cc576040517f08c379a00000000000000000000000000000000000000000000000000000000081526004016111c390611e9c565b60405180910390fd5b6111d6828261129f565b5050565b600073ffffffffffffffffffffffffffffffffffffffff168373ffffffffffffffffffffffffffffffffffffffff161415801561124357504173ffffffffffffffffffffffffffffffffffffffff168273ffffffffffffffffffffffffffffffffffffffff1614155b801561127c5750600073ffffffffffffffffffffffffffffffffffffffff164173ffffffffffffffffffffffffffffffffffffffff1614155b1561128a57611289611309565b5b611295838383611317565b505050565b505050565b6112a76107fd565b816112b06105fa565b6112ba9190611920565b11156112fb576040517f08c379a00000000000000000000000000000000000000000000000000000000081526004016112f290611e9c565b60405180910390fd5b611305828261131c565b5050565b61131541600654611170565b565b505050565b600073ffffffffffffffffffffffffffffffffffffffff168273ffffffffffffffffffffffffffffffffffffffff160361138b576040517f08c379a000000000000000000000000000000000000000000000000000000000815260040161138290611f08565b60405180910390fd5b611397600083836111da565b80600260008282546113a99190611920565b92505081905550806000808473ffffffffffffffffffffffffffffffffffffffff1673ffffffffffffffffffffffffffffffffffffffff168152602001908152602001600020600082825401925050819055508173ffffffffffffffffffffffffffffffffffffffff16600073ffffffffffffffffffffffffffffffffffffffff167fddf252ad1be2c89b69c2b068fc378daa952ba7f163c4a11628f55a4df523b3ef8360405161145a9190611642565b60405180910390a361146e6000838361129a565b5050565b600081519050919050565b600082825260208201905092915050565b60005b838110156114ac578082015181840152602081019050611491565b60008484015250505050565b6000601f19601f8301169050919050565b60006114d482611472565b6114de818561147d565b93506114ee81856020860161148e565b6114f7816114b8565b840191505092915050565b6000602082019050818103600083015261151c81846114c9565b905092915050565b600080fd5b600073ffffffffffffffffffffffffffffffffffffffff82169050919050565b600061155482611529565b9050919050565b61156481611549565b811461156f57600080fd5b50565b6000813590506115818161155b565b92915050565b6000819050919050565b61159a81611587565b81146115a557600080fd5b50565b6000813590506115b781611591565b92915050565b600080604083850312156115d4576115d3611524565b5b60006115e285828601611572565b92505060206115f3858286016115a8565b9150509250929050565b60008115159050919050565b611612816115fd565b82525050565b600060208201905061162d6000830184611609565b92915050565b61163c81611587565b82525050565b60006020820190506116576000830184611633565b92915050565b60006020828403121561167357611672611524565b5b6000611681848285016115a8565b91505092915050565b6000806000606084860312156116a3576116a2611524565b5b60006116b186828701611572565b93505060206116c286828701611572565b92505060406116d3868287016115a8565b9150509250925092565b600060ff82169050919050565b6116f3816116dd565b82525050565b600060208201905061170e60008301846116ea565b92915050565b60006020828403121561172a57611729611524565b5b600061173884828501611572565b91505092915050565b600061174c82611529565b9050919050565b61175c81611741565b82525050565b60006020820190506117776000830184611753565b92915050565b6000806040838503121561179457611793611524565b5b60006117a285828601611572565b92505060206117b385828601611572565b9150509250929050565b7f4e487b7100000000000000000000000000000000000000000000000000000000600052602260045260246000fd5b6000600282049050600182168061180457607f821691505b602082108103611817576118166117bd565b5b50919050565b7f4f6e6c7920746865206f776e65722063616e2063616c6c20746869732066756e60008201527f6374696f6e000000000000000000000000000000000000000000000000000000602082015250565b600061187960258361147d565b91506118848261181d565b604082019050919050565b600060208201905081810360008301526118a88161186c565b9050919050565b7f4e487b7100000000000000000000000000000000000000000000000000000000600052601160045260246000fd5b60006118e982611587565b91506118f483611587565b925082820261190281611587565b91508282048414831517611919576119186118af565b5b5092915050565b600061192b82611587565b915061193683611587565b925082820190508082111561194e5761194d6118af565b5b92915050565b7f45524332303a2064656372656173656420616c6c6f77616e63652062656c6f7760008201527f207a65726f000000000000000000000000000000000000000000000000000000602082015250565b60006119b060258361147d565b91506119bb82611954565b604082019050919050565b600060208201905081810360008301526119df816119a3565b9050919050565b7f45524332303a20617070726f76652066726f6d20746865207a65726f2061646460008201527f7265737300000000000000000000000000000000000000000000000000000000602082015250565b6000611a4260248361147d565b9150611a4d826119e6565b604082019050919050565b60006020820190508181036000830152611a7181611a35565b9050919050565b7f45524332303a20617070726f766520746f20746865207a65726f20616464726560008201527f7373000000000000000000000000000000000000000000000000000000000000602082015250565b6000611ad460228361147d565b9150611adf82611a78565b604082019050919050565b60006020820190508181036000830152611b0381611ac7565b9050919050565b7f45524332303a20696e73756666696369656e7420616c6c6f77616e6365000000600082015250565b6000611b40601d8361147d565b9150611b4b82611b0a565b602082019050919050565b60006020820190508181036000830152611b6f81611b33565b9050919050565b7f45524332303a207472616e736665722066726f6d20746865207a65726f20616460008201527f6472657373000000000000000000000000000000000000000000000000000000602082015250565b6000611bd260258361147d565b9150611bdd82611b76565b604082019050919050565b60006020820190508181036000830152611c0181611bc5565b9050919050565b7f45524332303a207472616e7366657220746f20746865207a65726f206164647260008201527f6573730000000000000000000000000000000000000000000000000000000000602082015250565b6000611c6460238361147d565b9150611c6f82611c08565b604082019050919050565b60006020820190508181036000830152611c9381611c57565b9050919050565b7f45524332303a207472616e7366657220616d6f756e742065786365656473206260008201527f616c616e63650000000000000000000000000000000000000000000000000000602082015250565b6000611cf660268361147d565b9150611d0182611c9a565b604082019050919050565b60006020820190508181036000830152611d2581611ce9565b9050919050565b7f45524332303a206275726e2066726f6d20746865207a65726f2061646472657360008201527f7300000000000000000000000000000000000000000000000000000000000000602082015250565b6000611d8860218361147d565b9150611d9382611d2c565b604082019050919050565b60006020820190508181036000830152611db781611d7b565b9050919050565b7f45524332303a206275726e20616d6f756e7420657863656564732062616c616e60008201527f6365000000000000000000000000000000000000000000000000000000000000602082015250565b6000611e1a60228361147d565b9150611e2582611dbe565b604082019050919050565b60006020820190508181036000830152611e4981611e0d565b9050919050565b7f45524332304361707065643a2063617020657863656564656400000000000000600082015250565b6000611e8660198361147d565b9150611e9182611e50565b602082019050919050565b60006020820190508181036000830152611eb581611e79565b9050919050565b7f45524332303a206d696e7420746f20746865207a65726f206164647265737300600082015250565b6000611ef2601f8361147d565b9150611efd82611ebc565b602082019050919050565b60006020820190508181036000830152611f2181611ee5565b905091905056fea2646970667358221220d63816b9c6ae39ad93a46e8af1078ab8cef8e931cf108fe7832d5fa9432feeda64736f6c63430008130033",
  "immutableReferences": {},
  "source": "// SPDX-License-Identifier: MIT\r\npragma solidity ^0.8.19;\r\nimport \"./NFT.sol\";\r\nimport \"./ZCoin.sol\";\r\n\r\ncontract ZWallet {\r\n  address payable public owner;\r\n  string nftBaseURI;\r\n  NFT nftContract;\r\n  ZCoin zCoinContract;\r\n  uint256 public mintingNFTCostWithETH;\r\n  uint256 public mintingNFTCostWithZTK;\r\n  event NFTMinted(\r\n    uint256 id,\r\n    address indexed nftOwner,\r\n    string indexed tokenURI,\r\n    bool forSale,\r\n    uint256 cost,\r\n    uint256 timestamp\r\n  );\r\n  event NFTSold(uint256 nftId, address seller, address buyer);\r\n  struct MintedNFTsStruct {\r\n    uint256 id;\r\n    address nftOwner;\r\n    string imageURL;\r\n    bool forSale;\r\n    uint256 cost;\r\n    uint256 timestamp;\r\n  }\r\n  MintedNFTsStruct[] public nfts;\r\n  modifier onlyOwner() {\r\n    require(msg.sender == owner, \"Only the owner can call this function\");\r\n    _;\r\n  }\r\n\r\n  constructor(\r\n    uint256 _zBlockReward,\r\n    uint256 _zInitialValue,\r\n    uint256 _zCappedAt,\r\n    uint256 _zRate,\r\n    string memory _nftBaseURI,\r\n    uint256 _mintCostETH,\r\n    uint256 _mintCostZTK\r\n  ) {\r\n    owner = payable(msg.sender);\r\n    nftContract = new NFT(\"z-awesome-nfts\", \"z-nft\", _nftBaseURI);\r\n    nftBaseURI = _nftBaseURI;\r\n    zCoinContract = new ZCoin(\r\n      _zBlockReward,\r\n      _zInitialValue,\r\n      _zCappedAt,\r\n      _zRate\r\n    );\r\n    mintingNFTCostWithETH = _mintCostETH;\r\n    mintingNFTCostWithZTK = _mintCostZTK;\r\n  }\r\n\r\n  function buyZCoin() public payable {\r\n    zCoinContract.buyWithEtherum{value: msg.value}();\r\n  }\r\n\r\n  function mintNFTWithEth(bool _forSale, uint256 _cost) public payable {\r\n    nftContract.mint();\r\n    nfts.push(\r\n      MintedNFTsStruct(\r\n        nftContract.totalSupply(),\r\n        msg.sender,\r\n        nftContract.toImage(nftContract.totalSupply()),\r\n        _forSale,\r\n        _cost,\r\n        block.timestamp\r\n      )\r\n    );\r\n    emit NFTMinted(\r\n      nftContract.totalSupply(),\r\n      msg.sender,\r\n      nftContract.toImage(nftContract.totalSupply()),\r\n      _forSale,\r\n      _cost,\r\n      block.timestamp\r\n    );\r\n  }\r\n\r\n  function mintNFTWithZTK(bool _forSale, uint256 _cost) public {\r\n    require(zCoinContract.balanceOf(msg.sender) >= mintingNFTCostWithZTK);\r\n    zCoinContract.transferTo(owner, _cost);\r\n    nftContract.mint();\r\n    nfts.push(\r\n      MintedNFTsStruct(\r\n        nftContract.totalSupply(),\r\n        msg.sender,\r\n        nftContract.toImage(nftContract.totalSupply()),\r\n        _forSale,\r\n        _cost,\r\n        block.timestamp\r\n      )\r\n    );\r\n    emit NFTMinted(\r\n      nftContract.totalSupply(),\r\n      msg.sender,\r\n      nftContract.toImage(nftContract.totalSupply()),\r\n      _forSale,\r\n      _cost,\r\n      block.timestamp\r\n    );\r\n  }\r\n\r\n  function sellNFT(uint256 nftId) public {\r\n    for (uint256 i = 0; i < nfts.length; i++) {\r\n      if (nfts[i].id == nftId) {\r\n        require(zCoinContract.balanceOf(msg.sender) >= nfts[i].cost);\r\n        require(nfts[i].forSale == true);\r\n        zCoinContract.transferTo(nfts[i].nftOwner, nfts[i].cost);\r\n        nftContract.transferNFT(\r\n          nfts[i].nftOwner,\r\n          msg.sender,\r\n          nfts[i].id\r\n        );\r\n        address seller = nfts[i].nftOwner;\r\n        nfts[i].nftOwner = msg.sender;\r\n        emit NFTSold(nfts[i].id, seller, msg.sender);\r\n      }\r\n    }\r\n  }\r\n}\r\n",
  "sourcePath": "C:\\Users\\yousf\\Bureau\\ppp_project\\z-wallet\\contracts\\ZWallet.sol",
  "compiler": {
    "name": "solc",
    "version": "0.8.19+commit.7dd6d404.Emscripten.clang"
  },
  "schemaVersion": "3.4.13",
  "updatedAt": "2023-05-06T11:42:24.019Z",
  "devdoc": {
    "kind": "dev",
    "methods": {},
    "version": 1
  },
  "userdoc": {
    "kind": "user",
    "methods": {},
    "version": 1
  }
}