{
  "contractName": "ZWallet",
  "abi": [
    {
      "inputs": [
        {
          "internalType": "uint256",
          "name": "_zBlockReward",
          "type": "uint256"
        },
        {
          "internalType": "uint256",
          "name": "_zInitialValue",
          "type": "uint256"
        },
        {
          "internalType": "uint256",
          "name": "_zCappedAt",
          "type": "uint256"
        },
        {
          "internalType": "uint256",
          "name": "_zRate",
          "type": "uint256"
        },
        {
          "internalType": "uint256",
          "name": "_mintCostETH",
          "type": "uint256"
        },
        {
          "internalType": "uint256",
          "name": "_mintCostZTK",
          "type": "uint256"
        }
      ],
      "stateMutability": "nonpayable",
      "type": "constructor"
    },
    {
      "anonymous": false,
      "inputs": [
        {
          "indexed": false,
          "internalType": "uint256",
          "name": "id",
          "type": "uint256"
        },
        {
          "indexed": true,
          "internalType": "address",
          "name": "nftOwner",
          "type": "address"
        },
        {
          "indexed": true,
          "internalType": "string",
          "name": "tokenURI",
          "type": "string"
        },
        {
          "indexed": false,
          "internalType": "bool",
          "name": "forSale",
          "type": "bool"
        },
        {
          "indexed": false,
          "internalType": "uint256",
          "name": "cost",
          "type": "uint256"
        },
        {
          "indexed": false,
          "internalType": "uint256",
          "name": "timestamp",
          "type": "uint256"
        }
      ],
      "name": "NFTMinted",
      "type": "event"
    },
    {
      "anonymous": false,
      "inputs": [
        {
          "indexed": false,
          "internalType": "uint256",
          "name": "nftId",
          "type": "uint256"
        },
        {
          "indexed": false,
          "internalType": "address",
          "name": "seller",
          "type": "address"
        },
        {
          "indexed": false,
          "internalType": "address",
          "name": "buyer",
          "type": "address"
        }
      ],
      "name": "NFTSold",
      "type": "event"
    },
    {
      "inputs": [],
      "name": "mintingNFTCostWithETH",
      "outputs": [
        {
          "internalType": "uint256",
          "name": "",
          "type": "uint256"
        }
      ],
      "stateMutability": "view",
      "type": "function"
    },
    {
      "inputs": [],
      "name": "mintingNFTCostWithZTK",
      "outputs": [
        {
          "internalType": "uint256",
          "name": "",
          "type": "uint256"
        }
      ],
      "stateMutability": "view",
      "type": "function"
    },
    {
      "inputs": [],
      "name": "nftContract",
      "outputs": [
        {
          "internalType": "contract NFT",
          "name": "",
          "type": "address"
        }
      ],
      "stateMutability": "view",
      "type": "function"
    },
    {
      "inputs": [
        {
          "internalType": "uint256",
          "name": "",
          "type": "uint256"
        }
      ],
      "name": "nfts",
      "outputs": [
        {
          "internalType": "uint256",
          "name": "id",
          "type": "uint256"
        },
        {
          "internalType": "address",
          "name": "nftOwner",
          "type": "address"
        },
        {
          "internalType": "string",
          "name": "imageURI",
          "type": "string"
        },
        {
          "internalType": "bool",
          "name": "forSale",
          "type": "bool"
        },
        {
          "internalType": "uint256",
          "name": "cost",
          "type": "uint256"
        },
        {
          "internalType": "uint256",
          "name": "timestamp",
          "type": "uint256"
        }
      ],
      "stateMutability": "view",
      "type": "function"
    },
    {
      "inputs": [],
      "name": "owner",
      "outputs": [
        {
          "internalType": "address payable",
          "name": "",
          "type": "address"
        }
      ],
      "stateMutability": "view",
      "type": "function"
    },
    {
      "inputs": [],
      "name": "zCoinContract",
      "outputs": [
        {
          "internalType": "contract ZCoin",
          "name": "",
          "type": "address"
        }
      ],
      "stateMutability": "view",
      "type": "function"
    },
    {
      "inputs": [],
      "name": "buyZCoin",
      "outputs": [],
      "stateMutability": "payable",
      "type": "function"
    },
    {
      "inputs": [
        {
          "internalType": "string",
          "name": "_tokenURI",
          "type": "string"
        },
        {
          "internalType": "bool",
          "name": "_forSale",
          "type": "bool"
        },
        {
          "internalType": "uint256",
          "name": "_cost",
          "type": "uint256"
        }
      ],
      "name": "mintNFTWithEth",
      "outputs": [],
      "stateMutability": "payable",
      "type": "function"
    },
    {
      "inputs": [
        {
          "internalType": "string",
          "name": "_tokenURI",
          "type": "string"
        },
        {
          "internalType": "bool",
          "name": "_forSale",
          "type": "bool"
        },
        {
          "internalType": "uint256",
          "name": "_cost",
          "type": "uint256"
        }
      ],
      "name": "mintNFTWithZTK",
      "outputs": [],
      "stateMutability": "nonpayable",
      "type": "function"
    },
    {
      "inputs": [
        {
          "internalType": "uint256",
          "name": "nftId",
          "type": "uint256"
        }
      ],
      "name": "buyNFT",
      "outputs": [],
      "stateMutability": "nonpayable",
      "type": "function"
    }
  ],
  "bytecode": "0x60806040523480156200001157600080fd5b506040516200802b3803806200802b8339818101604052810190620000379190620001e3565b336000806101000a81548173ffffffffffffffffffffffffffffffffffffffff021916908373ffffffffffffffffffffffffffffffffffffffff160217905550604051620000859062000187565b620000909062000330565b604051809103906000f080158015620000ad573d6000803e3d6000fd5b50600160006101000a81548173ffffffffffffffffffffffffffffffffffffffff021916908373ffffffffffffffffffffffffffffffffffffffff16021790555085858585604051620001009062000195565b6200010f949392919062000378565b604051809103906000f0801580156200012c573d6000803e3d6000fd5b50600260006101000a81548173ffffffffffffffffffffffffffffffffffffffff021916908373ffffffffffffffffffffffffffffffffffffffff1602179055508160038190555080600481905550505050505050620003c5565b6133d6806200210583390190565b612b5080620054db83390190565b600080fd5b6000819050919050565b620001bd81620001a8565b8114620001c957600080fd5b50565b600081519050620001dd81620001b2565b92915050565b60008060008060008060c08789031215620002035762000202620001a3565b5b60006200021389828a01620001cc565b96505060206200022689828a01620001cc565b95505060406200023989828a01620001cc565b94505060606200024c89828a01620001cc565b93505060806200025f89828a01620001cc565b92505060a06200027289828a01620001cc565b9150509295509295509295565b600082825260208201905092915050565b7f7a2d617765736f6d652d6e667473000000000000000000000000000000000000600082015250565b6000620002c8600e836200027f565b9150620002d58262000290565b602082019050919050565b7f7a2d6e6674000000000000000000000000000000000000000000000000000000600082015250565b6000620003186005836200027f565b91506200032582620002e0565b602082019050919050565b600060408201905081810360008301526200034b81620002b9565b90508181036020830152620003608162000309565b9050919050565b6200037281620001a8565b82525050565b60006080820190506200038f600083018762000367565b6200039e602083018662000367565b620003ad604083018562000367565b620003bc606083018462000367565b95945050505050565b611d3080620003d56000396000f3fe6080604052600436106100915760003560e01c80638d2e963d116100595780638d2e963d146101805780638da5cb5b1461018a578063ac63ccec146101b5578063d56d229d146101e0578063fc2c24111461020b57610091565b8063265aa62114610096578063426aa6d4146100d857806351ed8288146101015780635fd8cba01461012a5780637809721a14610155575b600080fd5b3480156100a257600080fd5b506100bd60048036038101906100b8919061116b565b610227565b6040516100cf96959493929190611293565b60405180910390f35b3480156100e457600080fd5b506100ff60048036038101906100fa919061145c565b610328565b005b34801561010d57600080fd5b506101286004803603810190610123919061116b565b6107e0565b005b34801561013657600080fd5b5061013f610cb3565b60405161014c91906114cb565b60405180910390f35b34801561016157600080fd5b5061016a610cb9565b6040516101779190611545565b60405180910390f35b610188610cdf565b005b34801561019657600080fd5b5061019f610d64565b6040516101ac9190611581565b60405180910390f35b3480156101c157600080fd5b506101ca610d88565b6040516101d791906114cb565b60405180910390f35b3480156101ec57600080fd5b506101f5610d8e565b60405161020291906115bd565b60405180910390f35b6102256004803603810190610220919061145c565b610db4565b005b6005818154811061023757600080fd5b90600052602060002090600602016000915090508060000154908060010160009054906101000a900473ffffffffffffffffffffffffffffffffffffffff169080600201805461028690611607565b80601f01602080910402602001604051908101604052809291908181526020018280546102b290611607565b80156102ff5780601f106102d4576101008083540402835291602001916102ff565b820191906000526020600020905b8154815290600101906020018083116102e257829003601f168201915b5050505050908060030160009054906101000a900460ff16908060040154908060050154905086565b600454600260009054906101000a900473ffffffffffffffffffffffffffffffffffffffff1673ffffffffffffffffffffffffffffffffffffffff166370a08231336040518263ffffffff1660e01b81526004016103869190611638565b602060405180830381865afa1580156103a3573d6000803e3d6000fd5b505050506040513d601f19601f820116820180604052508101906103c79190611668565b1015610408576040517f08c379a00000000000000000000000000000000000000000000000000000000081526004016103ff906116e1565b60405180910390fd5b600260009054906101000a900473ffffffffffffffffffffffffffffffffffffffff1673ffffffffffffffffffffffffffffffffffffffff16632ccb1b3060008054906101000a900473ffffffffffffffffffffffffffffffffffffffff16836040518363ffffffff1660e01b8152600401610485929190611722565b600060405180830381600087803b15801561049f57600080fd5b505af11580156104b3573d6000803e3d6000fd5b50505050600160009054906101000a900473ffffffffffffffffffffffffffffffffffffffff1673ffffffffffffffffffffffffffffffffffffffff1663d85d3d27846040518263ffffffff1660e01b8152600401610512919061174b565b600060405180830381600087803b15801561052c57600080fd5b505af1158015610540573d6000803e3d6000fd5b5050505060056040518060c00160405280600160009054906101000a900473ffffffffffffffffffffffffffffffffffffffff1673ffffffffffffffffffffffffffffffffffffffff166318160ddd6040518163ffffffff1660e01b8152600401602060405180830381865afa1580156105be573d6000803e3d6000fd5b505050506040513d601f19601f820116820180604052508101906105e29190611668565b81526020013373ffffffffffffffffffffffffffffffffffffffff16815260200185815260200184151581526020018381526020014281525090806001815401808255809150506001900390600052602060002090600602016000909190919091506000820151816000015560208201518160010160006101000a81548173ffffffffffffffffffffffffffffffffffffffff021916908373ffffffffffffffffffffffffffffffffffffffff16021790555060408201518160020190816106aa919061190f565b5060608201518160030160006101000a81548160ff0219169083151502179055506080820151816004015560a082015181600501555050826040516106ef9190611a1d565b60405180910390203373ffffffffffffffffffffffffffffffffffffffff167f1ab6fadf2224261349e3d70475eda8d57019168a810c6a6efb116c479df994d1600160009054906101000a900473ffffffffffffffffffffffffffffffffffffffff1673ffffffffffffffffffffffffffffffffffffffff166318160ddd6040518163ffffffff1660e01b8152600401602060405180830381865afa15801561079c573d6000803e3d6000fd5b505050506040513d601f19601f820116820180604052508101906107c09190611668565b8585426040516107d39493929190611a34565b60405180910390a3505050565b60005b600580549050811015610caf57816005828154811061080557610804611a79565b5b90600052602060002090600602016000015403610c9c57600581815481106108305761082f611a79565b5b906000526020600020906006020160040154600260009054906101000a900473ffffffffffffffffffffffffffffffffffffffff1673ffffffffffffffffffffffffffffffffffffffff166370a08231336040518263ffffffff1660e01b815260040161089d9190611638565b602060405180830381865afa1580156108ba573d6000803e3d6000fd5b505050506040513d601f19601f820116820180604052508101906108de9190611668565b101561091f576040517f08c379a000000000000000000000000000000000000000000000000000000000815260040161091690611af4565b60405180910390fd5b600115156005828154811061093757610936611a79565b5b906000526020600020906006020160030160009054906101000a900460ff16151514610998576040517f08c379a000000000000000000000000000000000000000000000000000000000815260040161098f90611b60565b60405180910390fd5b600260009054906101000a900473ffffffffffffffffffffffffffffffffffffffff1673ffffffffffffffffffffffffffffffffffffffff16632ccb1b30600583815481106109ea576109e9611a79565b5b906000526020600020906006020160010160009054906101000a900473ffffffffffffffffffffffffffffffffffffffff1660058481548110610a3057610a2f611a79565b5b9060005260206000209060060201600401546040518363ffffffff1660e01b8152600401610a5f929190611b80565b600060405180830381600087803b158015610a7957600080fd5b505af1158015610a8d573d6000803e3d6000fd5b50505050600160009054906101000a900473ffffffffffffffffffffffffffffffffffffffff1673ffffffffffffffffffffffffffffffffffffffff166369e9cae160058381548110610ae357610ae2611a79565b5b906000526020600020906006020160010160009054906101000a900473ffffffffffffffffffffffffffffffffffffffff163360058581548110610b2a57610b29611a79565b5b9060005260206000209060060201600001546040518463ffffffff1660e01b8152600401610b5a93929190611ba9565b600060405180830381600087803b158015610b7457600080fd5b505af1158015610b88573d6000803e3d6000fd5b50505050600060058281548110610ba257610ba1611a79565b5b906000526020600020906006020160010160009054906101000a900473ffffffffffffffffffffffffffffffffffffffff1690503360058381548110610beb57610bea611a79565b5b906000526020600020906006020160010160006101000a81548173ffffffffffffffffffffffffffffffffffffffff021916908373ffffffffffffffffffffffffffffffffffffffff1602179055507ff076e74c3b31fba126074acbffcdd9d113b723bf30ad339f58dfe3002a8310df60058381548110610c6f57610c6e611a79565b5b9060005260206000209060060201600001548233604051610c9293929190611be0565b60405180910390a1505b8080610ca790611c46565b9150506107e3565b5050565b60045481565b600260009054906101000a900473ffffffffffffffffffffffffffffffffffffffff1681565b600260009054906101000a900473ffffffffffffffffffffffffffffffffffffffff1673ffffffffffffffffffffffffffffffffffffffff1663726683b2346040518263ffffffff1660e01b81526004016000604051808303818588803b158015610d4957600080fd5b505af1158015610d5d573d6000803e3d6000fd5b5050505050565b60008054906101000a900473ffffffffffffffffffffffffffffffffffffffff1681565b60035481565b600160009054906101000a900473ffffffffffffffffffffffffffffffffffffffff1681565b6003543414610df8576040517f08c379a0000000000000000000000000000000000000000000000000000000008152600401610def90611cda565b60405180910390fd5b600160009054906101000a900473ffffffffffffffffffffffffffffffffffffffff1673ffffffffffffffffffffffffffffffffffffffff1663d85d3d27846040518263ffffffff1660e01b8152600401610e53919061174b565b600060405180830381600087803b158015610e6d57600080fd5b505af1158015610e81573d6000803e3d6000fd5b5050505060056040518060c00160405280600160009054906101000a900473ffffffffffffffffffffffffffffffffffffffff1673ffffffffffffffffffffffffffffffffffffffff166318160ddd6040518163ffffffff1660e01b8152600401602060405180830381865afa158015610eff573d6000803e3d6000fd5b505050506040513d601f19601f82011682018060405250810190610f239190611668565b81526020013373ffffffffffffffffffffffffffffffffffffffff16815260200185815260200184151581526020018381526020014281525090806001815401808255809150506001900390600052602060002090600602016000909190919091506000820151816000015560208201518160010160006101000a81548173ffffffffffffffffffffffffffffffffffffffff021916908373ffffffffffffffffffffffffffffffffffffffff1602179055506040820151816002019081610feb919061190f565b5060608201518160030160006101000a81548160ff0219169083151502179055506080820151816004015560a082015181600501555050826040516110309190611a1d565b60405180910390203373ffffffffffffffffffffffffffffffffffffffff167f1ab6fadf2224261349e3d70475eda8d57019168a810c6a6efb116c479df994d1600160009054906101000a900473ffffffffffffffffffffffffffffffffffffffff1673ffffffffffffffffffffffffffffffffffffffff166318160ddd6040518163ffffffff1660e01b8152600401602060405180830381865afa1580156110dd573d6000803e3d6000fd5b505050506040513d601f19601f820116820180604052508101906111019190611668565b8585426040516111149493929190611a34565b60405180910390a3505050565b6000604051905090565b600080fd5b600080fd5b6000819050919050565b61114881611135565b811461115357600080fd5b50565b6000813590506111658161113f565b92915050565b6000602082840312156111815761118061112b565b5b600061118f84828501611156565b91505092915050565b6111a181611135565b82525050565b600073ffffffffffffffffffffffffffffffffffffffff82169050919050565b60006111d2826111a7565b9050919050565b6111e2816111c7565b82525050565b600081519050919050565b600082825260208201905092915050565b60005b83811015611222578082015181840152602081019050611207565b60008484015250505050565b6000601f19601f8301169050919050565b600061124a826111e8565b61125481856111f3565b9350611264818560208601611204565b61126d8161122e565b840191505092915050565b60008115159050919050565b61128d81611278565b82525050565b600060c0820190506112a86000830189611198565b6112b560208301886111d9565b81810360408301526112c7818761123f565b90506112d66060830186611284565b6112e36080830185611198565b6112f060a0830184611198565b979650505050505050565b600080fd5b600080fd5b7f4e487b7100000000000000000000000000000000000000000000000000000000600052604160045260246000fd5b61133d8261122e565b810181811067ffffffffffffffff8211171561135c5761135b611305565b5b80604052505050565b600061136f611121565b905061137b8282611334565b919050565b600067ffffffffffffffff82111561139b5761139a611305565b5b6113a48261122e565b9050602081019050919050565b82818337600083830152505050565b60006113d36113ce84611380565b611365565b9050828152602081018484840111156113ef576113ee611300565b5b6113fa8482856113b1565b509392505050565b600082601f830112611417576114166112fb565b5b81356114278482602086016113c0565b91505092915050565b61143981611278565b811461144457600080fd5b50565b60008135905061145681611430565b92915050565b6000806000606084860312156114755761147461112b565b5b600084013567ffffffffffffffff81111561149357611492611130565b5b61149f86828701611402565b93505060206114b086828701611447565b92505060406114c186828701611156565b9150509250925092565b60006020820190506114e06000830184611198565b92915050565b6000819050919050565b600061150b611506611501846111a7565b6114e6565b6111a7565b9050919050565b600061151d826114f0565b9050919050565b600061152f82611512565b9050919050565b61153f81611524565b82525050565b600060208201905061155a6000830184611536565b92915050565b600061156b826111a7565b9050919050565b61157b81611560565b82525050565b60006020820190506115966000830184611572565b92915050565b60006115a782611512565b9050919050565b6115b78161159c565b82525050565b60006020820190506115d260008301846115ae565b92915050565b7f4e487b7100000000000000000000000000000000000000000000000000000000600052602260045260246000fd5b6000600282049050600182168061161f57607f821691505b602082108103611632576116316115d8565b5b50919050565b600060208201905061164d60008301846111d9565b92915050565b6000815190506116628161113f565b92915050565b60006020828403121561167e5761167d61112b565b5b600061168c84828501611653565b91505092915050565b7f5a544b2062616c616e6365206973206e6f7420656e6f75676874000000000000600082015250565b60006116cb601a836111f3565b91506116d682611695565b602082019050919050565b600060208201905081810360008301526116fa816116be565b9050919050565b600061170c82611512565b9050919050565b61171c81611701565b82525050565b60006040820190506117376000830185611713565b6117446020830184611198565b9392505050565b60006020820190508181036000830152611765818461123f565b905092915050565b60008190508160005260206000209050919050565b60006020601f8301049050919050565b600082821b905092915050565b6000600883026117cf7fffffffffffffffffffffffffffffffffffffffffffffffffffffffffffffffff82611792565b6117d98683611792565b95508019841693508086168417925050509392505050565b600061180c61180761180284611135565b6114e6565b611135565b9050919050565b6000819050919050565b611826836117f1565b61183a61183282611813565b84845461179f565b825550505050565b600090565b61184f611842565b61185a81848461181d565b505050565b5b8181101561187e57611873600082611847565b600181019050611860565b5050565b601f8211156118c3576118948161176d565b61189d84611782565b810160208510156118ac578190505b6118c06118b885611782565b83018261185f565b50505b505050565b600082821c905092915050565b60006118e6600019846008026118c8565b1980831691505092915050565b60006118ff83836118d5565b9150826002028217905092915050565b611918826111e8565b67ffffffffffffffff81111561193157611930611305565b5b61193b8254611607565b611946828285611882565b600060209050601f8311600181146119795760008415611967578287015190505b61197185826118f3565b8655506119d9565b601f1984166119878661176d565b60005b828110156119af5784890151825560018201915060208501945060208101905061198a565b868310156119cc57848901516119c8601f8916826118d5565b8355505b6001600288020188555050505b505050505050565b600081905092915050565b60006119f7826111e8565b611a0181856119e1565b9350611a11818560208601611204565b80840191505092915050565b6000611a2982846119ec565b915081905092915050565b6000608082019050611a496000830187611198565b611a566020830186611284565b611a636040830185611198565b611a706060830184611198565b95945050505050565b7f4e487b7100000000000000000000000000000000000000000000000000000000600052603260045260246000fd5b7f4e6f20656e6f75676874205a544b000000000000000000000000000000000000600082015250565b6000611ade600e836111f3565b9150611ae982611aa8565b602082019050919050565b60006020820190508181036000830152611b0d81611ad1565b9050919050565b7f54686973204e4654206973206e6f7420666f722073616c650000000000000000600082015250565b6000611b4a6018836111f3565b9150611b5582611b14565b602082019050919050565b60006020820190508181036000830152611b7981611b3d565b9050919050565b6000604082019050611b9560008301856111d9565b611ba26020830184611198565b9392505050565b6000606082019050611bbe60008301866111d9565b611bcb60208301856111d9565b611bd86040830184611198565b949350505050565b6000606082019050611bf56000830186611198565b611c0260208301856111d9565b611c0f60408301846111d9565b949350505050565b7f4e487b7100000000000000000000000000000000000000000000000000000000600052601160045260246000fd5b6000611c5182611135565b91507fffffffffffffffffffffffffffffffffffffffffffffffffffffffffffffffff8203611c8357611c82611c17565b5b600182019050919050565b7f4e6f20656e6f7567687420457468730000000000000000000000000000000000600082015250565b6000611cc4600f836111f3565b9150611ccf82611c8e565b602082019050919050565b60006020820190508181036000830152611cf381611cb7565b905091905056fea2646970667358221220c02427a80baf3f4e4971281ed47f647636bb5e80b3a6f598660ffa75bf3935e864736f6c6343000813003360806040523480156200001157600080fd5b50604051620033d6380380620033d683398181016040528101906200003791906200023b565b818181600090816200004a91906200050b565b5080600190816200005c91906200050b565b50505033600860006101000a81548173ffffffffffffffffffffffffffffffffffffffff021916908373ffffffffffffffffffffffffffffffffffffffff1602179055505050620005f2565b6000604051905090565b600080fd5b600080fd5b600080fd5b600080fd5b6000601f19601f8301169050919050565b7f4e487b7100000000000000000000000000000000000000000000000000000000600052604160045260246000fd5b6200011182620000c6565b810181811067ffffffffffffffff82111715620001335762000132620000d7565b5b80604052505050565b600062000148620000a8565b905062000156828262000106565b919050565b600067ffffffffffffffff821115620001795762000178620000d7565b5b6200018482620000c6565b9050602081019050919050565b60005b83811015620001b157808201518184015260208101905062000194565b60008484015250505050565b6000620001d4620001ce846200015b565b6200013c565b905082815260208101848484011115620001f357620001f2620000c1565b5b6200020084828562000191565b509392505050565b600082601f83011262000220576200021f620000bc565b5b815162000232848260208601620001bd565b91505092915050565b60008060408385031215620002555762000254620000b2565b5b600083015167ffffffffffffffff811115620002765762000275620000b7565b5b620002848582860162000208565b925050602083015167ffffffffffffffff811115620002a857620002a7620000b7565b5b620002b68582860162000208565b9150509250929050565b600081519050919050565b7f4e487b7100000000000000000000000000000000000000000000000000000000600052602260045260246000fd5b600060028204905060018216806200031357607f821691505b602082108103620003295762000328620002cb565b5b50919050565b60008190508160005260206000209050919050565b60006020601f8301049050919050565b600082821b905092915050565b600060088302620003937fffffffffffffffffffffffffffffffffffffffffffffffffffffffffffffffff8262000354565b6200039f868362000354565b95508019841693508086168417925050509392505050565b6000819050919050565b6000819050919050565b6000620003ec620003e6620003e084620003b7565b620003c1565b620003b7565b9050919050565b6000819050919050565b6200040883620003cb565b620004206200041782620003f3565b84845462000361565b825550505050565b600090565b6200043762000428565b62000444818484620003fd565b505050565b5b818110156200046c57620004606000826200042d565b6001810190506200044a565b5050565b601f821115620004bb5762000485816200032f565b620004908462000344565b81016020851015620004a0578190505b620004b8620004af8562000344565b83018262000449565b50505b505050565b600082821c905092915050565b6000620004e060001984600802620004c0565b1980831691505092915050565b6000620004fb8383620004cd565b9150826002028217905092915050565b6200051682620002c0565b67ffffffffffffffff811115620005325762000531620000d7565b5b6200053e8254620002fa565b6200054b82828562000470565b600060209050601f8311600181146200058357600084156200056e578287015190505b6200057a8582620004ed565b865550620005ea565b601f19841662000593866200032f565b60005b82811015620005bd5784890151825560018201915060208501945060208101905062000596565b86831015620005dd5784890151620005d9601f891682620004cd565b8355505b6001600288020188555050505b505050505050565b612dd480620006026000396000f3fe6080604052600436106101095760003560e01c806369e9cae111610095578063a22cb46511610064578063a22cb46514610369578063b88d4fde14610392578063c87b56dd146103bb578063d85d3d27146103f8578063e985e9c51461041457610109565b806369e9cae1146102ad57806370a08231146102d65780638da5cb5b1461031357806395d89b411461033e57610109565b806318160ddd116100dc57806318160ddd146101dc57806323b872dd146102075780633ccfd60b1461023057806342842e0e146102475780636352211e1461027057610109565b806301ffc9a71461010e57806306fdde031461014b578063081812fc14610176578063095ea7b3146101b3575b600080fd5b34801561011a57600080fd5b5061013560048036038101906101309190611bfe565b610451565b6040516101429190611c46565b60405180910390f35b34801561015757600080fd5b50610160610533565b60405161016d9190611cf1565b60405180910390f35b34801561018257600080fd5b5061019d60048036038101906101989190611d49565b6105c5565b6040516101aa9190611db7565b60405180910390f35b3480156101bf57600080fd5b506101da60048036038101906101d59190611dfe565b61060b565b005b3480156101e857600080fd5b506101f1610722565b6040516101fe9190611e4d565b60405180910390f35b34801561021357600080fd5b5061022e60048036038101906102299190611e68565b610733565b005b34801561023c57600080fd5b50610245610793565b005b34801561025357600080fd5b5061026e60048036038101906102699190611e68565b610888565b005b34801561027c57600080fd5b5061029760048036038101906102929190611d49565b6108a8565b6040516102a49190611db7565b60405180910390f35b3480156102b957600080fd5b506102d460048036038101906102cf9190611e68565b61092e565b005b3480156102e257600080fd5b506102fd60048036038101906102f89190611ebb565b610987565b60405161030a9190611e4d565b60405180910390f35b34801561031f57600080fd5b50610328610a3e565b6040516103359190611db7565b60405180910390f35b34801561034a57600080fd5b50610353610a64565b6040516103609190611cf1565b60405180910390f35b34801561037557600080fd5b50610390600480360381019061038b9190611f14565b610af6565b005b34801561039e57600080fd5b506103b960048036038101906103b49190612089565b610b0c565b005b3480156103c757600080fd5b506103e260048036038101906103dd9190611d49565b610b6e565b6040516103ef9190611cf1565b60405180910390f35b610412600480360381019061040d91906121ad565b610c80565b005b34801561042057600080fd5b5061043b600480360381019061043691906121f6565b610cb0565b6040516104489190611c46565b60405180910390f35b60007f80ac58cd000000000000000000000000000000000000000000000000000000007bffffffffffffffffffffffffffffffffffffffffffffffffffffffff1916827bffffffffffffffffffffffffffffffffffffffffffffffffffffffff1916148061051c57507f5b5e139f000000000000000000000000000000000000000000000000000000007bffffffffffffffffffffffffffffffffffffffffffffffffffffffff1916827bffffffffffffffffffffffffffffffffffffffffffffffffffffffff1916145b8061052c575061052b82610d44565b5b9050919050565b60606000805461054290612265565b80601f016020809104026020016040519081016040528092919081815260200182805461056e90612265565b80156105bb5780601f10610590576101008083540402835291602001916105bb565b820191906000526020600020905b81548152906001019060200180831161059e57829003601f168201915b5050505050905090565b60006105d082610dae565b6004600083815260200190815260200160002060009054906101000a900473ffffffffffffffffffffffffffffffffffffffff169050919050565b6000610616826108a8565b90508073ffffffffffffffffffffffffffffffffffffffff168373ffffffffffffffffffffffffffffffffffffffff1603610686576040517f08c379a000000000000000000000000000000000000000000000000000000000815260040161067d90612308565b60405180910390fd5b8073ffffffffffffffffffffffffffffffffffffffff166106a5610df9565b73ffffffffffffffffffffffffffffffffffffffff1614806106d457506106d3816106ce610df9565b610cb0565b5b610713576040517f08c379a000000000000000000000000000000000000000000000000000000000815260040161070a9061239a565b60405180910390fd5b61071d8383610e01565b505050565b600061072e6007610eba565b905090565b61074461073e610df9565b82610ec8565b610783576040517f08c379a000000000000000000000000000000000000000000000000000000000815260040161077a9061242c565b60405180910390fd5b61078e838383610f5d565b505050565b600860009054906101000a900473ffffffffffffffffffffffffffffffffffffffff1673ffffffffffffffffffffffffffffffffffffffff163373ffffffffffffffffffffffffffffffffffffffff16146107ed57600080fd5b6000600860009054906101000a900473ffffffffffffffffffffffffffffffffffffffff1673ffffffffffffffffffffffffffffffffffffffff16476040516108359061247d565b60006040518083038185875af1925050503d8060008114610872576040519150601f19603f3d011682016040523d82523d6000602084013e610877565b606091505b505090508061088557600080fd5b50565b6108a383838360405180602001604052806000815250610b0c565b505050565b6000806108b483611256565b9050600073ffffffffffffffffffffffffffffffffffffffff168173ffffffffffffffffffffffffffffffffffffffff1603610925576040517f08c379a000000000000000000000000000000000000000000000000000000000815260040161091c906124de565b60405180910390fd5b80915050919050565b6109383382610ec8565b610977576040517f08c379a000000000000000000000000000000000000000000000000000000000815260040161096e90612570565b60405180910390fd5b610982838383610f5d565b505050565b60008073ffffffffffffffffffffffffffffffffffffffff168273ffffffffffffffffffffffffffffffffffffffff16036109f7576040517f08c379a00000000000000000000000000000000000000000000000000000000081526004016109ee90612602565b60405180910390fd5b600360008373ffffffffffffffffffffffffffffffffffffffff1673ffffffffffffffffffffffffffffffffffffffff168152602001908152602001600020549050919050565b600860009054906101000a900473ffffffffffffffffffffffffffffffffffffffff1681565b606060018054610a7390612265565b80601f0160208091040260200160405190810160405280929190818152602001828054610a9f90612265565b8015610aec5780601f10610ac157610100808354040283529160200191610aec565b820191906000526020600020905b815481529060010190602001808311610acf57829003601f168201915b5050505050905090565b610b08610b01610df9565b8383611293565b5050565b610b1d610b17610df9565b83610ec8565b610b5c576040517f08c379a0000000000000000000000000000000000000000000000000000000008152600401610b539061242c565b60405180910390fd5b610b68848484846113ff565b50505050565b6060610b7982610dae565b6000600660008481526020019081526020016000208054610b9990612265565b80601f0160208091040260200160405190810160405280929190818152602001828054610bc590612265565b8015610c125780601f10610be757610100808354040283529160200191610c12565b820191906000526020600020905b815481529060010190602001808311610bf557829003601f168201915b505050505090506000610c2361145b565b90506000815103610c38578192505050610c7b565b600082511115610c6d578082604051602001610c5592919061265e565b60405160208183030381529060405292505050610c7b565b610c7684611472565b925050505b919050565b610c8a60076114da565b6000610c966007610eba565b9050610ca233826114f0565b610cac818361170d565b5050565b6000600560008473ffffffffffffffffffffffffffffffffffffffff1673ffffffffffffffffffffffffffffffffffffffff16815260200190815260200160002060008373ffffffffffffffffffffffffffffffffffffffff1673ffffffffffffffffffffffffffffffffffffffff16815260200190815260200160002060009054906101000a900460ff16905092915050565b60007f01ffc9a7000000000000000000000000000000000000000000000000000000007bffffffffffffffffffffffffffffffffffffffffffffffffffffffff1916827bffffffffffffffffffffffffffffffffffffffffffffffffffffffff1916149050919050565b610db78161177a565b610df6576040517f08c379a0000000000000000000000000000000000000000000000000000000008152600401610ded906124de565b60405180910390fd5b50565b600033905090565b816004600083815260200190815260200160002060006101000a81548173ffffffffffffffffffffffffffffffffffffffff021916908373ffffffffffffffffffffffffffffffffffffffff160217905550808273ffffffffffffffffffffffffffffffffffffffff16610e74836108a8565b73ffffffffffffffffffffffffffffffffffffffff167f8c5be1e5ebec7d5bd14f71427d1e84f3dd0314c0f7b2291e5b200ac8c7c3b92560405160405180910390a45050565b600081600001549050919050565b600080610ed4836108a8565b90508073ffffffffffffffffffffffffffffffffffffffff168473ffffffffffffffffffffffffffffffffffffffff161480610f165750610f158185610cb0565b5b80610f5457508373ffffffffffffffffffffffffffffffffffffffff16610f3c846105c5565b73ffffffffffffffffffffffffffffffffffffffff16145b91505092915050565b8273ffffffffffffffffffffffffffffffffffffffff16610f7d826108a8565b73ffffffffffffffffffffffffffffffffffffffff1614610fd3576040517f08c379a0000000000000000000000000000000000000000000000000000000008152600401610fca906126f4565b60405180910390fd5b600073ffffffffffffffffffffffffffffffffffffffff168273ffffffffffffffffffffffffffffffffffffffff1603611042576040517f08c379a000000000000000000000000000000000000000000000000000000000815260040161103990612786565b60405180910390fd5b61104f83838360016117bb565b8273ffffffffffffffffffffffffffffffffffffffff1661106f826108a8565b73ffffffffffffffffffffffffffffffffffffffff16146110c5576040517f08c379a00000000000000000000000000000000000000000000000000000000081526004016110bc906126f4565b60405180910390fd5b6004600082815260200190815260200160002060006101000a81549073ffffffffffffffffffffffffffffffffffffffff02191690556001600360008573ffffffffffffffffffffffffffffffffffffffff1673ffffffffffffffffffffffffffffffffffffffff168152602001908152602001600020600082825403925050819055506001600360008473ffffffffffffffffffffffffffffffffffffffff1673ffffffffffffffffffffffffffffffffffffffff16815260200190815260200160002060008282540192505081905550816002600083815260200190815260200160002060006101000a81548173ffffffffffffffffffffffffffffffffffffffff021916908373ffffffffffffffffffffffffffffffffffffffff160217905550808273ffffffffffffffffffffffffffffffffffffffff168473ffffffffffffffffffffffffffffffffffffffff167fddf252ad1be2c89b69c2b068fc378daa952ba7f163c4a11628f55a4df523b3ef60405160405180910390a461125183838360016117c1565b505050565b60006002600083815260200190815260200160002060009054906101000a900473ffffffffffffffffffffffffffffffffffffffff169050919050565b8173ffffffffffffffffffffffffffffffffffffffff168373ffffffffffffffffffffffffffffffffffffffff1603611301576040517f08c379a00000000000000000000000000000000000000000000000000000000081526004016112f8906127f2565b60405180910390fd5b80600560008573ffffffffffffffffffffffffffffffffffffffff1673ffffffffffffffffffffffffffffffffffffffff16815260200190815260200160002060008473ffffffffffffffffffffffffffffffffffffffff1673ffffffffffffffffffffffffffffffffffffffff16815260200190815260200160002060006101000a81548160ff0219169083151502179055508173ffffffffffffffffffffffffffffffffffffffff168373ffffffffffffffffffffffffffffffffffffffff167f17307eab39ab6107e8899845ad3d59bd9653f200f220920489ca2b5937696c31836040516113f29190611c46565b60405180910390a3505050565b61140a848484610f5d565b611416848484846117c7565b611455576040517f08c379a000000000000000000000000000000000000000000000000000000000815260040161144c90612884565b60405180910390fd5b50505050565b606060405180602001604052806000815250905090565b606061147d82610dae565b600061148761145b565b905060008151116114a757604051806020016040528060008152506114d2565b806114b18461194e565b6040516020016114c292919061265e565b6040516020818303038152906040525b915050919050565b6001816000016000828254019250508190555050565b600073ffffffffffffffffffffffffffffffffffffffff168273ffffffffffffffffffffffffffffffffffffffff160361155f576040517f08c379a0000000000000000000000000000000000000000000000000000000008152600401611556906128f0565b60405180910390fd5b6115688161177a565b156115a8576040517f08c379a000000000000000000000000000000000000000000000000000000000815260040161159f9061295c565b60405180910390fd5b6115b66000838360016117bb565b6115bf8161177a565b156115ff576040517f08c379a00000000000000000000000000000000000000000000000000000000081526004016115f69061295c565b60405180910390fd5b6001600360008473ffffffffffffffffffffffffffffffffffffffff1673ffffffffffffffffffffffffffffffffffffffff16815260200190815260200160002060008282540192505081905550816002600083815260200190815260200160002060006101000a81548173ffffffffffffffffffffffffffffffffffffffff021916908373ffffffffffffffffffffffffffffffffffffffff160217905550808273ffffffffffffffffffffffffffffffffffffffff16600073ffffffffffffffffffffffffffffffffffffffff167fddf252ad1be2c89b69c2b068fc378daa952ba7f163c4a11628f55a4df523b3ef60405160405180910390a46117096000838360016117c1565b5050565b6117168261177a565b611755576040517f08c379a000000000000000000000000000000000000000000000000000000000815260040161174c906129ee565b60405180910390fd5b806006600084815260200190815260200160002090816117759190612bba565b505050565b60008073ffffffffffffffffffffffffffffffffffffffff1661179c83611256565b73ffffffffffffffffffffffffffffffffffffffff1614159050919050565b50505050565b50505050565b60006117e88473ffffffffffffffffffffffffffffffffffffffff16611a1c565b15611941578373ffffffffffffffffffffffffffffffffffffffff1663150b7a02611811610df9565b8786866040518563ffffffff1660e01b81526004016118339493929190612ce1565b6020604051808303816000875af192505050801561186f57506040513d601f19601f8201168201806040525081019061186c9190612d42565b60015b6118f1573d806000811461189f576040519150601f19603f3d011682016040523d82523d6000602084013e6118a4565b606091505b5060008151036118e9576040517f08c379a00000000000000000000000000000000000000000000000000000000081526004016118e090612884565b60405180910390fd5b805181602001fd5b63150b7a0260e01b7bffffffffffffffffffffffffffffffffffffffffffffffffffffffff1916817bffffffffffffffffffffffffffffffffffffffffffffffffffffffff191614915050611946565b600190505b949350505050565b60606000600161195d84611a3f565b01905060008167ffffffffffffffff81111561197c5761197b611f5e565b5b6040519080825280601f01601f1916602001820160405280156119ae5781602001600182028036833780820191505090505b509050600082602001820190505b600115611a11578080600190039150507f3031323334353637383961626364656600000000000000000000000000000000600a86061a8153600a8581611a0557611a04612d6f565b5b049450600085036119bc575b819350505050919050565b6000808273ffffffffffffffffffffffffffffffffffffffff163b119050919050565b600080600090507a184f03e93ff9f4daa797ed6e38ed64bf6a1f0100000000000000008310611a9d577a184f03e93ff9f4daa797ed6e38ed64bf6a1f0100000000000000008381611a9357611a92612d6f565b5b0492506040810190505b6d04ee2d6d415b85acef81000000008310611ada576d04ee2d6d415b85acef81000000008381611ad057611acf612d6f565b5b0492506020810190505b662386f26fc100008310611b0957662386f26fc100008381611aff57611afe612d6f565b5b0492506010810190505b6305f5e1008310611b32576305f5e1008381611b2857611b27612d6f565b5b0492506008810190505b6127108310611b57576127108381611b4d57611b4c612d6f565b5b0492506004810190505b60648310611b7a5760648381611b7057611b6f612d6f565b5b0492506002810190505b600a8310611b89576001810190505b80915050919050565b6000604051905090565b600080fd5b600080fd5b60007fffffffff0000000000000000000000000000000000000000000000000000000082169050919050565b611bdb81611ba6565b8114611be657600080fd5b50565b600081359050611bf881611bd2565b92915050565b600060208284031215611c1457611c13611b9c565b5b6000611c2284828501611be9565b91505092915050565b60008115159050919050565b611c4081611c2b565b82525050565b6000602082019050611c5b6000830184611c37565b92915050565b600081519050919050565b600082825260208201905092915050565b60005b83811015611c9b578082015181840152602081019050611c80565b60008484015250505050565b6000601f19601f8301169050919050565b6000611cc382611c61565b611ccd8185611c6c565b9350611cdd818560208601611c7d565b611ce681611ca7565b840191505092915050565b60006020820190508181036000830152611d0b8184611cb8565b905092915050565b6000819050919050565b611d2681611d13565b8114611d3157600080fd5b50565b600081359050611d4381611d1d565b92915050565b600060208284031215611d5f57611d5e611b9c565b5b6000611d6d84828501611d34565b91505092915050565b600073ffffffffffffffffffffffffffffffffffffffff82169050919050565b6000611da182611d76565b9050919050565b611db181611d96565b82525050565b6000602082019050611dcc6000830184611da8565b92915050565b611ddb81611d96565b8114611de657600080fd5b50565b600081359050611df881611dd2565b92915050565b60008060408385031215611e1557611e14611b9c565b5b6000611e2385828601611de9565b9250506020611e3485828601611d34565b9150509250929050565b611e4781611d13565b82525050565b6000602082019050611e626000830184611e3e565b92915050565b600080600060608486031215611e8157611e80611b9c565b5b6000611e8f86828701611de9565b9350506020611ea086828701611de9565b9250506040611eb186828701611d34565b9150509250925092565b600060208284031215611ed157611ed0611b9c565b5b6000611edf84828501611de9565b91505092915050565b611ef181611c2b565b8114611efc57600080fd5b50565b600081359050611f0e81611ee8565b92915050565b60008060408385031215611f2b57611f2a611b9c565b5b6000611f3985828601611de9565b9250506020611f4a85828601611eff565b9150509250929050565b600080fd5b600080fd5b7f4e487b7100000000000000000000000000000000000000000000000000000000600052604160045260246000fd5b611f9682611ca7565b810181811067ffffffffffffffff82111715611fb557611fb4611f5e565b5b80604052505050565b6000611fc8611b92565b9050611fd48282611f8d565b919050565b600067ffffffffffffffff821115611ff457611ff3611f5e565b5b611ffd82611ca7565b9050602081019050919050565b82818337600083830152505050565b600061202c61202784611fd9565b611fbe565b90508281526020810184848401111561204857612047611f59565b5b61205384828561200a565b509392505050565b600082601f8301126120705761206f611f54565b5b8135612080848260208601612019565b91505092915050565b600080600080608085870312156120a3576120a2611b9c565b5b60006120b187828801611de9565b94505060206120c287828801611de9565b93505060406120d387828801611d34565b925050606085013567ffffffffffffffff8111156120f4576120f3611ba1565b5b6121008782880161205b565b91505092959194509250565b600067ffffffffffffffff82111561212757612126611f5e565b5b61213082611ca7565b9050602081019050919050565b600061215061214b8461210c565b611fbe565b90508281526020810184848401111561216c5761216b611f59565b5b61217784828561200a565b509392505050565b600082601f83011261219457612193611f54565b5b81356121a484826020860161213d565b91505092915050565b6000602082840312156121c3576121c2611b9c565b5b600082013567ffffffffffffffff8111156121e1576121e0611ba1565b5b6121ed8482850161217f565b91505092915050565b6000806040838503121561220d5761220c611b9c565b5b600061221b85828601611de9565b925050602061222c85828601611de9565b9150509250929050565b7f4e487b7100000000000000000000000000000000000000000000000000000000600052602260045260246000fd5b6000600282049050600182168061227d57607f821691505b6020821081036122905761228f612236565b5b50919050565b7f4552433732313a20617070726f76616c20746f2063757272656e74206f776e6560008201527f7200000000000000000000000000000000000000000000000000000000000000602082015250565b60006122f2602183611c6c565b91506122fd82612296565b604082019050919050565b60006020820190508181036000830152612321816122e5565b9050919050565b7f4552433732313a20617070726f76652063616c6c6572206973206e6f7420746f60008201527f6b656e206f776e6572206f7220617070726f76656420666f7220616c6c000000602082015250565b6000612384603d83611c6c565b915061238f82612328565b604082019050919050565b600060208201905081810360008301526123b381612377565b9050919050565b7f4552433732313a2063616c6c6572206973206e6f7420746f6b656e206f776e6560008201527f72206f7220617070726f76656400000000000000000000000000000000000000602082015250565b6000612416602d83611c6c565b9150612421826123ba565b604082019050919050565b6000602082019050818103600083015261244581612409565b9050919050565b600081905092915050565b50565b600061246760008361244c565b915061247282612457565b600082019050919050565b60006124888261245a565b9150819050919050565b7f4552433732313a20696e76616c696420746f6b656e2049440000000000000000600082015250565b60006124c8601883611c6c565b91506124d382612492565b602082019050919050565b600060208201905081810360008301526124f7816124bb565b9050919050565b7f4552433732313a207472616e736665722063616c6c6572206973206e6f74206f60008201527f776e6572206e6f7220617070726f766564000000000000000000000000000000602082015250565b600061255a603183611c6c565b9150612565826124fe565b604082019050919050565b600060208201905081810360008301526125898161254d565b9050919050565b7f4552433732313a2061646472657373207a65726f206973206e6f74206120766160008201527f6c6964206f776e65720000000000000000000000000000000000000000000000602082015250565b60006125ec602983611c6c565b91506125f782612590565b604082019050919050565b6000602082019050818103600083015261261b816125df565b9050919050565b600081905092915050565b600061263882611c61565b6126428185612622565b9350612652818560208601611c7d565b80840191505092915050565b600061266a828561262d565b9150612676828461262d565b91508190509392505050565b7f4552433732313a207472616e736665722066726f6d20696e636f72726563742060008201527f6f776e6572000000000000000000000000000000000000000000000000000000602082015250565b60006126de602583611c6c565b91506126e982612682565b604082019050919050565b6000602082019050818103600083015261270d816126d1565b9050919050565b7f4552433732313a207472616e7366657220746f20746865207a65726f2061646460008201527f7265737300000000000000000000000000000000000000000000000000000000602082015250565b6000612770602483611c6c565b915061277b82612714565b604082019050919050565b6000602082019050818103600083015261279f81612763565b9050919050565b7f4552433732313a20617070726f766520746f2063616c6c657200000000000000600082015250565b60006127dc601983611c6c565b91506127e7826127a6565b602082019050919050565b6000602082019050818103600083015261280b816127cf565b9050919050565b7f4552433732313a207472616e7366657220746f206e6f6e20455243373231526560008201527f63656976657220696d706c656d656e7465720000000000000000000000000000602082015250565b600061286e603283611c6c565b915061287982612812565b604082019050919050565b6000602082019050818103600083015261289d81612861565b9050919050565b7f4552433732313a206d696e7420746f20746865207a65726f2061646472657373600082015250565b60006128da602083611c6c565b91506128e5826128a4565b602082019050919050565b60006020820190508181036000830152612909816128cd565b9050919050565b7f4552433732313a20746f6b656e20616c7265616479206d696e74656400000000600082015250565b6000612946601c83611c6c565b915061295182612910565b602082019050919050565b6000602082019050818103600083015261297581612939565b9050919050565b7f45524337323155524953746f726167653a2055524920736574206f66206e6f6e60008201527f6578697374656e7420746f6b656e000000000000000000000000000000000000602082015250565b60006129d8602e83611c6c565b91506129e38261297c565b604082019050919050565b60006020820190508181036000830152612a07816129cb565b9050919050565b60008190508160005260206000209050919050565b60006020601f8301049050919050565b600082821b905092915050565b600060088302612a707fffffffffffffffffffffffffffffffffffffffffffffffffffffffffffffffff82612a33565b612a7a8683612a33565b95508019841693508086168417925050509392505050565b6000819050919050565b6000612ab7612ab2612aad84611d13565b612a92565b611d13565b9050919050565b6000819050919050565b612ad183612a9c565b612ae5612add82612abe565b848454612a40565b825550505050565b600090565b612afa612aed565b612b05818484612ac8565b505050565b5b81811015612b2957612b1e600082612af2565b600181019050612b0b565b5050565b601f821115612b6e57612b3f81612a0e565b612b4884612a23565b81016020851015612b57578190505b612b6b612b6385612a23565b830182612b0a565b50505b505050565b600082821c905092915050565b6000612b9160001984600802612b73565b1980831691505092915050565b6000612baa8383612b80565b9150826002028217905092915050565b612bc382611c61565b67ffffffffffffffff811115612bdc57612bdb611f5e565b5b612be68254612265565b612bf1828285612b2d565b600060209050601f831160018114612c245760008415612c12578287015190505b612c1c8582612b9e565b865550612c84565b601f198416612c3286612a0e565b60005b82811015612c5a57848901518255600182019150602085019450602081019050612c35565b86831015612c775784890151612c73601f891682612b80565b8355505b6001600288020188555050505b505050505050565b600081519050919050565b600082825260208201905092915050565b6000612cb382612c8c565b612cbd8185612c97565b9350612ccd818560208601611c7d565b612cd681611ca7565b840191505092915050565b6000608082019050612cf66000830187611da8565b612d036020830186611da8565b612d106040830185611e3e565b8181036060830152612d228184612ca8565b905095945050505050565b600081519050612d3c81611bd2565b92915050565b600060208284031215612d5857612d57611b9c565b5b6000612d6684828501612d2d565b91505092915050565b7f4e487b7100000000000000000000000000000000000000000000000000000000600052601260045260246000fdfea2646970667358221220d93c9198f0826bbad1533c4616c8fe8783d876544f1b844cb0f487ef575f602d64736f6c6343000813003360a06040523480156200001157600080fd5b5060405162002b5038038062002b508339818101604052810190620000379190620005c3565b670de0b6b3a7640000826200004d919062000664565b6040518060400160405280600781526020017f5a2d546f6b656e000000000000000000000000000000000000000000000000008152506040518060400160405280600381526020017f5a544b00000000000000000000000000000000000000000000000000000000008152508160039081620000ca91906200091f565b508060049081620000dc91906200091f565b5050506000811162000125576040517f08c379a00000000000000000000000000000000000000000000000000000000081526004016200011c9062000a67565b60405180910390fd5b80608081815250505033600560006101000a81548173ffffffffffffffffffffffffffffffffffffffff021916908373ffffffffffffffffffffffffffffffffffffffff160217905550670de0b6b3a76400008262000185919062000664565b600781905550620001d4600560009054906101000a900473ffffffffffffffffffffffffffffffffffffffff16670de0b6b3a764000085620001c8919062000664565b6200020160201b60201c565b670de0b6b3a764000084620001ea919062000664565b600681905550806008819055505050505062000bd6565b620002116200028860201b60201c565b81620002226200029260201b60201c565b6200022e919062000a89565b111562000272576040517f08c379a0000000000000000000000000000000000000000000000000000000008152600401620002699062000b14565b60405180910390fd5b6200028482826200029c60201b60201c565b5050565b6000608051905090565b6000600254905090565b620002ac6200028860201b60201c565b81620002bd6200029260201b60201c565b620002c9919062000a89565b11156200030d576040517f08c379a0000000000000000000000000000000000000000000000000000000008152600401620003049062000b14565b60405180910390fd5b6200031f82826200032360201b60201c565b5050565b600073ffffffffffffffffffffffffffffffffffffffff168273ffffffffffffffffffffffffffffffffffffffff160362000395576040517f08c379a00000000000000000000000000000000000000000000000000000000081526004016200038c9062000b86565b60405180910390fd5b620003a9600083836200049060201b60201c565b8060026000828254620003bd919062000a89565b92505081905550806000808473ffffffffffffffffffffffffffffffffffffffff1673ffffffffffffffffffffffffffffffffffffffff168152602001908152602001600020600082825401925050819055508173ffffffffffffffffffffffffffffffffffffffff16600073ffffffffffffffffffffffffffffffffffffffff167fddf252ad1be2c89b69c2b068fc378daa952ba7f163c4a11628f55a4df523b3ef8360405162000470919062000bb9565b60405180910390a36200048c600083836200056360201b60201c565b5050565b600073ffffffffffffffffffffffffffffffffffffffff168373ffffffffffffffffffffffffffffffffffffffff1614158015620004fa57504173ffffffffffffffffffffffffffffffffffffffff168273ffffffffffffffffffffffffffffffffffffffff1614155b8015620005345750600073ffffffffffffffffffffffffffffffffffffffff164173ffffffffffffffffffffffffffffffffffffffff1614155b156200054b576200054a6200056860201b60201c565b5b6200055e8383836200057e60201b60201c565b505050565b505050565b6200057c416006546200020160201b60201c565b565b505050565b600080fd5b6000819050919050565b6200059d8162000588565b8114620005a957600080fd5b50565b600081519050620005bd8162000592565b92915050565b60008060008060808587031215620005e057620005df62000583565b5b6000620005f087828801620005ac565b94505060206200060387828801620005ac565b93505060406200061687828801620005ac565b92505060606200062987828801620005ac565b91505092959194509250565b7f4e487b7100000000000000000000000000000000000000000000000000000000600052601160045260246000fd5b6000620006718262000588565b91506200067e8362000588565b92508282026200068e8162000588565b91508282048414831517620006a857620006a762000635565b5b5092915050565b600081519050919050565b7f4e487b7100000000000000000000000000000000000000000000000000000000600052604160045260246000fd5b7f4e487b7100000000000000000000000000000000000000000000000000000000600052602260045260246000fd5b600060028204905060018216806200073157607f821691505b602082108103620007475762000746620006e9565b5b50919050565b60008190508160005260206000209050919050565b60006020601f8301049050919050565b600082821b905092915050565b600060088302620007b17fffffffffffffffffffffffffffffffffffffffffffffffffffffffffffffffff8262000772565b620007bd868362000772565b95508019841693508086168417925050509392505050565b6000819050919050565b600062000800620007fa620007f48462000588565b620007d5565b62000588565b9050919050565b6000819050919050565b6200081c83620007df565b620008346200082b8262000807565b8484546200077f565b825550505050565b600090565b6200084b6200083c565b6200085881848462000811565b505050565b5b8181101562000880576200087460008262000841565b6001810190506200085e565b5050565b601f821115620008cf5762000899816200074d565b620008a48462000762565b81016020851015620008b4578190505b620008cc620008c38562000762565b8301826200085d565b50505b505050565b600082821c905092915050565b6000620008f460001984600802620008d4565b1980831691505092915050565b60006200090f8383620008e1565b9150826002028217905092915050565b6200092a82620006af565b67ffffffffffffffff811115620009465762000945620006ba565b5b62000952825462000718565b6200095f82828562000884565b600060209050601f83116001811462000997576000841562000982578287015190505b6200098e858262000901565b865550620009fe565b601f198416620009a7866200074d565b60005b82811015620009d157848901518255600182019150602085019450602081019050620009aa565b86831015620009f15784890151620009ed601f891682620008e1565b8355505b6001600288020188555050505b505050505050565b600082825260208201905092915050565b7f45524332304361707065643a2063617020697320300000000000000000000000600082015250565b600062000a4f60158362000a06565b915062000a5c8262000a17565b602082019050919050565b6000602082019050818103600083015262000a828162000a40565b9050919050565b600062000a968262000588565b915062000aa38362000588565b925082820190508082111562000abe5762000abd62000635565b5b92915050565b7f45524332304361707065643a2063617020657863656564656400000000000000600082015250565b600062000afc60198362000a06565b915062000b098262000ac4565b602082019050919050565b6000602082019050818103600083015262000b2f8162000aed565b9050919050565b7f45524332303a206d696e7420746f20746865207a65726f206164647265737300600082015250565b600062000b6e601f8362000a06565b915062000b7b8262000b36565b602082019050919050565b6000602082019050818103600083015262000ba18162000b5f565b9050919050565b62000bb38162000588565b82525050565b600060208201905062000bd0600083018462000ba8565b92915050565b608051611f5e62000bf260003960006108010152611f5e6000f3fe6080604052600436106101355760003560e01c806339509351116100ab5780638b6b8b921161006f5780638b6b8b92146104075780638da5cb5b1461043257806395d89b411461045d578063a457c2d714610488578063a9059cbb146104c5578063dd62ed3e1461050257610135565b8063395093511461033157806342966c681461036e57806370a0823114610397578063726683b2146103d457806379cc6790146103de57610135565b806323b872dd116100fd57806323b872dd146102215780632c4e722e1461025e5780632ccb1b3014610289578063313ce567146102b257806334fcf437146102dd578063355274ea1461030657610135565b806306fdde031461013a578063095ea7b3146101655780630ac168a1146101a257806318160ddd146101cd5780631a18e707146101f8575b600080fd5b34801561014657600080fd5b5061014f61053f565b60405161015c9190611502565b60405180910390f35b34801561017157600080fd5b5061018c600480360381019061018791906115bd565b6105d1565b6040516101999190611618565b60405180910390f35b3480156101ae57600080fd5b506101b76105f4565b6040516101c49190611642565b60405180910390f35b3480156101d957600080fd5b506101e26105fa565b6040516101ef9190611642565b60405180910390f35b34801561020457600080fd5b5061021f600480360381019061021a919061165d565b610604565b005b34801561022d57600080fd5b506102486004803603810190610243919061168a565b6106b1565b6040516102559190611618565b60405180910390f35b34801561026a57600080fd5b506102736106e0565b6040516102809190611642565b60405180910390f35b34801561029557600080fd5b506102b060048036038101906102ab91906115bd565b6106e6565b005b3480156102be57600080fd5b506102c761075a565b6040516102d491906116f9565b60405180910390f35b3480156102e957600080fd5b5061030460048036038101906102ff919061165d565b610763565b005b34801561031257600080fd5b5061031b6107fd565b6040516103289190611642565b60405180910390f35b34801561033d57600080fd5b50610358600480360381019061035391906115bd565b610825565b6040516103659190611618565b60405180910390f35b34801561037a57600080fd5b506103956004803603810190610390919061165d565b61085c565b005b3480156103a357600080fd5b506103be60048036038101906103b99190611714565b610870565b6040516103cb9190611642565b60405180910390f35b6103dc6108b8565b005b3480156103ea57600080fd5b50610405600480360381019061040091906115bd565b6108d1565b005b34801561041357600080fd5b5061041c6108f1565b6040516104299190611642565b60405180910390f35b34801561043e57600080fd5b506104476108f7565b6040516104549190611762565b60405180910390f35b34801561046957600080fd5b5061047261091d565b60405161047f9190611502565b60405180910390f35b34801561049457600080fd5b506104af60048036038101906104aa91906115bd565b6109af565b6040516104bc9190611618565b60405180910390f35b3480156104d157600080fd5b506104ec60048036038101906104e791906115bd565b610a26565b6040516104f99190611618565b60405180910390f35b34801561050e57600080fd5b506105296004803603810190610524919061177d565b610a49565b6040516105369190611642565b60405180910390f35b60606003805461054e906117ec565b80601f016020809104026020016040519081016040528092919081815260200182805461057a906117ec565b80156105c75780601f1061059c576101008083540402835291602001916105c7565b820191906000526020600020905b8154815290600101906020018083116105aa57829003601f168201915b5050505050905090565b6000806105dc610ad0565b90506105e9818585610ad8565b600191505092915050565b60065481565b6000600254905090565b600560009054906101000a900473ffffffffffffffffffffffffffffffffffffffff1673ffffffffffffffffffffffffffffffffffffffff163373ffffffffffffffffffffffffffffffffffffffff1614610694576040517f08c379a000000000000000000000000000000000000000000000000000000000815260040161068b9061188f565b60405180910390fd5b670de0b6b3a7640000816106a891906118de565b60068190555050565b6000806106bc610ad0565b90506106c9858285610ca1565b6106d4858585610d2d565b60019150509392505050565b60085481565b6106f1338383610d2d565b8173ffffffffffffffffffffffffffffffffffffffff163373ffffffffffffffffffffffffffffffffffffffff167fddf252ad1be2c89b69c2b068fc378daa952ba7f163c4a11628f55a4df523b3ef8360405161074e9190611642565b60405180910390a35050565b60006012905090565b600560009054906101000a900473ffffffffffffffffffffffffffffffffffffffff1673ffffffffffffffffffffffffffffffffffffffff163373ffffffffffffffffffffffffffffffffffffffff16146107f3576040517f08c379a00000000000000000000000000000000000000000000000000000000081526004016107ea9061188f565b60405180910390fd5b8060088190555050565b60007f0000000000000000000000000000000000000000000000000000000000000000905090565b600080610830610ad0565b90506108518185856108428589610a49565b61084c9190611920565b610ad8565b600191505092915050565b61086d610867610ad0565b82610fa3565b50565b60008060008373ffffffffffffffffffffffffffffffffffffffff1673ffffffffffffffffffffffffffffffffffffffff168152602001908152602001600020549050919050565b6108cf33600854346108ca91906118de565b611170565b565b6108e3826108dd610ad0565b83610ca1565b6108ed8282610fa3565b5050565b60075481565b600560009054906101000a900473ffffffffffffffffffffffffffffffffffffffff1681565b60606004805461092c906117ec565b80601f0160208091040260200160405190810160405280929190818152602001828054610958906117ec565b80156109a55780601f1061097a576101008083540402835291602001916109a5565b820191906000526020600020905b81548152906001019060200180831161098857829003601f168201915b5050505050905090565b6000806109ba610ad0565b905060006109c88286610a49565b905083811015610a0d576040517f08c379a0000000000000000000000000000000000000000000000000000000008152600401610a04906119c6565b60405180910390fd5b610a1a8286868403610ad8565b60019250505092915050565b600080610a31610ad0565b9050610a3e818585610d2d565b600191505092915050565b6000600160008473ffffffffffffffffffffffffffffffffffffffff1673ffffffffffffffffffffffffffffffffffffffff16815260200190815260200160002060008373ffffffffffffffffffffffffffffffffffffffff1673ffffffffffffffffffffffffffffffffffffffff16815260200190815260200160002054905092915050565b600033905090565b600073ffffffffffffffffffffffffffffffffffffffff168373ffffffffffffffffffffffffffffffffffffffff1603610b47576040517f08c379a0000000000000000000000000000000000000000000000000000000008152600401610b3e90611a58565b60405180910390fd5b600073ffffffffffffffffffffffffffffffffffffffff168273ffffffffffffffffffffffffffffffffffffffff1603610bb6576040517f08c379a0000000000000000000000000000000000000000000000000000000008152600401610bad90611aea565b60405180910390fd5b80600160008573ffffffffffffffffffffffffffffffffffffffff1673ffffffffffffffffffffffffffffffffffffffff16815260200190815260200160002060008473ffffffffffffffffffffffffffffffffffffffff1673ffffffffffffffffffffffffffffffffffffffff168152602001908152602001600020819055508173ffffffffffffffffffffffffffffffffffffffff168373ffffffffffffffffffffffffffffffffffffffff167f8c5be1e5ebec7d5bd14f71427d1e84f3dd0314c0f7b2291e5b200ac8c7c3b92583604051610c949190611642565b60405180910390a3505050565b6000610cad8484610a49565b90507fffffffffffffffffffffffffffffffffffffffffffffffffffffffffffffffff8114610d275781811015610d19576040517f08c379a0000000000000000000000000000000000000000000000000000000008152600401610d1090611b56565b60405180910390fd5b610d268484848403610ad8565b5b50505050565b600073ffffffffffffffffffffffffffffffffffffffff168373ffffffffffffffffffffffffffffffffffffffff1603610d9c576040517f08c379a0000000000000000000000000000000000000000000000000000000008152600401610d9390611be8565b60405180910390fd5b600073ffffffffffffffffffffffffffffffffffffffff168273ffffffffffffffffffffffffffffffffffffffff1603610e0b576040517f08c379a0000000000000000000000000000000000000000000000000000000008152600401610e0290611c7a565b60405180910390fd5b610e168383836111da565b60008060008573ffffffffffffffffffffffffffffffffffffffff1673ffffffffffffffffffffffffffffffffffffffff16815260200190815260200160002054905081811015610e9c576040517f08c379a0000000000000000000000000000000000000000000000000000000008152600401610e9390611d0c565b60405180910390fd5b8181036000808673ffffffffffffffffffffffffffffffffffffffff1673ffffffffffffffffffffffffffffffffffffffff16815260200190815260200160002081905550816000808573ffffffffffffffffffffffffffffffffffffffff1673ffffffffffffffffffffffffffffffffffffffff168152602001908152602001600020600082825401925050819055508273ffffffffffffffffffffffffffffffffffffffff168473ffffffffffffffffffffffffffffffffffffffff167fddf252ad1be2c89b69c2b068fc378daa952ba7f163c4a11628f55a4df523b3ef84604051610f8a9190611642565b60405180910390a3610f9d84848461129a565b50505050565b600073ffffffffffffffffffffffffffffffffffffffff168273ffffffffffffffffffffffffffffffffffffffff1603611012576040517f08c379a000000000000000000000000000000000000000000000000000000000815260040161100990611d9e565b60405180910390fd5b61101e826000836111da565b60008060008473ffffffffffffffffffffffffffffffffffffffff1673ffffffffffffffffffffffffffffffffffffffff168152602001908152602001600020549050818110156110a4576040517f08c379a000000000000000000000000000000000000000000000000000000000815260040161109b90611e30565b60405180910390fd5b8181036000808573ffffffffffffffffffffffffffffffffffffffff1673ffffffffffffffffffffffffffffffffffffffff1681526020019081526020016000208190555081600260008282540392505081905550600073ffffffffffffffffffffffffffffffffffffffff168373ffffffffffffffffffffffffffffffffffffffff167fddf252ad1be2c89b69c2b068fc378daa952ba7f163c4a11628f55a4df523b3ef846040516111579190611642565b60405180910390a361116b8360008461129a565b505050565b6111786107fd565b816111816105fa565b61118b9190611920565b11156111cc576040517f08c379a00000000000000000000000000000000000000000000000000000000081526004016111c390611e9c565b60405180910390fd5b6111d6828261129f565b5050565b600073ffffffffffffffffffffffffffffffffffffffff168373ffffffffffffffffffffffffffffffffffffffff161415801561124357504173ffffffffffffffffffffffffffffffffffffffff168273ffffffffffffffffffffffffffffffffffffffff1614155b801561127c5750600073ffffffffffffffffffffffffffffffffffffffff164173ffffffffffffffffffffffffffffffffffffffff1614155b1561128a57611289611309565b5b611295838383611317565b505050565b505050565b6112a76107fd565b816112b06105fa565b6112ba9190611920565b11156112fb576040517f08c379a00000000000000000000000000000000000000000000000000000000081526004016112f290611e9c565b60405180910390fd5b611305828261131c565b5050565b61131541600654611170565b565b505050565b600073ffffffffffffffffffffffffffffffffffffffff168273ffffffffffffffffffffffffffffffffffffffff160361138b576040517f08c379a000000000000000000000000000000000000000000000000000000000815260040161138290611f08565b60405180910390fd5b611397600083836111da565b80600260008282546113a99190611920565b92505081905550806000808473ffffffffffffffffffffffffffffffffffffffff1673ffffffffffffffffffffffffffffffffffffffff168152602001908152602001600020600082825401925050819055508173ffffffffffffffffffffffffffffffffffffffff16600073ffffffffffffffffffffffffffffffffffffffff167fddf252ad1be2c89b69c2b068fc378daa952ba7f163c4a11628f55a4df523b3ef8360405161145a9190611642565b60405180910390a361146e6000838361129a565b5050565b600081519050919050565b600082825260208201905092915050565b60005b838110156114ac578082015181840152602081019050611491565b60008484015250505050565b6000601f19601f8301169050919050565b60006114d482611472565b6114de818561147d565b93506114ee81856020860161148e565b6114f7816114b8565b840191505092915050565b6000602082019050818103600083015261151c81846114c9565b905092915050565b600080fd5b600073ffffffffffffffffffffffffffffffffffffffff82169050919050565b600061155482611529565b9050919050565b61156481611549565b811461156f57600080fd5b50565b6000813590506115818161155b565b92915050565b6000819050919050565b61159a81611587565b81146115a557600080fd5b50565b6000813590506115b781611591565b92915050565b600080604083850312156115d4576115d3611524565b5b60006115e285828601611572565b92505060206115f3858286016115a8565b9150509250929050565b60008115159050919050565b611612816115fd565b82525050565b600060208201905061162d6000830184611609565b92915050565b61163c81611587565b82525050565b60006020820190506116576000830184611633565b92915050565b60006020828403121561167357611672611524565b5b6000611681848285016115a8565b91505092915050565b6000806000606084860312156116a3576116a2611524565b5b60006116b186828701611572565b93505060206116c286828701611572565b92505060406116d3868287016115a8565b9150509250925092565b600060ff82169050919050565b6116f3816116dd565b82525050565b600060208201905061170e60008301846116ea565b92915050565b60006020828403121561172a57611729611524565b5b600061173884828501611572565b91505092915050565b600061174c82611529565b9050919050565b61175c81611741565b82525050565b60006020820190506117776000830184611753565b92915050565b6000806040838503121561179457611793611524565b5b60006117a285828601611572565b92505060206117b385828601611572565b9150509250929050565b7f4e487b7100000000000000000000000000000000000000000000000000000000600052602260045260246000fd5b6000600282049050600182168061180457607f821691505b602082108103611817576118166117bd565b5b50919050565b7f4f6e6c7920746865206f776e65722063616e2063616c6c20746869732066756e60008201527f6374696f6e000000000000000000000000000000000000000000000000000000602082015250565b600061187960258361147d565b91506118848261181d565b604082019050919050565b600060208201905081810360008301526118a88161186c565b9050919050565b7f4e487b7100000000000000000000000000000000000000000000000000000000600052601160045260246000fd5b60006118e982611587565b91506118f483611587565b925082820261190281611587565b91508282048414831517611919576119186118af565b5b5092915050565b600061192b82611587565b915061193683611587565b925082820190508082111561194e5761194d6118af565b5b92915050565b7f45524332303a2064656372656173656420616c6c6f77616e63652062656c6f7760008201527f207a65726f000000000000000000000000000000000000000000000000000000602082015250565b60006119b060258361147d565b91506119bb82611954565b604082019050919050565b600060208201905081810360008301526119df816119a3565b9050919050565b7f45524332303a20617070726f76652066726f6d20746865207a65726f2061646460008201527f7265737300000000000000000000000000000000000000000000000000000000602082015250565b6000611a4260248361147d565b9150611a4d826119e6565b604082019050919050565b60006020820190508181036000830152611a7181611a35565b9050919050565b7f45524332303a20617070726f766520746f20746865207a65726f20616464726560008201527f7373000000000000000000000000000000000000000000000000000000000000602082015250565b6000611ad460228361147d565b9150611adf82611a78565b604082019050919050565b60006020820190508181036000830152611b0381611ac7565b9050919050565b7f45524332303a20696e73756666696369656e7420616c6c6f77616e6365000000600082015250565b6000611b40601d8361147d565b9150611b4b82611b0a565b602082019050919050565b60006020820190508181036000830152611b6f81611b33565b9050919050565b7f45524332303a207472616e736665722066726f6d20746865207a65726f20616460008201527f6472657373000000000000000000000000000000000000000000000000000000602082015250565b6000611bd260258361147d565b9150611bdd82611b76565b604082019050919050565b60006020820190508181036000830152611c0181611bc5565b9050919050565b7f45524332303a207472616e7366657220746f20746865207a65726f206164647260008201527f6573730000000000000000000000000000000000000000000000000000000000602082015250565b6000611c6460238361147d565b9150611c6f82611c08565b604082019050919050565b60006020820190508181036000830152611c9381611c57565b9050919050565b7f45524332303a207472616e7366657220616d6f756e742065786365656473206260008201527f616c616e63650000000000000000000000000000000000000000000000000000602082015250565b6000611cf660268361147d565b9150611d0182611c9a565b604082019050919050565b60006020820190508181036000830152611d2581611ce9565b9050919050565b7f45524332303a206275726e2066726f6d20746865207a65726f2061646472657360008201527f7300000000000000000000000000000000000000000000000000000000000000602082015250565b6000611d8860218361147d565b9150611d9382611d2c565b604082019050919050565b60006020820190508181036000830152611db781611d7b565b9050919050565b7f45524332303a206275726e20616d6f756e7420657863656564732062616c616e60008201527f6365000000000000000000000000000000000000000000000000000000000000602082015250565b6000611e1a60228361147d565b9150611e2582611dbe565b604082019050919050565b60006020820190508181036000830152611e4981611e0d565b9050919050565b7f45524332304361707065643a2063617020657863656564656400000000000000600082015250565b6000611e8660198361147d565b9150611e9182611e50565b602082019050919050565b60006020820190508181036000830152611eb581611e79565b9050919050565b7f45524332303a206d696e7420746f20746865207a65726f206164647265737300600082015250565b6000611ef2601f8361147d565b9150611efd82611ebc565b602082019050919050565b60006020820190508181036000830152611f2181611ee5565b905091905056fea264697066735822122047f43ad2ace3af00056e7baa924fc1f3a80cc244d2b0a5bf4a55fc8425d902e264736f6c63430008130033",
  "immutableReferences": {},
  "source": "// SPDX-License-Identifier: MIT\r\npragma solidity ^0.8.19;\r\nimport \"./NFT.sol\";\r\nimport \"./ZCoin.sol\";\r\n\r\n//This contract has instance of NFT and ZCoin contracts and he is the only one who should be deployed\r\ncontract ZWallet {\r\n  address payable public owner;\r\n  NFT public nftContract;\r\n  ZCoin public zCoinContract;\r\n  uint256 public mintingNFTCostWithETH;\r\n  uint256 public mintingNFTCostWithZTK;\r\n  event NFTMinted(\r\n    uint256 id,\r\n    address indexed nftOwner,\r\n    string indexed tokenURI,\r\n    bool forSale,\r\n    uint256 cost,\r\n    uint256 timestamp\r\n  );\r\n  event NFTSold(uint256 nftId, address seller, address buyer);\r\n  struct MintedNFTsStruct {\r\n    uint256 id;\r\n    address nftOwner;\r\n    string imageURI;\r\n    bool forSale;\r\n    uint256 cost;\r\n    uint256 timestamp;\r\n  }\r\n  MintedNFTsStruct[] public nfts;\r\n  modifier onlyOwner() {\r\n    require(msg.sender == owner, \"Only the owner can call this function\");\r\n    _;\r\n  }\r\n\r\n  constructor(\r\n    uint256 _zBlockReward,\r\n    uint256 _zInitialValue,\r\n    uint256 _zCappedAt,\r\n    uint256 _zRate,\r\n    uint256 _mintCostETH,\r\n    uint256 _mintCostZTK\r\n  ) {\r\n    owner = payable(msg.sender);\r\n    nftContract = new NFT(\"z-awesome-nfts\", \"z-nft\");\r\n    zCoinContract = new ZCoin(\r\n      _zBlockReward,\r\n      _zInitialValue,\r\n      _zCappedAt,\r\n      _zRate\r\n    );\r\n    mintingNFTCostWithETH = _mintCostETH;\r\n    mintingNFTCostWithZTK = _mintCostZTK;\r\n  }\r\n\r\n  //ZCoin buying function\r\n  function buyZCoin() public payable {\r\n    zCoinContract.buyWithEtherum{value: msg.value}();\r\n  }\r\n\r\n  //minting nft with Eth function\r\n  function mintNFTWithEth(\r\n    string memory _tokenURI,\r\n    bool _forSale,\r\n    uint256 _cost\r\n  ) public payable {\r\n    require(msg.value == mintingNFTCostWithETH, \"No enought Eths\");\r\n    nftContract.mint(_tokenURI);\r\n\r\n    nfts.push(\r\n      MintedNFTsStruct(\r\n        nftContract.totalSupply(),\r\n        msg.sender,\r\n        _tokenURI,\r\n        _forSale,\r\n        _cost,\r\n        block.timestamp\r\n      )\r\n    );\r\n    emit NFTMinted(\r\n      nftContract.totalSupply(),\r\n      msg.sender,\r\n      _tokenURI,\r\n      _forSale,\r\n      _cost,\r\n      block.timestamp\r\n    );\r\n  }\r\n\r\n  //minting nft with ZTK function\r\n  function mintNFTWithZTK(\r\n    string memory _tokenURI,\r\n    bool _forSale,\r\n    uint256 _cost\r\n  ) public {\r\n    require(\r\n      zCoinContract.balanceOf(msg.sender) >= mintingNFTCostWithZTK,\r\n      \"ZTK balance is not enought\"\r\n    );\r\n    zCoinContract.transferTo(owner, _cost);\r\n    nftContract.mint(_tokenURI);\r\n    nfts.push(\r\n      MintedNFTsStruct(\r\n        nftContract.totalSupply(),\r\n        msg.sender,\r\n        _tokenURI,\r\n        _forSale,\r\n        _cost,\r\n        block.timestamp\r\n      )\r\n    );\r\n    emit NFTMinted(\r\n      nftContract.totalSupply(),\r\n      msg.sender,\r\n      _tokenURI,\r\n      _forSale,\r\n      _cost,\r\n      block.timestamp\r\n    );\r\n  }\r\n\r\n  //buying nft function\r\n  function buyNFT(uint256 nftId) public {\r\n    for (uint256 i = 0; i < nfts.length; i++) {\r\n      if (nfts[i].id == nftId) {\r\n        require(\r\n          zCoinContract.balanceOf(msg.sender) >= nfts[i].cost,\r\n          \"No enought ZTK\"\r\n        );\r\n        require(nfts[i].forSale == true, \"This NFT is not for sale\");\r\n        zCoinContract.transferTo(nfts[i].nftOwner, nfts[i].cost);\r\n        nftContract.transferNFT(\r\n          nfts[i].nftOwner,\r\n          msg.sender,\r\n          nfts[i].id\r\n        );\r\n        address seller = nfts[i].nftOwner;\r\n        nfts[i].nftOwner = msg.sender;\r\n        emit NFTSold(nfts[i].id, seller, msg.sender);\r\n      }\r\n    }\r\n  }\r\n}\r\n",
  "sourcePath": "C:\\Users\\yousf\\Bureau\\ppp_project\\z-wallet\\contracts\\ZWallet.sol",
  "compiler": {
    "name": "solc",
    "version": "0.8.19+commit.7dd6d404.Emscripten.clang"
  },
  "schemaVersion": "3.4.13",
  "updatedAt": "2023-05-08T11:55:38.834Z",
  "devdoc": {
    "kind": "dev",
    "methods": {},
    "version": 1
  },
  "userdoc": {
    "kind": "user",
    "methods": {},
    "version": 1
  }
}